:020000040800F2
:100000007806002045010008872C000841260008DA
:10001000852C0008210E00083D3200080000000079
:100020000000000000000000000000002D2D00086E
:10003000A90E000800000000892C00082F2D0008E0
:100040005F0100085F0100085F0100085F01000810
:100050005F0100085F0100085F0100085F01000800
:100060005F0100085F0100085F0100085F010008F0
:100070005F0100085F0100085F0100085F010008E0
:100080005F0100085F0100085F0100085F010008D0
:100090005F0100085F0100085F0100085F010008C0
:1000A0005F0100085F0100085F0100085F010008B0
:1000B000C92D00085F0100085F0100085F0100080A
:1000C0005F0100085F0100085F0100085F01000890
:1000D0005F010008253200082D3200083532000883
:1000E0005F0100085F0100085F0100085F01000870
:1000F0005F0100085F0100085F0100085F01000860
:100100005F0100085F0100085F0100085F0100084F
:100110005F0100085F0100085F0100085F0100083F
:100120005F0100085F0100085F0100085F0100082F
:10013000DFF80CD000F03CFB0048004739340008E1
:10014000780600200648804706480047FEE7FEE79D
:10015000FEE7FEE7FEE7FEE7FEE7FEE7FEE7FEE777
:100160007D2D000831010008202A04DB203A21FA05
:1001700002F00021704721FA02F3D040C2F12002C0
:100180009140084319467047D2B201E000F8012BB4
:10019000491EFBD270470022F6E710B513460A4607
:1001A00004461946FFF7F0FF204610BD70B506461D
:1001B00003F060F9046805460A220021304600F089
:1001C0002BFA2C6070BD80EA010210B502F00043EA
:1001D000400022D04A001FD0010E01EB1261C0F393
:1001E0005600C2F3560240F4000042F40002A0FBA5
:1001F000022000047F39140400D0401C50EA124051
:1002000001D44000491EC2B20C0604EBD010401CC1
:100210004008802A02D003E0002010BD20F0010039
:10022000002900DA0020184310BD2DE9FE4F80465A
:1002300081EA0300C00F0C46009021F0004123F03A
:100240000045B8EB0200A94105D240462146904640
:100250001C460B46024623F00040104347D0270DB2
:10026000C7F30A00C3F30A510290401A01904028D4
:100270006BDAC3F3130040F4801B0098924620B160
:100280000023D2EB030A63EB0B0B01985946C0F134
:100290004002504600F04BF906460D46504659467E
:1002A000019A00F053F910EB08006141002487EA3D
:1002B000115284EAE7731A4340D0009A62B3019A5C
:1002C000012A4FEA075215DC001B61EB02014FF0D7
:1002D000004202EA0752CDE90042001C41F58011BC
:1002E00032462B4600F016FA03B0BDE8F08F4046C8
:1002F0002146F9E7001B61EB0201001C41F5801368
:1003000000185B412018A2F5001747EB030140EAF3
:10031000D570B6196D4111E06D084FEA360645EA11
:10032000C0754FEA0752001B61EB0201001C41F54A
:10033000801149084FEA30000019514132462B46DE
:1003400003B0BDE8F04F00F0D6B90098012240009C
:100350000023D0EB020263EBE073009821464FEAE2
:10036000E074B8EB000061EB0401E9E783F00043BF
:100370005BE781F0004158E72DE9FE4F81EA030475
:1003800004F0004421F0004100944FF0000B23F0F2
:10039000004350EA01045ED052EA03045BD0C3F389
:1003A0000A54C1F30A552C44A4F2F3340194A0FB7F
:1003B0000254C1F3130141F48011C3F3130343F456
:1003C000801301FB024400FB034E840A970A44EAAF
:1003D000815447EA8357A4FB076802958D0A05FB01
:1003E00007854FEA932C04FB0C542705029D4FEA26
:1003F000065847EA1637B5EB08056EEB070C870E73
:10040000920E47EA811742EA8312A7FB0201B6EB7C
:100410000B0164EB00042B0D43EA0C335E1844EB34
:100420001C50DA465146E7FB0201C5F313044FEABC
:100430000B3343EA14534FEA0432019C43EA0603A8
:10044000A4F10C040294009CCDE900B400F062F920
:1004500003B0BDE8F08F00200146F9E70EB540F289
:10046000334102910021CDE900110A460B4600F00C
:1004700051F903B000BD20F00040C10DC0F31600DB
:1004800040F400007F2901DA00207047962903DC40
:10049000C1F19601C8407047963988407047C1F352
:1004A0000A5210B5C1F3130140F2FF3341F4801139
:1004B0009A4201DA002010BD40F233439A42A2F280
:1004C000334203DC5242FFF74FFE10BD904010BD97
:1004D00000F0004230F000400AD0C10D01F560711B
:1004E000C0F3160042EA0151C208400711437047A9
:1004F00000200146704701F0004330B421F0004174
:1005000050EA010206D00A0DA2F56072C1F3130190
:10051000002A02DC30BC00207047440F44EAC104CA
:10052000C100E01830BC00EBC25000F0ADB8202A8A
:1005300004DB203A00FA02F1002070479140C2F13A
:10054000200320FA03F3194390407047202A06DB6A
:10055000CB17203A41FA02F043EAE07306E041FA91
:1005600002F3D040C2F1200291400843194670477F
:100570000FB40B0010B58AB00FA900910E994FF07F
:100580000004234ACC60214CCDE9064200D004236C
:100590006FF00042CDE901321E4A089202466B46D6
:1005A000002000F0B9F90AB010BC5DF814FBF0B5FA
:1005B00085B007464FF0FF300091CDE901011E469E
:1005C000002015460C4604903B466A46314604A876
:1005D000FFF7CEFF04990346601825B109B1024622
:1005E00000E022462A6000290ED0002B02DD00998F
:1005F000814209D00094001BCDE901043B466A46C4
:10060000314604A8FFF7B4FF05B0F0BD510B000858
:100610006F0B0008DD0700082DE9F04791460F46F3
:1006200080460446002614F8015B2DB100F0D2F894
:100630000068405DC007F6D12B2D02D02D2D18D0BB
:10064000641E4A463946204600F0A2FA27B13968AE
:10065000A14201D1C7F8008071054FF002040BD50B
:100660004042002803DD02F005FF0460A007BDE85A
:10067000F08746F48066E4E70028F8DA02F0FAFE34
:1006800004606FF00040F2E70029A8BF7047401CEB
:10069000490008BF20F00100704710B4B0FA80FC98
:1006A00000FA0CF050EA010404BF10BC704749B1D5
:1006B000CCF1200421FA04F411FA0CF118BF012145
:1006C00021430843A3EB0C01CB1D4FEA00614FEA25
:1006D000102042BF002010BC704700EBC3501044F4
:1006E0000029A4BF10BC7047401C490008BF20F07F
:1006F000010010BC704710B5141E73F1000408DA35
:10070000401C41F1000192185B411A4301D120F0D5
:10071000010010BD2DE9F04D92469B4611B1B1FA92
:1007200081F202E0B0FA80F220329046FFF7FFFE3D
:1007300004460F4640EA0A0041EA0B0153465A4676
:10074000084313D0114653EA010019D0C8F1400202
:100750005046FFF709FD05460E46504659464246AB
:10076000FFF7E5FE084305D0012004E020463946A6
:10077000BDE8F08D0020054346EAE0762C43374380
:100780000A986305E40AA0EB08000022FD0A44EA87
:1007900047540A3002D500200146E9E70105101947
:1007A0006941DDE9084500196941BDE8F04DA2E75E
:1007B000064C074D06E0E06840F0010394E80700AE
:1007C00098471034AC42F6D3FFF7B6FC8C3B0008D8
:1007D000AC3B0008004870477035000810B504466F
:1007E000FFF7F8FF0068005D00F0010010BD000099
:1007F0002DE9FF4F087883B09946FF2805D0491CA2
:100800002D2804D00024002008E000200BE0012463
:10081000F9E700EB800003EB4000491C0B78FF2B4D
:10082000F7D104B1404200230293147819461D46C3
:100830002D2C01D02B2C04D1521C2D2C13D0002494
:100840000294AA461478FF2C0FD00A25A3FB057842
:1008500001FB05814FF0000C03FB0C11521CE31946
:100860004AEB0101EEE70124EAE7814453EA010083
:1008700002D019F5C87F06DA03980021C0E90011FB
:1008800007B0BDE8F08F0025AE4E2F46DFF8B882E6
:10089000184600F049FACDE90001B9F1000002DA8A
:1008A000C9F1000400E004460023A74A1AEB030B39
:1008B00042EB045A12E0E00707D02A463346384696
:1008C0004146FFF759FD074688462A4633461046FB
:1008D0001946FFF751FD05460E466410002CEAD17B
:1008E000DDE90001B9F1000F5A46534606DA00F07F
:1008F000ACF93A46434600F0A8F905E0FFF73CFDA5
:100900003A464346FFF738FD029A0AB181F00041AA
:10091000039AC2E90001B3E72DE9FF4F1F468DB0EE
:10092000D7E901464FF0FF382E2045464FF0000929
:100930000B90B9696D1C0E988847396A82468847C2
:100940000028F6D1BAF1FF3F0AD024F4D064002E7B
:1009500011DDBAF12B0F08D0BAF12D0F0BD102E047
:10096000404611B08DE744F48064B9696D1C0E985F
:1009700088478246761E6946600501D52D2000E035
:100980002B208DF8000001F1010B0DF1200809E08A
:10099000B9696D1C0E98884782460F9844F400741C
:1009A000761E0560002E02DDBAF1300FF0D00B99F3
:1009B0008A453ED144F0800406E00F99681CA9F1F5
:1009C000010944F400740860B9696D1C761E0E9824
:1009D000884782463028F0D02BE00B998A4505D114
:1009E000200603D444F08004761E18E0504602F03E
:1009F00061FD08B30DF11302761EAAF1300044F434
:100A00000074934506D20BF8010B200607D5A9F117
:100A1000010003E0200602D409F101008146A0058F
:100A200002D50F99681C0860B9696D1C0E9888473B
:100A30008246002ED1DC53E0002E51DDBAF1650F65
:100A400002D0BAF1450F4BD1A00549D5B9696D1C4B
:100A500024F44074761E0E9888478246002E0CDDE2
:100A60002B2804D0BAF12D0F07D144F48074B96952
:100A70006D1C0E9888478246761EE00501D52D2113
:100A800000E02B2108F8011BCDF82C8021E00DF1AE
:100A90002901761E44F4007488450CD2AAF1300076
:100AA00010F0FF0088F8000002D10B99884509D9A1
:100AB00008F1010806E0E00501D5244801E042F212
:100AC0000F708146B9696D1C0E98884782460F9851
:100AD0000560002E04DD504602F0ECFC0028D6D163
:100AE000F9690E988847FF208BF8000088F800000D
:100AF0000020069007904B466A4608A906A8FFF713
:100B000077FEA00502D46FF001002AE714F0240F4D
:100B10000AD0E00714D1DDE906123868031D3B60F6
:100B20000068C0E900120BE0DDE90601FFF7E3FC15
:100B30000146E00704D13868021D3A600068016090
:100B400028460EE7000014400000F03FF1D8FFFFF8
:100B5000426842B1016811F8013B23B1521EC0E95D
:100B60000012184670470121C160881E7047426814
:100B70005AB1C368016843B983688B4205D0491EE6
:100B8000521CC0E90012002070474FF0FF30704740
:100B90002DE9F05F82460078002715468B460AF162
:100BA0000104B946302801D09DB113E014F8010BBF
:100BB0000127782803D0582801D045B10AE00DB1AB
:100BC000102D07D10027102514F8010B02E008258D
:100BD00000E00A250026B0460EE005FB080005FBF4
:100BE00006F1012701EB10461FFA80F8B6F5803FA9
:100BF00000D3B94614F8010B294600F018F8002874
:100C0000EBDABBF1000F05D00FB1641E00E05446D3
:100C1000CBF80040B9F1000F06D002F02BFC022106
:100C20000160C81EBDE8F09F48EA0640FAE73A288E
:100C300000D2303820F02002412A01D3A2F137003F
:100C4000884201D34FF0FF3070472DE9F04D81EA23
:100C5000030404F0004B21F0004514464FF0000A55
:100C600023F0004150EA050220D054EA01021DD0D1
:100C7000C5F30A570246C5F31303C1F31300C1F3CA
:100C80000A5640F4801543F48013A7EB0608101BA6
:100C9000D64608F2FD3873EB050002D308F10108CF
:100CA00001E092185B41B8F1000F03DA0020014621
:100CB000BDE8F08D00204FF48011064684460EE01A
:100CC000171B73EB050705D3121B63EB05030643E4
:100CD0004CEA010C49084FEA300092185B4150EA97
:100CE0000107EDD152EA030012D082EA040083EA40
:100CF0000501084305D0101BAB4106D20122002399
:100D000006E000224FF0004302E06FF001025310B2
:100D10001AEB06004CEB085110EB0A0041EB0B01FB
:100D2000BDE8F04DFFF7E7BC0EB540F2334202924A
:100D30000022CDE900221346FFF7ECFC03B000BD12
:100D40002DE9FC470026DFF858910196D9F80400F8
:100D500008B1BDE8FC87504F4FF4C8714FF4FA72E8
:100D6000387801F02DFD40F6B83000F085F94B4C95
:100D7000264DDFF8A8804FF0010A266021E099F89F
:100D800000004FF44871642201F01AFD386818B968
:100D9000282000F071F9266000F0EEF8B0F5937F9E
:100DA0000FDD00F0E9F8B0F5987F0ADC404600213D
:100DB0002660C5F800A03E6001F09CF9404600F0B6
:100DC00076FF28680028DAD04FF4FA6000F054F972
:100DD0000F480068FFF77CFB0E4B4FF03332FFF7F4
:100DE00024FAFFF788FB01900B490198FFF7EBF914
:100DF000FFF741FB00F05AF82A484FF4806100F0F9
:100E00001FFA0120C9F80400BDE8FC877002002029
:100E10001C0000203333D3BF0000C842F000002084
:100E2000FEE7000082B001F00CFC1A480190019826
:100E3000FFF721FB3949184D184E194C00274FF088
:100E400001080968486317488146286818B9642072
:100E500000F012F9376020784FF44871642201F0F5
:100E6000AFFCA0680028F0D100F086F8B0F5917FC3
:100E7000EBDD00F081F8B0F59B7FE6DC48464FF4EF
:100E8000806100F0DDF941F2FE0000F04BF8C4F89B
:100E90000880DAE70000C444480000204400002035
:100EA000340000200018014070470000E0B5002128
:100EB000C828ADF8061098BFC820B0F5967F28BFA7
:100EC0004FF49670FFF7CAFA104A114BFFF754FA25
:100ED000104B4FF06632FFF7A8F90F4B4FF033324B
:100EE000FFF74AFAFFF7DBFAADF806000B48006897
:100EF000BDF8061041634FF47A7000F0BDF841F27E
:100F0000FE00BDE88C4000F00DB800BFF9A067B34B
:100F1000EAB315C066CFA4403333F33FB0000020DE
:100F20007047000070B5124D0446284600F0A8FE38
:100F3000284600F01CFE284600F080FE4CF250309F
:100F4000844288BF70BD28680A4E00210022416299
:100F50003046022100F07BF92868416AA142FCD3A7
:100F6000304602210122BDE8704000F070B900BF98
:100F700070010020000C01400148B0F906007047E4
:100F80001000002090F82110022919D10268116880
:100F900021F00E011160116821F0010111602B494F
:100FA00001F17C039A420FD9304B9A4224D0304B46
:100FB0009A4223D02F4B9A4222D14FF4807327E0DC
:100FC0000421816301207047214B9A4226D0214B96
:100FD0009A4225D0204B9A4224D0204B9A4224D0CA
:100FE0001F4B9A4217D01F4B9A4221D01E4B9A4258
:100FF00011D14FF080721DE0012309E0102307E0BA
:1010000001F5886C4FF48033624508BF4FF480537C
:10101000C1F800340FE04FF480320BE0012209E008
:10102000102207E04FF4807204E04FF4805201E098
:101030004FF480120A604FF480710184416B19B142
:1010400080B58847002080BD002070470400024022
:10105000080002401C0002403000024044000240F0
:10106000580002406C000240800002400804024028
:101070001C04024030040240B0B5044600F0ECF815
:1010800005469248611C007818BF044400F0E4F85B
:10109000401BA042FAD3B0BD2DE9FC4F81465D480C
:1010A00006234FF001084FF00F0E4FF0000A814564
:1010B000594808BF052348444FEAB022052A38BFE3
:1010C0004FEAB0230093002200230C6834FA02F5A3
:1010D00008BFBDE8FC8F08FA02F73C4200F096809A
:1010E0004D68032D16D9112D26D0122D28D04D482C
:1010F000854213D04C48854210D04C4885420DD0D3
:101100004B4885420AD04B48854207D04A48854221
:1011100004D022E0DFE805F002181B1F8C6844B100
:10112000012C14BFC9F81470C9F810704FF0080AE8
:1011300013E04FF0040A10E0CC6804F1040A0CE05C
:10114000CC6804F10C0A08E0D1F80CA005E0CC68EA
:1011500004F1080A01E04FF0000A1C464846082A3C
:1011600028BF203C28BF043006680EFA04F50AFAAE
:1011700004F426EA05052C430460C879C00645D569
:101180006148264E22F0030504460068B346354404
:1011900040F001002060206800F00100019003F0A1
:1011A0000C00019E0EFA00F4244EB446AE5926EA15
:1011B0000404009E06FA00F0204345F80C004D6838
:1011C000E803DBF8000054BF20EA070440EA070404
:1011D000CBF80040A803DBF8040054BF20EA070462
:1011E00040EA0704CBF80440E802DBF8080054BFEB
:1011F00020EA070440EA0704CBF80840A8020848A0
:101200000446006854BFB8433843206004330132B9
:101210005BE700BF001C014000F8FEBF0004014076
:101220000C040140000011100000121000002110F9
:1012300000002210000031100000321008FCFFFFF7
:10124000C26814230A4208BF1023C1507047002A05
:1012500008BF09040161704705480068704700BF76
:101260001A48034900780A6810440860704700BFB4
:101270007402002080B59048016841F010010160BF
:10128000032000F071F8002000F004F800F020F8CE
:10129000002080BD70B50D4E04464FF47A71307851
:1012A000B1FBF0F091490968B1FBF0F000F000FCEF
:1012B00001250F2C08D838B94FF0FF302146002205
:1012C000002500F033F87460284670BD040000204B
:1012D00082B00D480222016841F0010101600168FD
:1012E00001F0010101910199416841F08051416093
:1012F000406800F08050009000980448016862F354
:101300001A61016002B070471810024004000140E9
:10131000002808DB00F01F010122400902FA01F158
:10132000014A42F82010704700E100E080B5144BFC
:101330001B68C3F3022CBCF1030E8CF007034FF0C3
:10134000FF3C38BF4FF0000E042B28BF04230CFADB
:1013500003F399430CFA0EF301FA0EF19A43114389
:10136000BDE8804002F056B805494FF6FF030A6811
:101370001A4060F30A22034810430860704700BF18
:101380000CED00E00000FA052DE9F843002800F01C
:101390008E80884648490446086800F007004045AA
:1013A0000AD2086820F0070040EA080008600868D0
:1013B00000F0070040457AD120685C4B89468107E0
:1013C00011D5410742BF196841F4E0611960010776
:1013D00042BF196841F4605119601968A26821F090
:1013E000F00111431960C0072AD06068012804D1B8
:1013F00053F8041C890309D459E053F8041C02284B
:1014000002D1890102D452E0890750D519681D46DE
:1014100021F0030108431860FFF71EFF064641F262
:101420008837286861682B4600F00C00B0EB810F0C
:1014300006D0FFF711FF801BB842F2D9032037E036
:10144000D9F8000000F0070040450DD9D9F8000098
:1014500020F0070040EA0800C9F80000D9F80000B1
:1014600000F00700404522D12068410705D51968E2
:10147000E26821F4E06111431960000706D518689D
:10148000216920F4605040EAC10018601C4600F059
:1014900031F82168094AC1F30311515CC840F2498F
:1014A000086007480068FFF7F5FE002000E0012013
:1014B00001B0BDE8F08300BF002002407435000891
:1014C00008000020E8481949094A00680968C1F382
:1014D0000221515CC8407047E3481449044A00683F
:1014E0000968C1F3C221515CC84070470C0000205C
:1014F0008435000810B50D4C0D48226802F00C032D
:10150000082B18BF10BDC2F383430AA1CB5CD103E3
:1015100002D40D48584310BD21680AA25843C1F3B4
:101520004041515CB0FBF1F010BD00BF041002401F
:1015300000127A0002030405060708090A0B0C0DC5
:101540000E0F10100102000000093D002DE9FC41C2
:10155000002800F0408104460078C14EC0074AD000
:10156000706800F00C00042817D0706800F00C00C0
:10157000082802D17068C0030FD4606898B1B0F534
:10158000803F06D03168B0F5A02F21D141F48020F2
:101590003060306840F4803020E0306880032AD525
:1015A000606840BB17E1306820F4803030603068FC
:1015B00020F480203060FFF74FFE0546306880033E
:1015C00019D5FFF749FE411B03206429F6D903E131
:1015D00021F480303060306820F480203060FFF7E4
:1015E0003BFE05463068800305D4FFF735FE401BFF
:1015F0006428F7D9D1E0207880072BD5706810F0E7
:101600000C0F07D0706800F00C00082809D1706832
:10161000C00306D43068800715D52069012812D090
:10162000D9E021698F4800297CD001210160FFF7B2
:1016300013FE05463068800705D4FFF70DFE401BFA
:101640000228F7D9A9E03068616920F0F80040EA83
:10165000C1003060207800072ED5A06978B181489C
:101660000121C0F88014FFF7F7FD0546706A800776
:1016700015D4FFF7F1FD401B0228F7D98DE079481A
:101680000021C0F88014FFF7E7FD0546706A800767
:1016900012D5FFF7E1FD401B0228F7D97DE0724823
:1016A0004FF4FA510068B0FBF1F0019000BF0198CF
:1016B000411E00280191F9D12078400776D5F069C4
:1016C000C0000BD4F0694FF0010840F08050F06189
:1016D000F06900F080500090009801E04FF00008A1
:1016E000624F3868C0050FD4386840F480703860A5
:1016F000FFF7B2FD05463868C00505D4FFF7ACFD1D
:10170000401B6428F7D948E0E068D8B1012805D02B
:10171000316A05282DD141F004003062306A40F072
:1017200001002CE000210160FFF796FD05463068BE
:1017300080077FF58FAFFFF78FFD411B0320022944
:10174000F5D949E0306A20F001003062306A20F0BB
:1017500004003062FFF780FD054641F28837306AA9
:1017600080071CD5FFF778FD411B0320B942F6D94D
:1017700032E021F001003062306A20F00400306273
:10178000FFF76AFD054641F28837306A800706D4C4
:10179000FFF762FD401BB842F7D903201CE0B8F107
:1017A000000F1EBFF06920F08050F061E769002F44
:1017B00053D0706800F00C00082810D1012F0AD017
:1017C0007068216A00F480328A4204D1616A00F4B0
:1017D0007010884241D0012002B0BDE8F08121495B
:1017E000002088460866FFF737FD0546022F0AD11C
:1017F00047463068800110D5FFF72EFD411B0320BE
:101800000229F6D9E8E73068800126D5FFF724FDE4
:10181000411B03200229F6D9DEE7206AB0F5803F9C
:1018200005D17168A26821F40031114371607168BB
:10183000626A104321F47411084370600120386615
:10184000FFF70AFD04463068800106D4FFF704FD67
:10185000011B03200229F6D9BEE70020BCE700BF28
:1018600000100240000042420C00002000700040C6
:1018700070B5B8B3002605464FF0000C866290F8AC
:10188000510030B9284685F8506000F02FF8D5F89F
:1018900028C0022185F8511029680A6822F0400208
:1018A0000A60D5E90123D5E903041A4310436A69A4
:1018B00020431043AA6902F400731843EB691843EC
:1018C0002B6A184340EA0C000860042000EA12402A
:1018D0004860C86920F40060C86101206E6585F821
:1018E000510000E00126304670BD0000FEB5014603
:1018F0000020CDE90400CDE902001248096800F596
:10190000205291421BD110490A6842F480520A6069
:101910000A6802F480520192019A0A6842F00402B5
:101920000A60096801F00401019101990321059100
:1019300002210391A021029102A9FFF7ADFB06B09D
:1019400080BD00BF00080140181002402DE9F84397
:10195000044690F85000012801D10220A4E04FF085
:1019600001091D4616460F4684F85090FFF774FC97
:10197000804694F85100012854D10120002F00F036
:101980008E80002E00F08B800320731E84F851009F
:101990000020B3FA83F36065E686A6862763A087F6
:1019A000A063C4E91000E0875B09A1682068B1F575
:1019B000004F02BF016841F480410160016849069F
:1019C0005EBF016841F0400101606168E268B1FA00
:1019D00081F1B2F5006F4FEA511141EA030123D1C1
:1019E00031B137F8021BC1602763E08E0138E08611
:1019F0006E1C13E020688168890707D4FFF72CFC70
:101A000066B1A0EB0800A84208D347E0216B31F88B
:101A1000022BC2602163E08E0138E086E08E002850
:101A2000E8D124E002203AE039B139780173206B23
:101A300001302063E08E0138E0866E1C14E02068DF
:101A40008168890707D4FFF707FC6EB1A0EB080097
:101A5000A84209D322E0216B09780173206B013081
:101A60002063E08E0138E086E08E0028E7D1204632
:101A70002946424601F009F908B120206065A068B6
:101A800038B9002000902068C168009180680090FB
:101A90000098606D002818BF012000E0032000219D
:101AA00084F8501084F8519001B0BDE8F083000034
:101AB000411E0020B0EB116F1CBF01207047044A8B
:101AC000F023516003490B7007219060116070474B
:101AD00010E000E023ED00E07047704790F83C20F4
:101AE000012A01D102211FE0B0B501F10805D1E9B9
:101AF00000CE3CCDC96923F47C5322F470521A43C2
:101B00002EF4F0431A432CF4E0431A4324F4C04368
:101B10001A432A4322F4804211430268516400218F
:101B200080F83C10BDE8B0400846704790F83C3063
:101B30000222012B19D080B580F83D20026853683D
:101B4000D2F808C023F0700ED1E9003143EA0E0349
:101B500053602CF08003194391600022012180F82A
:101B60003C2080F83D10BDE8804010467047B0B181
:101B700010B5044690F83D0028B9002084F83C00D8
:101B8000204600F00FF80220211D84F83D00206857
:101B900001F066F9012084F83D00002010BD01200D
:101BA00070470000E0B50068B0F1804F15D01F49C4
:101BB000884226D01E4988422CD01E49884218BF30
:101BC0008CBD1D4850F8041C41F4006140F8041C11
:101BD00050F8040C00F4006024E01748002201686B
:101BE00041F0010101600021006800F00100019056
:101BF00001981C20FFF79AFB1C20BDE88C40FFF7E2
:101C000087BB0D48016841F002010160006800F0E7
:101C1000020007E00848016841F00801016000681F
:101C200000F00800019001988CBD00BF0004004046
:101C3000000C0040002C01401C100240022180F8E2
:101C40003D1001688A6802F00702062A1EBF0A6872
:101C500042F001020A60012180F83D100020704727
:101C60000068C16841F00101C160816801F00701AD
:101C700006291EBF016841F0010101600020704784
:101C8000022141F2111380F83D1001680A6A1A42DC
:101C900008D10A6A40F244431A4203D10A6822F08A
:101CA00001020A60012180F83D10002070470068A1
:101CB00041F21112C16821F00101C160016A1142B3
:101CC00008D1016A40F24442114203D1016821F077
:101CD000010101600020704710B590F83C200446D7
:101CE0000220012A08BF10BD84F83D0001204FF6F4
:101CF000777284F83C00206884465CF8083F23EA49
:101D00000202CCF800200B682BB1102B03D0202B43
:101D100018BF302B0FD1DCF8000020F07000184302
:101D200040F00700CCF800000020012184F83C00BE
:101D300084F83D1010BD402B1AD0502B26D0602BBC
:101D400032D0B3F5005F3DD0702BEDD1D1E9010267
:101D5000C968104340EA0120DCF8001021F47F41FB
:101D60000843CCF80000DCF8000040F07700D9E729
:101D70004B68CA68194601F075F9D4F800C05CF8E0
:101D8000080F40F0470020F03000CBE74B68CA68EE
:101D9000194601F067F9D4F800C05CF8080F40F06C
:101DA000570020F02000BDE74B68CA68194601F0D3
:101DB0006AF9D4F800C05CF8080F40F0670020F022
:101DC0001000AFE7D1E90102C968104340EA0120E1
:101DD000DCF8001021F47F410843CCF80000DCF867
:101DE000000040F480409DE7704710B5044600684D
:101DF0000169890744BFC1685FEA817138D401690C
:101E0000490744BFC1685FEA41713DD401690907D0
:101E100044BFC1685FEA017143D40169C90644BF88
:101E2000C1685FEAC16148D40169C9071CBFC168C4
:101E30005FEAC1714ED10169090644BFC1685FEA1A
:101E400001614FD40169490644BFC1685FEA41613D
:101E500050D40169890646BFC1685FEA816110BD3F
:101E60006FF0200101612046BDE81040FFF735BE4C
:101E70006FF002010161012121778069800741D063
:101E80002046FFF7B1FF43E06FF00401016102213A
:101E90002177806910F4407F3ED02046FFF7A4FFF1
:101EA00040E06FF00801016104212177C0698007DB
:101EB0003CD02046FFF798FF3EE06FF01001016133
:101EC00008212177C06910F4407F39D02046FFF700
:101ED0008BFF3BE06FF001010161204600F03CF90F
:101EE0002068A8E76FF0800101612046FFF7F4FD4C
:101EF0002068A7E76FF040010161204600F062F919
:101F00002068A6E7204600F06BF8204600F0D4F8E1
:101F100000202077206872E7204600F061F8204614
:101F200000F0CAF80020207720686FE7204600F014
:101F300057F8204600F0C0F80020207720686CE7B2
:101F4000204600F04DF8204600F0B6F8002020773B
:101F5000206869E7FEB50021CDE90411CDE9021141
:101F60000068B0F1804F1ED07A4988422ED11848BF
:101F7000016841F04001016002A9006800F04000E2
:101F8000019001980220059003904FF40070029098
:101F9000104800F58050FFF77FF80F480F4A01689E
:101FA0001143016012E00A48016841F00401016038
:101FB00002A9006800F00400019001980220059039
:101FC0000390012002900348FFF766F806B080BD39
:101FD000181002400008014004000140C000000742
:101FE0007047000070B50D4690F83C100446022082
:101FF000012908BF70BD84F83D004FEAB2000126F8
:10200000032884F83C6036D8DFE800F0020A122288
:102010002068294600F06AFF206850F8181F0EE07B
:102020002068294600F090FF206850F8181F16E03D
:102030002068294600F0BAFF206850F81C1F41F0C4
:1020400008010160016821F00401016029690FE0C5
:102050002068294600F0DCFF206850F81C1F41F47E
:1020600000610160016821F4806101602969090251
:10207000026811430160002084F83C0084F83D6050
:1020800070BDB0B110B5044690F83D0028B90020ED
:1020900084F83C00204600F00EF80220211D84F850
:1020A0003D00206800F0DCFE012084F83D000020A7
:1020B00010BD0120704770477047000010B50446FE
:1020C0000068012200F002FF20682149884202D006
:1020D0002049884203D1416C41F400414164816848
:1020E00001F0070106291EBF016841F001010160EE
:1020F000002010BD10B504460068002200F0E6FE86
:1021000020681349884202D0124988420DD1016AE1
:1021100041F21112114208D1016A40F244421142C7
:1021200003D1416C21F400414164016A41F2111272
:10213000114208D1016A40F24442114203D10168C0
:1021400021F001010160012084F83D00002010BD54
:1021500000340140002C0140B0B51549884200D040
:10216000B0BD1549134C2068096801300029206072
:10217000F6D00028F4D0884218BFB0BD0C4800212A
:102180000025FFF7B7FF0D4805600D48016819B13C
:10219000012903D1002100E001210160002001217B
:1021A000C4E900010248BDE8B040FFF780BD00BFB0
:1021B000F0000020400000205000002048000020D7
:1021C000340000207047704710B5D0F800E0044696
:1021D000DEF80010DEF80C20DEF814305FEA017C37
:1021E00050D002F4907003F00103C01852D0C80719
:1021F0001FBF12F48070E06B40F00100E0634807FD
:1022000004D51BB1E06B40F00200E063880704D501
:102210001BB1E06B40F00400E063BCF1000F04D59B
:102220001BB1E06B40F00800E063E06B00286ED06B
:1022300002EA0100800604D5204600F048FFD4F8E9
:1022400000E0DEF81400E16B00F0400001F008014E
:1022500040184CD0204600F02DFF20684169490607
:1022600040D5416921F040014161606BD0B32F49F5
:102270004163FEF787FE002849D0606B416BBDE8E3
:102280001040084711408A0605D52046BDE8104099
:1022900000F01DBF114008060FD4480637D5DEF800
:1022A0000C0020F04000CEF80C00202084F839000B
:1022B0002046BDE8104000F0C2B994F8390021284A
:1022C00025D1A068216AB0F5805F16D108886FF328
:1022D0005F20CEF804002069002814BF481C881C29
:1022E00020620FE02046BDE81040FFF76CBF20469B
:1022F000FFF769FF0020E06310BD481C20620878EA
:10230000CEF80400E08C0138E084000400D010BD59
:10231000DEF80C0020F08000CEF80C00DEF80C0097
:1023200040F04000CEF80C0010BD00BFA9300008FE
:1023300050B310B5044690F8390028B9002084F84D
:102340003800204600F022F8242084F83900206864
:10235000C16821F40051C160204600F0F5FE2068FC
:10236000016921F490410161416921F02A01416133
:10237000C16841F40051C16000202021E06384F86D
:10238000391084F83A1010BD0120704770B586B03E
:1023900000267D49CDE90466CDE9026600688842E1
:1023A00037D04E49884262D04D49884240F09380F0
:1023B0004C48F44C02AD016841F480410160016871
:1023C00001F4804101910199016841F0040101602B
:1023D0002946006800F00400019001980320059050
:1023E000022003904FF4007002902046FEF754FE46
:1023F00000202946CDE903004FF48060029020467A
:10240000FEF74AFE252001210022FEF78FFF25203E
:102410005FE03448E94C02AD416841F4003141606D
:10242000416801F4003101910199016841F0040112
:1024300001602946006800F0040001900198032023
:10244000059002200390042002902046FEF724FE0F
:102450000820CDE90366294602902046FEF71CFEBF
:10246000262002210022FEF761FF262031E01D48D0
:1024700002AD416841F480214160416801F480214E
:1024800001910199016841F0080101602946006845
:1024900000F00800019001980320059002200390AD
:1024A0004FF480600290C54800F580642046FEF736
:1024B000F3FD00202946CDE903004FF400600290AF
:1024C0002046FEF7E9FD272003210022FEF72EFF1C
:1024D0002720FEF71DFF06B070BD00BF004800407A
:1024E0000038014018100240034690F83A002028B6
:1024F00006D10120E9B1E2B193F83800012801D1F9
:10250000022070470020DA85D8639A8599622221DB
:1025100083F8380083F83A101968CA6842F4807268
:10252000CA604A6942F001024A61CA6842F0200268
:10253000CA607047B0B5144D0446006805F5806167
:10254000884202D100F0C0FE206805F5744188423F
:1025500011D100F0FFFE0D48006801280BD1FEF7F5
:102560000BFDB0F5947F06DBFEF706FDB0F5967F18
:10257000B8BFFEF7E5FB2068A84218BFB0BDBDE8B4
:10258000B04000F0ADBE00BF004400405400002049
:102590002DE9F041044690F8390020280AD10E4672
:1025A0000120002949D01746002A46D094F8380067
:1025B000012802D10220BDE8F08100201D46E06321
:1025C000012084F83800212084F83900FEF744FE09
:1025D0008046E784A7841DE0E08C802142462B469C
:1025E0000138E0842046A76800F0F0FDB7F5805F71
:1025F0000BD1C8B9318820686FF35F214160206931
:10260000002814BF0136023604E068B9206816F8C5
:10261000011B4160E08C0028DED12046402142466B
:102620002B4600F0D3FD10B10320BDE8F08100205F
:10263000202184F8380084F83910BDE8F081704713
:10264000FEE710B500200021002400F067F802E04A
:1026500000F09AF801340020B4F5C06FF8D30021DF
:10266000BDE8104000F05AB8F8B5BA4CBA4F022194
:10267000002200252046B847204640210022B847C6
:102680001B4E3220B047204640210122B847204649
:1026900002210122B8473220B047164CE220A04761
:1026A0003220B0472F20A0473220B047A320A047B8
:1026B0008120A0478020A047EB20A047C420A0474E
:1026C0000020002100F02AF802E000F05DF801355A
:1026D0000020B5F5C06FF8D3002100F01FF8AF203F
:1026E00000F036F83220BDE8F840FEF7C5BC00BF68
:1026F000791000085127000810B5044600F00F00BB
:1027000000F026F820091030BDE8104000F020B895
:1027100040F0B00000F0BF0000F01AB810B5044659
:102720000846FFF7E9FF2046BDE81040FFF7F0BF7D
:10273000B0B50446002000210025FFF7EFFFB5F5F6
:10274000C06F08BFB0BD605D00F01EF80135F6E750
:10275000BCB5804C804D8DF8070002210022204638
:10276000A847204610210022A8478E480DF10701F6
:1027700001220A23FFF7EAF8204602210122A84796
:10278000BCBD00BF00080140BCB5724C724D8DF855
:102790000700022100222046A847204610210122DE
:1027A000A84780480DF1070101226423FFF7CEF806
:1027B000204602210122A847BCBD00BF00080140FD
:1027C00070B50F4E0D46012114460028716005D0EA
:1027D000012808D10B480121002202E0094801210B
:1027E0000122FEF734FD0849B560306809680843E6
:1027F00018BF70BD2046BDE8704000F0E9BA00BFC8
:102800004800002000180140440000202DE9F04F4E
:1028100085B04F484F4F504E0022016807F5006BBE
:1028200041F010010160016801F01001019101996E
:10283000016841F004010160016801F004010191A7
:102840000199016841F008010160016801F0080187
:1028500001910199016841F0400101600F21006878
:1028600000F04000019001985846B0473846422198
:102870000122B047384610210022B04707F5806892
:1028800040F2022101224046B04707F5805440F251
:10289000014101222046B0472046022100220225A4
:1028A000B04704954FF0000A01AD4FF001090F2029
:1028B0002A4ECDF80CA0CDF8089001905846294634
:1028C000B0470320294604904220CDE9029A0190A6
:1028D0003846B0470220294604901020CDE9029ADC
:1028E00001903846B047F020CDF80C90CDF808A004
:1028F00029464FF0010901905846B04703200227AE
:10290000294604904046CDE9029A0197B0474FF41A
:1029100080600497CDE9029A29460227019020465B
:10292000B0471120CDE903A72946002702904FF4B4
:10293000007001904046B04703202946CDE903705E
:10294000CDE901092046B04705B0BDE8F08F00BFD2
:1029500018100240000801404F12000899100008AA
:1029600010B5104800220A210F4C4FF0080C4FF40C
:10297000007E4FF48273C0E90822C0E90A214FF4B7
:102980000041C0E90043C0E90212C0E90422C0E9E5
:1029900006ECFEF76DFF002814BFBDE8104010BD27
:1029A000FEF7BEBA5800002000300140B0B596B026
:1029B00009AC00251C212046CDE91455CDE912555E
:1029C000CDE91055FDF7E7FB01A82021FDF7E3FB5A
:1029D00029482A4B472244F62061C0E90032C0E969
:1029E0000251C0E904558561FFF7C1F808B1FEF74F
:1029F00097FA4FF4805012A912901F48FFF76CF914
:102A000008B1FEF78DFA1C48FFF73BFB08B1FEF753
:102A100087FA002010A9CDE910001748FFF786F8C3
:102A200008B1FEF77DFA40F2AA5014210A90602006
:102A3000099004F10800FDF7AEFB0F482146002283
:102A40000025FFF7CFFA08B1FEF76AFA01AC1421AE
:102A50002046FDF7A0FB4FF4005008952146069054
:102A60000548FFF73BF808B1FEF75AFA0248FFF7AE
:102A700071FA16B0B0BD00BFB0000020002C0140BC
:102A800010B58EB0002401A81C21CDE90C44CDE97D
:102A90000A44CDE90844FDF77EFBEE4840F2E731F9
:102AA00047224FF080438461C0E90032C0E902410F
:102AB0000461FFF75CF808B1FEF732FA4FF480507A
:102AC0000AA90A90E348FFF707F908B1FEF728FAC8
:102AD000E048FFF7D6FA08B1FEF722FADD480024F5
:102AE00008A9CDE90844FFF721F808B1FEF718FA64
:102AF00060200594CDE9024401A900220190D54847
:102B0000FFF770FA08B1FEF70BFAD248FFF722FA86
:102B10000EB010BD10B586B01648E94C00214FF438
:102B20007A724723CDE90411CDE902118161C0E930
:102B30000043C0E902120161CDE90011FFF717F867
:102B400008B1FEF7EDF94FF4805002A90290094850
:102B5000FFF7C2F808B1FEF7E3F900206946CDE9B6
:102B600000000448FEF7E2FF08B1FEF7D9F906B00D
:102B700010BD00BF3001002010B586B01648D24C01
:102B800000214FF6FF724723CDE90411CDE9021170
:102B90008161C0E90043C0E902120161CDE9001181
:102BA000FEF7E5FF08B1FEF7BBF94FF4805002A92C
:102BB00002900948FFF790F808B1FEF7B1F900203C
:102BC0006946CDE900000448FEF7B0FF08B1FEF702
:102BD000A7F906B010BD00BF7001002010B50B486A
:102BE0000B4C4FF4E13300210C22C0E90043C0E953
:102BF0000211C0E90412C0E90611FFF799FB002891
:102C000014BFBDE8104010BDFEF78AB9B001002026
:102C10000038014010B50B480B4C4FF4E133002154
:102C20000C22C0E90043C0E90211C0E90412C0E966
:102C30000611FFF77DFB002814BFBDE8104010BD52
:102C4000FEF76EB9F00100200044004010B50B48BB
:102C50000B4C4FF4E13300210C22C0E90043C0E9E2
:102C60000211C0E90412C0E90611FFF761FB002858
:102C700014BFBDE8104010BDFEF752B9300200206D
:102C800000480040FEE77047704710B513460A46FB
:102C90008021044600F00AF800280FBF0020606D74
:102CA00040F02000606518BF032010BD2DE9F04101
:102CB000984616460F460446551C206880683840E2
:102CC000B8421CBF0020BDE8F081002DF5D0FEF712
:102CD000C3FAA0EB0800B042EFD32068416821F0AE
:102CE000E00141606168B1F5827F0AD1A168B1F568
:102CF000004F02D0B1F5806F03D1016821F040018F
:102D00000160A16AB1F5005F07D1016821F40051AB
:102D10000160016841F400510160002084F8500016
:102D2000012084F851000320BDE8F0817047FEF7D0
:102D300097BAB0B590B000244FF4E01002250121FD
:102D4000CDE90B44CDE909440F904FF480300E904B
:102D50000D950A910894CDE9061006A8FEF7F6FB3A
:102D60004FF480600594022104900F20CDE90254B5
:102D7000019001A8FEF708FB10B0B0BD0E480F4A45
:102D8000016841F001010160416811400C4A416055
:102D9000016811400160016821F4802101604168EF
:102DA00021F4FE0141604FF41F01816005484FF09E
:102DB00000610160704700BF001002400000FFF892
:102DC000FFFFF6FE08ED00E02248FFF70EB800BF57
:102DD000B0B504461E48416811B3012936D1012C13
:102DE00020D901211D4D01601B484FF6FF71B0FB3A
:102DF000F4F04418286820B916480021FFF75EF95E
:102E000028681449A2B200280968CA624FEA52022F
:102E10004A6318BFB0BD0F48BDE8B040FEF720BF01
:102E2000012C05D80B480021BDE8B040FFF762B97E
:102E3000084D00212846FFF741F907482968B0FBF3
:102E4000F4F0013880B2C86240084863B0BD00BFEA
:102E500048000020F000002040420F004400002005
:102E60000268B0F1804F0ED0154B98420BD0154B35
:102E7000984208D0144B984205D0784B984202D023
:102E8000774B984208D14B6822F45C7CCA6823F4E3
:102E9000407343EA0C031A434B6922F080021A4341
:102EA00002608A68C2620A6882626C4A904202D0FA
:102EB0006B4A904201D10969016301214161704768
:102EC0000004004000080040000C004001F01F0119
:102ED000012303FA01FC036A02FA01F123EA0C035D
:102EE0000362026A114301627047000070B5026A12
:102EF00022F001020262026AD0F804E0D0F818C0A1
:102F00008C680B6822F0020222432CF0730444EA1E
:102F1000030C524B984202D0514B98420CD1CE68D0
:102F2000D1E905452EF4407322F00C02234343EA15
:102F3000050E26F004031A43C0F804E0C0F818C0D8
:102F400049684163026270BD70B5026A22F01002E6
:102F50000262026AD0F804E0D0F818C08C680B68EE
:102F600022F0200242EA04122CF4E64444EA032C44
:102F70003A4B984202D03A4B98420FD1CE68D1E9F1
:102F800005452EF4406322F0C00243EA840343EA7D
:102F9000850E6FF0400303EA06131A43C0F804E0FD
:102FA000C0F818C049688163026270BD70B5026ADA
:102FB00022F480720262026AD0F804E0D0F81CC0E9
:102FC0008C680B6822F4007242EA04222CF073042D
:102FD00044EA030C214B984202D0214B98420FD176
:102FE000CE68D1E905452EF4405322F4406243EA0D
:102FF000041340F2FF4443EA051E3302A3431A437D
:10300000C0F804E0C0F81CC04968C163026270BD2A
:10301000B0B5026A22F480520262026AD0F804E07B
:10302000C5698B680C6822F4005242EA033C0B4BE2
:1030300025F4E64242EA0422984202D0084B984224
:1030400004D14B692EF4804545EA831EC0F804E0A4
:10305000C26149680164C0F820C0B0BD00340140BD
:10306000002C0140D0F820C0036A23F00103036262
:10307000836923F0F00343EA021282612CF00A0212
:10308000114301627047036A23F0100303628369EE
:1030900023F4704343EA0232036A826123F0A00200
:1030A00042EA011101627047406A0021C185C18472
:1030B000FFF789B80168CA6822F49072CA604A6949
:1030C00022F001024A61202180F83A10704790F8FE
:1030D0003A10222918BF70478168B1F5805F08D186
:1030E00002680369816A526883B1D2B221F8012B68
:1030F00010E0026901684968002A826A02F101034E
:10310000836218BF01F07F01117004E06FF35F224A
:1031100021F8022B8162C18D0139C185090400D0DB
:1031200070470168CA6822F02002CA60CA6822F4A7
:103130008072CA604A6922F001024A61202180F847
:103140003A10FFF7F7B9000010B5044600680169AE
:10315000E26821F44051114341F20C620161D4F85C
:1031600008C0D4E904E3C16891434EEA0C021A4353
:103170001143C1604169A26921F440711143416169
:103180001149884202D0FEF79DF901E0FEF7A4F94B
:1031900019214843D4E900126FF063049200B0FB98
:1031A000F2F06422B0FBF2F303FB0400322404EBE0
:1031B0000010B0FBF2F000F0F00200F00F0002EBA4
:1031C00003121044886010BD003801402DE9F04121
:1031D0001D4690460F4604465E1C20680168394033
:1031E000B94204BF0020BDE8F081002EF5D035B112
:1031F000FEF732F8A0EB0800A842EED92068C168BB
:1032000021F4D071C160416921F0010141612020A8
:10321000002184F8390084F8381084F83A0003203B
:10322000BDE8F0817A48FEF7CFBF00BF4748FEF700
:10323000CBBF00BF2948FEF7C7BF00BFFEE70000B5
:1032400072480122811C2548FFF74EB910B54FF492
:103250007A70FDF711FF074C07A10822642320466E
:10326000FFF796F969480122C11C2046BDE81040CD
:10327000FFF73AB9F0010020694641434D0D0A00BD
:103280006248072200F110016148FFF72DB900BF25
:10329000FFF7F6FFFFF7D4FFFFF7D8FF084800213C
:1032A000FEF70CFFFFF7E0F90648FFF741FA40F69A
:1032B000B830FDF7E1FEFFF7C4F9FDF7B3FDFCE719
:1032C000B00000208C3500085048014611F8022F4C
:1032D000027002480122FFF707B900BF3002002048
:1032E000BCB54A4C2179E078621801310A28107681
:1032F00021714FF00001ADF80410009120D1207E23
:10330000452807D112490020C4E906002062E16087
:10331000207115E0002584F82150A4F81F50258362
:10332000D4F81A000090A07F8DF80400684600F0E1
:10333000C8F8C4E9065525622571FDF7DCF8E060A0
:103340000248E11C0122FFF7CFF8BCBDF0010020CC
:10335000000020417CB52D4C00208DF80600ADF812
:1033600004008DF80200ADF80000A07D0A2820D1ED
:1033700034F8100FADF80400A07861798DF80600DC
:10338000B4F803008DF80210ADF8000001A8FCF7B6
:103390000DFF24F80A0C6846FCF708FF24F8080C17
:1033A0001B4821460722FFF79FF8012004F80F0C65
:1033B0007CBD0025E9B2062921D860182E460135CA
:1033C000007C0A28F6D104F110000131FCF7E3FE7D
:1033D000304603E021440130097C6174C1B20131FF
:1033E0000629F7D9B01CC0B2204400F11001E8B2A0
:1033F000C0F1060082B20648FFF776F87CBD0448AB
:1034000004F110010722FFF76FF87CBD10000020C7
:10341000B001002010B5074C00F00F03044AB0F1D2
:10342000FF3F2344C8BF83180801187010BD00BFB8
:1034300000E400E014ED00E0FDF71CFFFFF779FC6D
:103440004FF47A70FDF718FEFFF7E0F9FFF788FAFE
:10345000FFF760FBFFF7C2FBFFF7DCFBFFF7F6FBB4
:10346000FFF78AFBFFF7A2FAFFF70AFBFFF710FF4F
:10347000FCE7000000487047000000200148006899
:10348000704700000000002002E008C8121F08C1B9
:10349000002AFAD170477047002001E001C1121FD5
:1034A000002AFBD170470000014908607047000006
:1034B0000000002030380A2801D201207047002087
:1034C000704730B583B00446FFF7D8FF05460020AB
:1034D000CDE900000246012321466846FDF767F862
:1034E0002846FFF7E1FFDDE9000103B030BD0040F1
:1034F00040404040404040404141414141404040C7
:1035000040404040404040404040404040404005F6
:10351000020202020202020202020202020202206D
:10352000202020202020202020020202020202026D
:10353000909090909090101010101010101010108B
:1035400010101010101010101010020202020202CF
:1035500088888888888808080808080808080808EB
:1035600008080808080808080808020202024000C3
:10357000EF34000800000000000000000102030416
:103580000607080900000000010203040000000013
:10359000000000000000000000000000000000002B
:1035A000000000000000000000000000000000001B
:1035B000000000000000000000000000000000000B
:1035C000000000000000000000000000000000E01B
:1035D000E0E0E0E0E0E0E0E0E0E0E0E0E0E0E0E0EB
:1035E000E0E0E0E0E0E0E0E0E0E0E0E0E0E0E0E0DB
:1035F000E0E0E0E0E0E0E0E0E0E0E0E0E0E0E0E0CB
:10360000E0E0E0E0E0E0E0E0E0E0E0E0E0E0E0E0BA
:10361000E0E0E0E0E0E0E0E0E0E0E0E0E0E0E0E0AA
:10362000000000000000000000000000000000009A
:10363000000000000000000000000000000000008A
:10364000000000000000000000000000000000007A
:10365000000000000000000000000000000000006A
:10366000000000000000000000008080808080805A
:10367000C0E0E0F0F0F0F0F0F0E0F0F0F0FCFCFC86
:10368000FCFCFCFCFCFCFCFCFCFCFCFCFCFCFCFF77
:10369000FFFFFFFFFFFFFFFFFFFFFFFFFFFFFFFF3A
:1036A000FFFFFFFFFFFFFFFFFFFFFFFFFFFFFFFF2A
:1036B000FFFFFFFFFFFFFFFFFFFFFFFFFFFFFFFF1A
:1036C000FFFFFFFFFFFFFFFFFFFFFFFFFFFFFFFF0A
:1036D000FFFFFFFFFFFFFFFFFFFFFFFFFFFFFFFFFA
:1036E00000000000000000000000000000000000DA
:1036F00000000000000000000000000000000000CA
:1037000000000000000000000000000000000000B9
:1037100000000000000000000000000000000000A9
:10372000000000005C7C7CFE7EFEFFFFFFFFFFFFD1
:10373000FFFFFFFFFFFFFFFFFFFFFFFFFFFFFFFF99
:10374000FFFFFFFFFFFFFFFFFFFF9F9F9F9F9FFF69
:10375000FFFFFFFFFFFFFFFFFFFFFFFFFFFBFFF785
:10376000FBFFFFFFFFFFFFFFFFFFFFFFFFFFFFFF6D
:10377000FFFFFFFFFFFFFFFFFDFFFFFFFFFFFFFF5B
:10378000FFFFFFFFFFFFFFFFFFFFFFFFFFFFFFFF49
:10379000FFFFFFFFFFFFFFFFFFFFFFFFFFFFFFFF39
:1037A0000000000000000000000000000000000019
:1037B0000000000000000000000000000000000009
:1037C00000000000000000000000000000000000F9
:1037D00000000000000000000000000000000000E9
:1037E00000000000000000000000030F1F1F1F1F4B
:1037F0007F7F7F7F7F7FFFFFFFFFFFFFFFFFFFFFD9
:10380000FFFFFFFFFFFFFFFFFFFFFFFFFFFFFFFFC8
:10381000FFFFFFFFFFFFFFFFFFFFFFFFFFFFFFFFB8
:10382000FFFFFFFFFFFFFFFFFFFFFFFFFFFFFFFFA8
:10383000FFFFFFFFFFFFFFFFFFFFFFDF9FDFDFDF78
:10384000DFDFDFDFCFCFEFF3F3F3F3F3F7FFFFFFBC
:10385000FFFFFFFFFFFFFFFFFFFFFFFFFFFFFFFF78
:103860000000000000000000000000000000000058
:103870000000000000000000000000000000000048
:103880000000000000000000000000000000000038
:103890000000000000000000000000000000000028
:1038A0000000000000000000000000000000000018
:1038B00000000000000000030103030103030303F1
:1038C0000307070F0F0F0F0F0F0F0F0F0F0F0FFF34
:1038D000FFFFFFFFFFFFFFFFFFFFFFFFFFFFFFFFF8
:1038E000FFFFFFFFFFFFFFFFFFFFFFFFFFFFFFFFE8
:1038F000FFFFFFFFFFFFFFFFFFFFFFFFFFFFFFFFD8
:10390000FFFFFFFFFFFFFFFFFFFFFFFFFFFFFFFFC7
:10391000FFFFFFFFFFFFFFFFFFFFFFFFFFFFFFFFB7
:103920000000000000000000000000000000000097
:103930000000000000000000000000000000000087
:103940000000000000000000000000000000000077
:103950000000000000000000000000E0F0F0E0E0E7
:10396000E0E0E0E0E0E0E0E0E0E0E0E0E0E0E0E057
:10397000E0E0E0E0E0E0E0C0C0C0F0F0F0E0E0E077
:10398000E0E0E0F0E0F0E0C0C0C00000000000E1D6
:10399000E1F1E1E1E1E1E1E1E1F1F1F12141E1E137
:1039A000E1E1E1E1E1E1E1F1010101E1F1E1E1E187
:1039B000E1E1E1E1E1E1E1E1E1E1E1E1E1E1E1E1F7
:1039C000E1E1E1F1C1C1C1818181010101F1F1E1D7
:1039D000E1E1E1E1E1F12101010101010101010167
:1039E0008080E0F0E0E0E0E0E0E0E0E0E0E0E0E087
:1039F000E0E0808080000000000000000000000087
:103A000000000000000000000000000000000000B6
:103A10000000000000000000000000FFFFFFFFFFAB
:103A2000FFFFFFFFFFFFFF01010101010101030390
:103A300003FFFFFFFFFFFFFFFFFFFF07FF07070772
:103A40007F7F7FFFFFFFFFFFFFFFF8F8FCFEFEFF19
:103A5000FFFFFFFFFFFF1F1F1F01010100EEFFFF20
:103A6000FFFFFFFFFFFFFFFF000000FFFFFFFFFF63
:103A7000FFFFFFFFFFFFFFC1C1C0C1C1C1F3F7F7E7
:103A8000FFFFFFFFFFFFFFFFFFFF000000FFFFFF43
:103A9000FFFFFFFFFFFF000000E0E0E0F8FCFCFF9D
:103AA000FFFFFFFFFFFFFFFFEFE3E3F3FFFFFFFF7A
:103AB000FFFFFFFFFFFCFCFCE0E0C0808080C0C097
:103AC000C0C0C0C0C08080800000000000000000B6
:103AD00000000000000000000000000303030303D7
:103AE00003030303030303000000000000000000C1
:103AF00000030303030303030303030303000000A2
:103B0000000000030303030303030303030303038E
:103B10000303030101000000000000000000030394
:103B2000030303030303030300000003030303036E
:103B30000303030303030303030303030303030355
:103B40000303030303030301010100000003030354
:103B50000303030303030303030303030303030335
:103B60000303030101000000000000000000000149
:103B7000010303030303030303030303030307070F
:103B8000070707070703030100000000B03B000818
:103B9000000000201000000088340008C03B00082E
:103BA00010000020680600009834000800000000A3
:103BB0000000000001000000100000000024F400DC
:0400000508000131BD
:00000001FF
