:020000040800F2
:1000000010060020450100089B230008C11E0008BF
:1000100099230008D30A0008BD280008000000004A
:100020000000000000000000000000004124000863
:10003000D50A0008000000009D23000843240008A2
:100040005F0100085F0100085F0100085F01000810
:100050005F0100085F0100085F0100085F01000800
:100060005F0100085F0100085F0100085F010008F0
:100070005F0100085F0100085F0100085F010008E0
:100080005F0100085F0100085F0100085F010008D0
:100090005F0100085F0100085F0100085F010008C0
:1000A0005F0100085F0100085F0100085F010008B0
:1000B0005F0100085F0100085F0100085F010008A0
:1000C0005F0100085F0100085F0100085F01000890
:1000D0005F010008A5280008AD280008B528000821
:1000E0005F0100085F0100085F0100085F01000870
:1000F0005F0100085F0100085F0100085F01000860
:100100005F0100085F0100085F0100085F0100084F
:100110005F0100085F0100085F0100085F0100083F
:100120005F0100085F0100085F0100085F0100082F
:10013000DFF80CD000F074FA00480047CD2A000820
:10014000100600200648804706480047FEE7FEE705
:10015000FEE7FEE7FEE7FEE7FEE7FEE7FEE7FEE777
:100160009124000831010008202A04DB203A21FAFA
:1001700002F00021704721FA02F3D040C2F12002C0
:100180009140084319467047D2B201E000F8012BB4
:10019000491EFBD270470022F6E710B513460A4607
:1001A00004461946FFF7F0FF204610BD70B506461D
:1001B00002F0A4FC046805460A220021304600F043
:1001C000F3F82C6070BD2DE9FE4F81EA030404F0C2
:1001D000004421F0004100944FF0000B23F0004355
:1001E00050EA01045ED052EA03045BD0C3F30A5420
:1001F000C1F30A552C44A4F2F3340194A0FB025439
:10020000C1F3130141F48011C3F3130343F48013CA
:1002100001FB024400FB034E840A970A44EA81541E
:1002200047EA8357A4FB076802958D0A05FB0785FB
:100230004FEA932C04FB0C542705029D4FEA065805
:1002400047EA1637B5EB08056EEB070C870E920EE2
:1002500047EA811742EA8312A7FB0201B6EB0B01C2
:1002600064EB00042B0D43EA0C335E1844EB1C5086
:10027000DA465146E7FB0201C5F313044FEA0B339C
:1002800043EA14534FEA0432019C43EA0603A4F103
:100290000C040294009CCDE900B400F003F903B013
:1002A000BDE8F08F00200146F9E701F0004330B4CB
:1002B00021F0004150EA010206D00A0DA2F5607259
:1002C000C1F31301002A02DC30BC00207047440F48
:1002D00044EAC104C100E01830BC00EBC25000F099
:1002E0009BB8202A04DB203A00FA02F10020704774
:1002F0009140C2F1200320FA03F319439040704764
:100300000FB40B0010B58AB00FA900910E994FF0F1
:100310000004234ACC60214CCDE9064200D00423DE
:100320006FF00042CDE901321E4A089202466B4648
:10033000002000F029FA0AB010BC5DF814FBF0B5FB
:1003400085B007464FF0FF300091CDE901011E4610
:10035000002015460C4604903B466A46314604A8E8
:10036000FFF7CEFF04990346601825B109B1024694
:1003700000E022462A6000290ED0002B02DD009901
:10038000814209D00094001BCDE901043B466A4636
:10039000314604A8FFF7B4FF05B0F0BDC10900085D
:1003A000DF0900084D0600082DE9F04791460F4689
:1003B00080460446002614F8015B2DB100F042F996
:1003C0000068405DC007F6D12B2D02D02D2D18D02E
:1003D000641E4A463946204600F012FB27B13968B0
:1003E000A14201D1C7F8008071054FF002040BD57E
:1003F0004042002803DD02F081FB0460A007BDE855
:10040000F08746F48066E4E70028F8DA02F076FB2D
:1004100004606FF00040F2E70029A8BF7047401C5D
:10042000490008BF20F00100704710B4B0FA80FC0A
:1004300000FA0CF050EA010404BF10BC704749B147
:10044000CCF1200421FA04F411FA0CF118BF0121B7
:1004500021430843A3EB0C01CB1D4FEA00614FEA97
:10046000102042BF002010BC704700EBC350104466
:100470000029A4BF10BC7047401C490008BF20F0F1
:10048000010010BC704710B5141E73F1000408DAA7
:10049000401C41F1000192185B411A4301D120F048
:1004A000010010BD2DE9F04D92469B4611B1B1FA05
:1004B00081F202E0B0FA80F220329046FFF711FF9D
:1004C00004460F4640EA0A0041EA0B0153465A46E9
:1004D000084313D0114653EA010019D0C8F1400275
:1004E0005046FFF741FE05460E46504659464246E5
:1004F000FFF7F7FE084305D0012004E02046394607
:10050000BDE8F08D0020054346EAE0762C433743F2
:100510000A986305E40AA0EB08000022FD0A44EAF9
:1005200047540A3002D500200146E9E701051019B9
:100530006941DDE9084500196941BDE8F04DA2E7D0
:100540002DE9F04D81EA030404F0004B21F0004551
:1005500014464FF0000A23F0004150EA050220D073
:1005600054EA01021DD0C5F30A570246C5F313032E
:10057000C1F31300C1F30A5640F4801543F480130D
:10058000A7EB0608101BD64608F2FD3873EB0500F2
:1005900002D308F1010801E092185B41B8F1000FA5
:1005A00003DA00200146BDE8F08D00204FF48011F1
:1005B000064684460EE0171B73EB050705D3121B96
:1005C00063EB050306434CEA010C49084FEA30008F
:1005D00092185B4150EA0107EDD152EA030012D0B4
:1005E00082EA040083EA0501084305D0101BAB41F1
:1005F00006D20122002306E000224FF0004302E071
:100600006FF0010253101AEB06004CEB085110EB8F
:100610000A0041EB0B01BDE8F04DFFF734BF0000CD
:10062000064C074D06E0E06840F0010394E807003F
:1006300098471034AC42F6D3FFF77EFD1432000821
:100640003432000800487047F82B000810B5044603
:10065000FFF7F8FF0068005D00F0010010BD00002A
:100660002DE9FF4F087883B09946FF2805D0491C33
:100670002D2804D00024002008E000200BE00124F5
:10068000F9E700EB800003EB4000491C0B78FF2BDF
:10069000F7D104B1404200230293147819461D4655
:1006A0002D2C01D02B2C04D1521C2D2C13D0002426
:1006B0000294AA461478FF2C0FD00A25A3FB0578D4
:1006C00001FB05814FF0000C03FB0C11521CE319D8
:1006D0004AEB0101EEE70124EAE7814453EA010015
:1006E00002D019F5C87F06DA03980021C0E900118D
:1006F00007B0BDE8F08F0025AE4E2F46DFF8B88278
:10070000184600F0DAF9CDE90001B9F1000002DA8B
:10071000C9F1000400E004460023A74A1AEB030BCA
:1007200042EB045A12E0E00707D02A463346384627
:100730004146FFF748FD074688462A46334610469D
:100740001946FFF740FD05460E466410002CEAD11D
:10075000DDE90001B9F1000F5A46534606DAFFF70A
:10076000EFFE3A464346FFF7EBFE05E0FFF72BFDB1
:100770003A464346FFF727FD029A0AB181F000414D
:10078000039AC2E90001B3E72DE9FF4F1F468DB080
:10079000D7E901464FF0FF382E2045464FF00009BB
:1007A0000B90B9696D1C0E988847396A8246884754
:1007B0000028F6D1BAF1FF3F0AD024F4D064002E0D
:1007C00011DDBAF12B0F08D0BAF12D0F0BD102E0D9
:1007D000404611B08DE744F48064B9696D1C0E98F1
:1007E00088478246761E6946600501D52D2000E0C7
:1007F0002B208DF8000001F1010B0DF1200809E01C
:10080000B9696D1C0E98884782460F9844F40074AD
:10081000761E0560002E02DDBAF1300FF0D00B9984
:100820008A453ED144F0800406E00F99681CA9F186
:10083000010944F400740860B9696D1C761E0E98B5
:10084000884782463028F0D02BE00B998A4505D1A5
:10085000200603D444F08004761E18E0504602F0CF
:100860006DF908B30DF11302761EAAF1300044F4BD
:100870000074934506D20BF8010B200607D5A9F1A9
:10088000010003E0200602D409F101008146A00521
:1008900002D50F99681C0860B9696D1C0E988847CD
:1008A0008246002ED1DC53E0002E51DDBAF1650FF7
:1008B00002D0BAF1450F4BD1A00549D5B9696D1CDD
:1008C00024F44074761E0E9888478246002E0CDD74
:1008D0002B2804D0BAF12D0F07D144F48074B969E4
:1008E0006D1C0E9888478246761EE00501D52D21A5
:1008F00000E02B2108F8011BCDF82C8021E00DF140
:100900002901761E44F4007488450CD2AAF1300007
:1009100010F0FF0088F8000002D10B99884509D932
:1009200008F1010806E0E00501D5244801E042F2A3
:100930000F708146B9696D1C0E98884782460F98E2
:100940000560002E04DD504602F0F8F80028D6D1EC
:10095000F9690E988847FF208BF8000088F800009E
:100960000020069007904B466A4608A906A8FFF7A4
:1009700077FEA00502D46FF001002AE714F0240FDF
:100980000AD0E00714D1DDE906123868031D3B6088
:100990000068C0E900120BE0DDE90601FFF785FC05
:1009A0000146E00704D13868021D3A600068016022
:1009B00028460EE7000014400000F03FF1D8FFFF8A
:1009C000426842B1016811F8013B23B1521EC0E9EF
:1009D0000012184670470121C160881E70474268A6
:1009E0005AB1C368016843B983688B4205D0491E78
:1009F000521CC0E90012002070474FF0FF307047D2
:100A00002DE9F05F82460078002715468B460AF1F3
:100A10000104B946302801D09DB113E014F8010B50
:100A20000127782803D0582801D045B10AE00DB13C
:100A3000102D07D10027102514F8010B02E008251E
:100A400000E00A250026B0460EE005FB080005FB85
:100A500006F1012701EB10461FFA80F8B6F5803F3A
:100A600000D3B94614F8010B294600F018F8002805
:100A7000EBDABBF1000F05D00FB1641E00E0544665
:100A8000CBF80040B9F1000F06D002F037F8022190
:100A90000160C81EBDE8F09F48EA0640FAE73A2820
:100AA00000D2303820F02002412A01D3A2F13700D1
:100AB000884201D34FF0FF3070470EB540F2334209
:100AC00002920022CDE900221346FFF7EBFC03B0AF
:100AD00000BDFEE77047704790F82110022919D138
:100AE0000268116821F00E011160116821F0010106
:100AF00011602B4901F17C039A420FD9304B9A4285
:100B000024D0304B9A4223D02F4B9A4222D14FF41B
:100B1000807327E00421816301207047214B9A42B2
:100B200026D0214B9A4225D0204B9A4224D0204BEC
:100B30009A4224D01F4B9A4217D01F4B9A4221D081
:100B40001E4B9A4211D14FF080721DE0012309E043
:100B5000102307E001F5886C4FF48033624508BF2D
:100B60004FF48053C1F800340FE04FF480320BE0B3
:100B7000012209E0102207E04FF4807204E04FF4F4
:100B8000805201E04FF480120A604FF480710184BA
:100B9000416B19B180B58847002080BD00207047A7
:100BA00004000240080002401C00024030000240E5
:100BB00044000240580002406C00024080000240A5
:100BC000080402401C04024030040240B0B5044650
:100BD00000F0ECF805469248611C007818BF044408
:100BE00000F0E4F8401BA042FAD3B0BD2DE9FC4F61
:100BF00081465D4806234FF001084FF00F0E4FF07D
:100C0000000A8145594808BF052348444FEAB022ED
:100C1000052A38BF4FEAB0230093002200230C6856
:100C200034FA02F508BFBDE8FC8F08FA02F73C422F
:100C300000F096804D68032D16D9112D26D0122D67
:100C400028D04D48854213D04C48854210D04C489E
:100C500085420DD04B4885420AD04B48854207D08B
:100C60004A48854204D022E0DFE805F002181B1F45
:100C70008C6844B1012C14BFC9F81470C9F8107005
:100C80004FF0080A13E04FF0040A10E0CC6804F1BA
:100C9000040A0CE0CC6804F10C0A08E0D1F80CA0BE
:100CA00005E0CC6804F1080A01E04FF0000A1C4698
:100CB0004846082A28BF203C28BF043006680EFAA0
:100CC00004F50AFA04F426EA05052C430460C87901
:100CD000C00645D56148264E22F00305044600684B
:100CE000B346354440F001002060206800F0010068
:100CF000019003F00C00019E0EFA00F4244EB4465D
:100D0000AE5926EA0404009E06FA00F0204345F896
:100D10000C004D68E803DBF8000054BF20EA07042C
:100D200040EA0704CBF80040A803DBF8040054BFF6
:100D300020EA070440EA0704CBF80440E802DBF8A5
:100D4000080054BF20EA070440EA0704CBF8084033
:100D5000A80208480446006854BFB84338432060DE
:100D6000043301325BE700BF001C014000F8FEBF06
:100D7000000401400C04014000001110000012109A
:100D8000000021100000221000003110000032107D
:100D900008FCFFFFC26814230A4208BF1023C15099
:100DA0007047002A08BF09040161704705480068C0
:100DB000704700BF1A48034900780A681044086069
:100DC000704700BF0C02002080B59048016841F0D8
:100DD00010010160032000F071F8002000F004F819
:100DE00000F020F8002080BD70B50D4E04464FF491
:100DF0007A713078B1FBF0F091490968B1FBF0F0FD
:100E000000F0FEFB01250F2C08D838B94FF0FF3059
:100E100021460022002500F033F87460284670BD9A
:100E20000400002082B00D480222016841F0010157
:100E30000160016801F0010101910199416841F0EF
:100E400080514160406800F0805000900098044854
:100E5000016862F31A61016002B070471810024025
:100E600004000140002808DB00F01F0101224009B6
:100E700002FA01F1014A42F82010704700E100E057
:100E800080B5144B1B68C3F3022CBCF1030E8CF02D
:100E900007034FF0FF3C38BF4FF0000E042B28BF74
:100EA00004230CFA03F399430CFA0EF301FA0EF142
:100EB0009A431143BDE8804001F0F6BD05494FF665
:100EC000FF030A681A4060F30A22034810430860CF
:100ED000704700BF0CED00E00000FA052DE9F84373
:100EE000002800F08E80884648490446086800F0D3
:100EF000070040450AD2086820F0070040EA0800D1
:100F00000860086800F0070040457AD120685C4B13
:100F10008946810711D5410742BF196841F4E06154
:100F20001960010742BF196841F4605119601968DE
:100F3000A26821F0F00111431960C0072AD060684F
:100F4000012804D153F8041C890309D459E053F84B
:100F5000041C022802D1890102D452E0890750D52D
:100F600019681D4621F0030108431860FFF71EFFB2
:100F7000064641F28837286861682B4600F00C006D
:100F8000B0EB810F06D0FFF711FF801BB842F2D9FA
:100F9000032037E0D9F8000000F0070040450DD9E4
:100FA000D9F8000020F0070040EA0800C9F8000066
:100FB000D9F8000000F00700404522D12068410721
:100FC00005D51968E26821F4E06111431960000752
:100FD00006D51868216920F4605040EAC100186005
:100FE0001C4600F031F82168094AC1F30311515C35
:100FF000C840F249086007480068FFF7F5FE002086
:1010000000E0012001B0BDE8F08300BF00200240F5
:10101000FC2B000808000020E8481949094A00682C
:101020000968C1F30221515CC8407047E348144984
:10103000044A00680968C1F3C221515CC840704786
:101040000C0000200C2C000810B50D4C0D48226837
:1010500002F00C03082B18BF10BDC2F383430AA192
:10106000CB5CD10302D40D48584310BD21680AA2BD
:101070005843C1F34041515CB0FBF1F010BD00BFDB
:101080000410024000127A00020304050607080952
:101090000A0B0C0D0E0F10100102000000093D009C
:1010A0002DE9FC41002800F0408104460078C14E43
:1010B000C0074AD0706800F00C00042817D0706890
:1010C00000F00C00082802D17068C0030FD46068DB
:1010D00098B1B0F5803F06D03168B0F5A02F21D18E
:1010E00041F480203060306840F4803020E0306887
:1010F00080032AD5606840BB17E1306820F4803057
:101100003060306820F480203060FFF74FFE0546E5
:101110003068800319D5FFF749FE411B032064297D
:10112000F6D903E121F480303060306820F480206B
:101130003060FFF73BFE05463068800305D4FFF7BB
:1011400035FE401B6428F7D9D1E0207880072BD5E5
:10115000706810F00C0F07D0706800F00C000828C1
:1011600009D17068C00306D43068800715D520699E
:10117000012812D0D9E021698F4800297CD00121B3
:101180000160FFF713FE05463068800705D4FFF7BE
:101190000DFE401B0228F7D9A9E03068616920F0F4
:1011A000F80040EAC1003060207800072ED5A06921
:1011B00078B181480121C0F88014FFF7F7FD05469A
:1011C000706A800715D4FFF7F1FD401B0228F7D99C
:1011D0008DE079480021C0F88014FFF7E7FD05464F
:1011E000706A800712D5FFF7E1FD401B0228F7D98E
:1011F0007DE072484FF4FA510068B0FBF1F00190C5
:1012000000BF0198411E00280191F9D120784007C4
:1012100076D5F069C0000BD4F0694FF0010840F0BA
:101220008050F061F06900F080500090009801E07B
:101230004FF00008624F3868C0050FD4386840F49A
:1012400080703860FFF7B2FD05463868C00505D4E8
:10125000FFF7ACFD401B6428F7D948E0E068D8B13F
:10126000012805D0316A05282DD141F004003062F3
:10127000306A40F001002CE000210160FFF796FD8C
:101280000546306880077FF58FAFFFF78FFD411B64
:1012900003200229F5D949E0306A20F001003062CC
:1012A000306A20F004003062FFF780FD054641F20D
:1012B0008837306A80071CD5FFF778FD411B032073
:1012C000B942F6D932E021F001003062306A20F0F4
:1012D00004003062FFF76AFD054641F28837306A44
:1012E000800706D4FFF762FD401BB842F7D9032000
:1012F0001CE0B8F1000F1EBFF06920F08050F061D3
:10130000E769002F53D0706800F00C00082810D156
:10131000012F0AD07068216A00F480328A4204D119
:10132000616A00F47010884241D0012002B0BDE82B
:10133000F0812149002088460866FFF737FD054601
:10134000022F0AD147463068800110D5FFF72EFDE5
:10135000411B03200229F6D9E8E73068800126D531
:10136000FFF724FD411B03200229F6D9DEE7206A9E
:10137000B0F5803F05D17168A26821F400311143B6
:1013800071607168626A104321F4741108437060DF
:1013900001203866FFF70AFD04463068800106D454
:1013A000FFF704FD011B03200229F6D9BEE7002048
:1013B000BCE700BF00100240000042420C000020C9
:1013C0000070004070B5B8B3002605464FF0000C21
:1013D000866290F8510030B9284685F8506000F0D8
:1013E0002FF8D5F828C0022185F8511029680A681D
:1013F00022F040020A60D5E90123D5E903041A432B
:1014000010436A6920431043AA6902F40073184329
:10141000EB6918432B6A184340EA0C00086004206B
:1014200000EA12404860C86920F40060C8610120E9
:101430006E6585F8510000E00126304670BD000061
:10144000FEB501460020CDE90400CDE902001248B6
:10145000096800F5205291421BD1BE490A6842F446
:1014600080520A600A6802F480520192019A0A6866
:1014700042F004020A60096801F004010191019937
:101480000321059102210391A021029102A9FFF7F6
:10149000ADFB06B080BD00BF000801402DE9F84358
:1014A000044690F85000012801D10220A4E04FF03A
:1014B00001091D4616460F4684F85090FFF776FC4A
:1014C000804694F85100012854D10120002F00F0EB
:1014D0008E80002E00F08B800320731E84F8510054
:1014E0000020B3FA83F36065E686A6862763A087AB
:1014F000A063C4E91000E0875B09A1682068B1F52A
:10150000004F02BF016841F4804101600168490653
:101510005EBF016841F0400101606168E268B1FAB4
:1015200081F1B2F5006F4FEA511141EA030123D175
:1015300031B137F8021BC1602763E08E0138E086C5
:101540006E1C13E020688168890707D4FFF72EFC22
:1015500066B1A0EB0800A84208D347E0216B31F840
:10156000022BC2602163E08E0138E086E08E002805
:10157000E8D124E002203AE039B139780173206BD8
:1015800001302063E08E0138E0866E1C14E0206894
:101590008168890707D4FFF709FC6EB1A0EB08004A
:1015A000A84209D322E0216B09780173206B013036
:1015B0002063E08E0138E086E08E0028E7D12046E7
:1015C0002946424600F0EBFE08B120206065A06885
:1015D00038B9002000902068C168009180680090B0
:1015E0000098606D002818BF012000E00320002152
:1015F00084F8501084F8519001B0BDE8F0830000E9
:10160000411E0020B0EB116F1CBF01207047044A3F
:10161000F023516003490B700721906011607047FF
:1016200010E000E023ED00E090F83C20012A01D119
:1016300002211FE0B0B501F10805D1E900CE3CCD93
:10164000C96923F47C5322F470521A432EF4F043F8
:101650001A432CF4E0431A4324F4C0431A432A43A8
:1016600022F48042114302685164002180F83C104A
:10167000BDE8B0400846704790F83C300222012B8C
:1016800019D080B580F83D2002685368D2F808C0B0
:1016900023F0700ED1E9003143EA0E0353602CF0C1
:1016A0008003194391600022012180F83C2080F8DA
:1016B0003D10BDE8804010467047B0B110B50446FB
:1016C00090F83D0028B9002084F83C00204600F046
:1016D0000FF80220211D84F83D00206800F0FEFE76
:1016E000012084F83D00002010BD0120704700005B
:1016F00083B000681549884210D01549884218D037
:10170000D84988421FD16D48016841F400610160E9
:10171000006800F400600290029814E06748416895
:1017200041F002014160406800F002000190019820
:1017300009E06248416841F008014160406800F0FA
:1017400008000090009803B0704700BF00040040FC
:10175000000C00401810024010B590F83C200446E0
:101760000220012A08BF10BD84F83D0001204FF679
:10177000777284F83C00206884465CF8083F23EACE
:101780000202CCF800200B682BB1102B03D0202BC9
:1017900018BF302B0FD1DCF8000020F07000184388
:1017A00040F00700CCF800000020012184F83C0044
:1017B00084F83D1010BD402B1AD0502B26D0602B42
:1017C00032D0B3F5005F3DD0702BEDD1D1E90102ED
:1017D000C968104340EA0120DCF8001021F47F4181
:1017E0000843CCF80000DCF8000040F07700D9E7AF
:1017F0004B68CA68194600F075FFD4F800C05CF861
:10180000080F40F0470020F03000CBE74B68CA6873
:10181000194600F067FFD4F800C05CF8080F40F0EC
:10182000570020F02000BDE74B68CA68194600F059
:101830006AFFD4F800C05CF8080F40F0670020F0A1
:101840001000AFE7D1E90102C968104340EA012066
:10185000DCF8001021F47F410843CCF80000DCF8EC
:10186000000040F480409DE7FEB501460020CDE930
:101870000400CDE902001048096800F5A052914229
:1018800017D10E490A6842F040020A60096801F067
:101890004001019101990221059103914FF42061CA
:1018A000029102A9FFF7A2F90548064A016811430F
:1018B000016006B080BD00BF001801401810024052
:1018C00004000140C0000007B0B590F83C30044669
:1018D0000220012B08BFB0BD84F83D004FEAB200E2
:1018E0000125032884F83C5012D8DFE800F00206F6
:1018F0000A0E206800F03AFE0AE0206800F064FE5C
:1019000006E0206800F092FE02E0206800F0C0FED1
:10191000002084F83C0084F83D50B0BDB0B110B553
:10192000044690F83D0028B9002084F83C00204689
:1019300000F00EF80220211D84F83D00206800F020
:10194000CDFD012084F83D00002010BD012070472E
:101950007047000070B50D4690F83C100446022018
:10196000012908BF70BD84F83D004FEAB20001268E
:10197000032884F83C6036D8DFE800F0020A12221F
:101980002068294600F0F2FD206850F8181F0EE08C
:101990002068294600F018FE206850F8181F16E04D
:1019A0002068294600F042FE206850F81C1F41F0D4
:1019B00008010160016821F00401016029690FE05C
:1019C0002068294600F064FE206850F81C1F41F48E
:1019D00000610160016821F48061016029690902E8
:1019E000026811430160002084F83C0084F83D60E7
:1019F00070BDB0B110B5044690F83D0028B9002084
:101A000084F83C00204600F00EF80220211D84F8E6
:101A10003D00206800F062FD012084F83D000020B8
:101A200010BD01207047704710B5044600680122C0
:101A300000F08CFD20680A49884202D0094988429A
:101A400003D1416C41F400414164816801F0070118
:101A500006291EBF016841F001010160002010BD90
:101A600000340140002C01407047000010B5D0F850
:101A700000E00446DEF80010DEF80C20DEF814303A
:101A80005FEA017C50D002F4907003F00103C018AB
:101A900052D0C8071FBF12F48070E06B40F0010005
:101AA000E063480704D51BB1E06B40F00200E0633F
:101AB000880704D51BB1E06B40F00400E063BCF183
:101AC000000F04D51BB1E06B40F00800E063E06B51
:101AD00000286ED002EA0100800604D5204600F0FE
:101AE00036FED4F800E0DEF81400E16B00F04000B0
:101AF00001F0080140184CD0204600F01BFE206881
:101B00004169490640D5416921F040014161606B5E
:101B1000D0B32F494163FEF7DFFF002849D0606B47
:101B2000416BBDE81040084711408A0605D52046A4
:101B3000BDE8104000F00BBE114008060FD4480667
:101B400037D5DEF80C0020F04000CEF80C00202045
:101B500084F839002046BDE8104000F0B0B994F890
:101B60003900212825D1A068216AB0F5805F16D1FF
:101B700008886FF35F20CEF804002069002814BFA6
:101B8000481C881C20620FE02046BDE81040FFF78B
:101B90006BBF2046FFF768FF0020E06310BD481CC4
:101BA00020620878CEF80400E08C0138E08400045C
:101BB00000D010BDDEF80C0020F08000CEF80C0044
:101BC000DEF80C0040F04000CEF80C0010BD00BF65
:101BD0002927000850B310B5044690F8390028B9F9
:101BE000002084F83800204600F022F8242084F8F1
:101BF00039002068C16821F40051C160204600F01E
:101C0000E3FD2068016921F490410161416921F0FF
:101C10002A014161C16841F40051C16000202021C6
:101C2000E06384F8391084F83A1010BD0120704741
:101C300070B586B000267549CDE90466CDE9026627
:101C40000068884237D04E49884262D04D49884268
:101C500040F093804C48EF4C02AD016841F4804164
:101C60000160016801F4804101910199016841F02E
:101C7000040101602946006800F004000190019809
:101C800003200590022003904FF40070029020463C
:101C9000FEF7ACFF00202946CDE903004FF4806039
:101CA00002902046FEF7A2FF252001210022FFF727
:101CB000E7F825205FE03448D64C02AD416841F496
:101CC00000314160416801F40031019101990168DE
:101CD00041F0040101602946006800F00400019011
:101CE00001980320059002200390042002902046D2
:101CF000FEF77CFF0820CDE90366294602902046C6
:101D0000FEF774FF262002210022FFF7B9F82620F3
:101D100031E0F24802AD416841F480214160416800
:101D200001F4802101910199016841F008010160ED
:101D30002946006800F008000190019803200590F2
:101D4000022003904FF480600290E54800F5806423
:101D50002046FEF74BFF00202946CDE903004FF453
:101D6000006002902046FEF741FF27200321002259
:101D7000FFF786F82720FFF775F806B070BD00BFA3
:101D8000004800400038014018100240034690F817
:101D90003A00202806D10120E9B1E2B193F83800D9
:101DA000012801D1022070470020DA85D8639A8586
:101DB0009962222183F8380083F83A101968CA68BA
:101DC00042F48072CA604A6942F001024A61CA68FC
:101DD00042F02002CA607047B0B50C4D044600685E
:101DE00005F58061884202D100F0B8FD206805F554
:101DF0007441884202D100F0F7FD2068A84218BF64
:101E0000B0BDBDE8B04000F0B5BD00BF004400402B
:101E10002DE9F041044690F8390020280AD10E46F9
:101E20000120002949D01746002A46D094F83800EE
:101E3000012802D10220BDE8F08100201D46E063A8
:101E4000012084F83800212084F83900FEF7AEFF25
:101E50008046E784A7841DE0E08C802142462B4623
:101E60000138E0842046A76800F0F0FCB7F5805FF9
:101E70000BD1C8B9318820686FF35F2141602069B8
:101E8000002814BF0136023604E068B9206816F84D
:101E9000011B4160E08C0028DED1204640214246F3
:101EA0002B4600F0D3FC10B10320BDE8F0810020E8
:101EB000202184F8380084F83910BDE8F08170479B
:101EC000FEE70000F8B5864C864F0221002200256F
:101ED0002046B847204640210022B8471B4E3220FA
:101EE000B047204640210122B84720460221012266
:101EF000B8473220B047164CE220A0473220B04706
:101F00002F20A0473220B047A320A0478120A04720
:101F10008020A047EB20A047C420A047002000213C
:101F200000F02AF802E000F05BF801350020B5F57A
:101F3000C06FF8D3002100F01FF8AF2000F036F892
:101F40003220BDE8F840FEF741BE00BFCD0B0008CF
:101F5000AD1F000810B5044600F00F0000F026F891
:101F600020091030BDE8104000F020B840F0B0006B
:101F700000F0BF0000F01AB810B504460846FFF79D
:101F8000E9FF2046BDE81040FFF7F0BFB0B50446BA
:101F9000002000210025FFF7EFFFB5F5C06F08BF57
:101FA000B0BD605D00F01CF80135F6E7BCB54C4CE7
:101FB0004C4D8DF80700022100222046A8472046FC
:101FC00010210022A8475A480DF1070101220A23D7
:101FD000FFF764FA204602210122A847BCBD00BFDA
:101FE000BCB53F4C3F4D8DF8070002210022204632
:101FF000A847204610210122A8474D480DF10701AE
:1020000001226423FFF74AFA204602210122A84751
:10201000BCBD00BF000801402DE9F04F85B02F483E
:102020002F4C304E01224FF0420B4FF00108016857
:1020300041F010010160016801F010010191019966
:10204000016841F004010160016801F0040101919F
:102050000199016841F040010160016801F040010F
:1020600001910199016841F0080101604221006875
:1020700000F00800019001982046B047204610214A
:1020800000224FF0100A4FF00009B04704F58065B8
:102090004FF4007101222846B047032001AECDE97C
:1020A0000390CDE901B8DFF840B020463146D8476B
:1020B000022720463146CDE90397CDE901A8D8474C
:1020C0001120CDE90397314602904FF40070019042
:1020D0002846D84705B0BDE8F08F00BF1810024071
:1020E00000080140A30D0008ED0B000810B51048D2
:1020F00000220A210F4C4FF0080C4FF4007E4FF4E1
:102100008273C0E90822C0E90A214FF40041C0E906
:102110000043C0E90212C0E90422C0E906ECFFF75F
:1021200051F9002814BFBDE8104010BDFEF7D3BC24
:102130003400002000300140B0B596B009AC002555
:102140001C212046CDE91455CDE91255CDE9105595
:10215000FEF721F801A82021FEF71DF83148FA4BBF
:10216000472244F62061C0E90032C0E90251C0E9CB
:1021700004558561FFF7A1FA08B1FEF7ACFC4FF4F6
:10218000805012A912902748FFF7E6FA08B1FEF72F
:10219000A2FC2448FFF72DFC08B1FEF79CFC214867
:1021A000FFF7BCFB08B1FEF796FC002010A9CDE9B3
:1021B00010001C48FFF760FA08B1FEF78CFC40F2F3
:1021C000DC5014210A906020099004F10800FDF70A
:1021D000E2FF1448214600220025FFF7BBFB08B1AF
:1021E000FEF779FC0F4809A904220995FFF76CFB5B
:1021F00008B1FEF770FC01AC14212046FDF7CBFFBF
:102200000020214608904FF4005006900548FFF743
:102210000BFA08B1FEF75FFC0248FFF725FB16B08A
:10222000B0BD00BF8C00002010B586B01648C34C6E
:1022300000214FF47A724723CDE90411CDE9021150
:102240008161C0E90043C0E902120161CDE90011DA
:10225000FFF733FA08B1FEF73EFC4FF4805002A9B5
:1022600002900948FFF778FA08B1FEF734FC002025
:102270006946CDE900000448FFF7FEF908B1FEF712
:102280002AFC06B010BD00BFCC00002010B586B0FF
:102290001648AC4C00214FF6FF724723CDE90411DC
:1022A000CDE902118161C0E90043C0E90212016178
:1022B000CDE90011FFF701FA08B1FEF70CFC4FF46D
:1022C000805002A902900948FFF746FA08B1FEF7CC
:1022D00002FC00206946CDE900000448FFF7CCF974
:1022E00008B1FEF7F8FB06B010BD00BF0C010020DE
:1022F00010B50B480B4C4FF4E13300210C22C0E920
:102300000043C0E90211C0E90412C0E90611FFF759
:1023100061FC002814BFBDE8104010BDFEF7DBBB18
:102320004C0100200038014010B50B480B4C4FF415
:10233000E13300210C22C0E90043C0E90211C0E9E9
:102340000412C0E90611FFF745FC002814BFBDE8E0
:10235000104010BDFEF7BFBB8C01002000440040C0
:1023600010B50B480B4C4FF4E13300210C22C0E9AF
:102370000043C0E90211C0E90412C0E90611FFF7E9
:1023800029FC002814BFBDE8104010BDFEF7A3BB18
:10239000CC01002000480040FEE77047704710B5B0
:1023A00013460A468021044600F00AF800280FBFB1
:1023B0000020606D40F02000606518BF032010BD54
:1023C0002DE9F041984616460F460446551C2068F4
:1023D00080683840B8421CBF0020BDE8F081002D65
:1023E000F5D0FEF7E3FCA0EB0800B042EFD3206885
:1023F000416821F0E00141606168B1F5827F0AD156
:10240000A168B1F5004F02D0B1F5806F03D101682A
:1024100021F040010160A16AB1F5005F07D10168B8
:1024200021F400510160016841F400510160002075
:1024300084F85000012084F851000320BDE8F081A9
:102440007047FEF7B7BCB0B590B000244FF4E01071
:1024500002250121CDE90B44CDE909440F904FF449
:1024600080300E900D950A910894CDE9061006A8CB
:10247000FEF716FE4FF480600594022104900F20B1
:10248000CDE90254019001A8FEF728FD10B0B0BDBF
:102490000E480F4A016841F0010101604168114096
:1024A0000C4A4160016811400160016821F48021FB
:1024B0000160416821F4FE0141604FF41F01816019
:1024C00005484FF000610160704700BF00100240F6
:1024D0000000FFF8FFFFF6FE08ED00E00268B0F133
:1024E000804F0ED0154B98420BD0154B984208D018
:1024F000144B984205D0794B984202D0784B9842C1
:1025000008D14B6822F45C7CCA6823F4407343EA28
:102510000C031A434B6922F080021A4302608A6856
:10252000C2620A6882626D4A904202D06C4A90424E
:1025300001D1096901630121416170470004004034
:1025400000080040000C0040002C014001F01F0179
:10255000012303FA01FC036A02FA01F123EA0C03E6
:102560000362026A114301627047000070B5026A9B
:1025700022F001020262026AD0F804E0D0F818C02A
:102580008C680B6822F0020222432CF0730444EAA8
:10259000030C524B984202D0514B98420CD1CE685A
:1025A000D1E905452EF4407322F00C02234343EA9F
:1025B000050E26F004031A43C0F804E0C0F818C062
:1025C00049684163026270BD70B5026A22F0100270
:1025D0000262026AD0F804E0D0F818C08C680B6878
:1025E00022F0200242EA04122CF4E64444EA032CCE
:1025F0003A4B984202D03A4B98420FD1CE68D1E97B
:1026000005452EF4406322F0C00243EA840343EA06
:10261000850E6FF0400303EA06131A43C0F804E086
:10262000C0F818C049688163026270BD70B5026A63
:1026300022F480720262026AD0F804E0D0F81CC072
:102640008C680B6822F4007242EA04222CF07304B6
:1026500044EA030C214B984202D0214B98420FD1FF
:10266000CE68D1E905452EF4405322F4406243EA96
:10267000041340F2FF4443EA051E3302A3431A4306
:10268000C0F804E0C0F81CC04968C163026270BDB4
:10269000B0B5026A22F480520262026AD0F804E005
:1026A000C5698B680C6822F4005242EA033C0B4B6C
:1026B00025F4E64242EA0422984202D0084B9842AE
:1026C00004D14B692EF4804545EA831EC0F804E02E
:1026D000C26149680164C0F820C0B0BD0034014047
:1026E000002C0140D0F820C0036A23F001030362EC
:1026F000836923F0F00343EA021282612CF00A029C
:10270000114301627047036A23F010030362836977
:1027100023F4704343EA0232036A826123F0A00289
:1027200042EA011101627047406A0021C185C184FB
:10273000FFF79AB90168CA6822F49072CA604A69C0
:1027400022F001024A61202180F83A10704790F887
:102750003A10222918BF70478168B1F5805F08D10F
:1027600002680369816A526883B1D2B221F8012BF1
:1027700010E0026901684968002A826A02F10103D7
:10278000836218BF01F07F01117004E06FF35F22D4
:1027900021F8022B8162C18D0139C185090400D065
:1027A00070470168CA6822F02002CA60CA6822F431
:1027B0008072CA604A6922F001024A61202180F8D1
:1027C0003A10FFF709BB000010B504460068016924
:1027D000E26821F44051114341F20C620161D4F8E6
:1027E00008C0D4E904E3C16891434EEA0C021A43DD
:1027F0001143C1604169A26921F4407111434161F3
:102800001149884202D0FEF707FC01E0FEF70EFCFA
:1028100019214843D4E900126FF063049200B0FB21
:10282000F2F06422B0FBF2F303FB0400322404EB69
:102830000010B0FBF2F000F0F00200F00F0002EB2D
:1028400003121044886010BD003801402DE9F041AA
:102850001D4690460F4604465E1C206801683940BC
:10286000B94204BF0020BDE8F081002EF5D035B19B
:10287000FEF79CFAA0EB0800A842EED92068C168D8
:1028800021F4D071C160416921F001014161202032
:10289000002184F8390084F8381084F83A000320C5
:1028A000BDE8F0817F48FFF7E1B800BF4C48FFF773
:1028B000DDB800BF2E48FFF7D9B800BFFEE7000023
:1028C00077480122811C2A48FFF760BA10B54FF4FF
:1028D0007A70FEF77BF9074C07A108226423204693
:1028E000FFF796FA6E480122C11C2046BDE8104051
:1028F000FFF74CBA8C010020694641434D0D0A0098
:102900006748072200F110016648FFF73FBA00BF91
:10291000FFF7F6FFFFF7D4FFFFF7D8FF0C4C0021BD
:102920002046FFF781F820460421FFF77DF8FFF7E6
:10293000C9FA084C084D2046FFF728FB4FF47A707F
:10294000FEF744F928464FF40071FEF723FAF2E748
:102950008C000020142C0008000C01405048014657
:1029600011F8022F027002480122FFF70FBA00BFD0
:10297000CC010020BCB54A4C2179E07862180131C5
:102980000A28107621714FF00001ADF80410009173
:1029900020D1207E452807D112490020C4E9060035
:1029A0002062E160207115E0002584F82150A4F830
:1029B0001F502583D4F81A000090A07F8DF80400E2
:1029C000684600F0C2F8C4E9065525622571FDF796
:1029D0006CFCE0600248E11C0122FFF7D7F9BCBDA6
:1029E0008C010020000020417CB52D4C00208DF88A
:1029F0000600ADF804008DF80200ADF80000A07DDF
:102A00000A2820D134F8100FADF80400A0786179BD
:102A10008DF80600B4F803008DF80210ADF8000040
:102A200001A8FDF7C3FB24F80A0C6846FDF7BEFBBE
:102A300024F8080C1B4821460722FFF7A7F90120BC
:102A400004F80F0C7CBD0025E9B2062921D86018D6
:102A50002E460135007C0A28F6D104F11000013120
:102A6000FDF799FB304603E021440130097C617495
:102A7000C1B201310629F7D9B01CC0B2204400F11F
:102A80001001E8B2C0F1060082B20648FFF77EF9F5
:102A90007CBD044804F110010722FFF777F97CBDE3
:102AA000100000204C01002010B5074C00F00F036F
:102AB000044AB0F1FF3F2344C8BF831808011870CF
:102AC00010BD00BF00E400E014ED00E0FEF77CF96B
:102AD000FFF7B9FCFFF7A0FAFFF708FBFFF7A4FB2D
:102AE000FFF706FCFFF720FCFFF73AFCFFF7CEFBF1
:102AF000FFF722FBFFF70CFFFCE7000000487047E0
:102B0000000000200148006870470000000000201D
:102B100002E008C8121F08C1002AFAD170477047A6
:102B2000002001E001C1121F002AFBD17047000004
:102B300001490860704700000000002030380A2872
:102B400001D2012070470020704730B583B00446A1
:102B5000FFF7D8FF05460020CDE90000024601231B
:102B600021466846FDF7EBFB2846FFF7E1FFDDE96C
:102B7000000103B030BD0040404040404040404074
:102B80004141414141404040404040404040404040
:102B90004040404040404005020202020202020260
:102BA00002020202020202202020202020202020F7
:102BB0002002020202020202909090909090101067
:102BC0001010101010101010101010101010101005
:102BD0001010020202020202888888888888080889
:102BE0000808080808080808080808080808080865
:102BF0000808020202024000772B000800000000D3
:102C0000000000000102030406070809000000009C
:102C100001020304000000000000000000000000AA
:102C200000000000000000000000000000000000A4
:102C30000000000000000000000000000000000094
:102C40000000000000000000000000000000000084
:102C500000000000000000E0E0E0E0E0E0E0E0E094
:102C6000E0E0E0E0E0E0E0E0E0E0E0E0E0E0E0E064
:102C7000E0E0E0E0E0E0E0E0E0E0E0E0E0E0E0E054
:102C8000E0E0E0E0E0E0E0E0E0E0E0E0E0E0E0E044
:102C9000E0E0E0E0E0E0E0E0E0E0E0E0E0E0E0E034
:102CA000E0E0E0E0E0E0E0E0000000000000000024
:102CB0000000000000000000000000000000000014
:102CC0000000000000000000000000000000000004
:102CD00000000000000000000000000000000000F4
:102CE00000000000000000000000000000000000E4
:102CF0000000808080808080C0E0E0F0F0F0F0F0A4
:102D0000F0E0F0F0F0FCFCFCFCFCFCFCFCFCFCFC4F
:102D1000FCFCFCFCFCFCFCFFFFFFFFFFFFFFFFFFD8
:102D2000FFFFFFFFFFFFFFFFFFFFFFFFFFFFFFFFB3
:102D3000FFFFFFFFFFFFFFFFFFFFFFFFFFFFFFFFA3
:102D4000FFFFFFFFFFFFFFFFFFFFFFFFFFFFFFFF93
:102D5000FFFFFFFFFFFFFFFFFFFFFFFFFFFFFFFF83
:102D6000FFFFFFFFFFFFFFFF00000000000000006B
:102D70000000000000000000000000000000000053
:102D80000000000000000000000000000000000043
:102D90000000000000000000000000000000000033
:102DA0000000000000000000000000005C7C7CFED1
:102DB0007EFEFFFFFFFFFFFFFFFFFFFFFFFFFFFFA5
:102DC000FFFFFFFFFFFFFFFFFFFFFFFFFFFFFFFF13
:102DD000FFFF9F9F9F9F9FFFFFFFFFFFFFFFFFFFE3
:102DE000FFFFFFFFFFFBFFF7FBFFFFFFFFFFFFFF03
:102DF000FFFFFFFFFFFFFFFFFFFFFFFFFFFFFFFFE3
:102E0000FDFFFFFFFFFFFFFFFFFFFFFFFFFFFFFFD4
:102E1000FFFFFFFFFFFFFFFFFFFFFFFFFFFFFFFFC2
:102E2000FFFFFFFFFFFFFFFF0000000000000000AA
:102E30000000000000000000000000000000000092
:102E40000000000000000000000000000000000082
:102E50000000000000000000000000000000000072
:102E60000000000000000000000000000000000062
:102E70000000030F1F1F1F1F7F7F7F7F7F7FFFFFCC
:102E8000FFFFFFFFFFFFFFFFFFFFFFFFFFFFFFFF52
:102E9000FFFFFFFFFFFFFFFFFFFFFFFFFFFFFFFF42
:102EA000FFFFFFFFFFFFFFFFFFFFFFFFFFFFFFFF32
:102EB000FFFFFFFFFFFFFFFFFFFFFFFFFFFFFFFF22
:102EC000FFFFFFDF9FDFDFDFDFDFDFDFCFCFEFF3EE
:102ED000F3F3F3F3F7FFFFFFFFFFFFFFFFFFFFFF3A
:102EE000FFFFFFFFFFFFFFFF0000000000000000EA
:102EF00000000000000000000000000000000000D2
:102F000000000000000000000000000000000000C1
:102F100000000000000000000000000000000000B1
:102F200000000000000000000000000000000000A1
:102F3000000000000000000000000000000000038E
:102F400001030301030303030307070F0F0F0F0F11
:102F50000F0F0F0F0F0F0FFFFFFFFFFFFFFFFFFF11
:102F6000FFFFFFFFFFFFFFFFFFFFFFFFFFFFFFFF71
:102F7000FFFFFFFFFFFFFFFFFFFFFFFFFFFFFFFF61
:102F8000FFFFFFFFFFFFFFFFFFFFFFFFFFFFFFFF51
:102F9000FFFFFFFFFFFFFFFFFFFFFFFFFFFFFFFF41
:102FA000FFFFFFFFFFFFFFFF000000000000000029
:102FB0000000000000000000000000000000000011
:102FC0000000000000000000000000000000000001
:102FD00000000000000000000000000000000000F1
:102FE000000000E0F0F0E0E0E0E0E0E0E0E0E0E061
:102FF000E0E0E0E0E0E0E0E0E0E0E0E0E0E0E0C0F1
:10300000C0C0F0F0F0E0E0E0E0E0E0F0E0F0E0C0D0
:10301000C0C00000000000E1E1F1E1E1E1E1E1E137
:10302000E1F1F1F12141E1E1E1E1E1E1E1E1E1F1B0
:10303000010101E1F1E1E1E1E1E1E1E1E1E1E1E110
:10304000E1E1E1E1E1E1E1E1E1E1E1F1C1C1C18120
:103050008181010101F1F1E1E1E1E1E1E1F1210130
:1030600001010101010101018080E0F0E0E0E0E008
:10307000E0E0E0E0E0E0E0E0E0E080808000000010
:103080000000000000000000000000000000000040
:103090000000000000000000000000000000000030
:1030A000000000FFFFFFFFFFFFFFFFFFFFFFFF012B
:1030B000010101010101030303FFFFFFFFFFFFFF08
:1030C000FFFFFF07FF0707077F7F7FFFFFFFFFFF70
:1030D000FFFFF8F8FCFEFEFFFFFFFFFFFFFF1F1FD3
:1030E0001F01010100EEFFFFFFFFFFFFFFFFFFFFDA
:1030F000000000FFFFFFFFFFFFFFFFFFFFFFFFC11B
:10310000C1C0C1C1C1F3F7F7FFFFFFFFFFFFFFFF22
:10311000FFFF000000FFFFFFFFFFFFFFFFFF0000BA
:1031200000E0E0E0F8FCFCFFFFFFFFFFFFFFFFFF18
:10313000EFE3E3F3FFFFFFFFFFFFFFFFFFFCFCFCFC
:10314000E0E0C0808080C0C0C0C0C0C0C0808080BF
:10315000000000000000000000000000000000006F
:10316000000000030303030303030303030303003B
:10317000000000000000000000030303030303033A
:103180000303030303000000000000030303030321
:10319000030303030303030303030301010000000C
:1031A0000000000000000303030303030303030301
:1031B00000000003030303030303030303030303E8
:1031C00003030303030303030303030303030301D1
:1031D00001010000000303030303030303030303CC
:1031E00003030303030303030303030101000000BC
:1031F00000000000000000010103030303030303B8
:103200000303030303030707070707070703030174
:10321000000000003832000800000020100000000C
:10322000102B0008483200081000002000060000A3
:10323000202B00080000000000000000010000003A
:08324000100000000024F4005E
:0400000508000131BD
:00000001FF
