:020000040800F2
:1000000068060020450100083F320008E529000885
:100010003D320008050E0008F5370008000000001A
:10002000000000000000000000000000E5320008B1
:10003000F11100080000000041320008E73200081A
:100040005F0100085F0100085F0100085F01000810
:100050005F0100085F0100085F0100085F01000800
:100060005F0100085F0100085F0100085F010008F0
:100070005F0100085F0100085F0100085F010008E0
:100080005F0100085F0100085F0100085F010008D0
:100090005F0100085F0100085F0100085F010008C0
:1000A0005F0100085F0100085F0100085F010008B0
:1000B000813300085F0100085F0100085F0100084C
:1000C0005F0100085F0100085F0100085F01000890
:1000D0005F010008DD370008E5370008ED3700084C
:1000E0005F0100085F0100085F0100085F01000870
:1000F0005F0100085F0100085F0100085F01000860
:100100005F0100085F0100085F0100085F0100084F
:100110005F0100085F0100085F0100085F0100083F
:100120005F0100085F0100085F0100085F0100082F
:10013000DFF80CD000F04EFB00480047F139000812
:10014000680600200648804706480047FEE7FEE7AD
:10015000FEE7FEE7FEE7FEE7FEE7FEE7FEE7FEE777
:100160003533000831010008202A04DB203A21FA47
:1001700002F00021704721FA02F3D040C2F12002C0
:100180009140084319467047D2B201E000F8012BB4
:10019000491EFBD270470022F6E710B513460A4607
:1001A00004461946FFF7F0FF204610BD70B506461D
:1001B00003F038FC046805460A220021304600F0AE
:1001C0003DFA2C6070BD80EA010210B502F00043D8
:1001D000400022D04A001FD0010E01EB1261C0F393
:1001E0005600C2F3560240F4000042F40002A0FBA5
:1001F000022000047F39140400D0401C50EA124051
:1002000001D44000491EC2B20C0604EBD010401CC1
:100210004008802A02D003E0002010BD20F0010039
:10022000002900DA0020184310BD2DE9FE4F80465A
:1002300081EA0300C00F0C46009021F0004123F03A
:100240000045B8EB0200A94105D240462146904640
:100250001C460B46024623F00040104347D0270DB2
:10026000C7F30A00C3F30A510290401A01904028D4
:100270006BDAC3F3130040F4801B0098924620B160
:100280000023D2EB030A63EB0B0B01985946C0F134
:100290004002504600F05CF906460D46504659466D
:1002A000019A00F064F910EB08006141002487EA2C
:1002B000115284EAE7731A4340D0009A62B3019A5C
:1002C000012A4FEA075215DC001B61EB02014FF0D7
:1002D000004202EA0752CDE90042001C41F58011BC
:1002E00032462B4600F028FA03B0BDE8F08F4046B6
:1002F0002146F9E7001B61EB0201001C41F5801368
:1003000000185B412018A2F5001747EB030140EAF3
:10031000D570B6196D4111E06D084FEA360645EA11
:10032000C0754FEA0752001B61EB0201001C41F54A
:10033000801149084FEA30000019514132462B46DE
:1003400003B0BDE8F04F00F0E8B90098012240008A
:100350000023D0EB020263EBE073009821464FEAE2
:10036000E074B8EB000061EB0401E9E783F00043BF
:100370005BE781F0004158E72DE9FE4F81EA030475
:1003800004F0004421F0004100944FF0000B23F0F2
:10039000004350EA01045ED052EA03045BD0C3F389
:1003A0000A54C1F30A552C44A4F2F3340194A0FB7F
:1003B0000254C1F3130141F48011C3F3130343F456
:1003C000801301FB024400FB034E840A970A44EAAF
:1003D000815447EA8357A4FB076802958D0A05FB01
:1003E00007854FEA932C04FB0C542705029D4FEA26
:1003F000065847EA1637B5EB08056EEB070C870E73
:10040000920E47EA811742EA8312A7FB0201B6EB7C
:100410000B0164EB00042B0D43EA0C335E1844EB34
:100420001C50DA465146E7FB0201C5F313044FEABC
:100430000B3343EA14534FEA0432019C43EA0603A8
:10044000A4F10C040294009CCDE900B400F074F90E
:1004500003B0BDE8F08F00200146F9E70EB5C10FEB
:1004600080EAE0700844CA07002140F233438DE877
:100470000E000A460B4600F05FF903B000BD0EB552
:1004800040F2334102910021CDE900110A460B46AA
:1004900000F052F903B000BD20F00040C10DC0F3E0
:1004A000160040F400007F2901DA002070479629E9
:1004B00003DCC1F19601C840704796398840704707
:1004C000C1F30A5210B5C1F3130140F2FF3341F4F6
:1004D00080119A4201DA002010BD40F233439A4263
:1004E000A2F2334203DC5242FFF73EFE10BD9040C1
:1004F00010BD00F0004230F000400AD0C10D01F5FF
:100500006071C0F3160042EA0151C208400711436E
:10051000704700200146704701F0004330B421F0DD
:10052000004150EA010206D00A0DA2F56072C1F343
:100530001301002A02DC30BC00207047440F44EA5B
:10054000C104C100E01830BC00EBC25000F0AEB8EE
:10055000202A04DB203A00FA02F100207047914083
:10056000C2F1200320FA03F3194390407047202A78
:1005700006DBCB17203A41FA02F043EAE07306E0CB
:1005800041FA02F3D040C2F12002914008431946DB
:10059000704700000FB40B0010B58AB00FA900918E
:1005A0000E994FF00004234ACC60214CCDE906425D
:1005B00000D004236FF00042CDE901321E4A0892B8
:1005C00002466B46002000F0B9F90AB010BC5DF895
:1005D00014FBF0B585B007464FF0FF300091CDE930
:1005E00001011E46002015460C4604903B466A4613
:1005F000314604A8FFF7CEFF04990346601825B1E1
:1006000009B1024600E022462A6000290ED0002BE4
:1006100002DD0099814209D00094001BCDE901045C
:100620003B466A46314604A8FFF7B4FF05B0F0BD6B
:10063000750B0008930B0008010800082DE9F0472E
:1006400091460F4680460446002614F8015B2DB102
:1006500000F0D2F80068405DC007F6D12B2D02D023
:100660002D2D18D0641E4A463946204600F0A2FAC5
:1006700027B13968A14201D1C7F8008071054FF058
:1006800002040BD54042002803DD03F0CBF90460DF
:10069000A007BDE8F08746F48066E4E70028F8DAB2
:1006A00003F0C0F904606FF00040F2E70029A8BF32
:1006B0007047401C490008BF20F00100704710B48B
:1006C000B0FA80FC00FA0CF050EA010404BF10BC40
:1006D000704749B1CCF1200421FA04F411FA0CF16D
:1006E00018BF012121430843A3EB0C01CB1D4FEAA6
:1006F00000614FEA102042BF002010BC704700EBA1
:10070000C35010440029A4BF10BC7047401C4900CE
:1007100008BF20F0010010BC704710B5141E73F123
:10072000000408DA401C41F1000192185B411A43B1
:1007300001D120F0010010BD2DE9F04D92469B46FD
:1007400011B1B1FA81F202E0B0FA80F220329046A3
:10075000FFF7FEFE04460F4640EA0A0041EA0B019D
:1007600053465A46084313D0114653EA010019D0A4
:10077000C8F140025046FFF7F7FC05460E465046CA
:1007800059464246FFF7E4FE084305D0012004E045
:1007900020463946BDE8F08D0020054346EAE07664
:1007A0002C4337430A986305E40AA0EB08000022B3
:1007B000FD0A44EA47540A3002D500200146E9E721
:1007C000010510196941DDE9084500196941BDE8D5
:1007D000F04DA2E7064C074D06E0E06840F001034B
:1007E00094E8070098471034AC42F6D3FFF7A4FC16
:1007F000744400089444000800487047203B0008F7
:1008000010B50446FFF7F8FF0068005D00F0010036
:1008100010BD00002DE9FF4F087883B09946FF28EE
:1008200005D0491C2D2804D00024002008E0002019
:100830000BE00124F9E700EB800003EB4000491CCA
:100840000B78FF2BF7D104B14042002302931478B8
:1008500019461D462D2C01D02B2C04D1521C2D2CB9
:1008600013D000240294AA461478FF2C0FD00A2536
:10087000A3FB057801FB05814FF0000C03FB0C1175
:10088000521CE3194AEB0101EEE70124EAE7814437
:1008900053EA010002D019F5C87F06DA0398002157
:1008A000C0E9001107B0BDE8F08F0025AE4E2F461D
:1008B000DFF8B882184600F049FACDE90001B9F135
:1008C000000002DAC9F1000400E004460023A74A50
:1008D0001AEB030B42EB045A12E0E00707D02A465A
:1008E000334638464146FFF747FD074688462A46C5
:1008F000334610461946FFF73FFD05460E46641085
:10090000002CEAD1DDE90001B9F1000F5A46534647
:1009100006DA00F0ACF93A46434600F0A8F905E0E3
:10092000FFF72AFD3A464346FFF726FD029A0AB131
:1009300081F00041039AC2E90001B3E72DE9FF4FBE
:100940001F468DB0D7E901464FF0FF382E204546AF
:100950004FF000090B90B9696D1C0E988847396AF1
:10096000824688470028F6D1BAF1FF3F0AD024F426
:10097000D064002E11DDBAF12B0F08D0BAF12D0F83
:100980000BD102E0404611B08DE744F48064B969B0
:100990006D1C0E9888478246761E6946600501D513
:1009A0002D2000E02B208DF8000001F1010B0DF14E
:1009B000200809E0B9696D1C0E98884782460F9897
:1009C00044F40074761E0560002E02DDBAF1300F8B
:1009D000F0D00B998A453ED144F0800406E00F998F
:1009E000681CA9F1010944F400740860B9696D1C20
:1009F000761E0E98884782463028F0D02BE00B995F
:100A00008A4505D1200603D444F08004761E18E000
:100A1000504603F027F808B30DF11302761EAAF131
:100A2000300044F40074934506D20BF8010B200605
:100A300007D5A9F1010003E0200602D409F1010065
:100A40008146A00502D50F99681C0860B9696D1C24
:100A50000E9888478246002ED1DC53E0002E51DDEF
:100A6000BAF1650F02D0BAF1450F4BD1A00549D5B7
:100A7000B9696D1C24F44074761E0E98884782462E
:100A8000002E0CDD2B2804D0BAF12D0F07D144F431
:100A90008074B9696D1C0E9888478246761EE00501
:100AA00001D52D2100E02B2108F8011BCDF82C8069
:100AB00021E00DF12901761E44F4007488450CD222
:100AC000AAF1300010F0FF0088F8000002D10B9965
:100AD000884509D908F1010806E0E00501D5244858
:100AE00001E042F20F708146B9696D1C0E9888478B
:100AF00082460F980560002E04DD504602F0B2FFDA
:100B00000028D6D1F9690E988847FF208BF800009D
:100B100088F800000020069007904B466A4608A916
:100B200006A8FFF777FEA00502D46FF001002AE7C0
:100B300014F0240F0AD0E00714D1DDE9061238685A
:100B4000031D3B600068C0E900120BE0DDE906010F
:100B5000FFF7E2FC0146E00704D13868021D3A6065
:100B60000068016028460EE7000014400000F03FD6
:100B7000F1D8FFFF426842B1016811F8013B23B18F
:100B8000521EC0E90012184670470121C160881E3C
:100B9000704742685AB1C368016843B983688B42A1
:100BA00005D0491E521CC0E90012002070474FF0CA
:100BB000FF3070472DE9F05F824600780027154628
:100BC0008B460AF10104B946302801D09DB113E0EB
:100BD00014F8010B0127782803D0582801D045B11B
:100BE0000AE00DB1102D07D10027102514F8010BD4
:100BF00002E0082500E00A250026B0460EE005FBCD
:100C0000080005FB06F1012701EB10461FFA80F8EA
:100C1000B6F5803F00D3B94614F8010B294600F021
:100C200018F80028EBDABBF1000F05D00FB1641EF5
:100C300000E05446CBF80040B9F1000F06D002F0B6
:100C4000F1FE02210160C81EBDE8F09F48EA06409F
:100C5000FAE73A2800D2303820F02002412A01D3A6
:100C6000A2F13700884201D34FF0FF3070472DE9E1
:100C7000F04D81EA030404F0004B21F000451446D6
:100C80004FF0000A23F0004150EA050220D054EA58
:100C900001021DD0C5F30A570246C5F31303C1F381
:100CA0001300C1F30A5640F4801543F48013A7EBF8
:100CB0000608101BD64608F2FD3873EB050002D378
:100CC00008F1010801E092185B41B8F1000F03DA66
:100CD00000200146BDE8F08D00204FF4801106464B
:100CE00084460EE0171B73EB050705D3121B63EB5D
:100CF000050306434CEA010C49084FEA30009218FC
:100D00005B4150EA0107EDD152EA030012D082EABA
:100D1000040083EA0501084305D0101BAB4106D24D
:100D20000122002306E000224FF0004302E06FF0B2
:100D3000010253101AEB06004CEB085110EB0A00AD
:100D400041EB0B01BDE8F04DFFF7E7BC0EB540F2FB
:100D5000334202920022CDE900221346FFF7ECFC59
:100D600003B000BD2DE9F843514EDFF87C94234FCA
:100D7000234C00254FF0010800951BE001204FF4A3
:100D80007A71322202F002F800F0EAFAB0F5937FAD
:100D900010DD00F0E5FAB0F5987F0BDC204600216D
:100DA000C9F80050C6F800803D6001F091FB204674
:100DB00001F06BF930680028E0D04FF4FA6000F0E1
:100DC0004FFB0B480068FFF794FB0A4B4FF03332A0
:100DD000FFF72BFAFFF7A0FB009007490098FFF7F9
:100DE000F2F9FFF759FBBDE8F84300F053BA00BF32
:100DF0001C0000203333D3BF0000C8423C00002059
:100E0000E0000020FEE7000080B514481421002215
:100E1000002301F0A9FF01F0E7FD90B1642000F08C
:100E20001FFB01F0E1FD60B101F0DEFD0138032898
:100E300007D8DFE800F002070B0FBDE8804000F0A4
:100E400039B880BDBDE8804000F05CB8BDE88040A6
:100E500000F0C4B8BDE8804000F002B8FC430008D0
:100E600080B501F08FFE0A2000F0FAFA0F48172132
:100E70000022002301F078FFDA4815210122002327
:100E800001F072FF01F0B0FD0028FBD101F0ACFDD4
:100E90000028FBD0064800210160FFF763FF4FF4F4
:100EA000FA60BDE8804000F0DBBA00BF3C3B0008C0
:100EB0006002002080B501F065FE0A2000F0D0FA43
:100EC0000F480C210022002301F04EFFC5481521D8
:100ED0000122002301F048FF01F086FD0028FBD12C
:100EE00001F082FD0028FBD041F2FE0000F00EFA76
:100EF0004FF4FA6000F0B4FABDE8804001F042BE61
:100F0000EC3B0008F8B50020ADF8020001F03AFE15
:100F10000A200A2500F0A4FA2C482D4C0F210022AB
:100F20000023A0472B481E2101220023A047AC4FDD
:100F3000B847BDF80210642600FB0610ADF80200A9
:100F4000B847BDF8021000EB800001EB4000ADF89F
:100F50000200B847BDF802100222002308440A210B
:100F6000ADF802001C48A047BDF802009A4FB0FB44
:100F7000F6F0C0B2B847BDF80200B0FBF6F101FBD5
:100F80001600B0FBF5F0B847BDF80200B0FBF5F174
:100F900001EB8101A0EB4100B847924815210322E3
:100FA0000023A04701F020FD0028FBD101F01CFD2B
:100FB0000028FBD0BDF8020000F06CF901F0E2FD62
:100FC0004FF4FA60BDE8F84000F04ABABC3C0008B3
:100FD000692D0008443C00081C3C0008FEB50020B8
:100FE000ADF80A00ADF808008DF807008DF806008E
:100FF00001F0C8FD0A2000F033FA754817210022DD
:10100000002301F0B1FE734814210122002301F0F6
:10101000ABFE01F0E9FC0028FBD101F0E5FC002863
:10102000FBD001F0E1FC8DF807009DF807000428D3
:1010300004D09DF80700082840F0C4809DF8070000
:10104000042802D101F0D6FD05E09DF8070008282C
:1010500008BF01F0C1FD00F0CDF8BDF8081000EBAD
:10106000800001EB4000ADF8080000F0C3F8BDF8C7
:10107000081000EB80000A24574D01EB4000ADF84A
:1010800008009DF80700082802BFBDF8080040428C
:10109000ADF80800BDF908001F28A4BF1E20ADF858
:1010A0000800BDF9080010F11F0FDCBF6FF01D0034
:1010B000ADF80800BDF9080090FBF4F0C0B2A847F5
:1010C000BDF9080090FBF4F101EB8101A0EB4100B8
:1010D000C0B2A847414816210222002301F044FE75
:1010E0003F4EB047BDF80A10642700FB0710ADF86B
:1010F0000A00B047BDF80A1000EB800001EB400089
:10110000ADF80A00B047BDF80A100844ADF80A006F
:10111000BDF80A00B0FBF7F0C0B2A847BDF80A005E
:10112000B0FBF7F101FB1700B0FBF4F0A847BDF8E6
:101130000A00B0FBF4F101EB8101A0EB4100A847EC
:10114000284815210322002301F00EFE01F04CFC7B
:101150000028FBD101F048FC0028FBD022480021E8
:101160000160BDF90810BDF8080000B201290BDBD1
:10117000FFF774F91D4B4FF06632FFF7FDF8FFF7EC
:101180009FF9014601200DE0002800D54042FFF7FD
:1011900065F9164B4FF06632FFF7EEF8FFF790F95E
:1011A00001460020642201F0F1FD41F2883000F098
:1011B00057F9BDF80A0000F06DF801F0E3FC4FF4B8
:1011C000FA6002E001F0DEFC0A2000F049F9FEBD01
:1011D000A03D0008F83C0008AD2B0008483D000881
:1011E000F5110008983B0008380000206666204092
:1011F0007047000010B501F0F7FB0028FBD101F0AB
:10120000F3FB0028FBD001F0EFFB0446013809286E
:1012100018D8DFE800F0050B111720262C173238FC
:101220004FF4FA7000F01CF9012010BD4FF4FA7071
:1012300000F016F9022010BD4FF4FA7000F010F91A
:10124000032010BD4FF4FA7000F00AF900200B2CB7
:1012500008BF092010BD4FF4FA7000F001F9042016
:1012600010BD4FF4FA7000F0FBF8052010BD4FF4EC
:10127000FA7000F0F5F8062010BD4FF4FA7000F097
:10128000EFF8072010BD4FF4FA7000F0E9F80820DD
:1012900010BD0000E0B50021C828ADF8061098BFC9
:1012A000C820B0F5967F28BF4FF49670FFF7E7F897
:1012B000104A114BFFF760F8104B4FF06632FEF703
:1012C000B4FF0F4B4FF03332FFF756F8FFF7F8F843
:1012D000ADF806000B480068BDF8061041634FF4F6
:1012E0007A7000F0BDF841F2FE00BDE88C4000F0DD
:1012F0000DB800BFF9A067B3EAB315C066CFA4402C
:101300003333F33FA00000207047000070B5124D4A
:101310000446284600F0A2FE284600F016FE2846A5
:1013200000F07AFE4CF25030844288BF70BD2868CD
:101330000A4E0021002241623046022100F074F979
:101340002868416AA142FCD3304602210122BDE84F
:10135000704000F069B900BF60010020000C01403E
:101360000148B0F9060070471000002090F82110E5
:10137000022919D10268116821F00E01116011686B
:1013800021F0010111602B4901F17C039A420FD930
:10139000304B9A4224D0304B9A4223D02F4B9A4262
:1013A00022D14FF4807327E004218163012070472C
:1013B000214B9A4226D0214B9A4225D0204B9A426B
:1013C00024D0204B9A4224D01F4B9A4217D01F4B57
:1013D0009A4221D01E4B9A4211D14FF080721DE0EB
:1013E000012309E0102307E001F5886C4FF48033F6
:1013F000624508BF4FF48053C1F800340FE04FF44A
:1014000080320BE0012209E0102207E04FF48072E5
:1014100004E04FF4805201E04FF480120A604FF470
:1014200080710184416B19B180B58847002080BD6F
:101430000020704704000240080002401C000240E7
:101440003000024044000240580002406C0002405C
:1014500080000240080402401C04024030040240A4
:10146000B0B5044600F0E6F805468F48611C0078E8
:1014700018BF044400F0DEF8401BA042FAD3B0BD10
:101480002DE9FC4F81465D4806234FF001084FF0DF
:101490000F0E4FF0000A8145594808BF0523484404
:1014A0004FEAB022052A38BF4FEAB023009300224A
:1014B00000230C6834FA02F508BFBDE8FC8F08FA77
:1014C00002F73C4200F096804D68032D16D9112D8D
:1014D00026D0122D28D04D48854213D04C48854245
:1014E00010D04C4885420DD04B4885420AD04B481D
:1014F000854207D04A48854204D022E0DFE805F063
:1015000002181B1F8C6844B1012C14BFC9F8147059
:10151000C9F810704FF0080A13E04FF0040A10E009
:10152000CC6804F1040A0CE0CC6804F10C0A08E071
:10153000D1F80CA005E0CC6804F1080A01E04FF0F6
:10154000000A1C464846082A28BF203C28BF043011
:1015500006680EFA04F50AFA04F426EA05052C4397
:101560000460C879C00645D55E48264E22F00305C2
:1015700004460068B346354440F00100206020680E
:1015800000F00100019003F00C00019E0EFA00F43F
:10159000244EB446AE5926EA0404009E06FA00F032
:1015A000204345F80C004D68E803DBF8000054BF09
:1015B00020EA070440EA0704CBF80040A803DBF860
:1015C000040054BF20EA070440EA0704CBF80440B3
:1015D000E802DBF8080054BF20EA070440EA0704E9
:1015E000CBF80840A80208480446006854BFB84336
:1015F00038432060043301325BE700BF001C014028
:1016000000F8FEBF000401400C040140000011106E
:101610000000121000002110000022100000311004
:101620000000321008FCFFFF002A08BF0904016116
:101630007047000005480068704700BF1A4803491A
:1016400000780A6810440860704700BF64020020F8
:1016500080B59048016841F010010160032000F05E
:1016600071F8002000F004F800F020F8002080BDA0
:1016700070B50D4E04464FF47A713078B1FBF0F03E
:1016800091490968B1FBF0F000F000FC01250F2C36
:1016900008D838B94FF0FF3021460022002500F06D
:1016A00033F87460284670BD0400002082B00D48F5
:1016B0000222016841F001010160016801F00101AD
:1016C00001910199416841F080514160406800F00A
:1016D0008050009000980448016862F31A6101602C
:1016E00002B070471810024004000140002808DBD7
:1016F00000F01F010122400902FA01F1014A42F8FB
:101700002010704700E100E080B5144B1B68C3F364
:10171000022CBCF1030E8CF007034FF0FF3C38BFE6
:101720004FF0000E042B28BF04230CFA03F3994357
:101730000CFA0EF301FA0EF19A431143BDE8804012
:1017400002F044B905494FF6FF030A681A4060F3F6
:101750000A22034810430860704700BF0CED00E008
:101760000000FA052DE9F843002800F08E80884635
:1017700048490446086800F0070040450AD2086856
:1017800020F0070040EA08000860086800F0070041
:1017900040457AD120685C4B8946810711D54107C5
:1017A00042BF196841F4E0611960010742BF19683E
:1017B00041F4605119601968A26821F0F0011143E9
:1017C0001960C0072AD06068012804D153F8041CAE
:1017D000890309D459E053F8041C022802D1890175
:1017E00002D452E0890750D519681D4621F0030143
:1017F00008431860FFF71EFF064641F28837286845
:1018000061682B4600F00C00B0EB810F06D0FFF7AB
:1018100011FF801BB842F2D9032037E0D9F800004D
:1018200000F0070040450DD9D9F8000020F007006E
:1018300040EA0800C9F80000D9F8000000F00700ED
:10184000404522D12068410705D51968E26821F496
:10185000E06111431960000706D51868216920F47A
:10186000605040EAC10018601C4600F031F8216861
:10187000094AC1F30311515CC840F24908600748A6
:101880000068FFF7F5FE002000E0012001B0BDE890
:10189000F08300BF00200240243B00080800002025
:1018A000E8481949094A00680968C1F30221515CF6
:1018B000C8407047E3481449044A00680968C1F306
:1018C000C221515CC84070470C000020343B000826
:1018D00010B50D4C0D48226802F00C03082B18BF00
:1018E00010BDC2F383430AA1CB5CD10302D40D48DF
:1018F000584310BD21680AA25843C1F34041515CCE
:10190000B0FBF1F010BD00BF0410024000127A00DD
:1019100002030405060708090A0B0C0D0E0F101030
:101920000102000000093D002DE9FC41002800F003
:10193000408104460078C14EC0074AD0706800F06C
:101940000C00042817D0706800F00C00082802D1A1
:101950007068C0030FD4606898B1B0F5803F06D0BE
:101960003168B0F5A02F21D141F48020306030687B
:1019700040F4803020E0306880032AD5606840BBA6
:1019800017E1306820F480303060306820F4802027
:101990003060FFF74FFE05463068800319D5FFF72A
:1019A00049FE411B03206429F6D903E121F480306C
:1019B0003060306820F480203060FFF73BFE054641
:1019C0003068800305D4FFF735FE401B6428F7D943
:1019D000D1E0207880072BD5706810F00C0F07D06D
:1019E000706800F00C00082809D17068C00306D4A4
:1019F0003068800715D52069012812D0D9E0216907
:101A00008F4800297CD001210160FFF713FE0546B5
:101A10003068800705D4FFF70DFE401B0228F7D978
:101A2000A9E03068616920F0F80040EAC100306048
:101A3000207800072ED5A06978B181480121C0F82F
:101A40008014FFF7F7FD0546706A800715D4FFF78D
:101A5000F1FD401B0228F7D98DE079480021C0F83C
:101A60008014FFF7E7FD0546706A800712D5FFF77F
:101A7000E1FD401B0228F7D97DE072484FF4FA518E
:101A80000068B0FBF1F0019000BF0198411E0028F2
:101A90000191F9D12078400776D5F069C0000BD4C8
:101AA000F0694FF0010840F08050F061F06900F0FB
:101AB00080500090009801E04FF00008624F3868B5
:101AC000C0050FD4386840F480703860FFF7B2FD6D
:101AD00005463868C00505D4FFF7ACFD401B6428F7
:101AE000F7D948E0E068D8B1012805D0316A052867
:101AF0002DD141F004003062306A40F001002CE04A
:101B000000210160FFF796FD0546306880077FF5EC
:101B10008FAFFFF78FFD411B03200229F5D949E064
:101B2000306A20F001003062306A20F00400306238
:101B3000FFF780FD054641F28837306A80071CD5E3
:101B4000FFF778FD411B0320B942F6D932E021F0BE
:101B500001003062306A20F004003062FFF76AFD55
:101B6000054641F28837306A800706D4FFF762FDE8
:101B7000401BB842F7D903201CE0B8F1000F1EBF8C
:101B8000F06920F08050F061E769002F53D0706851
:101B900000F00C00082810D1012F0AD07068216ACB
:101BA00000F480328A4204D1616A00F470108842E5
:101BB00041D0012002B0BDE8F081214900208846D3
:101BC0000866FFF737FD0546022F0AD14746306801
:101BD000800110D5FFF72EFD411B03200229F6D905
:101BE000E8E73068800126D5FFF724FD411B03207C
:101BF0000229F6D9DEE7206AB0F5803F05D1716889
:101C0000A26821F40031114371607168626A104367
:101C100021F474110843706001203866FFF70AFD53
:101C200004463068800106D4FFF704FD011B032041
:101C30000229F6D9BEE70020BCE700BF0010024031
:101C4000000042420C0000200070004070B5B8B3A4
:101C5000002605464FF0000C866290F8510030B91E
:101C6000284685F8506000F02FF8D5F828C00221EA
:101C700085F8511029680A6822F040020A60D5E907
:101C80000123D5E903041A4310436A692043104332
:101C9000AA6902F400731843EB6918432B6A1843CE
:101CA00040EA0C000860042000EA12404860C8695D
:101CB00020F40060C86101206E6585F8510000E0E5
:101CC0000126304670BD0000FEB501460020CDE97A
:101CD0000400CDE902001248096800F52052914243
:101CE0001BD110490A6842F480520A600A6802F463
:101CF00080520192019A0A6842F004020A6009685F
:101D000001F0040101910199032105910221039140
:101D1000A021029102A9FFF7B3FB06B080BD00BF6E
:101D200000080140181002402DE9F843044690F8DD
:101D30005000012801D10220A4E04FF001091D4606
:101D400016460F4684F85090FFF774FC804694F8CE
:101D50005100012854D10120002F00F08E80002E68
:101D600000F08B800320731E84F851000020B3FA2A
:101D700083F36065E686A6862763A087A063C4E92F
:101D80001000E0875B09A1682068B1F5004F02BF31
:101D9000016841F480410160016849065EBF016845
:101DA00041F0400101606168E268B1FA81F1B2F589
:101DB000006F4FEA511141EA030123D131B137F8E5
:101DC000021BC1602763E08E0138E0866E1C13E0C1
:101DD00020688168890707D4FFF72CFC66B1A0EB67
:101DE0000800A84208D347E0216B31F8022BC260FB
:101DF0002163E08E0138E086E08E0028E8D124E0FF
:101E000002203AE039B139780173206B0130206348
:101E1000E08E0138E0866E1C14E020688168890736
:101E200007D4FFF707FC6EB1A0EB0800A84209D366
:101E300022E0216B09780173206B01302063E08E72
:101E40000138E086E08E0028E7D120462946424648
:101E500001F0F7F908B120206065A06838B90020CA
:101E600000902068C1680091806800900098606DC3
:101E7000002818BF012000E00320002184F8501042
:101E800084F8519001B0BDE8F0830000411E0020AD
:101E9000B0EB116F1CBF01207047044AF023516062
:101EA00003490B70072190601160704710E000E05B
:101EB00023ED00E07047704790F83C20012A01D1E3
:101EC00002211FE0B0B501F10805D1E900CE3CCDFB
:101ED000C96923F47C5322F470521A432EF4F04360
:101EE0001A432CF4E0431A4324F4C0431A432A4310
:101EF00022F48042114302685164002180F83C10B2
:101F0000BDE8B0400846704790F83C300222012BF3
:101F100019D080B580F83D2002685368D2F808C017
:101F200023F0700ED1E9003143EA0E0353602CF028
:101F30008003194391600022012180F83C2080F841
:101F40003D10BDE8804010467047B0B110B5044662
:101F500090F83D0028B9002084F83C00204600F0AD
:101F60000FF80220211D84F83D00206801F054FA8A
:101F7000012084F83D00002010BD012070470000C2
:101F8000E0B50068B0F1804F15D01F49884226D0D7
:101F90001E4988422CD01E49884218BF8CBD1D485E
:101FA00050F8041C41F4006140F8041C50F8040C83
:101FB00000F4006024E017480022016841F00101AC
:101FC00001600021006800F00100019001981C20D0
:101FD000FFF79AFB1C20BDE88C40FFF787BB0D483C
:101FE000016841F002010160006800F0020007E0B2
:101FF0000848016841F008010160006800F008002D
:10200000019001988CBD00BF00040040000C00400E
:10201000002C01401C100240022180F83D10016894
:102020008A6802F00702062A1EBF0A6842F001020F
:102030000A60012180F83D10002070470068C168E7
:1020400041F00101C160816801F0070106291EBF4E
:10205000016841F00101016000207047022141F256
:10206000111380F83D1001680A6A1A4208D10A6A01
:1020700040F244431A4203D10A6822F001020A6086
:10208000012180F83D1000207047006841F21112D4
:10209000C16821F00101C160016A114208D1016AE1
:1020A00040F24442114203D1016821F00101016074
:1020B0000020704710B590F83C2004460220012A09
:1020C00008BF10BD84F83D0001204FF6777284F8F8
:1020D0003C00206884465CF8083F23EA0202CCF802
:1020E00000200B682BB1102B03D0202B18BF302BF6
:1020F0000FD1DCF8000020F07000184340F007001A
:10210000CCF800000020012184F83C0084F83D1048
:1021100010BD402B1AD0502B26D0602B32D0B3F5F7
:10212000005F3DD0702BEDD1D1E90102C9681043A9
:1021300040EA0120DCF8001021F47F410843CCF88C
:102140000000DCF8000040F07700D9E74B68CA686F
:10215000194601F063FAD4F800C05CF8080F40F0AB
:10216000470020F03000CBE74B68CA68194601F001
:1021700055FAD4F800C05CF8080F40F0570020F082
:102180002000BDE74B68CA68194601F058FAD4F838
:1021900000C05CF8080F40F0670020F01000AFE7C7
:1021A000D1E90102C968104340EA0120DCF80010BF
:1021B00021F47F410843CCF80000DCF8000040F433
:1021C00080409DE7704710B50446006801698907A3
:1021D00044BFC1685FEA817138D40169490744BFCF
:1021E000C1685FEA41713DD40169090744BFC16814
:1021F0005FEA017143D40169C90644BFC1685FEA5F
:10220000C16148D40169C9071CBFC1685FEAC171D7
:102210004ED10169090644BFC1685FEA01614FD42C
:102220000169490644BFC1685FEA416150D4016950
:10223000890646BFC1685FEA816110BD6FF0200169
:1022400001612046BDE81040FFF735BE6FF0020186
:102250000161012121778069800741D02046FFF785
:10226000B1FF43E06FF00401016102212177806931
:1022700010F4407F3ED02046FFF7A4FF40E06FF00F
:102280000801016104212177C06980073CD0204604
:10229000FFF798FF3EE06FF0100101610821217700
:1022A000C06910F4407F39D02046FFF78BFF3BE038
:1022B0006FF001010161204600F03CF92068A8E7B9
:1022C0006FF0800101612046FFF7F4FD2068A7E769
:1022D0006FF040010161204600F056F92068A6E742
:1022E000204600F06BF8204600F0D4F8002020775C
:1022F000206872E7204600F061F8204600F0CAF836
:102300000020207720686FE7204600F057F820462D
:1023100000F0C0F80020207720686CE7204600F02D
:102320004DF8204600F0B6F800202077206869E7D5
:10233000FEB50021CDE90411CDE902110068B0F12C
:10234000804F1ED07A4988422ED11848016841F04A
:102350004001016002A9006800F04000019001986E
:102360000220059003904FF400700290104800F591
:102370008050FFF785F80F480F4A0168114301604C
:1023800012E00A48016841F00401016002A90068F6
:1023900000F00400019001980220059003900120B4
:1023A00002900348FFF76CF806B080BD1810024099
:1023B0000008014004000140C00000077047000011
:1023C00070B50D4690F83C1004460220012908BF64
:1023D00070BD84F83D004FEAB2000126032884F85E
:1023E0003C6036D8DFE800F0020A12222068294655
:1023F00001F058F8206850F8181F0EE020682946B0
:1024000001F07EF8206850F8181F16E02068294671
:1024100001F0A8F8206850F81C1F41F00801016085
:10242000016821F00401016029690FE02068294654
:1024300001F0CAF8206850F81C1F41F400610160E7
:10244000016821F480610160296909020268114371
:102450000160002084F83C0084F83D6070BDB0B19C
:1024600010B5044690F83D0028B9002084F83C00DF
:10247000204600F00EF80220211D84F83D0020685F
:1024800000F0CAFF012084F83D00002010BD0120AB
:10249000704770477047000010B50446006801227D
:1024A00000F0F0FF20682149884202D0204988428C
:1024B00003D1416C41F400414164816801F007019E
:1024C00006291EBF016841F001010160002010BD16
:1024D00010B504460068002200F0D4FF20681349BC
:1024E000884202D0124988420DD1016A41F211128C
:1024F000114208D1016A40F24442114203D1416CB9
:1025000021F400414164016A41F21112114208D1E3
:10251000016A40F24442114203D1016821F00101F5
:102520000160012084F83D00002010BD003401400E
:10253000002C014070B51049884200D070BD104990
:102540000E4D28680968013000292860F6D000285F
:1025500008BF70BD8842F1D1074C002100262046FB
:10256000FFF7B6FF074806600120C5E90060204676
:10257000BDE87040FFF789BDE00000203400002076
:10258000440000203C0000207047704710B5D0F890
:1025900000E00446DEF80010DEF80C20DEF814300F
:1025A0005FEA017C50D002F4907003F00103C01880
:1025B00052D0C8071FBF12F48070E06B40F00100DA
:1025C000E063480704D51BB1E06B40F00200E06314
:1025D000880704D51BB1E06B40F00400E063BCF158
:1025E000000F04D51BB1E06B40F00800E063E06B26
:1025F00000286ED002EA0100800604D5204601F0D2
:1026000042F8D4F800E0DEF81400E16B00F040007E
:1026100001F0080140184CD0204601F027F820684E
:102620004169490640D5416921F040014161606B33
:10263000D0B32F494163FEF799FE002849D0606B63
:10264000416BBDE81040084711408A0605D5204679
:10265000BDE8104001F017B8114008060FD4480635
:1026600037D5DEF80C0020F04000CEF80C0020201A
:1026700084F839002046BDE8104000F0B2B994F863
:102680003900212825D1A068216AB0F5805F16D1D4
:1026900008886FF35F20CEF804002069002814BF7B
:1026A000481C881C20620FE02046BDE81040FFF760
:1026B0006CBF2046FFF769FF0020E06310BD481C97
:1026C00020620878CEF80400E08C0138E084000431
:1026D00000D010BDDEF80C0020F08000CEF80C0019
:1026E000DEF80C0040F04000CEF80C0010BD00BF3A
:1026F0006136000850B310B5044690F8390028B987
:10270000002084F83800204600F022F8242084F8C5
:1027100039002068C16821F40051C160204600F0F2
:10272000EFFF2068016921F490410161416921F0C6
:102730002A014161C16841F40051C160002020219B
:10274000E06384F8391084F83A1010BD0120704716
:1027500070B586B000267649CDE90466CDE90266FB
:102760000068884237D04E49884262D04D4988423D
:1027700040F093804C484D4C02AD016841F48041DB
:102780000160016801F4804101910199016841F003
:10279000040101602946006800F0040001900198DE
:1027A00003200590022003904FF400700290204611
:1027B000FEF766FE00202946CDE903004FF4806055
:1027C00002902046FEF75CFE252001210022FEF744
:1027D0009BFF25205FE03448344C02AD416841F452
:1027E00000314160416801F40031019101990168B3
:1027F00041F0040101602946006800F004000190E6
:1028000001980320059002200390042002902046A6
:10281000FEF736FE0820CDE90366294602902046E1
:10282000FEF72EFE262002210022FEF76DFF262055
:1028300031E01D4802AD416841F4802141604168AA
:1028400001F4802101910199016841F008010160C2
:102850002946006800F008000190019803200590C7
:10286000022003904FF480600290104800F58064CD
:102870002046FEF705FE00202946CDE903004FF46F
:10288000006002902046FEF7FBFD27200321002276
:10289000FEF73AFF2720FEF729FF06B070BD00BF04
:1028A0000048004000380140181002400008014074
:1028B000034690F83A00202806D10120E9B1E2B1A0
:1028C00093F83800012801D1022070470020DA85F2
:1028D000D8639A859962222183F8380083F83A10E8
:1028E0001968CA6842F48072CA604A6942F00102FB
:1028F0004A61CA6842F02002CA607047B0B50C4D08
:102900000446006805F58061884202D100F0B8FFF6
:10291000206805F57441884202D100F0F7FF206875
:10292000A84218BFB0BDBDE8B04000F0B5BF00BFC1
:10293000004400402DE9F041044690F83900202879
:102940000AD10E460120002949D01746002A46D058
:1029500094F83800012802D10220BDE8F08100205F
:102960001D46E063012084F83800212084F83900F6
:10297000FEF760FE8046E784A7841DE0E08C80219E
:1029800042462B460138E0842046A76800F0FAFE54
:10299000B7F5805F0BD1C8B9318820686FF35F212C
:1029A00041602069002814BF0136023604E068B98E
:1029B000206816F8011B4160E08C0028DED120461B
:1029C000402142462B4600F0DDFE10B10320BDE859
:1029D000F0810020202184F8380084F83910BDE807
:1029E000F0817047FEE7000070B5654CDD4E0F21A9
:1029F000002200252046B047204607210122B0478B
:102A0000204608210022B047A06800F0F000F0281E
:102A100008D00A20FEF724FDA06800F0F000F0289E
:102A20004DD15CE020460F210022B04720460B210B
:102A30000122B047204604210022B047A06800F0E0
:102A4000F000F02807D00A20FEF70AFDA06800F089
:102A5000F000F02847D120460F210022B047204641
:102A60000D210122B047204602210022B047A06874
:102A700000F0F000F02807D00A20FEF7F1FCA06873
:102A800000F0F000F02840D120460F210022B0478E
:102A900020460E210122B047204601210022B047E6
:102AA000A06800F0F000F02807D00A20FEF7D8FC5C
:102AB000A06800F0F000F02839D1284670BDA06869
:102AC00000F0F70077384FEA3010072807D80125C3
:102AD000DFE800F0070505053F054104A2E70025F2
:102AE000A0E704259EE7A06800F0FB007B384FEAD2
:102AF000301007283DD80525DFE800F0053B3B3BBB
:102B00002F3B3104A7E70825A5E7A06800F0FD00EA
:102B10007D384FEA301007282DD80925DFE800F06E
:102B2000052B2B2B212B2304AEE70C25ACE7A0684B
:102B300000F0FE007E384FEA301007281DD80D2522
:102B4000DFE800F0051B1B1B131B1504B5E7102560
:102B5000B3E7032566E7022564E707257BE706253B
:102B600079E70B2590E70A258EE70F25A5E70E25C7
:102B7000A3E700256FE7002586E700259DE700BF56
:102B80000010014010B500200021002400F09CF846
:102B900002E000F0CDF801340020B4F5C06FF8D3A6
:102BA0000021BDE8104000F08FB8000070B5800033
:102BB000084D174EC4B2285DB047601C285CB04772
:102BC000A01C285CB047E01C3146285CBDE8704082
:102BD000084700BF4C44000810B50D4C0820A04722
:102BE0000820A0470820A04700202146BDE810404B
:102BF000084700BF10B5064C0820A0470820A04792
:102C00003E20A04708202146BDE81040084700BFED
:102C1000312D0008F8B5BD4CBD4F02210022002522
:102C20002046B847204640210022B8471B4E32209C
:102C3000B047204640210122B84720460221012208
:102C4000B8473220B047164CE220A0473220B047A8
:102C50002F20A0473220B047A320A0478120A047C3
:102C60008020A047EB20A047C420A04700200021DF
:102C700000F02AF802E000F05BF801350020B5F51D
:102C8000C06FF8D3002100F01FF8AF2000F036F835
:102C90003220BDE8F840FEF7E3BB00BF6114000836
:102CA000FD2C000810B5044600F00F0000F026F8D7
:102CB00020091030BDE8104000F020B840F0B0000E
:102CC00000F0BF0000F01AB810B504460846FFF740
:102CD000E9FF2046BDE81040FFF7F0BFB0B504465D
:102CE000002000210025FFF7EFFFB5F5C06F08BFFA
:102CF000B0BD605D00F01CF80135F6E7BCB5834C53
:102D0000834D8DF80700022100222046A847204667
:102D100010210022A84791480DF1070101220A2342
:102D2000FFF702F8204602210122A847BCBD00BFE0
:102D3000BCB5764C764D8DF8070002210022204666
:102D4000A847204610210122A84784480DF1070119
:102D500001226423FEF7E8FF204602210122A84752
:102D6000BCBD00BF2916000870B50D4604461046CC
:102D70001946FFF7A9FFAD000026F0B2854298BFC3
:102D800070BD205CFFF7D4FF0136F6E770B50F4E3B
:102D90000D46012114460028716005D0012808D194
:102DA0000B480121002202E0094801210122FEF71F
:102DB0003BFC0849B56030680968084318BF70BD1E
:102DC0002046BDE8704000F0DFBA00BF3C000020A4
:102DD00000180140380000202DE9F04F85B04A4826
:102DE0004A4F4B4D0022016807F5006841F0100181
:102DF0000160016801F0100101910199016841F041
:102E000004010160016801F0040101910199016868
:102E100041F008010160016801F008010191019988
:102E2000016841F0400101600F21006800F040009E
:102E3000019001984046A847384642210122A84700
:102E4000384610210022A84707F5806640F202218B
:102E500001223046A84707F5805B01210122584630
:102E6000A8475846022100220224A84704944FF0A4
:102E7000000A01AC4FF001090F20264DCDF80CA03F
:102E8000CDF80890019040462146A84703202146EE
:102E900004904220CDE9029A01903846A8470220CA
:102EA000214604901020CDE9029A01903846A847A7
:102EB000F020CDF80C90CDF808A021464FF0010984
:102EC00001904046A8470320214602270490022093
:102ED000CDE9029A01903046A8471120CDE903A719
:102EE0002146002702904FF4007001903046A84719
:102EF00003202146CDE90370CDE901095846A847D2
:102F000005B0BDE8F08F00BF181002400008014076
:102F1000291600088114000810B5104800220A2163
:102F20000F4C4FF0080C4FF4007E4FF48273C0E951
:102F30000822C0E90A214FF40041C0E90043C0E97A
:102F40000212C0E90422C0E906ECFEF77FFE002869
:102F500014BFBDE8104010BDFEF7D6B948000020F0
:102F600000300140B0B596B009AC00251C212046C8
:102F7000CDE91455CDE91255CDE91055FDF70BF902
:102F800001A82021FDF707F929482A4B472244F6DA
:102F90002061C0E90032C0E90251C0E904558561F1
:102FA000FEF7D3FF08B1FEF7AFF94FF4805012A936
:102FB00012901F48FFF77EF808B1FEF7A5F91C48EC
:102FC000FFF74DFA08B1FEF79FF9002010A9CDE9EF
:102FD00010001748FEF798FF08B1FEF795F940F288
:102FE000AA5014210A906020099004F10800FDF70E
:102FF000D2F80F48214600220025FFF7E1F908B179
:10300000FEF782F901AC14212046FDF7C4F84FF415
:1030100000500895214606900548FEF74DFF08B17F
:10302000FEF772F90248FFF783F916B0B0BD00BF92
:10303000A0000020002C014010B58EB0002401A893
:103040001C21CDE90C44CDE90A44CDE90844FDF743
:10305000A2F8EE4840F2E73147224FF08043846106
:10306000C0E90032C0E902410461FEF76EFF08B119
:10307000FEF74AF94FF480500AA90A90E348FFF797
:1030800019F808B1FEF740F9E048FFF7E8F908B190
:10309000FEF73AF9DD48002408A9CDE90844FEF717
:1030A00033FF08B1FEF730F960200594CDE9024402
:1030B00001A900220190D548FFF782F908B1FEF777
:1030C00023F9D248FFF734F90EB010BD10B586B021
:1030D0001648E94C00214FF47A724723CDE90411D8
:1030E000CDE902118161C0E90043C0E9021201612A
:1030F000CDE90011FEF729FF08B1FEF705F94FF4FD
:10310000805002A902900948FEF7D4FF08B1FEF7EB
:10311000FBF800206946CDE900000448FEF7F4FE04
:1031200008B1FEF7F1F806B010BD00BF2001002085
:1031300010B586B01648D24C00214FF6FF724723D7
:10314000CDE90411CDE902118161C0E90043C0E974
:1031500002120161CDE90011FEF7F7FE08B1FEF79A
:10316000D3F84FF4805002A902900948FEF7A2FF5D
:1031700008B1FEF7C9F800206946CDE9000004480F
:10318000FEF7C2FE08B1FEF7BFF806B010BD00BFE3
:103190006001002010B50B480B4C4FF4E1330021C7
:1031A0000C22C0E90043C0E90211C0E90412C0E9E1
:1031B0000611FFF79FFA002814BFBDE8104010BDAC
:1031C000FEF7A2B8A00100200038014010B50B485E
:1031D0000B4C4FF4E13300210C22C0E90043C0E95D
:1031E0000211C0E90412C0E90611FFF783FA0028B2
:1031F00014BFBDE8104010BDFEF786B8E001002006
:103200000044004010B50B480B4C4FF4E133002153
:103210000C22C0E90043C0E90211C0E90412C0E970
:103220000611FFF767FA002814BFBDE8104010BD73
:10323000FEF76AB82002002000480040FEE7704711
:10324000704710B513460A468021044600F00AF87C
:1032500000280FBF0020606D40F02000606518BF9F
:10326000032010BD2DE9F041984616460F4604464E
:10327000551C206880683840B8421CBF0020BDE85B
:10328000F081002DF5D0FEF7D5F9A0EB0800B04293
:10329000EFD32068416821F0E00141606168B1F539
:1032A000827F0AD1A168B1F5004F02D0B1F5806FDD
:1032B00003D1016821F040010160A16AB1F5005F0E
:1032C00007D1016821F400510160016841F4005107
:1032D0000160002084F85000012084F85100032090
:1032E000BDE8F0817047FEF7A9B9B0B590B00024F1
:1032F0004FF4E01002250121CDE90B44CDE909444A
:103300000F904FF480300E900D950A910894CDE9FE
:10331000061006A8FEF708FB4FF480600594022112
:1033200004900F20CDE90254019001A8FEF71AFA8B
:1033300010B0B0BD0E480F4A016841F001010160B4
:10334000416811400C4A4160016811400160016808
:1033500021F480210160416821F4FE0141604FF4B5
:103360001F01816005484FF000610160704700BF98
:10337000001002400000FFF8FFFFF6FE08ED00E03D
:103380002248FEF720BF00BFB0B504461E48416882
:1033900011B3012936D1012C20D901211D4D016025
:1033A0001B484FF6FF71B0FBF4F04418286820B9B1
:1033B00016480021FFF770F828681449A2B20028C7
:1033C0000968CA624FEA52024A6318BFB0BD0F488B
:1033D000BDE8B040FEF732BE012C05D80B480021F5
:1033E000BDE8B040FFF774B8084D00212846FFF74C
:1033F00053F807482968B0FBF4F0013880B2C8627E
:1034000040084863B0BD00BF3C000020E000002041
:1034100040420F00380000200268B0F1804F0ED00B
:10342000154B98420BD0154B984208D0144B98423C
:1034300005D0784B984202D0774B984208D14B6820
:1034400022F45C7CCA6823F4407343EA0C031A43F9
:103450004B6922F080021A4302608A68C2620A68DD
:1034600082626C4A904202D06B4A904201D1096953
:1034700001630121416170470004004000080040E1
:10348000000C004001F01F01012303FA01FC036A54
:1034900002FA01F123EA0C030362026A114301629A
:1034A0007047000070B5026A22F001020262026AEF
:1034B000D0F804E0D0F818C08C680B6822F0020243
:1034C00022432CF0730444EA030C524B984202D07E
:1034D000514B98420CD1CE68D1E905452EF440738A
:1034E00022F00C02234343EA050E26F004031A439C
:1034F000C0F804E0C0F818C049684163026270BDBA
:1035000070B5026A22F010020262026AD0F804E08A
:10351000D0F818C08C680B6822F0200242EA04122E
:103520002CF4E64444EA032C3A4B984202D03A4B3E
:1035300098420FD1CE68D1E905452EF4406322F0C0
:10354000C00243EA840343EA850E6FF0400303EAB6
:1035500006131A43C0F804E0C0F818C04968816334
:10356000026270BD70B5026A22F480720262026A61
:10357000D0F804E0D0F81CC08C680B6822F400720C
:1035800042EA04222CF0730444EA030C214B9842D3
:1035900002D0214B98420FD1CE68D1E905452EF4D7
:1035A000405322F4406243EA041340F2FF4443EAEA
:1035B000051E3302A3431A43C0F804E0C0F81CC040
:1035C0004968C163026270BDB0B5026A22F48052DC
:1035D0000262026AD0F804E0C5698B680C6822F4C4
:1035E000005242EA033C0B4B25F4E64242EA042235
:1035F000984202D0084B984204D14B692EF4804582
:1036000045EA831EC0F804E0C26149680164C0F85D
:1036100020C0B0BD00340140002C0140D0F820C0D3
:10362000036A23F001030362836923F0F00343EA92
:10363000021282612CF00A02114301627047036A90
:1036400023F010030362836923F4704343EA0232D8
:10365000036A826123F0A00242EA0111016270470D
:10366000406A0021C185C184FEF78FBF0168CA6826
:1036700022F49072CA604A6922F001024A61202154
:1036800080F83A10704790F83A10222918BF704716
:103690008168B1F5805F08D102680369816A526868
:1036A00083B1D2B221F8012B10E0026901684968A8
:1036B000002A826A02F10103836218BF01F07F01D0
:1036C000117004E06FF35F2221F8022B8162C18D3B
:1036D0000139C185090400D070470168CA6822F029
:1036E0002002CA60CA6822F48072CA604A6922F065
:1036F00001024A61202180F83A10FFF7FFB800006C
:1037000010B5044600680169E26821F44051114394
:1037100041F20C620161D4F808C0D4E904E3C16845
:1037200091434EEA0C021A431143C1604169A269F8
:1037300021F44071114341611149884202D0FEF7E2
:10374000AFF801E0FEF7B6F819214843D4E90012BA
:103750006FF063049200B0FBF2F06422B0FBF2F36E
:1037600003FB0400322404EB0010B0FBF2F000F085
:10377000F00200F00F0002EB03121044886010BD4D
:10378000003801402DE9F0411D4690460F460446A1
:103790005E1C206801683940B94204BF0020BDE8C2
:1037A000F081002EF5D035B1FDF744FFA0EB080005
:1037B000A842EED92068C16821F4D071C160416986
:1037C00021F0010141612020002184F8390084F8B2
:1037D000381084F83A000320BDE8F0817A48FEF7FB
:1037E000D5BE00BF4748FEF7D1BE00BF2948FEF74F
:1037F000CDBE00BFFEE7000072480122811C2548B3
:10380000FFF756B810B54FF47A70FDF729FE074C54
:1038100007A1082264232046FFF78CF8694801229B
:10382000C11C2046BDE81040FFF742B8E00100206F
:10383000694641434D0D0A006248072200F110011C
:103840006148FFF735B800BFFFF7F6FFFFF7D4FF79
:10385000FFF7D8FF08480021FEF71EFEFFF7DAF950
:103860000648FFF73BFA4FF47A70FDF7F9FDFFF7D2
:1038700089F9FDF7C9FAFCE7A0000020FC3D00082B
:103880005048014611F8022F027002480122FFF74A
:103890000FB800BF20020020BCB54A4C2179E07867
:1038A000621801310A28107621714FF00001ADF83D
:1038B0000410009120D1207E452807D11249002014
:1038C000C4E906002062E160207115E0002584F85B
:1038D0002150A4F81F502583D4F81A000090A07F2F
:1038E0008DF80400684600F0C4F8C4E90655256266
:1038F0002571FCF711FEE0600248E11C0122FEF791
:10390000D7FFBCBDE0010020000020417CB52D4C5C
:1039100000208DF80600ADF804008DF80200ADF827
:103920000000A07D0A2820D134F8100FADF8040063
:10393000A07861798DF80600B4F803008DF80210C4
:10394000ADF8000001A8FCF731FC24F80A0C684629
:10395000FCF72CFC24F8080C1B4821460722FEF734
:10396000A7FF012004F80F0C7CBD0025E9B2062951
:1039700021D860182E460135007C0A28F6D104F1C2
:1039800010000131FCF707FC304603E02144013010
:10399000097C6174C1B201310629F7D9B01CC0B2EB
:1039A000204400F11001E8B2C0F1060082B20648DE
:1039B000FEF77EFF7CBD044804F110010722FEF7EC
:1039C00077FF7CBD10000020A001002010B5074C3F
:1039D00000F00F03044AB0F1FF3F2344C8BF83182F
:1039E0000801187010BD00BF00E400E014ED00E015
:1039F000FDF72EFEFFF779FCFFF7EEF9FFF78CFAE3
:103A0000FFF764FBFFF7C6FBFFF7E0FBFFF7FAFBEE
:103A1000FFF78EFBFFF7A6FAFFF70EFBFFF714FF89
:103A2000FCE70000004870470000002001480068E3
:103A3000704700000000002002E008C8121F08C103
:103A4000002AFAD170477047002001E001C1121F1F
:103A5000002AFBD170470000014908607047000050
:103A60000000002030380A2801D2012070470020D1
:103A7000704730B583B00446FFF7D8FF05460020F5
:103A8000CDE900000246012321466846FCF7A1FD6E
:103A90002846FFF7E1FFDDE9000103B030BD00403B
:103AA0004040404040404040414141414140404011
:103AB0004040404040404040404040404040400541
:103AC00002020202020202020202020202020220B8
:103AD00020202020202020202002020202020202B8
:103AE00090909090909010101010101010101010D6
:103AF000101010101010101010100202020202021A
:103B00008888888888880808080808080808080835
:103B1000080808080808080808080202020240000D
:103B20009F3A0008000000000000000001020304AA
:103B300006070809000000000102030468587840E5
:103B400078487C0008384038685878400078087811
:103B50007048480000705858000000000048784045
:103B60000000000000586868007058586858784095
:103B70004878480870484800007C08780000000039
:103B800008083E0800000000487C4C0000487C40CB
:103B90004878480800705858007C141C4878480839
:103BA00000705858005868680058686800000000A5
:103BB000685878400078087888D8380800000000F5
:103BC000007C78480070585888D8380800000000F9
:103BD000087C40003048483000000000487C4C0021
:103BE00000487C404878480800705858007C487865
:103BF000685878400058686800487C407048480021
:103C0000000000000048784000000000487C4C00A4
:103C100000487C404878480800705858007C443878
:103C200000487C4000586868087C4000685878402C
:103C300000780878087C4000000000000000480080
:103C400000000000007C141C00447C4000705858A8
:103C500068587840005868680070585800000000A4
:103C600048784808007058586858784078487C0070
:103C700088D8380800000000487C4C0030484830A4
:103C8000487848080000000078487C0000487C40E4
:103C900000586868087C40006858784000780878C8
:103CA000087C40000000000000487C400078087854
:103CB00000F8C87800784078087C4000007C48789C
:103CC000685878400058686800487C407048480050
:103CD000000000006C544C0000000000007C4438E0
:103CE00000487C4000586868087C4000685878406C
:103CF00000780878087C4000007C141C00447C405C
:103D000000705858685878400058686800705858D3
:103D10000000000000447C440078087800F8C8786F
:103D200000784078087C4000000000006858784027
:103D30000078087800F8D8D800447C4000705858C3
:103D40000000480000000000007C141C00447C407F
:103D50000070585868587840005868680070585883
:103D60000000000000447C440078087800F8C8781F
:103D700000784078087C400000000000007C443857
:103D800000487C4000586868087C400068587840CB
:103D900000780878087C400000004800000000001F
:103DA000007C4878685878400058686800487C4033
:103DB00070484800000000006C4C740000000000D7
:103DC00078487C0000487C4000586868087C4000C7
:103DD0006858784000780878087C400000000000AF
:103DE00008083E080000000068587840007808780D
:103DF00000F8D8D800447C400070585800000000FB
:103E000000000000000000000000000000000000B2
:103E100000000000000000000000000000000000A2
:103E20000000000000000000000000000000000092
:103E3000000000000000000000000000000000E0A2
:103E4000E0E0E0E0E0E0E0E0E0E0E0E0E0E0E0E072
:103E5000E0E0E0E0E0E0E0E0E0E0E0E0E0E0E0E062
:103E6000E0E0E0E0E0E0E0E0E0E0E0E0E0E0E0E052
:103E7000E0E0E0E0E0E0E0E0E0E0E0E0E0E0E0E042
:103E8000E0E0E0E0E0E0E0E0E0E0E0E0E0E0E0E032
:103E90000000000000000000000000000000000022
:103EA0000000000000000000000000000000000012
:103EB0000000000000000000000000000000000002
:103EC00000000000000000000000000000000000F2
:103ED00000000000000000000000808080808080E2
:103EE000C0E0E0F0F0F0F0F0F0E0F0F0F0FCFCFC0E
:103EF000FCFCFCFCFCFCFCFCFCFCFCFCFCFCFCFFFF
:103F0000FFFFFFFFFFFFFFFFFFFFFFFFFFFFFFFFC1
:103F1000FFFFFFFFFFFFFFFFFFFFFFFFFFFFFFFFB1
:103F2000FFFFFFFFFFFFFFFFFFFFFFFFFFFFFFFFA1
:103F3000FFFFFFFFFFFFFFFFFFFFFFFFFFFFFFFF91
:103F4000FFFFFFFFFFFFFFFFFFFFFFFFFFFFFFFF81
:103F50000000000000000000000000000000000061
:103F60000000000000000000000000000000000051
:103F70000000000000000000000000000000000041
:103F80000000000000000000000000000000000031
:103F9000000000005C7C7CFE7EFEFFFFFFFFFFFF59
:103FA000FFFFFFFFFFFFFFFFFFFFFFFFFFFFFFFF21
:103FB000FFFFFFFFFFFFFFFFFFFF9F9F9F9F9FFFF1
:103FC000FFFFFFFFFFFFFFFFFFFFFFFFFFFBFFF70D
:103FD000FBFFFFFFFFFFFFFFFFFFFFFFFFFFFFFFF5
:103FE000FFFFFFFFFFFFFFFFFDFFFFFFFFFFFFFFE3
:103FF000FFFFFFFFFFFFFFFFFFFFFFFFFFFFFFFFD1
:10400000FFFFFFFFFFFFFFFFFFFFFFFFFFFFFFFFC0
:1040100000000000000000000000000000000000A0
:104020000000000000000000000000000000000090
:104030000000000000000000000000000000000080
:104040000000000000000000000000000000000070
:1040500000000000000000000000030F1F1F1F1FD2
:104060007F7F7F7F7F7FFFFFFFFFFFFFFFFFFFFF60
:10407000FFFFFFFFFFFFFFFFFFFFFFFFFFFFFFFF50
:10408000FFFFFFFFFFFFFFFFFFFFFFFFFFFFFFFF40
:10409000FFFFFFFFFFFFFFFFFFFFFFFFFFFFFFFF30
:1040A000FFFFFFFFFFFFFFFFFFFFFFDF9FDFDFDF00
:1040B000DFDFDFDFCFCFEFF3F3F3F3F3F7FFFFFF44
:1040C000FFFFFFFFFFFFFFFFFFFFFFFFFFFFFFFF00
:1040D00000000000000000000000000000000000E0
:1040E00000000000000000000000000000000000D0
:1040F00000000000000000000000000000000000C0
:1041000000000000000000000000000000000000AF
:10411000000000000000000000000000000000009F
:104120000000000000000003010303010303030378
:104130000307070F0F0F0F0F0F0F0F0F0F0F0FFFBB
:10414000FFFFFFFFFFFFFFFFFFFFFFFFFFFFFFFF7F
:10415000FFFFFFFFFFFFFFFFFFFFFFFFFFFFFFFF6F
:10416000FFFFFFFFFFFFFFFFFFFFFFFFFFFFFFFF5F
:10417000FFFFFFFFFFFFFFFFFFFFFFFFFFFFFFFF4F
:10418000FFFFFFFFFFFFFFFFFFFFFFFFFFFFFFFF3F
:10419000000000000000000000000000000000001F
:1041A000000000000000000000000000000000000F
:1041B00000000000000000000000000000000000FF
:1041C0000000000000000000000000E0F0F0E0E06F
:1041D000E0E0E0E0E0E0E0E0E0E0E0E0E0E0E0E0DF
:1041E000E0E0E0E0E0E0E0C0C0C0F0F0F0E0E0E0FF
:1041F000E0E0E0F0E0F0E0C0C0C00000000000E15E
:10420000E1F1E1E1E1E1E1E1E1F1F1F12141E1E1BE
:10421000E1E1E1E1E1E1E1F1010101E1F1E1E1E10E
:10422000E1E1E1E1E1E1E1E1E1E1E1E1E1E1E1E17E
:10423000E1E1E1F1C1C1C1818181010101F1F1E15E
:10424000E1E1E1E1E1F121010101010101010101EE
:104250008080E0F0E0E0E0E0E0E0E0E0E0E0E0E00E
:10426000E0E080808000000000000000000000000E
:10427000000000000000000000000000000000003E
:104280000000000000000000000000FFFFFFFFFF33
:10429000FFFFFFFFFFFFFF01010101010101030318
:1042A00003FFFFFFFFFFFFFFFFFFFF07FF070707FA
:1042B0007F7F7FFFFFFFFFFFFFFFF8F8FCFEFEFFA1
:1042C000FFFFFFFFFFFF1F1F1F01010100EEFFFFA8
:1042D000FFFFFFFFFFFFFFFF000000FFFFFFFFFFEB
:1042E000FFFFFFFFFFFFFFC1C1C0C1C1C1F3F7F76F
:1042F000FFFFFFFFFFFFFFFFFFFF000000FFFFFFCB
:10430000FFFFFFFFFFFF000000E0E0E0F8FCFCFF24
:10431000FFFFFFFFFFFFFFFFEFE3E3F3FFFFFFFF01
:10432000FFFFFFFFFFFCFCFCE0E0C0808080C0C01E
:10433000C0C0C0C0C080808000000000000000003D
:10434000000000000000000000000003030303035E
:104350000303030303030300000000000000000048
:104360000003030303030303030303030300000029
:104370000000000303030303030303030303030316
:10438000030303010100000000000000000003031C
:1043900003030303030303030000000303030303F6
:1043A00003030303030303030303030303030303DD
:1043B00003030303030303010101000000030303DC
:1043C00003030303030303030303030303030303BD
:1043D00003030301010000000000000000000001D1
:1043E0000103030303030303030303030303070797
:1043F000070707070703030100000000007C141CE7
:1044000000447C40007058586858784000586868EC
:104410000070585800000000005868680070585834
:1044200000447C400070585870484800087C4000A8
:1044300000000000787878003048483078487C00E8
:104440000070585800000000000048003844380050
:10445000004878406C544C006C4C740010287C0070
:104460007C5474003854547000047C046C546C0008
:104470001C543C009844000800000020100000007C
:10448000383A0008A8440008100000205806000030
:10449000483A000800000000000000000100000091
:0844A000100000000024F400EC
:0400000508000131BD
:00000001FF
