:020000040800F2
:10000000F00C002045010008654E0008553B000833
:10001000614E000871100008914F000800000000B8
:100020000000000000000000000000006D4E00080D
:100030005913000800000000694E0008714E0008C6
:100040005F0100085F0100085F0100085F01000810
:100050005F0100085F0100085F0100085F01000800
:100060005F0100085F0100085F0100085F010008F0
:100070005F0100085F0100085F0100085F010008E0
:100080005F0100085F0100085F0100085F010008D0
:100090005F0100085F0100085F0100085F010008C0
:1000A0005F0100085F0100085F0100085F010008B0
:1000B000C54E00085F0100085F0100085F010008ED
:1000C0005F0100085F0100085F0100085F01000890
:1000D0005F0100086D4F0008794F0008854F000848
:1000E0005F0100085F0100085F0100085F01000870
:1000F0005F0100085F0100085F0100085F01000860
:100100005F0100085F0100085F0100085F0100084F
:100110005F0100085F0100085F0100085F0100083F
:100120005F0100085F0100085F0100085F0100082F
:10013000DFF80CD000F0F2FC00480047195200082C
:10014000F00C00200648804706480047FEE7FEE71F
:10015000FEE7FEE7FEE7FEE7FEE7FEE7FEE7FEE777
:10016000754E000831010008D2B201E000F8012B01
:10017000491EFBD270470022F6E710B513460A4627
:1001800004461946FFF7F0FF204610BD70B506463D
:1001900005F0ACF8046805460A220021304600F05C
:1001A000A9FB2C6070BDF0B480EA0102D40F4200BC
:1001B000B2EB410F02D20246084611464A0042D035
:1001C000C30DDDB2C1F3C752AD1A202D35DAC1F32C
:1001D000160141F4000204B15242C5F1200602FAB0
:1001E00006F12A411044B3EBD05F23D0C4B1012DF6
:1001F000A0EBC35009DCF0BC4FF0004202EAC3524E
:10020000DBB200F5000000F0B6BB400000F18070EA
:1002100000EBC350A0F1807040EAD170490009E0C2
:10022000490841EAC071A0EBC35000F50000400846
:1002300000EBC350F0BC00F095BB6142012202EB21
:100240004101001BF6E7F0BC704781F00041AAE7CE
:1002500080F00040A7E780EA010210B502F00043F9
:10026000400022D04A001FD0010E01EB1261C0F302
:100270005600C2F3560240F4000042F40002A0FB14
:10028000022000047F39140400D0401C50EA1240C0
:1002900001D44000491EC2B20C0604EBD010401C31
:1002A0004008802A02D003E0002010BD20F00100A9
:1002B000002900DA0020184310BD30B480EA0102A2
:1002C00002F0004530F0004221F0004013D090B120
:1002D000C30DD40DC2F31601C0F31600E41A41F4A5
:1002E000000140F400027D34914201D3641C00E01F
:1002F0004900002C02DA30BC002070474FF40000A7
:100300000023914201D3891A034340084FEA410177
:10031000F7D151B1914202D14FF0004105E002D234
:100320004FF0010101E06FF0010103EBC4502844DC
:1003300030BC00F017BB2DE9FE4F804681EA030078
:10034000C00F0C46009021F0004123F00045B8EBAF
:100350000200A94105D24046214690461C460B4664
:10036000024623F00040104347D0270DC7F30A0090
:10037000C3F30A510290401A019040286BDAC3F38C
:10038000130040F4801B0098924620B10023D2EB6A
:10039000030A63EB0B0B01985946C0F1400250462B
:1003A00000F022FA06460D4650465946019A00F0E2
:1003B0003AFA10EB08006141002487EA115284EAFE
:1003C000E7731A4340D0009A62B3019A012A4FEAB8
:1003D000075215DC001B61EB02014FF0004202EAFC
:1003E0000752CDE90042001C41F5801132462B46F0
:1003F00000F0FEFA03B0BDE8F08F40462146F9E771
:10040000001B61EB0201001C41F5801300185B41E9
:100410002018A2F5001747EB030140EAD570B61982
:100420006D4111E06D084FEA360645EAC0754FEAA6
:100430000752001B61EB0201001C41F580114908C5
:100440004FEA30000019514132462B4603B0BDE857
:10045000F04F00F0BEBA0098012240000023D0EB1C
:10046000020263EBE073009821464FEAE074B8EBB8
:10047000000061EB0401E9E783F000435BE781F0F2
:10048000004158E72DE9FE4F81EA030404F00044DF
:1004900021F0004100944FF0000B23F0004350EA9C
:1004A00001045ED052EA03045BD0C3F30A54C1F3E3
:1004B0000A552C44A4F2F3340194A0FB0254C1F376
:1004C000130141F48011C3F3130343F4801301FBC0
:1004D000024400FB034E840A970A44EA815447EA27
:1004E0008357A4FB076802958D0A05FB07854FEA31
:1004F000932C04FB0C542705029D4FEA065847EA4B
:100500001637B5EB08056EEB070C870E920E47EA1F
:10051000811742EA8312A7FB0201B6EB0B0164EBE1
:1005200000042B0D43EA0C335E1844EB1C50DA46F2
:100530005146E7FB0201C5F313044FEA0B3343EACC
:1005400014534FEA0432019C43EA0603A4F10C045D
:100550000294009CCDE900B400F04AFA03B0BDE873
:10056000F08F00200146F9E72DE9F04D81EA030400
:1005700004F0004B21F0004514464FF0000A23F030
:10058000004150EA050220D054EA01021DD0C5F313
:100590000A570246C5F31303C1F31300C1F30A5609
:1005A00040F4801543F48013A7EB0608101BD646D1
:1005B00008F2FD3873EB050002D308F1010801E0F1
:1005C00092185B41B8F1000F03DA00200146BDE844
:1005D000F08D00204FF48011064684460EE0171B74
:1005E00073EB050705D3121B63EB050306434CEAC7
:1005F000010C49084FEA300092185B4150EA0107AC
:10060000EDD152EA030012D082EA040083EA050128
:10061000084305D0101BAB4106D20122002306E09F
:1006200000224FF0004302E06FF0010253101AEB7A
:1006300006004CEB085110EB0A0041EB0B01BDE842
:10064000F04D00F0C6B996230022114600F093B990
:100650000EB5C10F80EAE0700844CA07002140F2DD
:1006600033438DE80E000A460B4600F0C1F903B093
:1006700000BD0EB540F2334102910021CDE90011D9
:100680000A460B4600F0B4F903B000BD70B5C1F3E3
:100690000A5201F000450024C1F3130140F2FF3378
:1006A00041F480119A4201DA002070BD40F23343D8
:1006B0009A42A2F2334203DC524200F0A4F800E076
:1006C00090402C43F1D0404270BDC1F30A5210B5A6
:1006D000C1F3130140F2FF3341F480119A4201DA71
:1006E000002010BD40F233439A42A2F2334203DCB1
:1006F000524200F088F810BD904010BD00F000425A
:1007000030F000400AD0C10D01F56071C0F3160051
:1007100042EA0151C20840071143704700200146D8
:10072000704701F0004330B421F0004150EA01026B
:1007300006D00A0DA2F56072C1F31301002A02DC93
:1007400030BC00207047440F44EAC104C100E018E7
:1007500030BC00EBC25000F005B930B50B46014685
:1007600000202022012409E021FA02F59D4205D350
:1007700003FA02F5491B04FA02F52844151EA2F1FA
:100780000102F1DC30BD2DE9F05F05460020924604
:100790009B4688460646814640241BE02846414643
:1007A0004746224600F02FF853465A46C01A914158
:1007B00010D311461846224600F016F82D1A67EBA2
:1007C00001084F4622460120002100F00DF817EBEA
:1007D00000094E41201EA4F10104DFDC48463146E9
:1007E0002A464346BDE8F09F202A04DB203A00FA5F
:1007F00002F1002070479140C2F1200320FA03F378
:10080000194390407047202A04DB203A21FA02F075
:100810000021704721FA02F3D040C2F1200291403A
:10082000084319467047202A06DBCB17203A41FAC5
:1008300002F043EAE07306E041FA02F3D040C2F16D
:100840002002914008431946704700000FB40B0086
:1008500010B58AB00FA900910E994FF00004234AF9
:10086000CC60214CCDE9064200D004236FF0004259
:10087000CDE901321E4A089202466B46002000F084
:1008800001FA0AB010BC5DF814FBF0B585B007465C
:100890004FF0FF300091CDE901011E4600201546C2
:1008A0000C4604903B466A46314604A8FFF7CEFF4B
:1008B00004990346601825B109B1024600E02246BA
:1008C0002A6000290ED0002B02DD0099814209D058
:1008D0000094001BCDE901043B466A46314604A85A
:1008E000FFF7B4FF05B0F0BDBD0E0008DB0E000839
:1008F000490B00082DE9F04791460F468046044613
:10090000002614F8015B2DB100F01AF90068405D73
:10091000C007F6D12B2D02D02D2D18D0641E4A46CB
:100920003946204600F0EAFA27B13968A14201D1E0
:10093000C7F8008071054FF002040BD54042002833
:1009400003DD04F0D3FC0460A007BDE8F08746F4A3
:100950008066E4E70028F8DA04F0C8FC04606FF071
:100960000040F2E70029A8BF7047401C490008BFBB
:1009700020F00100704710B4B0FA80FC00FA0CF0CF
:1009800050EA010404BF10BC704749B1CCF1200407
:1009900021FA04F411FA0CF118BF01212143084394
:1009A000A3EB0C01CB1D4FEA00614FEA102042BFC0
:1009B000002010BC704700EBC35010440029A4BFB6
:1009C00010BC7047401C490008BF20F0010010BC5B
:1009D000704710B5141E73F1000408DA401C41F191
:1009E000000192185B411A4301D120F0010010BDB3
:1009F0002DE9F04D92469B4611B1B1FA81F202E029
:100A0000B0FA80F220329046FFF7EEFE04460F4621
:100A100040EA0A0041EA0B0153465A46084313D004
:100A2000114653EA010019D0C8F140025046FFF7C1
:100A3000EAFE05460E46504659464246FFF7D4FEAA
:100A4000084305D0012004E020463946BDE8F08D7A
:100A50000020054346EAE0762C4337430A986305B5
:100A6000E40AA0EB08000022FD0A44EA47540A30D9
:100A700002D500200146E9E7010510196941DDE9C9
:100A8000084500196941BDE8F04DA2E770B521F0B5
:100A9000004303430CD0C1F30A550024D5EB0405F1
:100AA00064EB0403D617AD1AB34102DB0020014604
:100AB00070BD201841EB025170BDC1F30A52C1F361
:100AC000130140F2FF3341F480119A4202DA002010
:100AD0000146704740F233439A42A2F2334202DCAD
:100AE0005242FFF790BEFFF77FBE000030B5041EF4
:100AF00071F1000404DB4FF00044404264EB01015B
:100B0000141E73F1000405DB1C464FF000435242F3
:100B100063EB0403994208BF904230BD064C074D79
:100B200006E0E06840F0010394E8070098471034BD
:100B3000AC42F6D3FFF700FB14930008349300088F
:100B4000004870474C68000810B50446FFF7F8FFEE
:100B50000068005D00F0010010BD00002DE9FF4FAE
:100B6000087883B09946FF2805D0491C2D2804D069
:100B70000024002008E000200BE00124F9E700EB4E
:100B8000800003EB4000491C0B78FF2BF7D104B128
:100B9000404200230293147819461D462D2C01D0A3
:100BA0002B2C04D1521C2D2C13D000240294AA46C5
:100BB0001478FF2C0FD00A25A3FB057801FB0581D3
:100BC0004FF0000C03FB0C11521CE3194AEB01011E
:100BD000EEE70124EAE7814453EA010002D019F567
:100BE000C87F06DA03980021C0E9001107B0BDE80C
:100BF000F08F0025AE4E2F46DFF8B882184600F081
:100C00002BFACDE90001B9F1000002DAC9F10004C4
:100C100000E004460023A74A1AEB030B42EB045AF8
:100C200012E0E00707D02A46334638464146FFF730
:100C300029FC074688462A46334610461946FFF7E0
:100C400021FC05460E466410002CEAD1DDE90001C6
:100C5000B9F1000F5A46534606DAFFF785FC3A46CB
:100C60004346FFF781FC05E0FFF70CFC3A4643469C
:100C7000FFF708FC029A0AB181F00041039AC2E929
:100C80000001B3E72DE9FF4F1F468DB0D7E90146BC
:100C90004FF0FF382E2045464FF000090B90B96900
:100CA0006D1C0E988847396A824688470028F6D11D
:100CB000BAF1FF3F0AD024F4D064002E11DDBAF15E
:100CC0002B0F08D0BAF12D0F0BD102E0404611B026
:100CD0008DE744F48064B9696D1C0E98884782469C
:100CE000761E6946600501D52D2000E02B208DF889
:100CF000000001F1010B0DF1200809E0B9696D1C3C
:100D00000E98884782460F9844F40074761E05605A
:100D1000002E02DDBAF1300FF0D00B998A453ED19A
:100D200044F0800406E00F99681CA9F1010944F41D
:100D300000740860B9696D1C761E0E98884782465B
:100D40003028F0D02BE00B998A4505D1200603D43A
:100D500044F08004761E18E0504604F01FFC08B3EF
:100D60000DF11302761EAAF1300044F4007493458D
:100D700006D20BF8010B200607D5A9F1010003E00C
:100D8000200602D409F101008146A00502D50F9981
:100D9000681C0860B9696D1C0E9888478246002E51
:100DA000D1DC53E0002E51DDBAF1650F02D0BAF16B
:100DB000450F4BD1A00549D5B9696D1C24F4407489
:100DC000761E0E9888478246002E0CDD2B2804D014
:100DD000BAF12D0F07D144F48074B9696D1C0E98D7
:100DE00088478246761EE00501D52D2100E02B21A3
:100DF00008F8011BCDF82C8021E00DF12901761EA9
:100E000044F4007488450CD2AAF1300010F0FF00C1
:100E100088F8000002D10B99884509D908F101082A
:100E200006E0E00501D5244801E042F20F7081465A
:100E3000B9696D1C0E98884782460F980560002E90
:100E400004DD504604F0AAFB0028D6D1F9690E98BB
:100E50008847FF208BF8000088F8000000200690EB
:100E600007904B466A4608A906A8FFF777FEA0053B
:100E700002D46FF001002AE714F0240F0AD0E00733
:100E800014D1DDE906123868031D3B600068C0E933
:100E900000120BE0DDE90601FFF743FC0146E00725
:100EA00004D13868021D3A600068016028460EE7E8
:100EB000000014400000F03FF1D8FFFF426842B14B
:100EC000016811F8013B23B1521EC0E90012184617
:100ED00070470121C160881E704742685AB1C368DB
:100EE000016843B983688B4205D0491E521CC0E992
:100EF0000012002070474FF0FF3070472DE9F05F7F
:100F000082460078002715468B460AF10104B9464F
:100F1000302801D09DB113E014F8010B0127782887
:100F200003D0582801D045B10AE00DB1102D07D1EA
:100F30000027102514F8010B02E0082500E00A251F
:100F40000026B0460EE005FB080005FB06F1012770
:100F500001EB10461FFA80F8B6F5803F00D3B94682
:100F600014F8010B294600F069F80028EBDABBF110
:100F7000000F05D00FB1641E00E05446CBF80040CE
:100F8000B9F1000F06D004F0B1F902210160C81ECA
:100F9000BDE8F09F48EA0640FAE72DE9F04D00234E
:100FA0001A461B1A8A4103DB00200146BDE8F08D7A
:100FB000C1F30A52C1F3130141F480154FF0000B45
:100FC000D10702D100186D41521E0027044640F29D
:100FD000FF11384601EB620A3E4680460246002079
:100FE0004FF48011FFF70FFCC2197141BB1846EB9B
:100FF0000100B4EB030C75EB000C04D3E41A65EBB1
:10100000000517460E46241908F101006D4180467F
:101010003428E3DDF91946EB0600091BA84103D289
:101020004FF0FF32134601E0002213461BEB07008E
:1010300046EB0A51BDE8F04DFFF7CBBC3A2800D291
:10104000303820F02002412A01D3A2F13700884233
:1010500001D34FF0FF3070470EB540F23342029299
:101060000022CDE900221346FFF7C2FC03B000BD09
:10107000FEE7000080B582B017A00C21C0220C232F
:10108000CDE900100020002103F0F4FA02F064FD25
:10109000F0B1642000F024FE02F05EFDC0B102F069
:1010A0005BFD0138042813D8DFE800F003141414A2
:1010B000140040F2AC6040F6C411C2F200000068B7
:1010C00041634FF4FA6002B0BDE8804000F008BE12
:1010D00002B080BD00F00AF8506C65617365207342
:1010E000656C656374206D6F6465000084B00020DA
:1010F0000390029002F00EFE0A2000F0F1FD8AA09B
:101100000C240021A8220C23CDE90040002003F08C
:10111000B1FA89A01421A8221823CDE900400020AB
:1011200003F0A8FA00F01AF90446FFF7A2FA024603
:101130000B4602980399FFF7FEF8039102901025E1
:101140000020202122460123009503F031FA1020CF
:1011500020212E22102303F081F800F0FFF804462E
:10116000FFF787FA49F69A1249F69913C9F69912C8
:10117000C3F6B973FFF786F9029A039BFFF7DBF812
:10118000039102902020202122460123009503F0A4
:101190000FFA00F0E3F80446FFF76BFA41F27B42E6
:1011A00047F6E123C4F2AE72C3F68473FFF76AF91F
:1011B000029A039BFFF7BFF8039102903020202191
:1011C00022460123009503F0F3F900BF02F0C4FCAE
:1011D0000028FBD102F0C0FC0028FBD0029C039D3C
:1011E0002046294622462B46FFF74CF945F2666316
:1011F0004FF06632CCF26503FFF744F922462B46E6
:10120000FFF740F9044602980D46039902460B4643
:10121000FFF738F94FF633034FF03332C4F2A3032C
:10122000FFF730F94DF600730022C4F2D903FFF73F
:1012300082F822462B46FFF77EF848F68053044694
:101240000D46029803990022CCF2C903FFF71AF960
:1012500002460B4620462946FFF76DF8FFF735FAA0
:1012600000F04AF941F60004C4F2010420464FF4AC
:10127000807100F03DFE0028F8D140F2AC70C2F25F
:10128000000001F0E3FB40F624050020C4F2000555
:10129000286040F26C70C2F2000001F0B5FC4FF61D
:1012A000DC7600BF20464FF4807100F021FE10B9BB
:1012B0002868B042F6D32868FFF7C5F940F2340435
:1012C000C2F20004A06040F26C70C2F2000001F0B3
:1012D000ADFC02F01FFD02F01DFDA068FFF70EFA45
:1012E000024600200B4647F20001C0F26B30C4F208
:1012F000D701FFF739F9FFF714FA4FF25A5120607E
:10130000C3F63941FEF7A7FF6060002028604FF464
:10131000FA7000F0E5FC00F073F841F2883000F05C
:10132000DFFC00BFFEE700BF42617365203220444E
:10133000697374616E740000506C6561736520722E
:101340006561647920666F722073706565642069D9
:101350006E707574000000007047000010B500BF8B
:1013600002F0FAFB0028FBD102F0F6FB0028FBD0CC
:1013700002F0F2FB04460138092818D8DFE800F033
:10138000050B111720262C1732384FF4FA7000F095
:10139000A7FC012010BD4FF4FA7000F0A1FC022060
:1013A00010BD4FF4FA7000F09BFC032010BD4FF409
:1013B000FA7000F095FC00200B2C08BF092010BD2E
:1013C0004FF4FA7000F08CFC042010BD4FF4FA705A
:1013D00000F086FC052010BD4FF4FA7000F080FC90
:1013E000062010BD4FF4FA7000F07AFC072010BD03
:1013F0004FF4FA7000F074FC082010BD7047000034
:10140000B0B540F21C054FF47A70C2F200052C68AA
:1014100000F066FC2D6802F07DFC4FF4FA6000F0ED
:101420005FFC20462946FEF710FF044621A200205B
:101430000021234602F096FE42F235412046C3F6D3
:101440004E61FEF708FF04461DA20020102123462E
:1014500002F088FE40F234051DA200202021C2F2D5
:1014600000052B6802F07EFE6B681DA20020302173
:1014700002F078FE42F2107000F032FC02F04AFCFA
:101480004FF4FA6000F02CFC6D6821462846FEF708
:10149000DCFE2946FEF711FF0021C4F2C821FEF749
:1014A000DAFE034611A200200021BDE8B04002F0A0
:1014B00059BE00BF4361722053706565640000002F
:1014C000436172204D6F6D656E74756D0000000094
:1014D000627574746C65207370656564000000004B
:1014E0004D6F6D656E74756D000000006469666611
:1014F0006572656E6365000070B540F2AC760446B7
:10150000C2F20006304601F091FB304601F09EFA2F
:10151000304601F079FB4CF25030844288BF70BDF8
:1015200040F60045306800210022C4F20105416206
:101530002846022100F0E2FC306800BF416AA14267
:1015400008D2416AA14205D2416AA14202D2416A4F
:10155000A142F3D3284602210122BDE8704000F0E9
:10156000CDBC00002DE9F04F95B01C461E9B0190AC
:1015700014911878002800F02283019F154600BFBF
:1015800041B2B1F1FF3F0BDD0D2840F00582149808
:10159000019F01331030149018780028F0D10EE329
:1015A00007F10F0148F62B4802931397129107F1A8
:1015B0000E01C0F60008119107F10D01109107F11D
:1015C0000C010F9107F10B010E9107F10A010D912A
:1015D00007F109010C9107F108010B91F91D0A911E
:1015E000B91D0991791D0891391D0791F91C0691C2
:1015F000B91C05913946791C0491002104E000BF13
:10160000029808F12208007848F62B42039101EB7A
:101610000111C0F6000212F81120824240F0AE81A2
:1016200048F62B40C0F6000000EB410002994078DC
:101630004978884240F0A281002600BF08EB460AA4
:101640001498A5429AF902B006EB00090BF080004D
:101650003CD1002840F0E8805FEA4B6000F1EF8069
:101660005FEA8B6000F1F6805FEACB6000F1FD80FD
:101670005FEA0B7000F104815FEA4B7000F10B81AF
:101680005FEA8B7000F112815FEACB7040F0198144
:101690009AF90370380600F12081780600F127815D
:1016A000B80600F12E81F80600F13581380700F107
:1016B0003C81780700F14381B80700F14A81F807BF
:1016C00040F051810136102EB8D157E1002813980F
:1016D0005FFA89F10CBF22462A46C0B202F058FBDD
:1016E0005FEA4B605FFA89F1049854BF22462A46AC
:1016F000C0B202F04DFB5FEA8B605FFA89F105989A
:1017000054BF22462A46C0B202F042FB5FEACB60D9
:101710005FFA89F1069854BF22462A46C0B202F009
:1017200037FB5FEA0B705FFA89F1079854BF2246D6
:101730002A46C0B202F02CFB5FEA4B705FFA89F1D7
:10174000089854BF22462A46C0B202F021FB5FEA45
:101750008B705FFA89F1099854BF22462A46C0B2BD
:1017600002F016FB5FEACB705FFA89F10A9814BFAA
:101770002A462246C0B202F00BFB9AF903705FFAC8
:1017800089F138060B9854BF22462A46C0B202F0AF
:10179000FFFA78065FFA89F10C9854BF22462A4670
:1017A000C0B202F0F5FAB8065FFA89F10D9854BF9D
:1017B00022462A46C0B202F0EBFAF8065FFA89F137
:1017C0000E9854BF22462A46C0B202F0E1FA38070A
:1017D0005FFA89F10F9854BF22462A46C0B202F040
:1017E000D7FA78075FFA89F1109854BF22462A4643
:1017F000C0B202F0CDFAB8075FFA89F1119854BF70
:1018000022462A46C0B202F0C3FAF80740F0AB8085
:1018100012985FFA89F12246C0B202F0B9FA013695
:10182000102E7FF40BAFA9E013985FFA89F12A46D6
:10183000C0B202F0ADFA5FEA4B607FF511AF0498D9
:101840005FFA89F12A46C0B202F0A2FA5FEA8B6021
:101850007FF50AAF05985FFA89F12A46C0B202F017
:1018600097FA5FEACB607FF503AF06985FFA89F1DC
:101870002A46C0B202F08CFA5FEA0B707FF5FCAE2C
:1018800007985FFA89F12A46C0B202F081FA5FEA4E
:101890004B707FF5F5AE08985FFA89F12A46C0B221
:1018A00002F076FA5FEA8B707FF5EEAE09985FFA88
:1018B00089F12A46C0B202F06BFA5FEACB703FF4BE
:1018C000E7AE0A985FFA89F12A46C0B202F060FAE0
:1018D0009AF9037038067FF5E0AE0B985FFA89F14C
:1018E0002A46C0B202F054FA78067FF5D9AE0C98B9
:1018F0005FFA89F12A46C0B202F04AFAB8067FF5CB
:10190000D2AE0D985FFA89F12A46C0B202F040FAD1
:10191000F8067FF5CBAE0E985FFA89F12A46C0B281
:1019200002F036FA38077FF5C4AE0F985FFA89F1F6
:101930002A46C0B202F02CFA78077FF5BDAE1098A7
:101940005FFA89F12A46C0B202F022FAB8077FF5A1
:10195000B6AE11985FFA89F12A46C0B202F018FAC1
:10196000F8073FF4AFAE12985FFA89F12A46C0B289
:1019700002F00EFA0136102E7FF460AE03990131A9
:1019800032297FF43DAE139F029B10370233187843
:1019900000287FF4F5AD12E14FF600612028C0F277
:1019A0000F010A4601EB00114FF0000002F5F8723A
:1019B00088BF01EA0200791CA5420293139146F602
:1019C0006A61C0F6000140F086800E18F81DB84626
:1019D0004FF000091290B81D1190781D1090381D1D
:1019E0000F90F81C02370E90149816F809B009EB06
:1019F000000A5FEA0B601BD45FEA4B6022D45FEA07
:101A00008B6029D45FEACB602FD45FEA0B7036D4A9
:101A10005FEA4B703DD45FEA8B7044D45FEACB70D1
:101A20004BD109F10109B9F1100FDDD1BEE000BFC2
:101A30005FFA88F05FFA8AF12A4602F0A9F95FEAB4
:101A40004B60DCD513985FFA8AF12A46C0B202F0E7
:101A50009FF95FEA8B60D5D5F8B25FFA8AF12A4622
:101A600002F096F95FEACB60CFD50E985FFA8AF163
:101A70002A46C0B202F08CF95FEA0B70C8D50F9805
:101A80005FFA8AF12A46C0B202F082F95FEA4B702F
:101A9000C1D510985FFA8AF12A46C0B202F078F9EF
:101AA0005FEA8B70BAD511985FFA8AF12A46C0B204
:101AB00002F06EF95FEACB70B3D012985FFA8AF148
:101AC0002A46C0B202F064F909F10109B9F1100F18
:101AD0007FF48AAF6AE00844F91DB84607F10209AD
:101AE0004FF0000A1291B91D1191791D1091391D05
:101AF0000F91F91C07460E91149817F80A600AEB2B
:101B0000000B300654BF22462A465FFA88F05FFA7F
:101B10008BF102F03DF970065FFA8BF1139854BF18
:101B200022462A46C0B202F033F9B0065FFA8BF1C2
:101B300054BF22462A465FFA89F002F029F9F006DE
:101B40005FFA8BF10E9854BF22462A46C0B202F0CB
:101B50001FF930075FFA8BF10F9854BF22462A46CF
:101B6000C0B202F015F970075FFA8BF1109854BFFC
:101B700022462A46C0B202F00BF9B0075FFA8BF199
:101B8000119854BF22462A46C0B202F001F9F0076C
:101B90005FFA8BF112980CBF22462A46C0B202F0BF
:101BA000F7F80AF1010ABAF1100FA5D1029B4746D6
:101BB00008F108070133187800287FF4E1AC15B06C
:101BC000BDE8F08F90F82110022926D10268116833
:101BD00021F00E011160116821F001011160042152
:101BE000C4F2020101F17C039A421AD940F208437F
:101BF000C4F202039A4247D040F21C43C4F20203EB
:101C00009A4245D040F23043C4F202039A4243D193
:101C10004FF48073C1F8003456E004218163012041
:101C200070474323C4F202039A420EDD6B23C4F2D1
:101C300002039A421BDC4423C4F202039A4239D0C5
:101C40005823C4F202039A4231E00823C4F202038B
:101C50009A4232D01C23C4F202039A4232D030237B
:101C6000C4F202039A4222D14FF480722BE06C231B
:101C7000C4F202039A4222D08023C4F202039A42A1
:101C800015D14FF080721EE00123C1F800341BE033
:101C90001023C1F8003417E001F5886C4FF480334D
:101CA000624508BF4FF48053C1F800340CE04FF494
:101CB000803208E04FF4805205E0012203E04FF447
:101CC000801200E010220A604FF480710184416BA1
:101CD000002904BF0020704780B58847002080BDE0
:101CE000B0B5044600F010F9054640F20400611C4E
:101CF000C2F20000007818BF044400BF00F004F9ED
:101D0000401BA042FAD3B0BD2DE9F04F82B0D1F80C
:101D100000E0BEF1000F00F0E78041F60042062728
:101D20004FF0000C4FF001080F254FF0000A4FF064
:101D3000000BC4F201029042A0F1804208BF0527C7
:101D4000A2F584324FEAB223052B38BF4FEAB227FF
:101D500040F200420097C4F2010200BF08FA0AF9FB
:101D60001EEA090F00F0B6804FF6FF734E68C1F20D
:101D700010039E4210DC122E50D8DFE806F0330A22
:101D800041454F4F4F4F4F4F4F4F4F4F4F4F4F4882
:101D90004C00D1F80CB041E04FF6FF73C1F22103C3
:101DA0009E420FDC0023C1F211039E421AD0002391
:101DB000C1F212039E4215D00023C1F221039E42BC
:101DC00010D02BE00023C1F222039E420AD0002350
:101DD000C1F231039E4205D00023C1F232039E427C
:101DE0001CD100BF8E6846B1012E14BFC0F81490FC
:101DF000C0F810904FF0080B10E04FF0040B0DE00E
:101E0000CE6806F1080B09E04FF0000B06E0CE6843
:101E100006F1040B02E0CE6806F10C0B63460446A3
:101E2000BAF1080F28BF203B28BF0434276805FA01
:101E300003F60BFA03F3B7433B432360CB79DB068E
:101E400048D541F218032AF00306C4F202031644EF
:101E50001F461B6843F001033B603B6803F001032E
:101E600001930CF00C03019C05FA03F74FF60844AC
:101E7000CFF6FF742546345924EA0707009C04FA7C
:101E800003F33B4373510F254E68F303136854BFAC
:101E900023EA090443EA09041460B303536854BFF6
:101EA00023EA090443EA09045460F302936854BF27
:101EB00023EA090443EA09049460B30240F20C43A4
:101EC000C4F201031F461B6854BF23EA090343EA17
:101ED00009033B60D1F800E00AF1010A0CF1040C9F
:101EE0003EFA0AF37FF43AAF02B0BDE8F08F00008B
:101EF0008068084018BF012070470000002A08BF12
:101F0000090401617047000040F6EC00C2F20000D5
:101F10000068704740F2040040F6EC01C2F2000095
:101F2000C2F2000100780A6810440860704700009F
:101F300080B542F20000C4F20200016841F01001D5
:101F40000160032000F09EF8002000F005F800F08A
:101F500025F8002080BD000070B540F2040604465C
:101F60004FF47A71C2F200063078B1FBF0F040F223
:101F70000C01C2F200010968B1FBF0F000F000FDB5
:101F800001250F2C08D838B94FF0FF302146002228
:101F9000002500F049F87460284670BD82B041F217
:101FA00018000222C4F20200016841F00101016040
:101FB000016801F0010101910199416841F08051EE
:101FC0004160406800F08050009000980420C4F206
:101FD0000100016862F31A61016002B070470000FD
:101FE0000028B8BF704700F01F010122400902FA23
:101FF00001F14EF28012CEF2000242F82010BFF33F
:102000004F8FBFF36F8F70470028B8BF704700F045
:102010001F010122400902FA01F14EF20012CEF234
:10202000000242F82010704710B500F00F034EF682
:102030000C5E00F1604CB0F1FF3FA3F10403CEF25F
:10204000000E734403F10C04C8BF0CF56444DEF8C1
:1020500000004FF0FF3CC0F30220C31E80F00700D9
:1020600038BF0023042828BF04200CFA00F021EA1E
:1020700000000CFA03F1984022EA01010843000134
:10208000207010BD4EF60C514FF6FF03CEF200014A
:102090000A681A4060F30A2242F0806040F0FD7046
:1020A000086070472DE9F04381B0002800F0AB8054
:1020B00042F2000804460D46C4F20208D8F80000B7
:1020C00000F0070088420DD2D8F8000020F0070089
:1020D0002843C8F80000D8F8000000F00700A84224
:1020E00040F09180206841F20409C4F2020981079E
:1020F00017D5410742BFD9F8001041F4E061C9F893
:102100000010010742BFD9F8001041F46051C9F82E
:102110000010D9F80010A26821F0F0011143C9F8AD
:102120000010C0072DD06068012804D159F8041CA4
:10213000890368D508E059F8041C022802D18901F6
:1021400061D501E089075ED5D9F8001021F00301BF
:102150000843C9F80000FFF7D7FE064641F288376A
:10216000D9F80000616800F00C00B0EB810F08D0D6
:10217000FFF7CAFE801BB842F2D9032001B0BDE8C8
:10218000F083D8F8000000F00700A8420CD9D8F876
:10219000000020F007002843C8F80000D8F800002D
:1021A00000F00700A8422ED12068410707D5D9F8D2
:1021B0000010E26821F4E0611143C9F80010000743
:1021C00008D5D9F80000216920F4605040EAC10028
:1021D000C9F80000D9F8001041F20020C0F27A00DE
:1021E00001F00C02082A1ED148F61B43C1F38342BA
:1021F000C903C0F600039A5C09D440F60010C0F28F
:102200003D0050430FE0012001B0BDE8F083D9F854
:102210000010504346F65002C0F60002C1F34041A0
:10222000515CB0FBF1F0D9F8001046F65202C0F64E
:102230000002C1F30311515CC84040F20C01C2F22C
:102240000001086040F20800C2F200000068FFF7D9
:1022500083FE002001B0BDE8F083000040F20C00D6
:1022600041F2040146F66202C2F20000C4F2020129
:10227000C0F6000200680968C1F30221515CC84041
:102280007047000040F20C0041F2040146F6620281
:10229000C2F20000C4F20201C0F600020068096840
:1022A000C1F3C221515CC840704700002DE9F041E4
:1022B00082B0002800F072810446007841F20006E6
:1022C000C4F20206C0074AD0706800F00C0004286F
:1022D00017D0706800F00C00082802D17068C003A5
:1022E0000FD4606898B1B0F5803F06D03168B0F582
:1022F000A02F21D141F480203060306840F480303C
:1023000020E0306880032AD5606840BB46E1306831
:1023100020F480303060306820F480203060FFF797
:10232000F3FD05463068800319D5FFF7EDFD411B2D
:1023300003206429F6D978E121F4803030603068D8
:1023400020F480203060FFF7DFFD05463068800311
:1023500005D4FFF7D9FD401B6428F7D9FEE02078AB
:1023600080072FD5706810F00C0F07D0706800F050
:102370000C0008280AD17068C00307D430688007B1
:1023800019D52069012840F0098114E02169002055
:10239000C4F24220002900F0A58001210160FFF76E
:1023A000B3FD05463068800705D4FFF7ADFD401B3F
:1023B0000228F7D9D2E03068616920F0F80040EADD
:1023C000C10030602078000712D42078400740F127
:1023D000D080F069C00020D4F0694FF0010840F0CF
:1023E0008050F061F06900F080500090009816E095
:1023F000A069D8B300200121C4F24220C0F88014A3
:10240000FFF782FD054600BF706A800741D4FFF7E1
:102410007BFD401B0228F7D9A0E04FF0000847F2EF
:102420000007C4F200073868C00510D4386840F4CB
:1024300080703860FFF768FD054600BF3868C0054A
:1024400005D4FFF761FD401B6428F7D986E0E068FA
:10245000002858D0012805D0316A05286AD141F0FA
:1024600004003062306A40F0010069E00020002181
:10247000C4F24220C0F88014FFF746FD054600BFB5
:10248000706A8007A1D5FFF73FFD401B0228F7D9EE
:1024900064E040F20C0044F6D351C2F20000C1F2F5
:1024A00062010068A0FB0101480A019000BF019889
:1024B000411E002801913FF488AF00BF0198411EE2
:1024C000002801913FF481AF00BF0198411E002810
:1024D00001913FF47AAF00BF0198411E002801919D
:1024E000E4D172E700210160FFF70EFD054600BF51
:1024F000306880077FF566AFFFF706FD411B0320BC
:102500000229F5D991E0306A20F001003062306A8A
:1025100020F004003062FFF7F7FC054641F28837EF
:10252000306A80071ED5FFF7EFFC411B0320B9423C
:10253000F6D97AE021F001003062306A20F0040020
:102540003062FFF7E1FC054641F28837306A8007C8
:1025500008D4FFF7D9FC401BB842F7D9032002B0DA
:10256000BDE8F081B8F1000F1EBFF06920F0805087
:10257000F061E769002F57D0706800F00C00082860
:1025800010D1012F0AD07068216A00F480328A428B
:1025900004D1616A00F47010884245D0012002B075
:1025A000BDE8F08140F200080020C4F24228C8F8DB
:1025B0006000FFF7A9FC0546022F09D130688001B1
:1025C00010D5FFF7A1FC411B03200229F6D92CE00E
:1025D0003068800128D5FFF797FC411B03200229B2
:1025E000F6D922E0206AB0F5803F05D17168A26873
:1025F00021F40031114371607168626A104321F463
:102600007411084370600120C8F86000FFF77CFC7B
:10261000044600BF3068800106D4FFF775FC011B3B
:1026200003200229F6D900E0002002B0BDE8F081C5
:1026300070B5C0B3002605464FF0000C866290F8D6
:10264000510030B9284685F8506000F02FF8D5F8D1
:1026500028C0022185F8511029680A6822F040023A
:102660000A60D5E90123D5E903041A4310436A69D6
:1026700020431043AA6902F400731843EB6918431E
:102680002B6A184340EA0C000860042000EA12405C
:102690004860C86920F40060C86101206E6585F853
:1026A0005100304670BD0126304670BD80B586B001
:1026B00001460020CDE90400CDE9020040F600000B
:1026C000C4F20100096800F52052914201D006B021
:1026D00080BD41F21801C4F202010A6842F480523E
:1026E0000A600A6802F480520192019A0A6842F074
:1026F00004020A60096801F00401019101990321B3
:10270000059102210391A021029102A9FFF7FCFA91
:1027100006B080BD2DE9F04381B0044690F850002A
:10272000012802BF022001B0BDE8F0834FF001098B
:102730001D4616460F4684F85090FFF7E5FB80468D
:1027400094F85100012873D1002F4FF0010018BFF9
:10275000002E00F008810320731E84F85100002031
:10276000B3FA83F36065E686A6862763A087A06335
:10277000C4E91000E0875B09A1682068B1F5004F4B
:1027800002BF016841F480410160016849065EBFF3
:10279000016841F0400101606168E268B1FA81F1CD
:1027A000B2F5006F4FEA511141EA030142D131B154
:1027B00037F8021BC1602763E18E0139E186E18EA3
:1027C000002979D0691C02D11DE000BF2068816812
:1027D00089070BD4FFF798FBA0EB0800A84280F014
:1027E000CA80E08E0028F1D166E000BF216B31F88D
:1027F000022BC2602163E08E0138E086E08E002863
:10280000E4D159E020688168890705D4FFF77CFB93
:10281000E08E0028F6D14FE0216B31F8022BC26028
:102820002163E08E0138E086E08E0028EAD143E0A3
:10283000022098E039B139780173206B01302063B0
:10284000E08E0138E086E08EB0B3681C1ED000BF79
:102850002068816889070BD4FFF756FBA0EB0800BE
:10286000A84280F08A80E08E0028F1D124E000BFE9
:10287000216B09780173206B01302063E08E0138F1
:10288000E086E08E0028E3D116E000BF2068816872
:10289000890705D4FFF738FBE08E0028F6D10BE05E
:1028A000216B09780173206B01302063E08E0138C1
:1028B000E086E08E0028E9D120688168090645D5C8
:1028C000691C0AD0FFF720FBA0EB08012068A94291
:1028D00011D281680906F5D438E08168090635D53A
:1028E0008168090644BF81685FEA01612ED581686D
:1028F0000906F2D42AE0416821F0E00141606168F4
:10290000B1F5827F0AD1A168B1F5004F02D0B1F5CF
:10291000806F03D1016821F040010160A16AB1F527
:10292000005F07D1016821F400510160016841F4A2
:1029300000510160012184F85110616D41F02001C6
:102940006165002184F8501020216165A16831B9CA
:1029500000210091C1680091806800900098606D2E
:10296000002818BF0120002184F8501084F85190ED
:1029700001B0BDE8F0830320F5E70320F3E7000092
:10298000411E0020B0EB116F1CBF012070474EF2BA
:102990001002F023CEF2000251604EF62351CEF227
:1029A00000010B70072190601160704770470000B4
:1029B0007047000090F83C20012A02BF022108461F
:1029C0007047B0B501F10805D1E900CE3CCDC96929
:1029D00023F47C5322F470521A432EF4F0431A432A
:1029E0002CF4E0431A4324F4C0431A432A4322F44C
:1029F0008042114302685164002180F83C10BDE818
:102A0000B04008467047000090F83C300222012B8D
:102A100019D080B580F83D2002685368D2F808C00C
:102A200023F0700ED1E9003143EA0E0353602CF01D
:102A30008003194391600022012180F83C2080F836
:102A40003D10BDE88040104670470000002804BFDC
:102A50000120704710B5044690F83D0028B90020C9
:102A600084F83C00204600F053F8022040F6FF3284
:102A700084F83D00C4F200022068016890420FDC37
:102A8000B0F1804F1ED040F20042C4F200029042EA
:102A900018D040F60002C4F20002904212D019E0B1
:102AA00040F60042C4F2000290420BD043F20042D2
:102AB000C4F20102904205D042F60042C4F2010283
:102AC000904207D1A26821F45C71236922F440721C
:102AD00011431943A26921F0800111430160E168AB
:102AE000C1626168816243F20041C4F2010188421F
:102AF00005D042F60041C4F20101884201D161696A
:102B0000016301214161002084F83D1010BD0000E7
:102B100080B582B040F2FF710068C4F200018842C3
:102B200023DD40F60001C4F20001884235D040F6B2
:102B30000041C4F2000188423ED042F60041C4F296
:102B40000101884245D141F21C00C4F2020050F854
:102B5000041C41F4006140F8041C50F8040C00F41B
:102B600000600190019802B080BDB0F1804F32D07A
:102B700040F20041C4F2000188422AD141F21C0017
:102B8000C4F20200016841F002010160006800F037
:102B900002000190019802B080BD41F21C00C4F215
:102BA0000200016841F004010160006800F00400C7
:102BB0000190019802B080BD41F21C00C4F20200F5
:102BC000016841F008010160006800F00800019010
:102BD000019802B080BD41F21C000022C4F2020044
:102BE000016841F0010101600021006800F001006E
:102BF000019001981C20FFF717FA1C2002B0BDE8D5
:102C00008040FFF701BA0000022180F83D10016802
:102C10008A6802F00702062A1EBF0A6842F0010213
:102C20000A60012180F83D1000207047022141F226
:102C3000111380F83D1001680A6A1A4204D10A6A29
:102C400040F244431A4204D0012180F83D10002094
:102C500070470A6822F001020A60012180F83D10E5
:102C600000207047006841F21112C16821F0010193
:102C7000C160016A114204D1016A40F2444211422A
:102C800001D000207047016821F00101016000209F
:102C90007047000090F83C300222012B00F0BF800A
:102CA00080B580F83D20012280F83C204FF67772F5
:102CB000D0F800C0DCF8083023EA0202CCF8082083
:102CC0000B683F2B1BDD5F2B1FDD602B4DD0B3F559
:102CD000005F69D0702B40F09A80D1E90123C96868
:102CE0001A4342EA0121DCF8082022F47F42114312
:102CF000CCF80810DCF8081041F0770185E01F2BB4
:102D000027DC53B3102B28D081E0402B5ED0502B12
:102D10007DD1D1F804E0C968DCF82030DCF820204F
:102D200022F00102CCF82020DCF8182022F0F0027A
:102D300042EA0111CCF8181023F00A0141EA0E0111
:102D4000CCF82010DCF8081041F0570121F02001E8
:102D50005BE0202B01D0302B59D1DCF8081021F09A
:102D60007001194341F007014FE04A68C968DCF877
:102D7000203023F01003CCF82030DCF8183023F496
:102D8000704343EA0131DCF82030CCF8181023F00E
:102D9000A00141EA0211CCF82010DCF8081041F043
:102DA000670121F0100130E0D1E90123C9681A431D
:102DB00042EA0121DCF8082022F47F421143CCF8DA
:102DC0000810DCF8081041F480411EE0D1F804E05E
:102DD000C968DCF82030DCF8202022F00102CCF8B1
:102DE0002020DCF8182022F0F00242EA0111CCF891
:102DF000181023F00A0141EA0E01CCF82010DCF88B
:102E0000081041F0470121F03001CCF808100022F1
:102E1000012180F83C2080F83D10BDE8804010463C
:102E2000704700007047000010B504460068016953
:102E3000890744BFC1685FEA81713BD401694907D2
:102E400044BFC1685FEA417150D40169090744BFBA
:102E5000C1685FEA017166D40169C90644BFC168EF
:102E60005FEAC1617CD40169C9071CBFC1685FEA20
:102E7000C17140F093800169090644BFC1685FEAEF
:102E8000016100F19A800169490644BFC1685FEAA7
:102E9000416100F1A1800169890646BFC1685FEA0E
:102EA000816110BD6FF0200101612046BDE8104036
:102EB000FFF77EBD6FF0020101610121217780697A
:102EC000800703D02046FFF7ADFF05E0204600F065
:102ED0008BF8204600F00CFA00202077206801696A
:102EE000490744BFC1685FEA4171AED56FF0040184
:102EF000016102212177806910F4407F03D02046D0
:102F0000FFF790FF05E0204600F06EF8204600F045
:102F1000EFF90020207720680169090744BFC168E4
:102F20005FEA017198D56FF00801016104212177F2
:102F3000C069800703D02046FFF774FF05E02046F4
:102F400000F052F8204600F0D3F9002020772068E6
:102F50000169C90644BFC1685FEAC1617FF583AFFB
:102F60006FF01001016108212177C06910F4407FE2
:102F700003D02046FFF756FF05E0204600F034F866
:102F8000204600F0B5F90020207720680169C907C4
:102F90001CBFC1685FEAC1713FF46DAF6FF0010102
:102FA0000161204600F010FA20680169090644BF5B
:102FB000C1685FEA01617FF566AF6FF08001016172
:102FC0002046FFF7F3FC20680169490644BFC16849
:102FD0005FEA41617FF55FAF6FF04001016120461C
:102FE00000F024FA206856E7704700002DE9F0430E
:102FF00090F83C500223012D00F013814FEAB202F9
:103000004FF0010C80F83D30032A80F83CC000F2FC
:103010000381DFE802F0024183C703681A6A22F0E5
:1030200001021A621A461C6AD3F8048052F8185F2B
:103030008F680E6824F002043C4325F0730743F2C6
:103040000045C4F2010547EA060EAB4205D042F640
:103050000045C4F20105AB420DD1D1F80C90D1E985
:10306000057628F4407524F00C043D4345EA060833
:1030700029F004052C43C3F80480C3F818E04F6816
:103080005F631C629F6947F008079F619F6927F093
:1030900004079F610969BCE003681A6A22F0100204
:1030A0001A621A461C6AD3F804E052F8185F0E68D8
:1030B0008F6825F4E64524F0200445EA062843F20B
:1030C000004644EA0714C4F20106B34205D042F6B2
:1030D0000046C4F20106B34210D1D1F80C90D1E9F8
:1030E00005752EF4406624F0C00446EA870747EAD7
:1030F000850E6FF0400505EA09152C43C3F804E07E
:10310000C3F818804F689F631C629F6947F400678B
:103110009F619F6927F480679F6178E003681A6A5E
:1031200022F480721A621A461C6AD3F804E052F83C
:103130001C5F0E688F6825F0730524F4007445EA5F
:10314000060843F2004644EA0724C4F20106B342EB
:1031500005D042F60046C4F20106B34211D1D1F8BF
:103160000C90D1E905752EF4405624F4406446EAEB
:10317000071740F2FF4647EA051E4FEA0925B54307
:103180002C43C3F804E0C3F81C804F68DF631C6263
:10319000DF6947F00807DF61DF6927F00407DF61B7
:1031A000096936E003681A6A22F480521A621A46E4
:1031B0001F6AD3F8048052F81C4F8D680E6827F4FC
:1031C000005724F4E64447EA053E43F2004544EA4A
:1031D0000624C4F20105AB4205D042F60045C4F214
:1031E0000105AB4204D14D6928F4804646EA8518B2
:1031F000C3F80480DC614C681C64C3F820E0DF691C
:1032000047F40067DF61DF6927F48067DF610969E0
:103210000902136819431160002380F83C3080F8DC
:103220003DC01846BDE8F083002804BF0120704768
:1032300010B5044690F83D0028B9002084F83C0001
:10324000204600F053F8022040F6FF3284F83D009B
:10325000C4F200022068016890420FDCB0F1804F98
:103260001ED040F20042C4F20002904218D040F654
:103270000002C4F20002904212D019E040F600426F
:10328000C4F2000290420BD043F20042C4F20102A9
:10329000904205D042F60042C4F20102904207D1AA
:1032A000A26821F45C71236922F44072114319432E
:1032B000A26921F0800111430160E168C162616887
:1032C000816243F20041C4F20101884205D042F616
:1032D0000041C4F20101884201D161690163012109
:1032E0004161002084F83D1010BD000070470000CF
:1032F00070470000006801F01F01012202FA01F18D
:10330000026A8A430262026A1143016243F2004187
:10331000C4F20101884205D042F60041C4F2010125
:10332000884203D1416C41F400414164816801F05D
:10333000070106291EBF016841F00101016000205C
:103340007047000001F01F0101228A4001680B6AEA
:1033500023EA02020A620A6A0A6243F20042C4F2E3
:103360000102914205D042F60042C4F201029142AC
:1033700009D10A6A41F211131A4204D10A6A40F2D1
:1033800044431A4212D00A6A41F211131A4216D16A
:103390000A6A40F244431A4211D10A6822F001023B
:1033A0000A60012180F83D10002070474A6C22F429
:1033B00000424A640A6A41F211131A42E8D001211C
:1033C00080F83D100020704770B540F2EC61C2F209
:1033D000000188420FD140F2400540F25001C2F294
:1033E0000001C2F200052868096801300029286040
:1033F00018BF002800D170BD884218BF70BD40F2D0
:10340000EC6400210026C2F200042046FFF79AFF78
:1034100040F24800C2F2000006600120C5E90060E9
:103420002046BDE87040FFF71DBC0000704700005B
:1034300070470000B0B5054600680168C26843697E
:103440005FEA017C41D002F4907403F00103E418B8
:1034500050D0CC071FBF12F48074EC6B44F0010411
:10346000EC634C0705D5002B1EBFEC6B44F0020447
:10347000EC638C0705D5002B1EBFEC6B44F00404F5
:10348000EC63BCF1000F05D5002B1EBFEB6B43F0C6
:103490000803EB63EB6B002B00F0EE801140890614
:1034A00040F1B68095F83A10222940F0B180A96821
:1034B000B1F5805F64D12A69A96A4068002A00F0EA
:1034C0008A80C0B221F8010B89E011408A0612D52A
:1034D00095F83A10222940F0CF80A968B1F5805FB5
:1034E00042D12A69A96A4068002A55D0C0B221F8A1
:1034F000010B55E011400A060ED4490658BFB0BD75
:10350000C16821F04001C160202085F839002846BB
:10351000BDE8B04000F01CBB95F83910212940F0FF
:10352000AB80AA68296AB2F5805F0AD10A886FF376
:103530005F2242602A69002A14BF013102312962E8
:1035400003E04A1C2A6209784160E98C0139E98468
:10355000090440F09180C16821F08001C160C16818
:1035600041F04001C160B0BD296940680029A96AE5
:1035700001F10102AA6218BF00F07F00087010E09C
:10358000296940680029A96A01F10102AA6218BFED
:1035900000F07F00087023E06FF35F2021F8020B3A
:1035A000A962E88D0138E885000465D12868C16802
:1035B00021F02001C160C16821F48071C1604169BE
:1035C00021F001014161202085F83A002846BDE83C
:1035D000B04000F0B7B96FF35F2021F8020BA96289
:1035E000E88D0138E885000412D12868C16821F00F
:1035F0002001C160C16821F48071C160416921F07E
:1036000001014161202085F83A00284600F09AF92E
:1036100028684169EA6B01F0400102F0080289184C
:1036200025D0C16821F49071C160416921F0010188
:103630004161202185F83A104169490612D5416956
:1036400021F040014161686B60B144F6D161C0F680
:1036500000014163FEF7B6FA70B1686B416BBDE8DB
:10366000B04008472846BDE8B040FFF7E1BE284615
:10367000FFF7DEFE0020E863B0BD0000002804BFB5
:103680000120704710B5044690F8390028B9002091
:1036900084F83800204600F021F8242084F839000E
:1036A0002068C16821F40051C160204601F016FC79
:1036B0002068016921F490410161416921F02A01EA
:1036C0004161C16841F40051C16000202021E063E4
:1036D00084F8391084F83A1010BD0000B0B586B0F7
:1036E0000021CDE90411CDE9021144F6FF31006853
:1036F000C4F20001884249DC44F20041C4F20001F6
:10370000884200F0838044F60001C4F20001884240
:1037100040F0B28041F2180002ADC4F202004168EC
:1037200041F480214160416801F4802101910199B7
:10373000016841F0080101602946006800F00800B6
:103740000190019803200590022003904FF48060BF
:10375000029040F60000C4F2010000F580642046AB
:10376000FEF7D2FA00202946CDE903004FF40060AD
:1037700002902046FEF7C8FA272003210022FEF718
:1037800053FC2720FEF740FC06B0B0BD43F6000115
:10379000C4F20101884271D044F60041C4F2000134
:1037A000884269D141F2180002ADC4F202004168BA
:1037B00041F400214160416801F400210191019927
:1037C000016841F0100101602946006800F0100016
:1037D0000190019803200590022003904FF480602F
:1037E000029040F60000C4F2010000F5006420469B
:1037F000FEF78AFA00202946CDE903004FF4006065
:1038000002902046FEF780FA06B0B0BD41F21800E3
:1038100040F6000402ADC4F20200C4F201044168A3
:1038200041F400314160416801F400310191019996
:10383000016841F0040101602946006800F00400BD
:10384000019001980320059002200390042002902B
:103850002046FEF759FA00202946CDE9030008204A
:1038600002902046FEF750FA262002210022FEF7A1
:10387000DBFB2620FEF7C8FB06B0B0BD41F2180006
:1038800040F6000402ADC4F20200C4F20104016873
:1038900041F480410160016801F480410191019986
:1038A000016841F0040101602946006800F004004D
:1038B0000190019803200590022003904FF40070BE
:1038C00002902046FEF720FA00202946CDE90300A9
:1038D0004FF4806002902046FEF716FA2520012161
:1038E0000022FEF7A1FB2520FEF78EFB06B0B0BD3F
:1038F000034690F83A0020280AD100294FF0010031
:1039000018BF002A00D1704793F83800012801D170
:10391000022070470020DA85D8639A8599622221B7
:1039200083F8380083F83A101968CA6842F4807244
:10393000CA604A6942F001024A61CA6842F0200244
:10394000CA607047B0B544F2004504460068C4F24E
:10395000000505F5806188420AD005F5744188426A
:103960000DD0A84218BFB0BDBDE8B04001F07ABB91
:1039700001F068FB206805F574418842F1D101F03F
:10398000B1FB2068A84218BFB0BDBDE8B04001F04F
:1039900069BB00002DE9F047044690F83900202863
:1039A0000DD10F460120002900F0B9801646002AEB
:1039B00008BFBDE8F08794F83800012802D1022042
:1039C000BDE8F08700201D46E063012084F8380040
:1039D000212084F83900FEF797FAE684A684804611
:1039E000E08C002800F091802068691C46D04FF0E0
:1039F000200A4FF0000900BFE18C0139E184A6687C
:103A0000016809060AD4EDB1FEF77EFAA0EB0801C1
:103A10002068A94216D801680906F5D50021B6F537
:103A2000805F21D1002940F08F8039886FF35F21BA
:103A300041602169002914BF01370237E18C002958
:103A4000DAD143E0C16821F4D071C160416921F04D
:103A500001014161012184F839A084F8389084F88B
:103A60003AA0B6F5805FDDD000296DD117F8011BB3
:103A70004160E18C0029BFD128E000BFE18C013911
:103A8000E184A168026812065FBF02685FEA026211
:103A900002685FEA026203D402681206F2D500BF30
:103AA000B1F5805F0CD139886FF35F2141602169E6
:103AB00000290CBF02370137E18C0029DED105E077
:103AC00017F8011B4160E18C0029D7D10168490634
:103AD0001FD435B3691C0DD10168490619D401689A
:103AE00049065CBF01685FEA416112D4016849067A
:103AF000F2D50EE0FEF708FAA0EB08012068A94213
:103B00000FD800684006F5D503E020680168490633
:103B1000DFD50020202184F8380084F83910BDE872
:103B2000F087C16821F4D071C160416921F00101C1
:103B300041612020002184F8390084F8381084F88D
:103B40003A000320BDE8F0870320BDE8F0870000BD
:103B500070470000FEE70000B0B541F200040F21FD
:103B600000220025C4F201042046FEF7C7F92046D2
:103B700007210122FEF7C2F9204608210022FEF7A4
:103B8000BDF9A06800F0F000F02808D00A20FEF788
:103B9000A7F8A06800F0F000F02856D165E02046B4
:103BA0000F210022FEF7AAF920460B210122FEF781
:103BB000A5F9204604210022FEF7A0F9A06800F034
:103BC000F000F02807D00A20FEF78AF8A06800F07D
:103BD000F000F0284DD120460F210022FEF78EF98B
:103BE00020460D210122FEF789F9204602210022FC
:103BF000FEF784F9A06800F0F000F02807D00A2052
:103C0000FEF76EF8A06800F0F000F02843D12046DF
:103C10000F210022FEF772F920460E210122FEF745
:103C20006DF9204601210022FEF768F9A06800F036
:103C3000F000F02807D00A20FEF752F8A06800F044
:103C4000F000F02839D12846B0BDA06800F0F70098
:103C500077384FEA3010072807D80125DFE800F051
:103C6000070505054005420499E7002597E7042567
:103C700095E7A06800F0FB007B384FEA301007287A
:103C800040D80525DFE800F0053E3E3E303E3204D8
:103C9000A1E708259FE7A06800F0FD007D384FEA06
:103CA0003010072830D80925DFE800F0052E2E2E29
:103CB000222E2404ABE70C25A9E7A06800F0FE0043
:103CC0007E384FEA3010072820D80D25DFE800F0B5
:103CD000051E1E1E141E1704B5E710252846B0BD8C
:103CE00003255CE702255AE7072574E7062572E7F6
:103CF0000B258CE70A258AE70F252846B0BD0E253F
:103D00002846B0BD002566E7002580E70025284647
:103D1000B0BD00002DE9F04182B0002000214FF03D
:103D2000000800F03DFA40F6000440F254650DF141
:103D300007060027C4F20104C2F200052046022152
:103D400000228DF80780FEF7D9F8204610210122C5
:103D5000FEF7D4F82846314601226423FEF7DAFC48
:103D6000204602210122FEF7C9F80137B7F5C06FDE
:103D7000E4D340F254004FF4C061C2F20000FCF7FB
:103D8000FAF90020002100F00BFA02B0BDE8F08142
:103D90002DE9F04383B00F468046002000211646EF
:103DA00000F0FEF940F6000408F00F0002210022A6
:103DB000C4F201048DF807002046FEF79FF8204664
:103DC00010210022FEF79AF840F254650DF1070128
:103DD00001220A23C2F200052846FEF79BFC20467A
:103DE00002210122FEF78AF84FEA18100221002270
:103DF00010308DF808002046FEF780F8204610218C
:103E00000022FEF77BF802A9284601220A23FEF7CA
:103E100081FC204602210122FEF770F807F0070915
:103E2000FD085EB3012E53D145F0B00002210022FF
:103E30008DF809002046FEF761F820461021002287
:103E4000FEF75CF840F254600DF1090101220A23EB
:103E50000126C2F20000FEF75DFC2046022101228D
:103E6000FEF74CF840F2540106FA09F0C2F20001E4
:103E700001EBC8014A5D1043485530E045F0B00001
:103E8000022100228DF80A002046FEF737F820466E
:103E900010210022FEF732F840F254600DF10A01C1
:103EA00001220A23C2F20000FEF734FC2046022160
:103EB0000122FEF723F840F25401FE20C2F2000175
:103EC00000FA09F001EBC8014A5D1040485506E0D0
:103ED00040F25400C2F2000000EBC800405D8DF8D3
:103EE0000B00204602210022FEF708F82046102190
:103EF0000122FEF703F840F254600DF10B0101229C
:103F00006423C2F20000FEF705FC204602210122D4
:103F1000FDF7F4FF03B0BDE8F08300002DE9F041A8
:103F200084B040F60004022100224FF00008C4F2E1
:103F300001042046FDF7E2FF204640210022FDF764
:103F4000DDFF3220FDF7CCFE204640210122FDF7A7
:103F5000D5FF204602210122FDF7D0FF3220FDF7D8
:103F6000BFFEE220022100228DF807002046FDF767
:103F7000C5FF204610210022FDF7C0FF40F2546526
:103F80000DF1070101220A23C2F200052846FEF7BF
:103F9000C1FB204602210122FDF7B0FF3220FDF7D0
:103FA0009FFE2F20022100228DF808002046FDF7F9
:103FB000A5FF204610210022FDF7A0FF02A92846F8
:103FC00001220A23FEF7A6FB204602210122FDF76B
:103FD00095FF3220FDF784FEA320022100228DF8F8
:103FE00009002046FDF78AFF204610210022FDF738
:103FF00085FF0DF10901284601220A23FEF78AFBFD
:10400000204602210122FDF779FF812002210022B2
:104010008DF80A002046FDF771FF2046102100228E
:10402000FDF76CFF0DF10A01284601220A23FEF775
:1040300071FB204602210122FDF760FF8020022152
:1040400000228DF80B002046FDF758FF2046102176
:104050000022FDF753FF0DF10B01284601220A2330
:10406000FEF758FB204602210122FDF747FFEB2017
:10407000022100228DF80C002046FDF73FFF20466C
:1040800010210022FDF73AFF03A9284601220A2346
:10409000FEF740FB204602210122FDF72FFFC4203E
:1040A000022100228DF80D002046FDF727FF204653
:1040B00010210022FDF722FF0DF10D0128460122FB
:1040C0000A23FEF727FB204602210122FDF716FFF7
:1040D0000020002100F064F80DF10F06002700BF5A
:1040E0002046022100228DF80F80FDF707FF2046B1
:1040F00010210122FDF702FF2846314601226423E8
:10410000FEF708FB204602210122FDF7F7FE0137EA
:10411000B7F5C06FE4D30020002100F041F8AF20D4
:10412000022100228DF80E002046FDF7E7FE204612
:1041300010210022FDF7E2FE40F254600DF10E0165
:1041400001220A23C2F20000FEF7E4FA204602210F
:104150000122FDF7D3FE3220FDF7C2FD04B0BDE819
:10416000F0810000F0B593B00646184614460D469F
:10417000FCF7C4FA03AFCDE9000107A12246384697
:1041800001F08CF830462946012201230097FDF703
:10419000E9F913B0F0BD00BF25733A2566000000B1
:1041A000F0B581B040F60004054601F00F000F465F
:1041B00002210022C4F201048DF801002046FDF71F
:1041C0009DFE204610210022FDF798FE40F2546625
:1041D0000DF1010101220A23C2F200063046FEF76A
:1041E00099FA204602210122FDF788FE38090221B2
:1041F000002210308DF802002046FDF77FFE204699
:1042000010210022FDF77AFE0DF102013046012255
:104210000A23FEF77FFA204602210122FDF76EFEF7
:104220000B200221002260F31F1520468DF8035059
:10423000FDF764FE204610210022FDF75FFE0DF120
:104240000301304601220A23FEF764FA20460221C8
:104250000122FDF753FE01B0F0BD00002DE9F04F43
:1042600081B00C46590780464FF001004FEAD30158
:1042700018BF00EBD30158084843010600F09581B0
:10428000A2F120019B460C2BC9B200F08580BBF146
:10429000100F40F0058147F6CF025FFA80F9002742
:1042A0002546C0F6000202EB011100910098C657A6
:1042B000B6F1FF3F05DC5FFA88F0E9B20122FFF7B3
:1042C00067FD681CC1B2081B58455DD05FFA86FACD
:1042D0005FEA4A6004D55FFA88F00122FFF758FDD3
:1042E000A81CC1B2081B58454ED05FEA8A6004D5AD
:1042F0005FFA88F00122FFF74BFDE81CC1B2081BF2
:10430000584541D05FEACA6004D55FFA88F00122BF
:10431000FFF73EFD281DC1B2081B584534D05FEAA7
:104320000A7004D55FFA88F00122FFF731FD681D9D
:10433000C1B2081B584527D05FEA4A7004D55FFA1E
:1043400088F00122FFF724FDA81DC1B2081B5845C3
:104350001AD05FEA8A7004D55FFA88F00122FFF76D
:1043600017FDE81DC1B2081B58450DD05FEACA70A1
:1043700004D05FFA88F00122FFF70AFD0835E8B2A1
:10438000001B584503D100BF08F10108254601373D
:104390004F45FFF48BAF08E147F25B4201EB41016F
:1043A0005FFA80F900272546C0F6000202EB810182
:1043B000009100BF0098C657B6F1FF3F05DC5FFAD9
:1043C00088F0E9B20122FFF7E3FC681CC1B2081BC8
:1043D00058455DD05FFA86FA5FEA4A6004D55FFA15
:1043E00088F00122FFF7D4FCA81CC1B2081B584575
:1043F0004ED05FEA8A6004D55FFA88F00122FFF7A9
:10440000C7FCE81CC1B2081B584541D05FEACA602E
:1044100004D55FFA88F00122FFF7BAFC281DC1B26B
:10442000081B584534D05FEA0A7004D55FFA88F05B
:104430000122FFF7ADFC681DC1B2081B584527D00B
:104440005FEA4A7004D55FFA88F00122FFF7A0FC0A
:10445000A81DC1B2081B58451AD05FEA8A7004D55E
:104460005FFA88F00122FFF793FCE81DC1B2081B38
:1044700058450DD05FEACA7004D05FFA88F0012277
:10448000FFF786FC0835E8B2001B584503D100BF92
:1044900008F10108254601374F45FFF48BAF84E052
:1044A00047F6BF6201EBC1015FFA80F90027A2461F
:1044B000C0F6000202EB8106BBF1180F75D1F5576B
:1044C000B5F1FF3F06DC5FFA88F05FFA8AF101225E
:1044D000FFF75EFC0AF10100C1B2081B58455DD030
:1044E000EDB2680604D55FFA88F00122FFF750FCB0
:1044F0000AF10200C1B2081B58454FD0A80604D5E6
:104500005FFA88F00122FFF743FC0AF10300C1B211
:10451000081B584542D0E80604D55FFA88F001220E
:10452000FFF736FC0AF10400C1B2081B584535D02C
:10453000280704D55FFA88F00122FFF729FC0AF169
:104540000500C1B2081B584528D0680704D55FFA9A
:1045500088F00122FFF71CFC0AF10600C1B2081B1B
:1045600058451BD0A80704D55FFA88F00122FFF751
:104570000FFC0AF10700C1B2081B58450ED0E8072E
:1045800004D05FFA88F00122FFF702FC0AF1080A62
:104590005FFA8AF0001B584503D100BF08F10108FB
:1045A000A24601374F45FFF487AF01B0BDE8F08F59
:1045B0002DE9F04F81B0002B59D083460A9D10465B
:1045C0001C468A46FCF755F8013C07460E466D0826
:1045D0004FF000094FF00008009400BF2046FCF7A0
:1045E00037F80B46002102460020C4F2240101F0F6
:1045F0008FFB02460B4638463146FBF7B5FFFCF70A
:1046000045F846F26761B8F1000FC6F2666180FBBB
:1046100001124FEAA20101EBD27101EB8101A0EB83
:10462000410106D10098484503DD080610D04FF03F
:10463000010805FB09B030310A9BCAB2C0B251462D
:10464000FFF70CFE013C09F10109601CC6D10EE028
:1046500005FB09B00A9B51462022C0B2FFF7FEFDC0
:104660004FF00008013C09F10109601CB6D101B00E
:10467000BDE8F08F2DE9F04F81B080460B980C46D5
:104680000678A6F12001C9B25E2923D819190A9B20
:104690004244471CC2461FFA82FB8DB24FEA5309BF
:1046A0001FFA8AF0584524BF5FFA88FA1C44A0B26A
:1046B000A8420FD2F2B25FFA8AF0E1B21E46FFF7CB
:1046C000CDFD334617F8016BCA44A6F12000C0B2F5
:1046D0005F28E5D301B0BDE8F08F00002DE9F0417F
:1046E00082B00446002000210026FFF759FD40F665
:1046F000000540F254680DF10707C4F20105C2F24B
:10470000000800BFA05D022100228DF807002846A6
:10471000FDF7F4FB284610210122FDF7EFFB404690
:10472000394601226423FDF7F5FF284602210122C4
:10473000FDF7E4FB0136B6F5C06FE3D102B0BDE88A
:10474000F08100002DE9F04F85B041F2180040F6ED
:10475000000700224FF00F0A4FF00009C4F20200D8
:10476000C4F20107016807F5006641F0100101601D
:10477000016801F0100101910199016841F0040103
:104780000160016801F0040101910199016841F0A3
:1047900008010160016801F00801019101990168B7
:1047A00041F0400101600F21006800F040000190DD
:1047B00001983046FDF7A2FB3846422101224FF016
:1047C000010BFDF79BFB384610210022FDF796FBFD
:1047D00007F5806840F2022101224046FDF78EFB7A
:1047E00007F58054012101222046FDF787FB204672
:1047F000022100220225FDF781FB049501AD304620
:10480000CDE902B94FF0010BCDF804A02946FDF720
:104810007BFA4FF0030A42202946CDF810A0CDE9DB
:1048200002B901903846FDF76FFA0220294604903C
:104830001020CDE902B901903846FDF765FAF02065
:10484000CDE9029B294601903046FDF75DFA022032
:10485000CDF810A0CDE902B92946022601904046C4
:10486000FDF752FA4FF48070CDE902992946019084
:104870002046FDF749FA1120CDE90396294602901A
:104880004FF4007001904046FDF73EFA204629465D
:10489000CDE9039ACDE901ABFDF736FA05B0BDE8E5
:1048A000F08F000010B540F2546043F200040A217A
:1048B00000224FF0080C4FF4007E4FF48273C2F2D6
:1048C0000000C4F20104C0E90822C0E90A214FF443
:1048D0000041C0E90043C0E90212C0E90422C0E976
:1048E00006ECFDF7A5FE002814BFBDE8104010BD82
:1048F000FCF784BD70B59CB040F6000440F2AC609B
:10490000002144F620624723C4F20104C2F20000F1
:10491000CDE91511CDE913111191CDE90F11CDE9B3
:104920000D11CDE90B11CDE9091104F51056C0E9BF
:104930000063C0E90212C0E904118161CDE90711E9
:10494000CDE90511CDE90311CDE90111FEF77EF89E
:10495000002818BFFCF752FD4FF4805013A91390A4
:1049600040F2AC60C2F20000FEF794F9002818BFD4
:10497000FCF744FD40F2AC60C2F20000FEF754FCCC
:10498000002818BFFCF73AFD40F2AC60002510A9E2
:10499000C2F20000CDE91055FEF736F8002818BF26
:1049A000FCF72CFD40F2AA5009A900220A906020D1
:1049B000099040F2AC600F95CDE90D55CDE90B554E
:1049C000C2F20000FEF712FB002818BFFCF716FD2C
:1049D00040F2AC6500264FF4005001A9C2F2000578
:1049E0000596CDE90366CDE901660896069028464E
:1049F000FDF7E0FF002818BFFCF700FDCDE91A66BF
:104A0000CDE918662868B0F1804F28D042F6004101
:104A1000C4F20101884238D141F21800C4F2020008
:104A2000016841F04001016018A9006800F04000F1
:104A30001790179802201B9019904FF4007018904F
:104A400004F58050FDF760F90420C4F2010001680C
:104A500041F0E06141F0C00101601CB070BD41F265
:104A60001800C4F20200016841F00401016018A9B5
:104A7000006800F004001790179802201B9019900E
:104A8000012018902046FDF73FF91CB070BD0000D2
:104A900010B594B040F2EC60002140F2E7324723B9
:104AA0004FF08044C2F20000CDE90D11CDE90B11A9
:104AB000CDE908118161C0E90043C0E9021201613A
:104AC0000791CDE90511CDE90311CDE90111FDF7FC
:104AD000BDFF002818BFFCF791FC4FF480500BA9D4
:104AE0000B9040F2EC60C2F20000FEF7D3F8002811
:104AF00018BFFCF783FC40F2EC60C2F20000FEF746
:104B000093FB002818BFFCF779FC40F2EC6000240E
:104B100008A9C2F20000CDE90844FDF775FF00289E
:104B200018BFFCF76BFC0594CDE9024440F2EC643D
:104B3000602001A90022C2F2000401902046FEF785
:104B400055FA002818BFFCF759FC0020CDE91200E7
:104B5000CDE910002068B0F1804F2CD042F6004122
:104B6000C4F2010188423FD141F21800C4F20200B0
:104B7000016841F04001016010A9006800F04000A8
:104B80000F900F980220139011904FF40070109026
:104B900040F60000C4F2010000F58050FDF7B4F8C3
:104BA0000420C4F20100016841F0E06141F0C0015D
:104BB000016014B010BD41F21800C4F20200016897
:104BC00041F00401016010A9006800F004000F909A
:104BD0000F980220139011900120109040F60000D1
:104BE000C4F20100FDF790F814B010BD80B586B096
:104BF00040F22C7040F2004200214FF47A7C4723AF
:104C0000C2F20000C4F20002CDE90411CDE90211A4
:104C10008161C0E90023C0E9021C0161CDE90011F6
:104C2000FDF714FF002818BFFCF7E8FB4FF4805095
:104C300002A9029040F22C70C2F20000FEF72AF89E
:104C4000002818BFFCF7DAFB00206946CDE9000018
:104C500040F22C70C2F20000FDF7D6FE002818BF0B
:104C6000FCF7CCFB06B080BD80B586B040F26C701E
:104C700040F6000200214FF6FF7C4723C2F20000FD
:104C8000C4F20002CDE90411CDE902118161C0E94D
:104C90000023C0E9021C0161CDE90011FDF7D6FE39
:104CA000002818BFFCF7AAFB4FF4805002A902901D
:104CB00040F26C70C2F20000FDF7ECFF002818BF54
:104CC000FCF79CFB00206946CDE9000040F26C70C7
:104CD000C2F20000FDF798FE002818BFFCF78EFB1B
:104CE00006B080BD80B586B040F2AC7040F60042A0
:104CF00000214FF6FF7C4723C2F20000C4F20002FD
:104D0000CDE90411CDE902118161C0E90023C0E9B8
:104D1000021C0161CDE90011FDF798FE002818BFC3
:104D2000FCF76CFB4FF4805002A9029040F2AC708B
:104D3000C2F20000FDF7AEFF002818BFFCF75EFBD3
:104D400000206946CDE9000040F2AC70C2F20000DC
:104D5000FDF75AFE002818BFFCF750FB06B080BDD7
:104D600080B540F6AC0044F6004200214FF00C0C38
:104D70004FF4E133C2F20000C4F20002C0E90023A4
:104D8000C0E90211C0E9041CC0E90611FEF776FC77
:104D9000002814BFBDE8804080BDFCF72FBB000099
:104DA00080B540F2EC7043F6000200214FF00C0C8D
:104DB0004FF4E133C2F20000C4F20102C0E9002363
:104DC000C0E90211C0E9041CC0E90611FEF756FC57
:104DD000002814BFBDE8804080BDFCF70FBB000079
:104DE00080B540F62C0044F2004200214FF00C0C3C
:104DF0004FF4E133C2F20000C4F20002C0E9002324
:104E0000C0E90211C0E9041CC0E90611FEF736FC36
:104E1000002814BFBDE8804080BDFCF7EFBA000059
:104E200080B540F66C0044F6000200214FF00C0CF7
:104E30004FF4E133C2F20000C4F20002C0E90023E3
:104E4000C0E90211C0E9041CC0E90611FEF716FC16
:104E5000002814BFBDE8804080BDFCF7CFBA000039
:104E6000FEE7000070470000704700007047000038
:104E7000FDF750B841F200000022C4F20200CFF664
:104E8000FF02016841F001010160416811404FF6E5
:104E9000FF724160CFF6F66201681140016001685F
:104EA00021F480210160416821F4FE0141604FF44A
:104EB0001F0181604EF608504FF00061CEF20000F5
:104EC0000160704740F2EC60C2F20000FDF7ACBF39
:104ED000406A0021C185C184FEF7AABA10B5044614
:104EE00000680169E26821F44051114341F20C620B
:104EF0000161D4F808C0D4E904E3C16891434EEAE3
:104F00000C021A431143C1604169A26921F4407146
:104F10001143416143F60001C4F20101884202D00D
:104F2000FDF79CF901E0FDF7ADF919214843D4E9FB
:104F300000129200B0FBF2F048F21F52C5F2EB12E1
:104F4000A0FB023463096FF0630403FB0400322406
:104F500004EB0010A0FB0202F02000EA5210C2F3A2
:104F6000431200EB03101044886010BD40F2EC7057
:104F7000C2F20000FEF75EBA40F62C00C2F200005A
:104F8000FEF758BA40F66C00C2F20000FEF752BAC3
:104F9000FEE7000040F210000122C2F20000811C76
:104FA00040F66C00C2F20000FEF7A2BC10B54FF450
:104FB0007A70FCF795FE40F62C0409A108226423C0
:104FC000C2F200042046FEF7E5FC40F21000012288
:104FD000C2F20000C11C2046BDE81040FEF788BCAC
:104FE000694641434D0D0A0040F210000722C2F20B
:104FF000000000F1100140F2EC70C2F20000FEF778
:1050000077BC0000FFF7F0FFFFF7C4FFFFF7CEFF0C
:1050100040F2AC600021C2F20000FEF76BF9FEF72F
:105020007DFF46F66A00C0F60000FFF757FB4FF41D
:105030007A70FCF755FEFEF76DFE00BFFCF71AF81C
:10504000FCE7000040F21000C2F20000014611F837
:10505000022F027040F66C000122C2F20000FEF73F
:1050600047BC0000B0B582B040F21004C2F20004A8
:105070002179E078621801310A28107621714FF009
:105080000001ADF80410009122D1207E452809D1FD
:1050900000210020C4F22011C4E906002062E16072
:1050A000207115E0002584F82150A4F81F502583B5
:1050B000D4F81A000090A07F8DF80400684600F034
:1050C00011FEC4E9065525622571FBF72AFBE06055
:1050D00040F62C00E11C0122C2F20000FEF708FCA1
:1050E00002B0B0BD70B582B040F210040020C2F230
:1050F00000048DF80600ADF804008DF80200ADF84C
:105100000000A07D0A2824D134F8100FADF8040067
:10511000A07861798DF80600B4F803008DF80210CC
:10512000ADF8000001A8FBF731F824F80A0C684636
:10513000FBF72CF824F8080C40F2EC70214607220B
:10514000C2F20000FEF7D4FB012004F80F0C02B0FD
:1051500070BD207C0A2802D1012500261CE0607C5D
:105160000A2802D10225012616E0A07C0A2802D1D5
:105170000325022610E0E07C0A2802D1042503263C
:105180000AE0207D0A2802D10525042604E0607D7E
:105190000A2835D10625052604F110002946FAF71C
:1051A000EAFF701C2044007C6074701CC0B20130A7
:1051B000072817D22044007C6074B01CC0B20130B4
:1051C00006280FD82044007C6074F01CC0B2013067
:1051D000062807D820440436007C6074F0B2013001
:1051E0000728DFD3601900F11101C5F1060082B272
:1051F00040F2EC70C2F20000FEF77AFB02B070BD24
:1052000040F2EC7004F110010722C2F20000FEF738
:105210006FFB02B070BD000090B0FCF789FE002467
:105220004FF4E01002250121CDE90B44CDE90944FA
:105230000F904FF480300E900D950A910894CDE9AF
:10524000061006A8FDF732F84FF48060059402219D
:1052500004900F20CDE90254019001A8FCF722FF31
:10526000FFF770FAFFF71EFBFFF7C0FCFFF798FD92
:10527000FFF7B6FDFFF7D4FDFFF734FDFFF73AFB6C
:10528000FFF706FCFFF7F0FCFFF76AFD1720FCF7BD
:10529000A7FE00BFFFF7B6FEFCE700000FB4084B07
:1052A00010B504A902AA039800F080F9044602A9E7
:1052B000002000F012FD204610BC5DF814FB000039
:1052C000DB5C0008490050EAC12018BF04204A0DE9
:1052D00018BF40F0010040F2FF72B2EB515F08BF0F
:1052E00040F00200012808BF0520704700487047C1
:1052F000000000202DE9F0414F1E00EBC7010446DD
:10530000D1E9000115461E4637F006020DD02A46A7
:105310003346FBF7B7F87F1E04EBC703D3E900233E
:10532000FBF709F837F00602F1D1022F25D0042F40
:1053300013D0062F18BFBDE8F0812A463346FBF78D
:10534000A1F8D4E90A23FAF7F6FF2A463346FBF719
:1053500099F8D4E90823FAF7EEFF2A463346FBF71B
:1053600091F8D4E90623FAF7E6FF2A463346FBF71D
:1053700089F8D4E90423FAF7DEFF2A463346FBF71F
:1053800081F8D4E90223FAF7D6FF2A463346FBF721
:1053900079F8D4E90023BDE8F041FAF7CCBF00006A
:1053A0000022134610460149FBF7DEB80000F03F2B
:1053B000FAF7C1BF0022134610461146FBF7D4B8D6
:1053C00040F2013200204FF0E041FBF75FBB0000EC
:1053D000024A00201107FBF759BB000001FDFFFF47
:1053E00001480068704700000000002002E008C883
:1053F000121F08C1002AFAD170477047002001E04F
:1054000001C1121F002AFBD170470000014908604A
:1054100070470000000000202DE9FF5F82B00021EE
:10542000DDE90430020DDDF840B0034318D044F646
:105430001050A2F2FF3242431514119801281FD0D8
:10544000A5EB0B00401C5FEA000A4FF000064E4F30
:10545000DFF83891B046504615D5CAF1000413E084
:10546000119801244AA3012801D16FEA0B01029887
:10547000119AC0E90031C0E9024206B0BDE8F09FD0
:10548000CBF10000DFE704460021404A491842EB17
:105490000450CDE9001012E0E00707D032463B4649
:1054A00040464946FAF7EEFF8046894632463B467B
:1054B00010461946FAF7E6FF06460F466410002C20
:1054C000EAD1DDE90401DDE90023BAF1000F06DAD3
:1054D000FAF7D8FF42464B46FAF7D4FF05E0FBF750
:1054E00043F842464B46FBF73FF804460E4600227F
:1054F000284BFBF7FBFA03D84FF0FF30014607E0DB
:105500000022254B20463146FAF715FFFBF7D5FA66
:10551000102409E0002C0ADB0A220023FBF733F9F0
:10552000039B30321A55641E50EA0102F2D1641C0A
:10553000039AC4F111031444119A012A03D00122E1
:1055400008430DD10AE0084304D000204FF0110BAE
:10555000119072E7A3EB0B056D1E0DE05B4504DDBA
:105560004FF0000205F1010504E003DA4FF00002FC
:10557000A5F10105002AECD002981199C0E9023189
:10558000C0E9004579E70000000014400000F03F4A
:10559000300000000000F0430000E03F30380A28EF
:1055A00001D2012070470020704700002DE9FF4F15
:1055B00095B09B468946064600250FE2252877D1FF
:1055C00000242746F84A0121059400E0044316F818
:1055D000013F203B01FA03F01042F7D130782A282E
:1055E00011D06FF02F033078A0F13002092A16D8BD
:1055F000059A44F0020402EB820203EB42021044DB
:10560000761C0590EFE759F8042B0592002A03DA7F
:10561000504244F40054059044F00204761C307863
:105620002E2816D116F8010F44F004042A280DD0B4
:105630006FF02F023078A0F13003092B09D807EB67
:10564000870302EB4303C718761CF3E759F8047B82
:10565000761C30786C280FD006DC4C2817D06828D0
:105660000DD06A2814D104E0742810D07A280FD104
:105670000DE044F400140AE044F4801401E044F422
:1056800040147278824202D104F58014761C761C94
:10569000307866280BD013DC582877D009DC002836
:1056A00075D04528F6D04628F4D047281AD19DE178
:1056B00018E0632835D0642879D0652812D195E1A7
:1056C000702873D008DC6728F1D069286FD06E2865
:1056D0000DD06F2806D1B5E073282CD0752875D071
:1056E000782874D05A46179990476D1C75E1C4F319
:1056F0000250022809D003280DD0D9F80010042840
:105700000DD00D6009F1040967E1D9F80010EA171E
:10571000C1E90052F6E7D9F800100D80F2E70D70EC
:10572000F0E719F8041B8DF8001000208DF8010037
:10573000EA46012003E059F804AB4FF0FF3061075F
:105740004FF0000102D40DE008F101018846B94292
:105750000FDA8045F8DB1AF808100029F4D108E0C8
:1057600008F1010188468142FADB1AF80810002985
:10577000F6D105985B46A0EB080721463846179AF4
:1057800000F094FA284400EB080507E04DE029E119
:105790000DE01AF8010B5A4617999047B8F1010825
:1057A000F7D25B4621463846179A13E142E00A22B7
:1057B0000092C4F302524FF0000A022A08D059F8AE
:1057C00004CB032A4FEAEC710AD00DE029E02AE06D
:1057D00009F1070121F00702F2E802C1914609E050
:1057E0000FFA8CFC4FEAEC71042A03D14FFA8CFCBF
:1057F0004FEAEC71002907DA0A460021DCF1000CBF
:1058000061EB02012D2202E0220504D52B228DF846
:105810000420012203E0E20701D02022F7E79046AE
:1058200059E00A2102E010220DE010214FF0000A99
:1058300000910BE010224FF0000A44F00404082706
:10584000009203E008224FF0000A0092C4F30252D3
:10585000022A05D059F804CB0021032A08D009E018
:1058600009F1070121F00702F2E802C1914605E0C3
:105870001FFA8CFC042A01D10CF0FF0C4FF0000839
:10588000220728D5702806D0009B83F0100353EA26
:105890000A0305D00EE040228DF80420012208E022
:1058A0005CEA010206D030228DF804208DF8050054
:1058B00002229046009B83F0080353EA0A030AD1B0
:1058C0005CEA010201D1620705D530228DF804207F
:1058D0004FF001087F1E582804D034A003900EA872
:1058E00002900DE036A0F9E753466046009AFAF7B9
:1058F0004AFF84460398825C0298401E0290027020
:105900005CEA0100F0D1029806A9081A00F1200A09
:10591000600702D524F4803400E00127574502DDFA
:10592000A7EB0A0000E0002000EB0A0100900598B8
:105930004144401A0590E00306D45B462146179A7D
:10594000059800F0B3F90544002706E001A85A467F
:10595000C05D179990476D1C7F1C4745F6DBE0033F
:105960000CD55B462146179A059800F09FF905442F
:1059700004E030205A46179990476D1C0099481E44
:1059800000900029F5DC08E0029802995A46007858
:10599000491C0291179990476D1CBAF10001AAF1B8
:1059A000010AF1DC65E100000928010030313233E1
:1059B000343536373839616263646566000000004B
:1059C0003031323334353637383941424344454635
:1059D0000000000000F058F90544761C30780028DB
:1059E0007FF4ECAD19B02846BDE8F08F620700D413
:1059F000062709F1070222F0070CFCE80223E14622
:105A000003F000485FEA080C02D00FF2702C0DE0A2
:105A10005FEA045C02D50FF2682C07E05FEAC47C01
:105A200002D00FF2602C01E0AFF2700C4FF0FF38A3
:105A300023F00043CDF850C065280CD006DC452883
:105A400009D046281DD047283DD13DE0662818D012
:105A500067287ED138E00021112F01DB112000E002
:105A6000781CCDE9000106A90EA8FFF7D5FCDDE9F9
:105A70000F010E9A03910021009207F1010A04918F
:105A80004DE04FF000400097CDE9011006A90EA8A7
:105A9000FFF7C2FCDDE90F0203920E9B1199002271
:105AA000DDF80CA00093049211B9791C00EB010AF7
:105AB000B7EB0A0004D4C0F1FF3007F1010A0490EB
:105AC000AAEB0700019044E0012F00DA0127002132
:105AD000112F01DD112000E03846CDE9000106A9B3
