:020000040800F2
:10000000E80C002045010008D73700082D2D000816
:10001000D5370008ED100008013D00080000000081
:100020000000000000000000000000007D38000813
:100030008D13000800000000D93700087F38000841
:100040005F0100085F0100085F0100085F01000810
:100050005F0100085F0100085F0100085F01000800
:100060005F0100085F0100085F0100085F010008F0
:100070005F0100085F0100085F0100085F010008E0
:100080005F0100085F0100085F0100085F010008D0
:100090005F0100085F0100085F0100085F010008C0
:1000A0005F0100085F0100085F0100085F010008B0
:1000B000193900085F0100085F0100085F010008AE
:1000C0005F0100085F0100085F0100085F01000890
:1000D0005F010008E93C0008F13C0008F93C000819
:1000E0005F0100085F0100085F0100085F01000870
:1000F0005F0100085F0100085F0100085F01000860
:100100005F0100085F0100085F0100085F0100084F
:100110005F0100085F0100085F0100085F0100083F
:100120005F0100085F0100085F0100085F0100082F
:10013000DFF80CD000F0F2FC004800472D3F00082B
:10014000E80C00200648804706480047FEE7FEE727
:10015000FEE7FEE7FEE7FEE7FEE7FEE7FEE7FEE777
:10016000CD38000831010008202A04DB203A21FAAA
:1001700002F00021704721FA02F3D040C2F12002C0
:100180009140084319467047D2B201E000F8012BB4
:10019000491EFBD270470022F6E710B513460A4607
:1001A00004461946FFF7F0FF204610BD70B506461D
:1001B00003F004FF046805460A220021304600F0DF
:1001C00099FB2C6070BDF0B480EA0102D40F4200AC
:1001D000B2EB410F02D20246084611464A0042D015
:1001E000C30DDDB2C1F3C752AD1A202D35DAC1F30C
:1001F000160141F4000204B15242C5F1200602FA90
:1002000006F12A411044B3EBD05F23D0C4B1012DD5
:10021000A0EBC35009DCF0BC4FF0004202EAC3522D
:10022000DBB200F5000000F0A6BB400000F18070DA
:1002300000EBC350A0F1807040EAD170490009E0A2
:10024000490841EAC071A0EBC35000F50000400826
:1002500000EBC350F0BC00F085BB6142012202EB11
:100260004101001BF6E7F0BC704781F00041AAE7AE
:1002700080F00040A7E780EA010210B502F00043D9
:10028000400022D04A001FD0010E01EB1261C0F3E2
:100290005600C2F3560240F4000042F40002A0FBF4
:1002A000022000047F39140400D0401C50EA1240A0
:1002B00001D44000491EC2B20C0604EBD010401C11
:1002C0004008802A02D003E0002010BD20F0010089
:1002D000002900DA0020184310BD30B480EA010282
:1002E00002F0004530F0004221F0004013D090B100
:1002F000C30DD40DC2F31601C0F31600E41A41F485
:10030000000140F400027D34914201D3641C00E0FE
:100310004900002C02DA30BC002070474FF4000086
:100320000023914201D3891A034340084FEA410157
:10033000F7D151B1914202D14FF0004105E002D214
:100340004FF0010101E06FF0010103EBC4502844BC
:1003500030BC00F007BB2DE9FE4F804681EA030068
:10036000C00F0C46009021F0004123F00045B8EB8F
:100370000200A94105D24046214690461C460B4644
:10038000024623F00040104347D0270DC7F30A0070
:10039000C3F30A510290401A019040286BDAC3F36C
:1003A000130040F4801B0098924620B10023D2EB4A
:1003B000030A63EB0B0B01985946C0F1400250460B
:1003C00000F022FA06460D4650465946019A00F0C2
:1003D0002AFA10EB08006141002487EA115284EAEE
:1003E000E7731A4340D0009A62B3019A012A4FEA98
:1003F000075215DC001B61EB02014FF0004202EADC
:100400000752CDE90042001C41F5801132462B46CF
:1004100000F0EEFA03B0BDE8F08F40462146F9E760
:10042000001B61EB0201001C41F5801300185B41C9
:100430002018A2F5001747EB030140EAD570B61962
:100440006D4111E06D084FEA360645EAC0754FEA86
:100450000752001B61EB0201001C41F580114908A5
:100460004FEA30000019514132462B4603B0BDE837
:10047000F04F00F0AEBA0098012240000023D0EB0C
:10048000020263EBE073009821464FEAE074B8EB98
:10049000000061EB0401E9E783F000435BE781F0D2
:1004A000004158E72DE9FE4F81EA030404F00044BF
:1004B00021F0004100944FF0000B23F0004350EA7C
:1004C00001045ED052EA03045BD0C3F30A54C1F3C3
:1004D0000A552C44A4F2F3340194A0FB0254C1F356
:1004E000130141F48011C3F3130343F4801301FBA0
:1004F000024400FB034E840A970A44EA815447EA07
:100500008357A4FB076802958D0A05FB07854FEA10
:10051000932C04FB0C542705029D4FEA065847EA2A
:100520001637B5EB08056EEB070C870E920E47EAFF
:10053000811742EA8312A7FB0201B6EB0B0164EBC1
:1005400000042B0D43EA0C335E1844EB1C50DA46D2
:100550005146E7FB0201C5F313044FEA0B3343EAAC
:1005600014534FEA0432019C43EA0603A4F10C043D
:100570000294009CCDE900B400F03AFA03B0BDE863
:10058000F08F00200146F9E72DE9F04D81EA0304E0
:1005900004F0004B21F0004514464FF0000A23F010
:1005A000004150EA050220D054EA01021DD0C5F3F3
:1005B0000A570246C5F31303C1F31300C1F30A56E9
:1005C00040F4801543F48013A7EB0608101BD646B1
:1005D00008F2FD3873EB050002D308F1010801E0D1
:1005E00092185B41B8F1000F03DA00200146BDE824
:1005F000F08D00204FF48011064684460EE0171B54
:1006000073EB050705D3121B63EB050306434CEAA6
:10061000010C49084FEA300092185B4150EA01078B
:10062000EDD152EA030012D082EA040083EA050108
:10063000084305D0101BAB4106D20122002306E07F
:1006400000224FF0004302E06FF0010253101AEB5A
:1006500006004CEB085110EB0A0041EB0B01BDE822
:10066000F04D00F0B6B996230022114600F083B990
:100670000EB5C10F80EAE0700844CA07002140F2BD
:1006800033438DE80E000A460B4600F0B1F903B083
:1006900000BD0EB540F2334102910021CDE90011B9
:1006A0000A460B4600F0A4F903B000BD70B5C1F3D3
:1006B0000A5201F000450024C1F3130140F2FF3358
:1006C00041F480119A4201DA002070BD40F23343B8
:1006D0009A42A2F2334203DC5242FFF745FD00E0AA
:1006E00090402C43F1D0404270BDC1F30A5210B586
:1006F000C1F3130140F2FF3341F480119A4201DA51
:10070000002010BD40F233439A42A2F2334203DC90
:100710005242FFF729FD10BD904010BD00F000428D
:1007200030F000400AD0C10D01F56071C0F3160031
:1007300042EA0151C20840071143704700200146B8
:10074000704701F0004330B421F0004150EA01024B
:1007500006D00A0DA2F56072C1F31301002A02DC73
:1007600030BC00207047440F44EAC104C100E018C7
:1007700030BC00EBC25000F0F5B830B50B46014676
:1007800000202022012409E021FA02F59D4205D330
:1007900003FA02F5491B04FA02F52844151EA2F1DA
:1007A0000102F1DC30BD2DE9F05F054600209246E4
:1007B0009B4688460646814640241BE02846414623
:1007C00047462246FFF7D0FC53465A46C01A91418D
:1007D00010D311461846224600F016F82D1A67EB82
:1007E00001084F4622460120002100F00DF817EBCA
:1007F00000094E41201EA4F10104DFDC48463146C9
:100800002A464346BDE8F09F202A04DB203A00FA3E
:1008100002F1002070479140C2F1200320FA03F357
:10082000194390407047202A06DBCB17203A41FA43
:1008300002F043EAE07306E041FA02F3D040C2F16D
:100840002002914008431946704700000FB40B0086
:1008500010B58AB00FA900910E994FF00004234AF9
:10086000CC60214CCDE9064200D004236FF0004259
:10087000CDE901321E4A089202466B46002000F084
:1008800001FA0AB010BC5DF814FBF0B585B007465C
:100890004FF0FF300091CDE901011E4600201546C2
:1008A0000C4604903B466A46314604A8FFF7CEFF4B
:1008B00004990346601825B109B1024600E02246BA
:1008C0002A6000290ED0002B02DD0099814209D058
:1008D0000094001BCDE901043B466A46314604A85A
:1008E000FFF7B4FF05B0F0BDBD0E0008DB0E000839
:1008F000490B00082DE9F04791460F468046044613
:10090000002614F8015B2DB100F01AF90068405D73
:10091000C007F6D12B2D02D02D2D18D0641E4A46CB
:100920003946204600F0EAFA27B13968A14201D1E0
:10093000C7F8008071054FF002040BD54042002833
:1009400003DD03F03BFB0460A007BDE8F08746F43D
:100950008066E4E70028F8DA03F030FB04606FF00B
:100960000040F2E70029A8BF7047401C490008BFBB
:1009700020F00100704710B4B0FA80FC00FA0CF0CF
:1009800050EA010404BF10BC704749B1CCF1200407
:1009900021FA04F411FA0CF118BF01212143084394
:1009A000A3EB0C01CB1D4FEA00614FEA102042BFC0
:1009B000002010BC704700EBC35010440029A4BFB6
:1009C00010BC7047401C490008BF20F0010010BC5B
:1009D000704710B5141E73F1000408DA401C41F191
:1009E000000192185B411A4301D120F0010010BDB3
:1009F0002DE9F04D92469B4611B1B1FA81F202E029
:100A0000B0FA80F220329046FFF7FEFE04460F4611
:100A100040EA0A0041EA0B0153465A46084313D004
:100A2000114653EA010019D0C8F140025046FFF7C1
:100A30009BFB05460E46504659464246FFF7E4FEEC
:100A4000084305D0012004E020463946BDE8F08D7A
:100A50000020054346EAE0762C4337430A986305B5
:100A6000E40AA0EB08000022FD0A44EA47540A30D9
:100A700002D500200146E9E7010510196941DDE9C9
:100A8000084500196941BDE8F04DA2E770B521F0B5
:100A9000004303430CD0C1F30A550024D5EB0405F1
:100AA00064EB0403D617AD1AB34102DB0020014604
:100AB00070BD201841EB025170BDC1F30A52C1F361
:100AC000130140F2FF3341F480119A4202DA002010
:100AD0000146704740F233439A42A2F2334202DCAD
:100AE0005242FFF741BBFFF78FBE000030B5041E36
:100AF00071F1000404DB4FF00044404264EB01015B
:100B0000141E73F1000405DB1C464FF000435242F3
:100B100063EB0403994208BF904230BD064C074D79
:100B200006E0E06840F0010394E8070098471034BD
:100B3000AC42F6D3FFF700FBD47F0008F47F000837
:100B4000004870471C55000810B50446FFF7F8FF31
:100B50000068005D00F0010010BD00002DE9FF4FAE
:100B6000087883B09946FF2805D0491C2D2804D069
:100B70000024002008E000200BE00124F9E700EB4E
:100B8000800003EB4000491C0B78FF2BF7D104B128
:100B9000404200230293147819461D462D2C01D0A3
:100BA0002B2C04D1521C2D2C13D000240294AA46C5
:100BB0001478FF2C0FD00A25A3FB057801FB0581D3
:100BC0004FF0000C03FB0C11521CE3194AEB01011E
:100BD000EEE70124EAE7814453EA010002D019F567
:100BE000C87F06DA03980021C0E9001107B0BDE80C
:100BF000F08F0025AE4E2F46DFF8B882184600F081
:100C00002BFACDE90001B9F1000002DAC9F10004C4
:100C100000E004460023A74A1AEB030B42EB045AF8
:100C200012E0E00707D02A46334638464146FFF730
:100C300039FC074688462A46334610461946FFF7D0
:100C400031FC05460E466410002CEAD1DDE90001B6
:100C5000B9F1000F5A46534606DAFFF795FC3A46BB
:100C60004346FFF791FC05E0FFF71CFC3A4643467C
:100C7000FFF718FC029A0AB181F00041039AC2E919
:100C80000001B3E72DE9FF4F1F468DB0D7E90146BC
:100C90004FF0FF382E2045464FF000090B90B96900
:100CA0006D1C0E988847396A824688470028F6D11D
:100CB000BAF1FF3F0AD024F4D064002E11DDBAF15E
:100CC0002B0F08D0BAF12D0F0BD102E0404611B026
:100CD0008DE744F48064B9696D1C0E98884782469C
:100CE000761E6946600501D52D2000E02B208DF889
:100CF000000001F1010B0DF1200809E0B9696D1C3C
:100D00000E98884782460F9844F40074761E05605A
:100D1000002E02DDBAF1300FF0D00B998A453ED19A
:100D200044F0800406E00F99681CA9F1010944F41D
:100D300000740860B9696D1C761E0E98884782465B
:100D40003028F0D02BE00B998A4505D1200603D43A
:100D500044F08004761E18E0504603F087FA08B38A
:100D60000DF11302761EAAF1300044F4007493458D
:100D700006D20BF8010B200607D5A9F1010003E00C
:100D8000200602D409F101008146A00502D50F9981
:100D9000681C0860B9696D1C0E9888478246002E51
:100DA000D1DC53E0002E51DDBAF1650F02D0BAF16B
:100DB000450F4BD1A00549D5B9696D1C24F4407489
:100DC000761E0E9888478246002E0CDD2B2804D014
:100DD000BAF12D0F07D144F48074B9696D1C0E98D7
:100DE00088478246761EE00501D52D2100E02B21A3
:100DF00008F8011BCDF82C8021E00DF12901761EA9
:100E000044F4007488450CD2AAF1300010F0FF00C1
:100E100088F8000002D10B99884509D908F101082A
:100E200006E0E00501D5244801E042F20F7081465A
:100E3000B9696D1C0E98884782460F980560002E90
:100E400004DD504603F012FA0028D6D1F9690E9855
:100E50008847FF208BF8000088F8000000200690EB
:100E600007904B466A4608A906A8FFF777FEA0053B
:100E700002D46FF001002AE714F0240F0AD0E00733
:100E800014D1DDE906123868031D3B600068C0E933
:100E900000120BE0DDE90601FFF753FC0146E00715
:100EA00004D13868021D3A600068016028460EE7E8
:100EB000000014400000F03FF1D8FFFF426842B14B
:100EC000016811F8013B23B1521EC0E90012184617
:100ED00070470121C160881E704742685AB1C368DB
:100EE000016843B983688B4205D0491E521CC0E992
:100EF0000012002070474FF0FF3070472DE9F05F7F
:100F000082460078002715468B460AF10104B9464F
:100F1000302801D09DB113E014F8010B0127782887
:100F200003D0582801D045B10AE00DB1102D07D1EA
:100F30000027102514F8010B02E0082500E00A251F
:100F40000026B0460EE005FB080005FB06F1012770
:100F500001EB10461FFA80F8B6F5803F00D3B94682
:100F600014F8010B294600F069F80028EBDABBF110
:100F7000000F05D00FB1641E00E05446CBF80040CE
:100F8000B9F1000F06D003F019F802210160C81E64
:100F9000BDE8F09F48EA0640FAE72DE9F04D00234E
:100FA0001A461B1A8A4103DB00200146BDE8F08D7A
:100FB000C1F30A52C1F3130141F480154FF0000B45
:100FC000D10702D100186D41521E0027044640F29D
:100FD000FF11384601EB620A3E4680460246002079
:100FE0004FF48011FFF7C0F8C2197141BB1846EBEE
:100FF0000100B4EB030C75EB000C04D3E41A65EBB1
:10100000000517460E46241908F101006D4180467F
:101010003428E3DDF91946EB0600091BA84103D289
:101020004FF0FF32134601E0002213461BEB07008E
:1010300046EB0A51BDE8F04DFFF7CBBC3A2800D291
:10104000303820F02002412A01D3A2F13700884233
:1010500001D34FF0FF3070470EB540F23342029299
:101060000022CDE900221346FFF7C2FC03B000BD09
:1010700070B5134D2868FFF7F6FAFFF74FFB114BD9
:1010800000220026FFF780FA0B460F4902464FF078
:101090004040FFF779FAFFF754FB04460BA200200B
:1010A0000021234601F0B2FF0C492046FFF7E3F888
:1010B00003460BA20020102101F0A8FF2E6070BD96
:1010C0002408004080842E417493983F62757474A4
:1010D0006C65207370656564000000005AF5393C4A
:1010E0004D6F6D656E74756D00000000FEE70000C9
:1010F000E0B510A00C21C0220C23CDE90010002087
:10110000002102F06FF801F013FE50B1642000F0EE
:1011100005FB01F00DFE20B101F00AFE01380428A4
:1011200000D98CBDDFE800F003030303030000F0E7
:101130000BF800BF506C656173652073656C656367
:1011400074206D6F6465000084B00020039001F08E
:10115000BDFE0A2000F0E2FA6DA00C240021A822B6
:101160000C23CDE90040002002F03CF86CA01421D3
:10117000A8221823CDE90040002002F033F8704F78
:10118000B8470446FFF76FFA01460398FFF71BF8CC
:101190006C4D03901026002020212246012300964A
:1011A000A847102020212E22102301F069FFB84704
:1011B0000446FFF758FA6449FFF78FF80146039891
:1011C000FFF701F8039020202021224601230096FA
:1011D000A847B8470446FFF746FA5C49FFF77DF891
:1011E00001460398FEF7EFFF0390302020212246AE
:1011F00001230096A84701F09BFD0028FBD101F0D8
:1012000097FD0028FBD00398FFF788FA504B514F09
:1012100000220026B847504A504BFFF743F90446D6
:1012200003980D46FFF77AFA4D4B0022B8474D4A16
:101230004D4BFFF737F922462B46FFF78CF8044653
:1012400003980D46FFF76AFA484B0022B847484B0F
:101250000022FFF727F902460B4620462946FFF7F2
:101260007AF8044603980D46FFF758FA02460B46F3
:10127000FFF718F93F4B0022FFF714F902460B461F
:1012800020462946FFF767F804460D463A49039879
:10129000FEF7F1FFFFF742FA02460B4620462946C9
:1012A000FFF759F8354B0022FFF755F8FFF71DFA05
:1012B00000F0BEF801F00AFE314801F02FF8314D80
:1012C000314C2E6020464FF4807100F00BFB00285B
:1012D000F8D100204FF6DC76286020464FF480716C
:1012E00000F000FB10B92868B042F6D3244801F0A2
:1012F00027F8FFF7BDFE41F2883000F00FFA01F049
:10130000E5FD4FF4FA6000F009FA02F0FDFD00BFC0
:101310004261736520322044697374616E74000009
:10132000506C6561736520726561647920666F72C7
:1013300020737065656420696E707574000000002C
:101340009113000841310008000020410000C8420C
:1013500000001440E1490008295C8FC2F5586DC0B7
:10136000000010409A999999990AB84000000840E5
:101370006065EFC0C06A1441909A53C9D46E2B4186
:10138000600700202408004000180140704700005A
:1013900010B501F0CDFC0028FBD101F0C9FC0028FC
:1013A000FBD001F0C5FC04460138092818D8DFE855
:1013B00000F0050B111720262C1732384FF4FA7065
:1013C00000F0ACF9012010BD4FF4FA7000F0A6F95E
:1013D000022010BD4FF4FA7000F0A0F9032010BDF8
:1013E0004FF4FA7000F09AF900200B2C08BF092086
:1013F00010BD4FF4FA7000F091F9042010BD4FF4C5
:10140000FA7000F08BF9052010BD4FF4FA7000F06F
:1014100085F9062010BD4FF4FA7000F07FF907201F
:1014200010BD4FF4FA7000F079F9082010BD704734
:1014300070B5124D0446284600F082FF284600F0A1
:10144000F8FE284600F06AFF4CF25030844288BF14
:1014500070BD28680A4E00210022416230460221F8
:1014600000F045FA2868416AA142FCD330460221C7
:101470000122BDE8704000F03ABA00BFA00700208A
:10148000000C01402DE9F04F87B01C46109B15461B
:101490008046802704910190B8E041B20293B1F1F7
:1014A000FF3F6FDC002067E05C49039000EB001019
:1014B0001A7811F8101091425BD1584901EB4000A5
:1014C0000299069040784978884252D14FF0000A3C
:1014D0004CE004984FF0000B0AEB0009069800EB73
:1014E0004A0090F902604FEA4A00059015E027FA99
:1014F0000BF0304205D00BEB08005FFA89F12A4669
:1015000006E0A54207D00BEB08005FFA89F12246FE
:10151000C0B201F0FDFC0BF1010BBBF1080FE6D1ED
:10152000059806994FF0000B40F00100084490F92F
:10153000026016E027FA0BF0304205D00BEB0800F2
:101540005FFA89F12A4606E0A54208D00BEB0800B5
:101550005FFA89F122460830C0B201F0D9FC0BF1E4
:10156000010BBBF1080FE5D10AF1010ABAF1100F26
:10157000AFD10398029B0130322895D108F11008B1
:10158000023343E00D2805D10498DDF804801030C3
:1015900004903AE022494FF0000920280A4601EB66
:1015A00000114FF0000002F5F87288BF01EA020056
:1015B000069025E004981B494FF0000A09EB000B48
:1015C000069848440E5C15E027FA0AF0304205D030
:1015D0000AEB08005FFA8BF12A4606E0A54207D025
:1015E0000AEB08005FFA8BF12246C0B201F090FCD2
:1015F0000AF1010ABAF1080FE6D1029B09F10109CB
:10160000B9F1100FD6D108F1080801331878002875
:101610007FF443AF07B0BDE8F08F00BFE978000862
:1016200000FE0F00385B000890F82110022919D144
:101630000268116821F00E011160116821F00101AA
:1016400011602B4901F17C039A420FD9304B9A4229
:1016500024D0304B9A4223D02F4B9A4222D14FF4C0
:10166000807327E00421816301207047214B9A4257
:1016700026D0214B9A4225D0204B9A4224D0204B91
:101680009A4224D01F4B9A4217D01F4B9A4221D026
:101690001E4B9A4211D14FF080721DE0012309E0E8
:1016A000102307E001F5886C4FF48033624508BFD2
:1016B0004FF48053C1F800340FE04FF480320BE058
:1016C000012209E0102207E04FF4807204E04FF499
:1016D000805201E04FF480120A604FF4807101845F
:1016E000416B19B180B58847002080BD002070474C
:1016F00004000240080002401C000240300002408A
:1017000044000240580002406C0002408000024049
:10171000080402401C04024030040240B0B50446F4
:1017200000F0EAF805469148611C007818BF0444AF
:1017300000F0E2F8401BA042FAD3B0BD2DE9FC4F07
:1017400081465D4806234FF001084FF00F0E4FF021
:10175000000A8145594808BF052348444FEAB02292
:10176000052A38BF4FEAB0230093002200230C68FB
:1017700034FA02F508BFBDE8FC8F08FA02F73C42D4
:1017800000F096804D68032D16D9112D26D0122D0C
:1017900028D04D48854213D04C48854210D04C4843
:1017A00085420DD04B4885420AD04B48854207D030
:1017B0004A48854204D022E0DFE805F002181B1FEA
:1017C0008C6844B1012C14BFC9F81470C9F81070AA
:1017D0004FF0080A13E04FF0040A10E0CC6804F15F
:1017E000040A0CE0CC6804F10C0A08E0D1F80CA063
:1017F00005E0CC6804F1080A01E04FF0000A1C463D
:101800004846082A28BF203C28BF043006680EFA44
:1018100004F50AFA04F426EA05052C430460C879A5
:10182000C00645D56048264E22F0030504460068F0
:10183000B346354440F001002060206800F001000C
:10184000019003F00C00019E0EFA00F4244EB44601
:10185000AE5926EA0404009E06FA00F0204345F83B
:101860000C004D68E803DBF8000054BF20EA0704D1
:1018700040EA0704CBF80040A803DBF8040054BF9B
:1018800020EA070440EA0704CBF80440E802DBF84A
:10189000080054BF20EA070440EA0704CBF80840D8
:1018A000A80208480446006854BFB8433843206083
:1018B000043301325BE700BF001C014000F8FEBFAB
:1018C000000401400C04014000001110000012103F
:1018D0000000211000002210000031100000321022
:1018E00008FCFFFF8068084018BF01207047002AED
:1018F00008BF09040161704705480068704700BFD0
:101900001A48034900780A6810440860704700BF0D
:10191000E008002080B59948016841F0100101609D
:10192000032000F083F8002000F004F800F020F815
:10193000002080BD70B50D4E04464FF47A713078AA
:10194000B1FBF0F09A490968B1FBF0F000F012FC2D
:1019500001250F2C08D838B94FF0FF30214600225E
:10196000002500F045F87460284670BD0400002092
:1019700082B00D480222016841F001010160016856
:1019800001F0010101910199416841F080514160EC
:10199000406800F08050009000980448016862F3AD
:1019A0001A61016002B07047181002400400014043
:1019B00000280CDB00F01F010122400902FA01F1AE
:1019C000034A42F82010BFF34F8FBFF36F8F704769
:1019D00080E100E0002808DB00F01F01012240093F
:1019E00002FA01F1014A42F82010704700E100E0DC
:1019F00080B5144B1B68C3F3022CBCF1030E8CF0B2
:101A000007034FF0FF3C38BF4FF0000E042B28BFF8
:101A100004230CFA03F399430CFA0EF301FA0EF1C6
:101A20009A431143BDE8804002F05CBA05494FF685
:101A3000FF030A681A4060F30A2203481043086053
:101A4000704700BF0CED00E00000FA052DE9F843F7
:101A5000002800F08E80884648490446086800F057
:101A6000070040450AD2086820F0070040EA080055
:101A70000860086800F0070040457AD120685C4B98
:101A80008946810711D5410742BF196841F4E061D9
:101A90001960010742BF196841F460511960196863
:101AA000A26821F0F00111431960C0072AD06068D4
:101AB000012804D153F8041C890309D459E053F8D0
:101AC000041C022802D1890102D452E0890750D5B2
:101AD00019681D4621F0030108431860FFF70CFF49
:101AE000064641F28837286861682B4600F00C00F2
:101AF000B0EB810F06D0FFF7FFFE801BB842F2D992
:101B0000032037E0D9F8000000F0070040450DD968
:101B1000D9F8000020F0070040EA0800C9F80000EA
:101B2000D9F8000000F00700404522D120684107A5
:101B300005D51968E26821F4E061114319600007D6
:101B400006D51868216920F4605040EAC100186089
:101B50001C4600F031F82168094AC1F30311515CB9
:101B6000C840F249086007480068FFF7E3FE00201C
:101B700000E0012001B0BDE8F08300BF002002407A
:101B80002055000808000020E8481949094A006863
:101B90000968C1F30221515CC8407047E348144909
:101BA000044A00680968C1F3C221515CC84070470B
:101BB0000C0000203055000810B50D4C0D4822686F
:101BC00002F00C03082B18BF10BDC2F383430AA117
:101BD000CB5CD10302D40D48584310BD21680AA242
:101BE0005843C1F34041515CB0FBF1F010BD00BF60
:101BF0000410024000127A000203040506070809D7
:101C00000A0B0C0D0E0F10100102000000093D0020
:101C10002DE9FC41002800F0408104460078C14EC7
:101C2000C0074AD0706800F00C00042817D0706814
:101C300000F00C00082802D17068C0030FD460685F
:101C400098B1B0F5803F06D03168B0F5A02F21D112
:101C500041F480203060306840F4803020E030680B
:101C600080032AD5606840BB17E1306820F48030DB
:101C70003060306820F480203060FFF73DFE05467C
:101C80003068800319D5FFF737FE411B0320642914
:101C9000F6D903E121F480303060306820F48020F0
:101CA0003060FFF729FE05463068800305D4FFF752
:101CB00023FE401B6428F7D9D1E0207880072BD57C
:101CC000706810F00C0F07D0706800F00C00082846
:101CD00009D17068C00306D43068800715D5206923
:101CE000012812D0D9E021698F4800297CD0012138
:101CF0000160FFF701FE05463068800705D4FFF755
:101D0000FBFD401B0228F7D9A9E03068616920F08B
:101D1000F80040EAC1003060207800072ED5A069A5
:101D200078B181480121C0F88014FFF7E5FD054630
:101D3000706A800715D4FFF7DFFD401B0228F7D932
:101D40008DE079480021C0F88014FFF7D5FD0546E5
:101D5000706A800712D5FFF7CFFD401B0228F7D924
:101D60007DE072484FF4FA510068B0FBF1F0019049
:101D700000BF0198411E00280191F9D12078400749
:101D800076D5F069C0000BD4F0694FF0010840F03F
:101D90008050F061F06900F080500090009801E000
:101DA0004FF00008624F3868C0050FD4386840F41F
:101DB00080703860FFF7A0FD05463868C00505D47F
:101DC000FFF79AFD401B6428F7D948E0E068D8B1D6
:101DD000012805D0316A05282DD141F00400306278
:101DE000306A40F001002CE000210160FFF784FD23
:101DF0000546306880077FF58FAFFFF77DFD411BFB
:101E000003200229F5D949E0306A20F00100306250
:101E1000306A20F004003062FFF76EFD054641F2A3
:101E20008837306A80071CD5FFF766FD411B032009
:101E3000B942F6D932E021F001003062306A20F078
:101E400004003062FFF758FD054641F28837306ADA
:101E5000800706D4FFF750FD401BB842F7D9032096
:101E60001CE0B8F1000F1EBFF06920F08050F06157
:101E7000E769002F53D0706800F00C00082810D1DB
:101E8000012F0AD07068216A00F480328A4204D19E
:101E9000616A00F47010884241D0012002B0BDE8B0
:101EA000F0812149002088460866FFF725FD054698
:101EB000022F0AD147463068800110D5FFF71CFD7C
:101EC000411B03200229F6D9E8E73068800126D5B6
:101ED000FFF712FD411B03200229F6D9DEE7206A35
:101EE000B0F5803F05D17168A26821F4003111433B
:101EF00071607168626A104321F474110843706064
:101F000001203866FFF7F8FC04463068800106D4EB
:101F1000FFF7F2FC011B03200229F6D9BEE70020DF
:101F2000BCE700BF00100240000042420C0000204D
:101F30000070004070B5B8B3002605464FF0000CA5
:101F4000866290F8510030B9284685F8506000F05C
:101F50002FF8D5F828C0022185F8511029680A68A1
:101F600022F040020A60D5E90123D5E903041A43AF
:101F700010436A6920431043AA6902F400731843AE
:101F8000EB6918432B6A184340EA0C0008600420F0
:101F900000EA12404860C86920F40060C86101206E
:101FA0006E6585F8510000E00126304670BD0000E6
:101FB000FEB501460020CDE90400CDE9020012483B
:101FC000096800F5205291421BD110490A6842F479
:101FD00080520A600A6802F480520192019A0A68EB
:101FE00042F004020A60096801F0040101910199BC
:101FF0000321059102210391A021029102A9FFF77B
:102000009DFB06B080BD00BF0008014018100240D3
:102010002DE9F843044690F85000012801D1022030
:10202000A4E04FF001091D4616460F4684F8509073
:10203000FFF762FC804694F85100012854D101203A
:10204000002F00F08E80002E00F08B800320731E86
:1020500084F851000020B3FA83F36065E686A68613
:102060002763A087A063C4E91000E0875B09A1682B
:102070002068B1F5004F02BF016841F48041016062
:10208000016849065EBF016841F040010160616876
:10209000E268B1FA81F1B2F5006F4FEA511141EAFD
:1020A000030123D131B137F8021BC1602763E08EF1
:1020B0000138E0866E1C13E020688168890707D428
:1020C000FFF71AFC66B1A0EB0800A84208D347E06E
:1020D000216B31F8022BC2602163E08E0138E0866B
:1020E000E08E0028E8D124E002203AE039B13978C6
:1020F0000173206B01302063E08E0138E0866E1C96
:1021000014E020688168890707D4FFF7F5FB6EB1FA
:10211000A0EB0800A84209D322E0216B09780173E3
:10212000206B01302063E08E0138E086E08E0028CD
:10213000E7D120462946424601F04FFB08B1202056
:102140006065A06838B9002000902068C1680091DF
:10215000806800900098606D002818BF012000E0A2
:102160000320002184F8501084F8519001B0BDE89C
:10217000F0830000411E0020B0EB116F1CBF012056
:102180007047044AF023516003490B7007219060A7
:102190001160704710E000E023ED00E070477047E9
:1021A00090F83C20012A01D102211FE0B0B501F1D5
:1021B0000805D1E900CE3CCDC96923F47C5322F453
:1021C00070521A432EF4F0431A432CF4E0431A439E
:1021D00024F4C0431A432A4322F480421143026884
:1021E0005164002180F83C10BDE8B04008467047BB
:1021F00090F83C300222012B19D080B580F83D20A8
:1022000002685368D2F808C023F0700ED1E900319B
:1022100043EA0E0353602CF08003194391600022BF
:10222000012180F83C2080F83D10BDE88040104638
:102230007047B0B110B5044690F83D0028B90020B1
:1022400084F83C00204600F00FF80220211D84F89D
:102250003D00206801F066FB012084F83D0000206D
:1022600010BD012070470000E0B50068B0F1804F5C
:1022700018D02549884229D0244988422FD02449A2
:10228000884235D02349884218BF8CBD224850F877
:10229000041C41F4006140F8041C50F8040C00F4E4
:1022A00000602DE01C480022016841F0010101603E
:1022B0000021006800F00100019001981C20FFF748
:1022C00097FB1C20BDE88C40FFF784BB12480168D7
:1022D00041F002010160006800F0020010E00E48C9
:1022E000016841F004010160006800F0040007E0AB
:1022F0000948016841F008010160006800F0080029
:10230000019001988CBD00BF00040040000800400F
:10231000000C0040002C01401C100240022180F8FB
:102320003D1001688A6802F00702062A1EBF0A688B
:1023300042F001020A60012180F83D100020704740
:10234000022141F2111380F83D1001680A6A1A4215
:1023500008D10A6A40F244431A4203D10A6822F0C3
:1023600001020A60012180F83D10002070470068DA
:1023700041F21112C16821F00101C160016A1142EC
:1023800008D1016A40F24442114203D1016821F0B0
:10239000010101600020704710B590F83C20044610
:1023A0000220012A08BF10BD84F83D0001204FF62D
:1023B000777284F83C00206884465CF8083F23EA82
:1023C0000202CCF800200B682BB1102B03D0202B7D
:1023D00018BF302B0FD1DCF8000020F0700018433C
:1023E00040F00700CCF800000020012184F83C00F8
:1023F00084F83D1010BD402B1AD0502B26D0602BF6
:1024000032D0B3F5005F3DD0702BEDD1D1E90102A0
:10241000C968104340EA0120DCF8001021F47F4134
:102420000843CCF80000DCF8000040F07700D9E762
:102430004B68CA68194601F077FBD4F800C05CF815
:10244000080F40F0470020F03000CBE74B68CA6827
:10245000194601F069FBD4F800C05CF8080F40F0A1
:10246000570020F02000BDE74B68CA68194601F00C
:102470006CFBD4F800C05CF8080F40F0670020F057
:102480001000AFE7D1E90102C968104340EA01201A
:10249000DCF8001021F47F410843CCF80000DCF8A0
:1024A000000040F480409DE7704710B50446006886
:1024B0000169890744BFC1685FEA817138D4016945
:1024C000490744BFC1685FEA41713DD4016909070A
:1024D00044BFC1685FEA017143D40169C90644BFC2
:1024E000C1685FEAC16148D40169C9071CBFC168FE
:1024F0005FEAC1714ED10169090644BFC1685FEA54
:1025000001614FD40169490644BFC1685FEA416176
:1025100050D40169890646BFC1685FEA816110BD78
:102520006FF0200101612046BDE81040FFF737BE83
:102530006FF002010161012121778069800741D09C
:102540002046FFF7B1FF43E06FF004010161022173
:102550002177806910F4407F3ED02046FFF7A4FF2A
:1025600040E06FF00801016104212177C069800714
:102570003CD02046FFF798FF3EE06FF0100101616C
:1025800008212177C06910F4407F39D02046FFF739
:102590008BFF3BE06FF001010161204600F03CF948
:1025A0002068A8E76FF0800101612046FFF7F6FD83
:1025B0002068A7E76FF040010161204600F056F95E
:1025C0002068A6E7204600F06BF8204600F0D4F81B
:1025D00000202077206872E7204600F061F820464E
:1025E00000F0CAF80020207720686FE7204600F04E
:1025F00057F8204600F0C0F80020207720686CE7EC
:10260000204600F04DF8204600F0B6F80020207774
:10261000206869E7FEB50021CDE90411CDE902117A
:102620000068B0F1804F1ED07A4988422ED11848F8
:10263000016841F04001016002A9006800F040001B
:10264000019001980220059003904FF400700290D1
:10265000104800F58050FFF771F80F480F4A0168E5
:102660001143016012E00A48016841F00401016071
:1026700002A9006800F00400019001980220059072
:102680000390012002900348FFF758F806B080BD80
:10269000181002400008014004000140C00000077B
:1026A0007047000070B50D4690F83C1004460220BB
:1026B000012908BF70BD84F83D004FEAB200012631
:1026C000032884F83C6036D8DFE800F0020A1222C2
:1026D0002068294601F06CF9206850F8181F0EE0B8
:1026E0002068294601F092F9206850F8181F16E07A
:1026F0002068294601F0BCF9206850F81C1F41F001
:1027000008010160016821F00401016029690FE0FE
:102710002068294601F0DEF9206850F81C1F41F4BA
:1027200000610160016821F480610160296909028A
:10273000026811430160002084F83C0084F83D6089
:1027400070BDB0B110B5044690F83D0028B9002026
:1027500084F83C00204600F00EF80220211D84F889
:102760003D00206801F0DEF8012084F83D000020E3
:1027700010BD0120704770477047000010B5044637
:102780000068012201F004F920682149884202D042
:102790002049884203D1416C41F400414164816881
:1027A00001F0070106291EBF016841F00101016027
:1027B000002010BD10B504460068002201F0E8F8C2
:1027C00020681349884202D0124988420DD1016A1B
:1027D00041F21112114208D1016A40F24442114201
:1027E00003D1416C21F400414164016A41F21112AC
:1027F000114208D1016A40F24442114203D10168FA
:1028000021F001010160012084F83D00002010BD8D
:1028100000340140002C014070B51049884200D0BE
:1028200070BD10490E4D28680968013000292860E4
:10283000F6D0002808BF70BD8842F1D1074C0021B6
:1028400000262046FFF7B6FF074806600120C5E9CD
:1028500000602046BDE87040FFF789BDE00600201B
:1028600034000020440000203C00002070477047E6
:1028700010B5D0F800E00446DEF80010DEF80C20B9
:10288000DEF814305FEA017C50D002F4907003F05F
:102890000103C01852D0C8071FBF12F48070E06B4C
:1028A00040F00100E063480704D51BB1E06B40F045
:1028B0000200E063880704D51BB1E06B40F0040020
:1028C000E063BCF1000F04D51BB1E06B40F00800E1
:1028D000E063E06B00286ED002EA0100800604D5B8
:1028E000204601F056F9D4F800E0DEF81400E16B60
:1028F00000F0400001F0080140184CD0204601F0E3
:102900003BF920684169490640D5416921F0400101
:102910004161606BD0B32F494163FEF785FE00280B
:1029200049D0606B416BBDE81040084711408A06F2
:1029300005D52046BDE8104001F02BB9114008062E
:102940000FD4480637D5DEF80C0020F04000CEF852
:102950000C00202084F839002046BDE8104000F02B
:10296000E4B994F83900212825D1A068216AB0F58E
:10297000805F16D108886FF35F20CEF804002069CD
:10298000002814BF481C881C20620FE02046BDE8C8
:102990001040FFF76CBF2046FFF769FF0020E0639F
:1029A00010BD481C20620878CEF80400E08C013885
:1029B000E084000400D010BDDEF80C0020F08000A0
:1029C000CEF80C00DEF80C0040F04000CEF80C0011
:1029D00010BD00BF6D3B000850B310B5044690F821
:1029E000390028B9002084F83800204600F022F889
:1029F000242084F839002068C16821F40051C160A6
:102A0000204601F003F92068016921F49041016139
:102A1000416921F02A014161C16841F40051C1605E
:102A200000202021E06384F8391084F83A1010BDAA
:102A30000120704770B586B000268F49CDE9046645
:102A4000CDE902660068884237D06649884262D084
:102A50006549884200F092806449884240F0C08015
:102A6000634802AD416841F400214160416801F4CE
:102A7000002101910199016841F01001016029468E
:102A8000006800F0100001900198032005900220DA
:102A900003904FF480600290564800F50064204691
:102AA000FEF74CFE00202946CDE903004FF40060FC
:102AB00002902046FEF742FE92E04D484D4C02AD9A
:102AC000416841F400314160416801F400310191F5
:102AD0000199016841F0040101602946006800F095
:102AE0000400019001980320059002200390042027
:102AF00002902046FEF722FE0820CDE90366294613
:102B000002902046FEF71AFE262002210022FEF740
:102B10006FFF262062E0364802AD416841F4802113
:102B20004160416801F4802101910199016841F0FF
:102B3000080101602946006800F008000190019832
:102B400003200590022003904FF4806002902948F2
:102B500000F580642046FEF7F1FD00202946CDE90E
:102B600003004FF4006002902046FEF7E7FD2720A7
:102B700003210022FEF73CFF27202FE01C481D4CBC
:102B800002AD016841F480410160016801F48041B7
:102B900001910199016841F0040101602946006832
:102BA00000F004000190019803200590022003909A
:102BB0004FF4007002902046FEF7C0FD0020294629
:102BC000CDE903004FF4806002902046FEF7B6FD89
:102BD000252001210022FEF70BFF2520FEF7FAFE3B
:102BE00006B070BD0048004000380140004C004075
:102BF0001810024000080140034690F83A002028CF
:102C000006D10120E9B1E2B193F83800012801D1E1
:102C1000022070470020DA85D8639A8599622221C4
:102C200083F8380083F83A101968CA6842F4807251
:102C3000CA604A6942F001024A61CA6842F0200251
:102C4000CA607047B0B50C4D0446006805F5806158
:102C5000884202D101F0A0F8206805F5744188424D
:102C600002D101F0DFF82068A84218BFB0BDBDE86E
:102C7000B04001F09DB800BF004400402DE9F04194
:102C8000044690F8390020280AD10E460120002978
:102C900049D01746002A46D094F83800012802D1BE
:102CA0000220BDE8F08100201D46E063012084F889
:102CB0003800212084F83900FEF71EFE8046E784A4
:102CC000A7841DE0E08C802142462B460138E08439
:102CD0002046A76800F0DCFFB7F5805F0BD1C8B9CC
:102CE000318820686FF35F2141602069002814BF9C
:102CF0000136023604E068B9206816F8011B41600D
:102D0000E08C0028DED12046402142462B4600F0D0
:102D1000BFFF10B10320BDE8F0810020202184F81E
:102D2000380084F83910BDE8F0817047FEE70000F4
:102D300070B5654CB24E0F21002200252046B047E9
:102D4000204607210122B047204608210022B04733
:102D5000A06800F0F000F02808D00A20FEF7DEFCA2
:102D6000A06800F0F000F0284DD15CE020460F2173
:102D70000022B04720460B210122B0472046042103
:102D80000022B047A06800F0F000F02807D00A2029
:102D9000FEF7C4FCA06800F0F000F02847D1204600
:102DA0000F210022B04720460D210122B0472046C6
:102DB00002210022B047A06800F0F000F02807D000
:102DC0000A20FEF7ABFCA06800F0F000F02840D12C
:102DD00020460F210022B04720460E210122B04795
:102DE000204601210022B047A06800F0F000F02842
:102DF00007D00A20FEF792FCA06800F0F000F0284F
:102E000039D1284670BDA06800F0F70077384FEA46
:102E10003010072807D80125DFE800F00705050571
:102E20003F054104A2E70025A0E704259EE7A0682E
:102E300000F0FB007B384FEA301007283DD805250D
:102E4000DFE800F0053B3B3B2F3B3104A7E70825BB
:102E5000A5E7A06800F0FD007D384FEA3010072894
:102E60002DD80925DFE800F0052B2B2B212B23047F
:102E7000AEE70C25ACE7A06800F0FE007E384FEA14
:102E8000301007281DD80D25DFE800F0051B1B1B9F
:102E9000131B1504B5E71025B3E7032566E70225E4
:102EA00064E707257BE7062579E70B2590E70A25E8
:102EB0008EE70F25A5E70E25A3E700256FE7002580
:102EC00086E700259DE700BF0010014010B50020F7
:102ED0000021002400F0CAF802E000F0D7F9013424
:102EE0000020B4F5C06FF8D32249002207E0002388
:102EF00001E0C8540133082BFBD108310132C02A4C
:102F0000F5D100200021BDE8104000F0AFB800BFAF
:102F1000F8B50D46044600200021164600F0A6F83C
:102F2000204600F091F805F00707ED0866B1012E84
:102F300016D1284600F094F80E490120B84001EB64
:102F4000C4014A5D104309E0284600F089F80949A8
:102F5000FE20B84001EBC4014A5D1040485503E033
:102F6000044800EBC400405DC0B2BDE8F84000F08A
:102F70008DB900BF48000020F8B5D14CD14F0221D7
:102F8000002200252046B847204640210022B847AD
:102F90001C4E3220B047204640210122B84720462F
:102FA00002210122B8473220B047174CE220A04747
:102FB0003220B0472F20A0473220B047A320A0479F
:102FC0008120A0478020A047EB20A047C420A04735
:102FD0000020002100F04AF802E000F057F9013526
:102FE0000020B5F5C06FF8D3002100F03FF8AF2006
:102FF00000F032F93220BDE8F840FEF78FBB00BF89
:10300000EF1800081D17000859320008F0B593B0FA
:103010000646184614460D46FDF780FB03AFCDE982
:10302000000107A12246384600F0A0FF304629469D
:10303000012201230097FEF725FA13B0F0BD00BF6F
:1030400025733A256600000010B5044600F00F0015
:1030500000F002F920091030BDE8104000F0FCB883
:1030600040F0B00000F0BF0000F0F6B810B5044624
:103070000846FFF7E9FF2046BDE81040FFF7F0BF24
:103080002DE9FE4F8A46590706464FF001001C46BF
:103090004FF000074FEAD301554618BF00EBD301AC
:1030A0005808484323495FFA80F9A2F12000C2B2D0
:1030B00002EBC200029201EB800001901E4800EB7F
:1030C0000210009031E0182C0CD0102C0CD00C2CDD
:1030D00018BFBDE8FE8F0298184900EB400001EBD5
:1030E000800002E0019800E0009838444FF00008AA
:1030F00090F800B003E008F101084FEA4B0BB8F17B
:10310000070F11D84FFA8BF0B0F1FF3F04DCF0B29B
:10311000E9B20122FFF7FCFE0135E8B2A0EB0A009C
:10312000A042E8D10136554601374F45CBD3BDE823
:10313000FE8F00BF8D6B00089D65000829610008A7
:103140002DE9F84F824610461C468946FDF7A1FA44
:1031500006460A98013C0F464FF000084FF0000B5E
:1031600000944508601C08BFBDE8F88F2046FDF7B5
:103170007FFA0B461A490246002001F031FC024654
:103180000B4630463946FDF7FFF9FDF78FFA0A2165
:10319000BBF1000F90FBF1F101EB8101A0EB4101CC
:1031A00006D10098404503DD08060ED04FF0010B14
:1031B00005FB08A030310A9BCAB2C0B24946FFF7EE
:1031C0005FFF013C08F10108CCE705FB08A00A9B62
:1031D00049462022C0B2FFF753FF4FF0000BF0E743
:1031E000000024402DE9F84F0646DDF828905818D5
:1031F0000C460B9F91191FFA80FB35464FEA590880
:103200001FFA81FA10E0A8B2504524BFF5B24C4431
:10321000A0B2584528BFBDE8F88FE8B2E1B24B46EE
:10322000FFF72EFF454401373A78A2F12000C0B2E3
:103230005E28E8D9BDE8F88FB0B50446002000212B
:103240000025FFF713FFB5F5C06F08BFB0BD605D87
:1032500000F01CF80135F6E7BCB56B4C6B4D8DF8F2
:103260000700022100222046A84720461021002204
:10327000A84779480DF1070101220A23FEF7C8FE8D
:10328000204602210122A847BCBD00BFBCB55E4C50
:103290005E4D8DF80700022100222046A8472046F7
:1032A00010210122A8476C480DF107010122642377
:1032B000FEF7AEFE204602210122A847BCBD00BF9A
:1032C00000080140EF1800082DE9F04F85B04D4887
:1032D0004D4F4E4E00224FF00009016807F5006B7C
:1032E00041F010010160016801F0100101910199A4
:1032F000016841F004010160016801F004010191DD
:103300000199016841F008010160016801F00801BC
:1033100001910199016841F0400101600F210068AD
:1033200000F04000019001985846B04738464221CD
:103330000122B047384610210022B04707F58068C7
:1033400040F2022101224046B04707F58054012196
:1033500001222046B0472046022100220225B04724
:10336000CDE903954FF0010A01AD0F20284ECDF8AD
:1033700008A0019058462946B047032029460490EA
:103380004220CDE902A901903846B04702202946E3
:1033900004901020CDE902A901903846B047F020F2
:1033A000CDF80CA0CDF8089029464FF0010A019005
:1033B0005846B04703202946022704900220CDE951
:1033C00002A901904046B0474FF48070CDE90299C0
:1033D000294601902046B0471120CDE903972946A0
:1033E00002904FF4007001904046B04703202946F8
:1033F000CDE90390CDE9010A2046B04705B0BDE80C
:10340000F08F00BF1810024000080140EF180008BC
:103410003D17000810B5104800220A210F4C4FF04C
:10342000080C4FF4007E4FF48273C0E90822C0E913
:103430000A214FF40041C0E90043C0E90212C0E98B
:103440000422C0E906ECFEF775FD002814BFBDE8B4
:10345000104010BDFDF7EBBF4806002000300140D2
:10346000B0B596B009AC00251C212046CDE9145515
:10347000CDE91255CDE91055FCF78DFE01A82021AC
:10348000FCF789FE29482A4B472244F62061C0E90F
:103490000032C0E90251C0E904558561FEF7C9FE5A
:1034A00008B1FDF7C4FF4FF4805012A912901F48D5
:1034B000FEF772FF08B1FDF7BAFF1C48FFF741F9AC
:1034C00008B1FDF7B4FF002010A9CDE9100017489E
:1034D000FEF78EFE08B1FDF7AAFF40F2AA501421B4
:1034E0000A906020099004F10800FCF754FE0F4890
:1034F000214600220025FFF7D5F808B1FDF797FF18
:1035000001AC14212046FCF746FE4FF4005008950C
:10351000214606900548FEF743FE08B1FDF787FFF8
:103520000248FFF777F816B0B0BD00BFA006002034
:10353000002C014010B58EB0002401A81C21CDE95B
:103540000C44CDE90A44CDE90844FCF724FEF448D4
:1035500040F2E73147224FF080438461C0E90032F6
:10356000C0E902410461FEF764FE08B1FDF75FFFA8
:103570004FF480500AA90A90E948FEF70DFF08B100
:10358000FDF755FFE648FFF7DCF808B1FDF74FFF00
:10359000E348002408A9CDE90844FEF729FE08B154
:1035A000FDF745FF60200594CDE9024401A9002202
:1035B0000190DB48FFF776F808B1FDF738FFD848EF
:1035C000FFF728F80EB010BD10B586B01648ED4CC8
:1035D00000214FF47A724723CDE90411CDE902119D
:1035E0008161C0E90043C0E902120161CDE9001127
:1035F000FEF71FFE08B1FDF71AFF4FF4805002A935
:1036000002900948FEF7C8FE08B1FDF710FF002040
:103610006946CDE900000448FEF7EAFD08B1FDF770
:1036200006FF06B010BD00BF2007002010B586B011
:103630001648D54C00214FF6FF724723CDE90411FF
:10364000CDE902118161C0E90043C0E902120161C4
:10365000CDE90011FEF7EDFD08B1FDF7E8FE4FF4EE
:10366000805002A902900948FEF796FE08B1FDF7C6
:10367000DEFE00206946CDE900000448FEF7B8FDF3
:1036800008B1FDF7D4FE06B010BD00BF60070020F2
:1036900010B586B01648BD4C00214FF6FF72472387
:1036A000CDE90411CDE902118161C0E90043C0E90F
:1036B00002120161CDE90011FEF7BBFD08B1FDF773
:1036C000B6FE4FF4805002A902900948FEF764FE4E
:1036D00008B1FDF7ACFE00206946CDE900000448C2
:1036E000FEF786FD08B1FDF7A2FE06B010BD00BFD3
:1036F000A007002010B50B480B4C4FF4E13300211C
:103700000C22C0E90043C0E90211C0E90412C0E97B
:103710000611FFF761F9002814BFBDE8104010BD85
:10372000FDF785BEA0080020004C004010B50B48F6
:103730000B4C4FF4E13300210C22C0E90043C0E9F7
:103740000211C0E90412C0E90611FFF745F900288B
:1037500014BFBDE8104010BDFDF769BEE0070020B2
:103760000038014010B50B480B4C4FF4E1330021F9
:103770000C22C0E90043C0E90211C0E90412C0E90B
:103780000611FFF729F9002814BFBDE8104010BD4D
:10379000FDF74DBE200800200044004010B50B4846
:1037A0000B4C4FF4E13300210C22C0E90043C0E987
:1037B0000211C0E90412C0E90611FFF70DF9002853
:1037C00014BFBDE8104010BDFDF731BE60080020F9
:1037D00000480040FEE77047704710B513460A46A0
:1037E0008021044600F00AF800280FBF0020606D19
:1037F00040F02000606518BF032010BD2DE9F041A6
:10380000984616460F460446551C20688068384086
:10381000B8421CBF0020BDE8F081002DF5D0FEF7B6
:103820006BF8A0EB0800B042EFD32068416821F0AC
:10383000E00141606168B1F5827F0AD1A168B1F50C
:10384000004F02D0B1F5806F03D1016821F0400133
:103850000160A16AB1F5005F07D1016821F4005150
:103860000160016841F400510160002084F85000BB
:10387000012084F851000320BDE8F0817047FEF775
:103880003FB8B0B590B000244FF4E01002250121FC
:10389000CDE90B44CDE909440F904FF480300E90F0
:1038A0000D950A910894CDE9061006A8FEF7B0F927
:1038B0004FF480600594022104900F20CDE902545A
:1038C000019001A8FEF7C2F810B0B0BD0E480F4A33
:1038D000016841F001010160416811400C4A4160FA
:1038E000016811400160016821F480210160416894
:1038F00021F4FE0141604FF41F01816005484FF043
:1039000000610160704700BF001002400000FFF836
:10391000FFFFF6FE08ED00E00148FEF7C6BD00BF60
:10392000E00600200268B0F1804F0ED0154B98429F
:103930000BD0154B984208D0144B984205D0784BC9
:10394000984202D0774B984208D14B6822F45C7CB5
:10395000CA6823F4407343EA0C031A434B6922F00C
:1039600080021A4302608A68C2620A6882626C4AF4
:10397000904202D06B4A904201D109690163012152
:10398000416170470004004000080040000C004006
:1039900001F01F01012303FA01FC036A02FA01F19D
:1039A00023EA0C030362026A1143016270470000BC
:1039B00070B5026A22F001020262026AD0F804E0E5
:1039C000D0F818C08C680B6822F0020222432CF059
:1039D000730444EA030C524B984202D0514B984274
:1039E0000CD1CE68D1E905452EF4407322F00C02CB
:1039F000234343EA050E26F004031A43C0F804E00B
:103A0000C0F818C049684163026270BD70B5026AAF
:103A100022F010020262026AD0F804E0D0F818C066
:103A20008C680B6822F0200242EA04122CF4E6446F
:103A300044EA032C3A4B984202D03A4B98420FD1B9
:103A4000CE68D1E905452EF4406322F0C00243EA76
:103A5000840343EA850E6FF0400303EA06131A431A
:103A6000C0F804E0C0F818C049688163026270BD04
:103A700070B5026A22F480720262026AD0F804E031
:103A8000D0F81CC08C680B6822F4007242EA042251
:103A90002CF0730444EA030C214B984202D0214BD2
:103AA00098420FD1CE68D1E905452EF4405322F457
:103AB000406243EA041340F2FF4443EA051E330226
:103AC000A3431A43C0F804E0C0F81CC04968C163AE
:103AD000026270BDB0B5026A22F480520262026ACC
:103AE000D0F804E0C5698B680C6822F4005242EA01
:103AF000033C0B4B25F4E64242EA0422984202D0F2
:103B0000084B984204D14B692EF4804545EA831E48
:103B1000C0F804E0C26149680164C0F820C0B0BDCB
:103B200000340140002C0140D0F820C0036A23F08B
:103B300001030362836923F0F00343EA0212826106
:103B40002CF00A02114301627047036A23F010034C
:103B50000362836923F4704343EA0232036A826199
:103B600023F0A00242EA011101627047406A00217D
:103B7000C185C184FEF77BBE0168CA6822F49072D9
:103B8000CA604A6922F001024A61202180F83A1095
:103B9000704790F83A10222918BF70478168B1F534
:103BA000805F08D102680369816A526883B1D2B22A
:103BB00021F8012B10E0026901684968002A826A35
:103BC00002F10103836218BF01F07F01117004E06C
:103BD0006FF35F2221F8022B8162C18D0139C1850B
:103BE000090400D070470168CA6822F02002CA6048
:103BF000CA6822F48072CA604A6922F001024A61EE
:103C0000202180F83A10FFF71DB8000010B50446D7
:103C100000680169E26821F44051114341F20C62ED
:103C20000161D4F808C0D4E904E3C16891434EEAC5
:103C30000C021A431143C1604169A26921F4407129
:103C4000114341611149884202D0FDF79DFF01E017
:103C5000FDF7A4FF19214843D4E900126FF0630473
:103C60009200B0FBF2F06422B0FBF2F303FB04001D
:103C7000322404EB0010B0FBF2F000F0F00200F090
:103C80000F0002EB03121044886010BD00380140A1
:103C90002DE9F0411D4690460F4604465E1C206803
:103CA00001683940B94204BF0020BDE8F081002E10
:103CB000F5D035B1FDF720FEA0EB0800A842EED903
:103CC0002068C16821F4D071C160416921F001010F
:103CD00041612020002184F8390084F8381084F8EC
:103CE0003A000320BDE8F0817D48FEF7C1BD00BF6A
:103CF0004A48FEF7BDBD00BF2C48FEF7B9BD00BF66
:103D0000FEE7000075480122811C2848FEF774BFB9
:103D100010B54FF47A70FDF701FD074C07A108229A
:103D200064232046FEF7AAFF6C480122C11C2046EE
:103D3000BDE81040FEF760BF2008002069464143FF
:103D40004D0D0A006548072200F110016448FEF796
:103D500053BF00BFFFF7F6FFFFF7D4FFFFF7D8FF11
:103D60000B4C00212046FEF709FDFFF705F9094835
:103D7000FFF762FA4FF47A70FDF7D0FCFFF7A6F870
:103D8000206840F6C4114163FDF7B2F9FCE700BFBB
:103D9000A0060020385500085048014611F8022FAF
:103DA000027002480122FEF727BF00BF6008002012
:103DB000BCB54A4C2179E078621801310A281076A6
:103DC00021714FF00001ADF80410009120D1207E48
:103DD000452807D112490020C4E906002062E160AD
:103DE000207115E0002584F82150A4F81F50258388
:103DF000D4F81A000090A07F8DF80400684600F007
:103E0000D9FDC4E9065525622571FCF79AFCE060EE
:103E10000248E11C0122FEF7EFFEBCBD2008002095
:103E2000000020417CB52D4C00208DF80600ADF837
:103E300004008DF80200ADF80000A07D0A2820D112
:103E400034F8100FADF80400A07861798DF8060001
:103E5000B4F803008DF80210ADF8000001A8FCF7DB
:103E6000A5F924F80A0C6846FCF7A0F924F8080C18
:103E70001B4821460722FEF7BFFE012004F80F0C65
:103E80007CBD0025E9B2062921D860182E460135EF
:103E9000007C0A28F6D104F110000131FCF77BF90F
:103EA000304603E021440130097C6174C1B2013124
:103EB0000629F7D9B01CC0B2204400F11001E8B2C5
:103EC000C0F1060082B20648FEF796FE7CBD0448AB
:103ED00004F110010722FEF78FFE7CBD10000020C8
:103EE000E007002010B5074C00F00F03044AB0F1C2
:103EF000FF3F2344C8BF83180801187010BD00BFDE
:103F000000E400E014ED00E00648BFF34F8F064ADE
:103F1000016801F4E06111430160BFF34F8F00BFFE
:103F2000FDE700BF0CED00E00400FA05FDF7F2FC30
:103F3000FFF7A7FCFFF7C8F9FFF76CFAFFF744FBA0
:103F4000FFF7F4FBFFF70EFCFFF728FCFFF7A0FBE1
:103F5000FFF786FAFFF7EEFAFFF768FBFFF7CAFBF9
:103F60001720FDF725FDFFF7F5FEFCE70FB4084B22
:103F700010B504A902AA039800F080F9044602A92A
:103F8000002000F012FD204610BC5DF814FB00007C
:103F9000AB490008490050EAC12018BF04204A0D6F
:103FA00018BF40F0010040F2FF72B2EB515F08BF52
:103FB00040F00200012808BF052070470048704704
:103FC000000000202DE9F0414F1E00EBC701044620
:103FD000D1E9000115461E4637F006020DD02A46EB
:103FE0003346FCF75FFA7F1E04EBC703D3E90023D7
:103FF000FCF7B1F937F00602F1D1022F25D0042FDA
:1040000013D0062F18BFBDE8F0812A463346FCF7CF
:1040100049FAD4E90A23FCF79EF92A463346FCF70D
:1040200041FAD4E90823FCF796F92A463346FCF70F
:1040300039FAD4E90623FCF78EF92A463346FCF711
:1040400031FAD4E90423FCF786F92A463346FCF713
:1040500029FAD4E90223FCF77EF92A463346FCF715
:1040600021FAD4E90023BDE8F041FCF774B900005F
:104070000022134610460149FCF786BA0000F03FC3
:10408000FCF769B90022134610461146FCF77CBACA
:1040900040F2013200204FF0E041FCF7F7BC000095
:1040A000024A00201107FCF7F1BC000001FDFFFFF0
:1040B00001480068704700000000002002E008C8C6
:1040C000121F08C1002AFAD170477047002001E092
:1040D00001C1121F002AFBD170470000014908608E
:1040E00070470000000000202DE9FF5F82B0002132
:1040F000DDE90430020DDDF840B0034318D044F68A
:104100001050A2F2FF3242431514119801281FD01B
:10411000A5EB0B00401C5FEA000A4FF000064E4F73
:10412000DFF83891B046504615D5CAF1000413E0C7
:10413000119801244AA3012801D16FEA0B010298CA
:10414000119AC0E90031C0E9024206B0BDE8F09F13
:10415000CBF10000DFE704460021404A491842EB5A
:104160000450CDE9001012E0E00707D032463B468C
:1041700040464946FCF796F98046894632463B461A
:1041800010461946FCF78EF906460F466410002CBF
:10419000EAD1DDE90401DDE90023BAF1000F06DA16
:1041A000FCF780F942464B46FCF77CF905E0FCF74A
:1041B000EBF942464B46FCF7E7F904460E4600226F
:1041C000284BFCF793FC03D84FF0FF30014607E083
:1041D0000022254B20463146FCF7BDF8FCF76DFC6C
:1041E000102409E0002C0ADB0A220023FCF7DBFA8A
:1041F000039B30321A55641E50EA0102F2D1641C4E
:10420000039AC4F111031444119A012A03D0012224
:1042100008430DD10AE0084304D000204FF0110BF1
:10422000119072E7A3EB0B056D1E0DE05B4504DDFD
:104230004FF0000205F1010504E003DA4FF000023F
:10424000A5F10105002AECD002981199C0E90231CC
:10425000C0E9004579E70000000014400000F03F8D
:10426000300000000000F0430000E03F30380A2832
:1042700001D2012070470020704700002DE9FF4F58
:1042800095B09B468946064600250FE2252877D142
:1042900000242746F84A0121059400E0044316F85B
:1042A000013F203B01FA03F01042F7D130782A2871
:1042B00011D06FF02F033078A0F13002092A16D800
:1042C000059A44F0020402EB820203EB420210441E
:1042D000761C0590EFE759F8042B0592002A03DAC3
:1042E000504244F40054059044F00204761C3078A7
:1042F0002E2816D116F8010F44F004042A280DD0F8
:104300006FF02F023078A0F13003092B09D807EBAA
:10431000870302EB4303C718761CF3E759F8047BC5
:10432000761C30786C280FD006DC4C2817D0682813
:104330000DD06A2814D104E0742810D07A280FD147
:104340000DE044F400140AE044F4801401E044F465
:1043500040147278824202D104F58014761C761CD7
:10436000307866280BD013DC582877D009DC002879
:1043700075D04528F6D04628F4D047281AD19DE1BB
:1043800018E0632835D0642879D0652812D195E1EA
:10439000702873D008DC6728F1D069286FD06E28A8
:1043A0000DD06F2806D1B5E073282CD0752875D0B4
:1043B000782874D05A46179990476D1C75E1C4F35C
:1043C0000250022809D003280DD0D9F80010042883
:1043D0000DD00D6009F1040967E1D9F80010EA1762
:1043E000C1E90052F6E7D9F800100D80F2E70D7030
:1043F000F0E719F8041B8DF8001000208DF801007B
:10440000EA46012003E059F804AB4FF0FF306107A2
:104410004FF0000102D40DE008F101018846B942D5
:104420000FDA8045F8DB1AF808100029F4D108E00B
:1044300008F1010188468142FADB1AF808100029C8
:10444000F6D105985B46A0EB080721463846179A37
:1044500000F094FA284400EB080507E04DE029E15C
:104460000DE01AF8010B5A4617999047B8F1010868
:10447000F7D25B4621463846179A13E142E00A22FA
:104480000092C4F302524FF0000A022A08D059F8F1
:1044900004CB032A4FEAEC710AD00DE029E02AE0B0
:1044A00009F1070121F00702F2E802C1914609E093
:1044B0000FFA8CFC4FEAEC71042A03D14FFA8CFC02
:1044C0004FEAEC71002907DA0A460021DCF1000C02
:1044D00061EB02012D2202E0220504D52B228DF88A
:1044E0000420012203E0E20701D02022F7E79046F2
:1044F00059E00A2102E010220DE010214FF0000ADD
:1045000000910BE010224FF0000A44F00404082749
:10451000009203E008224FF0000A0092C4F3025216
:10452000022A05D059F804CB0021032A08D009E05B
:1045300009F1070121F00702F2E802C1914605E006
:104540001FFA8CFC042A01D10CF0FF0C4FF000087C
:10455000220728D5702806D0009B83F0100353EA69
:104560000A0305D00EE040228DF80420012208E065
:104570005CEA010206D030228DF804208DF8050097
:1045800002229046009B83F0080353EA0A030AD1F3
:104590005CEA010201D1620705D530228DF80420C2
:1045A0004FF001087F1E582804D034A003900EA8B5
:1045B00002900DE036A0F9E753466046009AFCF7FA
:1045C000F2F884460398825C0298401E02900270C2
:1045D0005CEA0100F0D1029806A9081A00F1200A4D
:1045E000600702D524F4803400E00127574502DD3E
:1045F000A7EB0A0000E0002000EB0A0100900598FC
:104600004144401A0590E00306D45B462146179AC0
:10461000059800F0B3F90544002706E001A85A46C2
:10462000C05D179990476D1C7F1C4745F6DBE00382
:104630000CD55B462146179A059800F09FF9054472
:1046400004E030205A46179990476D1C0099481E87
:1046500000900029F5DC08E0029802995A4600789B
:10466000491C0291179990476D1CBAF10001AAF1FB
:10467000010AF1DC65E10000092801003031323324
:10468000343536373839616263646566000000008E
:104690003031323334353637383941424344454678
:1046A0000000000000F058F90544761C307800281E
:1046B0007FF4ECAD19B02846BDE8F08F620700D456
:1046C000062709F1070222F0070CFCE80223E14665
:1046D00003F000485FEA080C02D00FF2702C0DE0E6
:1046E0005FEA045C02D50FF2682C07E05FEAC47C45
:1046F00002D00FF2602C01E0AFF2700C4FF0FF38E7
:1047000023F00043CDF850C065280CD006DC4528C6
:1047100009D046281DD047283DD13DE0662818D055
:1047200067287ED138E00021112F01DB112000E045
:10473000781CCDE9000106A90EA8FFF7D5FCDDE93C
:104740000F010E9A03910021009207F1010A0491D2
:104750004DE04FF000400097CDE9011006A90EA8EA
:10476000FFF7C2FCDDE90F0203920E9B11990022B4
:10477000DDF80CA00093049211B9791C00EB010A3A
:10478000B7EB0A0004D4C0F1FF3007F1010A04902E
:10479000AAEB0700019044E0012F00DA0127002175
:1047A000112F01DD112000E03846CDE9000106A9F6
:1047B0000EA8FFF799FCDDE90F010E9A0391002185
:1047C00004910092BA4621070CD40399514500DAAE
:1047D0008A46BAF1010F05DD009AAAF10101515C88
:1047E000302908D0B84202DA10F1040F06DA0121AC
:1047F000CDE9011015E0AAF10101E9E7002805DC87
:10480000049901440491AAEB000102E0411C5145C6
:1048100000DD8A460499401A401C01904FF0004088
:104820000290200704D40198504501DBCDF80480A4
:1048300000208DF84F0002980DF14F07B0F1004FA6
:1048400025D02B200E9002984FF0020800280CDA99
:10485000404202902D200E9007E00A210298FBF7BB
:104860008CFF3031029007F8011DB8F10001A8F16A
:104870000108F2DC02980028EFD1791E0E9808702A
:10488000307800F0200040F0450007F8020D12A833
:10489000C01B00F107081498007800B1012000EB5C
:1048A0000A01019801EBE07105984144401A401E4D
:1048B0000590E00306D45B462146179A059800F060
:1048C0005DF805441498007818B15A461799904736
:1048D0006D1CE00324D55B462146179A059800F02D
:1048E0004DF805441CE00498002807DBDDE90301CE
:1048F000884203DD0098405C179901E01799302049
:104900005A469047049805F10105401C049001980F
:10491000401E019004D12E205A46179990476D1CD5
:10492000BAF10001AAF1010ADDDC05E017F8010B7C
:104930005A46179990476D1CB8F10001A8F101087B
:10494000F4DC5B462146179A0598ABE62D00000083
:104950002B000000200000002DE9F0410446002556
:104960001E461746880404D405E039462020B04787
:104970006D1C641EF9D52846BDE8F0812DE9F04193
:10498000044600251E469046C80301D5302700E0A6
:104990002027880404D505E041463846B0476D1C01
:1049A000641EF9D52846BDE8F0810A68531C0B60E7
:1049B0001070704730B583B00446FFF779FB0546A9
:1049C0000020CDE900000246012321466846FBF79E
:1049D0005CFF2846FFF782FBDDE9000103B030BD34
:1049E0002DE9F04D1D460C4698B0174621F00041C8
:1049F00023F00043002814BF4FF0010C4FF0000CCF
:104A00000CEB440CFE4A0CEB02064FEA620C6645C6
:104A10002BD33E0018BF012606EB45061644F94A83
:104A2000964222D3F84A53EA070C02D0944205D1A9
:104A300048B918B000201146BDE8F08D002808BF25
:104A40004FF0000C01D04FF0010C0CEB440212F5BA
:104A5000001F0AD8002F14BF4FF0010C4FF0000CBC
:104A60000CEB450212F5001F07D918B03A462B4649
:104A70002146BDE8F04DFFF703BB0022DFF88CA311
:104A8000002CB8BF534526DADFF884C36345A8BFBE
:104A9000022220DADFF870C39C451CDCDFF874C307
:104AA0000CEB235CBCF1140F08DDCCF1340627FAC3
:104AB00006FC0CFA06F6BE420DD108E05FB9CCF157
:104AC000140623FA06FC0CFA06F69E4203D10CF0FB
:104AD0000102C2F1020251EA000C19D1002D17DACD
:104AE000002C18BF022A01D0012A07D00220FFF7AC
:104AF000F5FA18B0BDE8F04DFFF7BABA0220FFF79B
:104B0000EDFAFFF7B5FA18B081F00041BDE8F08D7D
:104B1000B7F1000C6CD1534525D104F1804212F558
:104B2000801201BF00280020B74918B008BFBDE8B7
:104B3000F08DB548884207DC002DA1BF60462946AC
:104B400018B0BDE8F08D07E0281E05DA80F00041BE
:104B500018B06046BDE8F08DAF497944D1E9000155
:104B600018B0BDE8F08DDFF8A0C2634525D1002D57
:104B70001FDA19B1514512D1D8B909E0002840F027
:104B8000EC82A24A214618B062F31E01BDE8F08D06
:104B90000020214618B060F31E01BDE8F08D08DA50
:104BA00018B02346BDE8F04D024600206146FBF7F1
:104BB000EBBC18B02146BDE8F08D514518DAB5F1CF
:104BC000804F0DD0A5F1005CBCF1FF5C10D1B4F1B9
:104BD000000C0DDB18B06146BDE8F04D00F0ECBBF9
:104BE000234618B00246BDE8F04D1946FBF75ABC03
:104BF000060024F0004C3BD1D9B1514533D1002CF3
:104C000006DD002DA1BF0020514618B0BDE8F08D93
:104C1000002C01DD002D1BDB002C13DA002D11DB35
:104C2000012A4FF0000014BF78497C4918B0BDE854
:104C3000F08D022A18BF002C0AD0012A08D1002CBE
:104C400006DA0AE0002CB8BF002D11DA012A04D0E0
:104C5000002018B00146BDE8F08D18B000204FF0DC
:104C60000041BDE8F08DA1F14050B0F17F601AD055
:104C7000012000EBE47050EA020421D0624C521E85
:104C80004FF0000B104304BF4FF0000B644C65481D
:104C900083427CDD644A654893421FDD884217DB0E
:104CA000002D25DB37E0002C00DA4AB1022A0CBFC8
:104CB00001204FF0FF3018B0BDE8F04DFBF7D8BC35
:104CC0000120FFF70BFA18B0BDE8F04DFFF7DAB995
:104CD0004D4A8A4202DC002D0ADC1CE0814202DAE5
:104CE000002D18DA04E0484B994220DD002D12DD3A
:104CF0000220FFF7F3F9FFF7CBF905460E46002235
:104D0000534658462146FBF7CDFB18B066F31E010B
:104D10002846BDE8F08D0220FFF7E0F9FFF7C0F963
:104D20000A46214618B062F31E01BDE8F08D00224C
:104D300030466146FBF7B0FB80460E466FF001023D
:104D4000FBF7A4FE4FF05532394BFBF7A8FB424668
:104D50003346FBF7A7FB0022364BFBF7A0FB82464E
:104D600042463346049110461946FBF79BFB5246D8
:104D7000049BFBF797FB8A4600904FF0C0422E4BF6
:104D800040463146FBF78EFB2C4A2B4B00E027E0D8
:104D9000CDE9060151460098FBF784FB824601915C
:104DA000274A284B40463146FBF77CFB5246019B85
:104DB000FBF772FB82460B4602460591DDE90601D0
:104DC000FBF7C9FADDE90623002688463046FBF7E3
:104DD00063FB5246059BFBF762FB024600F07EB97F
:104DE0000020B1F5801F07DA352230466146FBF717
:104DF0004DFE06466FF0340000EB215024E0000029
:104E0000FFFF1F00FFFF0F000000F03F0000F07FDA
:104E10000000404301FCFFFF320900000000F0FFEA
:104E20000000F0BF0000E0410000F043FFFFEF3F53
:104E30005555D53F0000E03F4715F73FFE822B65F3
:104E400044DF5DF80BAE543EA0F2FF300190C1F399
:104E5000130040F07F6141F040510291FE498842C9
:104E6000D8BF002004DDFD498142C8BF012001DD1B
:104E70000D9008E000200D900198401C01900298D0
:104E8000A0F5801002900299F54878440B910D9995
:104E900000EBC100D0E900230F9330460A920B9932
:104EA000FBF7FAFACDE90601DDE90A2130460F9B4E
:104EB000FBF751FA02460B460020EA49FBF764FB78
:104EC000059102460B460090DDE90601FBF7EAFA80
:104ED0001490E5488A464FF000087844029900682B
:104EE00012904FF0005040EA61010D980F9B01EBCA
:104EF000804000F5002109910A9A1298FBF7CCFA3C
:104F000032460B9BFBF7CBFA42465346FBF7CAFAF5
:104F10000646029140465146099B129AFBF7C2FA97
:104F2000DDE90623FBF7BBFA3246029BFBF7B4FA36
:104F3000059B009AFBF7B6FA0091149A0490534629
:104F400010461946FBF7AEFA06460246C7480B461E
:104F5000029106217844FFF735F8CDE90510029B50
:104F6000324610461946FBF79DFADDE90532FBF79C
:104F700099FA05910646534640461946149AFBF79E
:104F8000EAF9009B049AFBF78DFA3246059BFBF782
:104F9000E2F9CDE905104246534610461946FBF7A3
:104FA00081FA0022B24B02910A90FBF7D4F9DDE9B5
:104FB0000532FBF7D0F90E464246AD4B4046FBF7B3
:104FC0006BFA029B0A9AFBF767FADDE90532FBF7F9
:104FD00066FA424602910A90334610465146FBF764
:104FE00061FACDE906015346149A02990A98FBF733
:104FF00059FA8A4602903346424600990498FBF7D4
:1050000051FA5346029AFBF7A6F982460B4602462E
:105010000591DDE90601FBF79EF9DDE90623002095
:1050200088460646FBF738FA5246059BFBF737FAE7
:10503000824609914FF060428E4B30464146FBF765
:1050400031FA049006918C4A8A4B50460999FBF735
:1050500029FA82460291894A894B30464146FBF73C
:1050600021FA5246029BFBF776F9864B7B440D9A58
:1050700003EBC203D3E90023FBF76DF90E90079110
:105080000198FBF7F5FA0591DDE9061382460E9AC1
:105090000498FBF760F97C4A7A440D9B02EBC3034A
:1050A000D3E9002300930292FBF755F95246059B82
:1050B000FBF751F90026884652463046059BFBF720
:1050C000EBF9009B029AFBF7E7F9069B049AFBF7C2
:1050D000E3F9079B0E9AFBF7E2F9024600200B4624
:1050E000029038462946FBF7DDF9824601912B46AE
:1050F00038461946029AFBF7CFF932464346FBF78A
:10510000D1F95246019BFBF726F907468A463246FB
:10511000434629460298FBF7C5F905460E463A462E
:105120005346FBF718F9594A8846914221DBA8EB10
:10513000020353EA000210D12A463346FBF7ACF9CA
:10514000CDE90401524A534B38465146FBF703F967
:10515000DDE90423FBF7CAFC21D20220FEF7BEFFE3
:10516000FEF796FF0A46214618B062F31E01BDE81D
:10517000F08D494B28F000429A4210D3474A08EB81
:10518000020353EA00027FF4C6AD2A463346FBF71A
:1051900083F93A465346FBF7A9FC7FF6BCAD0022E3
:1051A000019228F000403E493E4A01EB20518242E4
:1051B00023DA481C4FF4801121FA00F040443A4AA7
:1051C000C0F30A517A44394BA1F2FF31CB4020EAB7
:1051D0000303C0F3130040F48010C1F11401C84070
:1051E00012680190B8F1000FBCBF40420190284600
:1051F0003146FBF751F905460E462A4633463846F6
:105200005146FBF7A8F84FF000084246284B4046AD
:105210000591FBF747F9CDE90601264A264B4046A2
:105220000599FBF73FF9009102902A463346404624
:105230000599FBF731F93A465346FBF730F91F4A17
:105240001F4BFBF72FF9009B029AFBF784F80746E8
:10525000884602460B4635E08E9803007AB60B006E
:105260007A0500000000F03FB2050000E0040000F5
:105270000000084009C7EE3FFD033ADCF5015B146E
:10528000E02F3EBEB80300007C0300000000904009
:10529000FE822B654715973C00CC904000346F3F51
:1052A00001FCFFFF0000E03FC8020000FFFF0F000D
:1052B000432EE63F396CA80C615C20BEEF39FAFE44
:1052C000422EE63FDDE90601FBF745F8DDE906235E
:1052D00005460E46FBF7E0F83A464346FBF7DFF893
:1052E0000F462A463346009010461946FBF7DAF877
:1052F000824602462E4888460B4605217844FEF732
:1053000061FE52464346FBF7CDF82A463346FBF78B
:10531000C6F880468A463B4628463146009AFBF747
:10532000C1F83B46009AFBF716F806910090002260
:105330004FF0804340465146FBF7AEF80F460C90C5
:105340004246534628463146FBF7ACF83B460C9A9A
:10535000FBF71AF9069B009AFBF79EF82A4633469C
:10536000FBF79AF80022134BFBF799F805460198D2
:105370000E4601EB00510815002810DC2846314686
:10538000019AFBF783FBFEF705FE042808BFFEF732
:1053900087FE28463146019AFBF778FB05460B4607
:1053A00018B02A4658462146BDE8F04DFBF77AB8BA
:1053B000680100000000F03F2DE9F04106460F466D
:1053C000FBF7EBFD041E0D4618BF0120284320F01B
:1053D0000040C0F17F6000F1E040C00F0ED0301CF3
:1053E00018BF0120384320F00040C0F17F6000F179
:1053F000E040C00F04BF0120FEF770FE20462946A2
:10540000BDE8F08100000000000000000000F03F57
:10541000000000000000F83F000000000000000055
:105420000000004003B8E23F000000000000000060
:1054300006D0CF43EBFD4C3E033333333333E33FEE
:10544000FFAB6FDBB66DDB3F4D268F515555D53F1A
:1054500001411DA96074D13F65DBC9934A86CD3FE8
:10546000EF4E454A287ECA3F3E5555555555C53FD6
:1054700093BDBE166CC166BF2CDE25AF6A56113FC8
:10548000F16BD2C541BDBBBED0A4BE726937663ECA
:10549000000000000000000000404040404040404C
:1054A00040404141414141404040404040404040F7
:1054B000404040404040404040050202020202029B
:1054C00002020202020202020220202020202020EA
:1054D00020202002020202020202909090909090FE
:1054E00010101010101010101010101010101010BC
:1054F0001010101002020202020288888888888830
:10550000080808080808080808080808080808081B
:10551000080808080202020240000000995400082E
:105520000000000000000000010203040607080953
:105530000000000001020304000000000000000061
:10554000000000000000000000000000000000005B
:10555000000000000000000000000000000000004B
:10556000000000000000000000000000000000003B
:105570000000000000000000000000E0E0E0E0E0CB
:10558000E0E0E0E0E0E0E0E0E0E0E0E0E0E0E0E01B
:10559000E0E0E0E0E0E0E0E0E0E0E0E0E0E0E0E00B
:1055A000E0E0E0E0E0E0E0E0E0E0E0E0E0E0E0E0FB
:1055B000E0E0E0E0E0E0E0E0E0E0E0E0E0E0E0E0EB
:1055C000E0E0E0E0E0E0E0E0E0E0E0E0000000005B
:1055D00000000000000000000000000000000000CB
:1055E00000000000000000000000000000000000BB
:1055F00000000000000000000000000000000000AB
:10560000000000000000000000000000000000009A
:10561000000000000000808080808080C0E0E0F01A
:10562000F0F0F0F0F0E0F0F0F0FCFCFCFCFCFCFC36
:10563000FCFCFCFCFCFCFCFCFCFCFCFFFFFFFFFF9B
:10564000FFFFFFFFFFFFFFFFFFFFFFFFFFFFFFFF6A
:10565000FFFFFFFFFFFFFFFFFFFFFFFFFFFFFFFF5A
:10566000FFFFFFFFFFFFFFFFFFFFFFFFFFFFFFFF4A
:10567000FFFFFFFFFFFFFFFFFFFFFFFFFFFFFFFF3A
:10568000FFFFFFFFFFFFFFFFFFFFFFFF0000000026
:10569000000000000000000000000000000000000A
:1056A00000000000000000000000000000000000FA
:1056B00000000000000000000000000000000000EA
:1056C00000000000000000000000000000000000DA
:1056D0005C7C7CFE7EFEFFFFFFFFFFFFFFFFFFFF06
:1056E000FFFFFFFFFFFFFFFFFFFFFFFFFFFFFFFFCA
:1056F000FFFFFFFFFFFF9F9F9F9F9FFFFFFFFFFF9A
:10570000FFFFFFFFFFFFFFFFFFFBFFF7FBFFFFFFB9
:10571000FFFFFFFFFFFFFFFFFFFFFFFFFFFFFFFF99
:10572000FFFFFFFFFDFFFFFFFFFFFFFFFFFFFFFF8B
:10573000FFFFFFFFFFFFFFFFFFFFFFFFFFFFFFFF79
:10574000FFFFFFFFFFFFFFFFFFFFFFFF0000000065
:105750000000000000000000000000000000000049
:105760000000000000000000000000000000000039
:105770000000000000000000000000000000000029
:105780000000000000000000000000000000000019
:10579000000000000000030F1F1F1F1F7F7F7F7F7F
:1057A0007F7FFFFFFFFFFFFFFFFFFFFFFFFFFFFF09
:1057B000FFFFFFFFFFFFFFFFFFFFFFFFFFFFFFFFF9
:1057C000FFFFFFFFFFFFFFFFFFFFFFFFFFFFFFFFE9
:1057D000FFFFFFFFFFFFFFFFFFFFFFFFFFFFFFFFD9
:1057E000FFFFFFFFFFFFFFDF9FDFDFDFDFDFDFDF29
:1057F000CFCFEFF3F3F3F3F3F7FFFFFFFFFFFFFF6D
:10580000FFFFFFFFFFFFFFFFFFFFFFFF00000000A4
:105810000000000000000000000000000000000088
:105820000000000000000000000000000000000078
:105830000000000000000000000000000000000068
:105840000000000000000000000000000000000058
:105850000000000000000000000000000000000048
:105860000000000301030301030303030307070F01
:105870000F0F0F0F0F0F0F0F0F0F0FFFFFFFFFFF88
:10588000FFFFFFFFFFFFFFFFFFFFFFFFFFFFFFFF28
:10589000FFFFFFFFFFFFFFFFFFFFFFFFFFFFFFFF18
:1058A000FFFFFFFFFFFFFFFFFFFFFFFFFFFFFFFF08
:1058B000FFFFFFFFFFFFFFFFFFFFFFFFFFFFFFFFF8
:1058C000FFFFFFFFFFFFFFFFFFFFFFFF00000000E4
:1058D00000000000000000000000000000000000C8
:1058E00000000000000000000000000000000000B8
:1058F00000000000000000000000000000000000A8
:1059000000000000000000E0F0F0E0E0E0E0E0E097
:10591000E0E0E0E0E0E0E0E0E0E0E0E0E0E0E0E087
:10592000E0E0E0C0C0C0F0F0F0E0E0E0E0E0E0F097
:10593000E0F0E0C0C0C00000000000E1E1F1E1E102
:10594000E1E1E1E1E1F1F1F12141E1E1E1E1E1E177
:10595000E1E1E1F1010101E1F1E1E1E1E1E1E1E1B7
:10596000E1E1E1E1E1E1E1E1E1E1E1E1E1E1E1F117
:10597000C1C1C1818181010101F1F1E1E1E1E1E117
:10598000E1F1210101010101010101018080E0F04B
:10599000E0E0E0E0E0E0E0E0E0E0E0E0E0E08080C7
:1059A0008000000000000000000000000000000077
:1059B00000000000000000000000000000000000E7
:1059C00000000000000000FFFFFFFFFFFFFFFFFFE0
:1059D000FFFFFF01010101010101030303FFFFFFBD
:1059E000FFFFFFFFFFFFFF07FF0707077F7F7FFF27
:1059F000FFFFFFFFFFFFF8F8FCFEFEFFFFFFFFFFCA
:105A0000FFFF1F1F1F01010100EEFFFFFFFFFFFF50
:105A1000FFFFFFFF000000FFFFFFFFFFFFFFFFFF93
:105A2000FFFFFFC1C1C0C1C1C1F3F7F7FFFFFFFF17
:105A3000FFFFFFFFFFFF000000FFFFFFFFFFFFFF73
:105A4000FFFF000000E0E0E0F8FCFCFFFFFFFFFFCD
:105A5000FFFFFFFFEFE3E3F3FFFFFFFFFFFFFFFFAA
:105A6000FFFCFCFCE0E0C0808080C0C0C0C0C0C0C3
:105A7000C0808080000000000000000000000000E6
:105A800000000000000000030303030303030303FB
:105A900003030300000000000000000000030303F4
:105AA00003030303030303030300000000000003D8
:105AB00003030303030303030303030303030301B8
:105AC00001000000000000000000030303030303C3
:105AD000030303030000000303030303030303039F
