:020000040800F2
:10000000E80C002045010008AB330008FD2800087B
:10001000A93300081D0F0008753900080000000012
:100020000000000000000000000000005134000843
:10003000F10F000800000000AD3300085334000841
:100040005F0100085F0100085F0100085F01000810
:100050005F0100085F0100085F0100085F01000800
:100060005F0100085F0100085F0100085F010008F0
:100070005F0100085F0100085F0100085F010008E0
:100080005F0100085F0100085F0100085F010008D0
:100090005F0100085F0100085F0100085F010008C0
:1000A0005F0100085F0100085F0100085F010008B0
:1000B000ED3400085F0100085F0100085F010008DF
:1000C0005F0100085F0100085F0100085F01000890
:1000D0005F0100085D390008653900086D390008C6
:1000E0005F0100085F0100085F0100085F01000870
:1000F0005F0100085F0100085F0100085F01000860
:100100005F0100085F0100085F0100085F0100084F
:100110005F0100085F0100085F0100085F0100083F
:100120005F0100085F0100085F0100085F0100082F
:10013000DFF80CD000F048FC004800477D3B000889
:10014000E80C00200648804706480047FEE7FEE727
:10015000FEE7FEE7FEE7FEE7FEE7FEE7FEE7FEE777
:10016000A134000831010008202A04DB203A21FADA
:1001700002F00021704721FA02F3D040C2F12002C0
:100180009140084319467047D2B201E000F8012BB4
:10019000491EFBD270470022F6E710B513460A4607
:1001A00004461946FFF7F0FF204610BD70B506461D
:1001B00003F016FD046805460A220021304600F0CF
:1001C00007FB2C6070BDF0B480EA0102D40F42003E
:1001D000B2EB410F02D20246084611464A0042D015
:1001E000C30DDDB2C1F3C752AD1A202D35DAC1F30C
:1001F000160141F4000204B15242C5F1200602FA90
:1002000006F12A411044B3EBD05F23D0C4B1012DD5
:10021000A0EBC35009DCF0BC4FF0004202EAC3522D
:10022000DBB200F5000000F014BB400000F180706C
:1002300000EBC350A0F1807040EAD170490009E0A2
:10024000490841EAC071A0EBC35000F50000400826
:1002500000EBC350F0BC00F0F3BA6142012202EBA4
:100260004101001BF6E7F0BC704781F00041AAE7AE
:1002700080F00040A7E730B480EA010202F00045B8
:1002800030F0004221F0004013D090B1C30DD40DE6
:10029000C2F31601C0F31600E41A41F4000140F461
:1002A00000027D34914201D3641C00E04900002C1F
:1002B00002DA30BC002070474FF400000023914266
:1002C00001D3891A034340084FEA4101F7D151B1E4
:1002D000914202D14FF0004105E002D24FF00101FE
:1002E00001E06FF0010103EBC450284430BC00F082
:1002F000A7BA2DE9FE4F804681EA0300C00F0C46E5
:10030000009021F0004123F00045B8EB0200A94124
:1003100005D24046214690461C460B46024623F035
:100320000040104347D0270DC7F30A00C3F30A511A
:100330000290401A019040286BDAC3F3130040F496
:10034000801B0098924620B10023D2EB030A63EB96
:100350000B0B01985946C0F14002504600F0C3F91A
:1003600006460D4650465946019A00F0CBF910EB6F
:1003700008006141002487EA115284EAE7731A43B6
:1003800040D0009A62B3019A012A4FEA075215DC65
:10039000001B61EB02014FF0004202EA0752CDE977
:1003A0000042001C41F5801132462B4600F08EFAC7
:1003B00003B0BDE8F08F40462146F9E7001B61EB32
:1003C0000201001C41F5801300185B412018A2F5C2
:1003D000001747EB030140EAD570B6196D4111E0F3
:1003E0006D084FEA360645EAC0754FEA0752001B12
:1003F00061EB0201001C41F5801149084FEA300011
:100400000019514132462B4603B0BDE8F04F00F0D1
:100410004EBA0098012240000023D0EB020263EBA9
:10042000E073009821464FEAE074B8EB000061EBFE
:100430000401E9E783F000435BE781F0004158E7FE
:100440002DE9FE4F81EA030404F0004421F000414D
:1004500000944FF0000B23F0004350EA01045ED0FB
:1004600052EA03045BD0C3F30A54C1F30A552C4487
:10047000A4F2F3340194A0FB0254C1F3130141F43C
:100480008011C3F3130343F4801301FB024400FB08
:10049000034E840A970A44EA815447EA8357A4FB2F
:1004A000076802958D0A05FB07854FEA932C04FB2C
:1004B0000C542705029D4FEA065847EA1637B5EB5C
:1004C00008056EEB070C870E920E47EA811742EA89
:1004D0008312A7FB0201B6EB0B0164EB00042B0DAA
:1004E00043EA0C335E1844EB1C50DA465146E7FBF6
:1004F0000201C5F313044FEA0B3343EA14534FEAE6
:100500000432019C43EA0603A4F10C040294009C0B
:10051000CDE900B400F0DAF903B0BDE8F08F0020B7
:100520000146F9E72DE9F04D81EA030404F0004BA0
:1005300021F0004514464FF0000A23F0004150EA34
:10054000050220D054EA01021DD0C5F30A57024625
:10055000C5F31303C1F31300C1F30A5640F4801529
:1005600043F48013A7EB0608101BD64608F2FD38AB
:1005700073EB050002D308F1010801E092185B411A
:10058000B8F1000F03DA00200146BDE8F08D00202D
:100590004FF48011064684460EE0171B73EB0507E7
:1005A00005D3121B63EB050306434CEA010C490813
:1005B0004FEA300092185B4150EA0107EDD152EA50
:1005C000030012D082EA040083EA0501084305D043
:1005D000101BAB4106D20122002306E000224FF09F
:1005E000004302E06FF0010253101AEB06004CEBDF
:1005F000085110EB0A0041EB0B01BDE8F04D00F093
:1006000056B90EB5C10F80EAE0700844CA07002150
:1006100040F233438DE80E000A460B4600F056F9CF
:1006200003B000BD0EB540F2334102910021CDE987
:1006300000110A460B4600F049F903B000BD00F076
:10064000004220F00040C10DC0F3160040F400004D
:100650007F2901DA00207047962903DCC1F1960159
:10066000C84001E096398840002AF4D040427047E3
:1006700070B5C1F30A5201F000450024C1F3130123
:1006800040F2FF3341F480119A4201DA002070BD3C
:1006900040F233439A42A2F2334203DC5242FFF764
:1006A00063FD00E090402C43F1D0404270BD01F06A
:1006B000004330B421F0004150EA010206D00A0D97
:1006C000A2F56072C1F31301002A02DC30BC0020E5
:1006D0007047440F44EAC104C100E01830BC00EB8D
:1006E000C25000F0ADB8202A04DB203A00FA02F133
:1006F000002070479140C2F1200320FA03F3194310
:1007000090407047202A06DBCB17203A41FA02F0CE
:1007100043EAE07306E041FA02F3D040C2F120025E
:1007200091400843194670470FB40B0010B58AB0CA
:100730000FA900910E994FF00004234ACC60214C80
:10074000CDE9064200D004236FF00042CDE901322A
:100750001E4A089202466B46002000F0E9F90AB0F2
:1007600010BC5DF814FBF0B585B007464FF0FF30C4
:100770000091CDE901011E46002015460C4604906B
:100780003B466A46314604A8FFF7CEFF049903466C
:10079000601825B109B1024600E022462A6000290E
:1007A0000ED0002B02DD0099814209D00094001B7D
:1007B000CDE901043B466A46314604A8FFF7B4FF81
:1007C00005B0F0BD690D0008870D0008F5090008A7
:1007D0002DE9F04791460F4680460446002614F85E
:1007E000015B2DB100F002F90068405DC007F6D151
:1007F0002B2D02D02D2D18D0641E4A463946204696
:1008000000F0D2FA27B13968A14201D1C7F80080BF
:1008100071054FF002040BD54042002803DD03F0C0
:10082000DFF90460A007BDE8F08746F48066E4E7DE
:100830000028F8DA03F0D4F904606FF00040F2E722
:100840000029A8BF7047401C490008BF20F00100E4
:10085000704710B4B0FA80FC00FA0CF050EA0104C2
:1008600004BF10BC704749B1CCF1200421FA04F454
:1008700011FA0CF118BF012121430843A3EB0C012D
:10088000CB1D4FEA00614FEA102042BF002010BC90
:10089000704700EBC35010440029A4BF10BC704740
:1008A000401C490008BF20F0010010BC704710B583
:1008B000141E73F1000408DA401C41F10001921883
:1008C0005B411A4301D120F0010010BD2DE9F04D2C
:1008D00092469B4611B1B1FA81F202E0B0FA80F281
:1008E00020329046FFF7FFFE04460F4640EA0A001A
:1008F00041EA0B0153465A46084313D0114653EAC6
:10090000010019D0C8F140025046FFF72DFC054602
:100910000E46504659464246FFF7E5FE084305D0CD
:10092000012004E020463946BDE8F08D0020054353
:1009300046EAE0762C4337430A986305E40AA0EBC5
:1009400008000022FD0A44EA47540A3002D500207C
:100950000146E9E7010510196941DDE9084500197B
:100960006941BDE8F04DA2E770B521F000430343B3
:100970000CD0C1F30A550024D5EB040564EB040345
:10098000D617AD1AB34102DB0020014670BD201816
:1009900041EB025170BD000030B5041E71F100043E
:1009A00004DB4FF00044404264EB0101141E73F17C
:1009B000000405DB1C464FF00043524263EB040386
:1009C000994208BF904230BD064C074D06E0E068F2
:1009D00040F0010394E8070098471034AC42F6D386
:1009E000FFF7AAFB606600088066000800487047B1
:1009F0008448000810B50446FFF7F8FF0068005D62
:100A000000F0010010BD00002DE9FF4F087883B011
:100A10009946FF2805D0491C2D2804D00024002029
:100A200008E000200BE00124F9E700EB800003EB75
:100A30004000491C0B78FF2BF7D104B14042002342
:100A40000293147819461D462D2C01D02B2C04D16D
:100A5000521C2D2C13D000240294AA461478FF2C8B
:100A60000FD00A25A3FB057801FB05814FF0000C90
:100A700003FB0C11521CE3194AEB0101EEE70124C0
:100A8000EAE7814453EA010002D019F5C87F06DA8B
:100A900003980021C0E9001107B0BDE8F08F0025E0
:100AA000AE4E2F46DFF8B882184600F02BFACDE99B
:100AB0000001B9F1000002DAC9F1000400E00446C7
:100AC0000023A74A1AEB030B42EB045A12E0E0079B
:100AD00007D02A46334638464146FFF7B1FC074661
:100AE00088462A46334610461946FFF7A9FC0546B4
:100AF0000E466410002CEAD1DDE90001B9F1000FC7
:100B00005A46534606DAFFF70DFD3A464346FFF7CD
:100B100009FD05E0FFF794FC3A464346FFF790FCD9
:100B2000029A0AB181F00041039AC2E90001B3E7D9
:100B30002DE9FF4F1F468DB0D7E901464FF0FF3832
:100B40002E2045464FF000090B90B9696D1C0E9898
:100B50008847396A824688470028F6D1BAF1FF3FB4
:100B60000AD024F4D064002E11DDBAF12B0F08D086
:100B7000BAF12D0F0BD102E0404611B08DE744F4DD
:100B80008064B9696D1C0E9888478246761E694656
:100B9000600501D52D2000E02B208DF8000001F12B
:100BA000010B0DF1200809E0B9696D1C0E9888470A
:100BB00082460F9844F40074761E0560002E02DD14
:100BC000BAF1300FF0D00B998A453ED144F0800441
:100BD00006E00F99681CA9F1010944F4007408604B
:100BE000B9696D1C761E0E98884782463028F0D071
:100BF0002BE00B998A4505D1200603D444F08004EC
:100C0000761E18E0504603F081F808B30DF1130288
:100C1000761EAAF1300044F40074934506D20BF816
:100C2000010B200607D5A9F1010003E0200602D43C
:100C300009F101008146A00502D50F99681C0860E2
:100C4000B9696D1C0E9888478246002ED1DC53E0AE
:100C5000002E51DDBAF1650F02D0BAF1450F4BD12C
:100C6000A00549D5B9696D1C24F44074761E0E9810
:100C700088478246002E0CDD2B2804D0BAF12D0FB8
:100C800007D144F48074B9696D1C0E988847824678
:100C9000761EE00501D52D2100E02B2108F8011B6F
:100CA000CDF82C8021E00DF12901761E44F400746A
:100CB00088450CD2AAF1300010F0FF0088F800003F
:100CC00002D10B99884509D908F1010806E0E00531
:100CD00001D5244801E042F20F708146B9696D1CCC
:100CE0000E98884782460F980560002E04DD504616
:100CF00003F00CF80028D6D1F9690E988847FF2038
:100D00008BF8000088F800000020069007904B4602
:100D10006A4608A906A8FFF777FEA00502D46FF07F
:100D200001002AE714F0240F0AD0E00714D1DDE90E
:100D300006123868031D3B600068C0E900120BE032
:100D4000DDE90601FFF7B3FC0146E00704D138688E
:100D5000021D3A600068016028460EE7000014405A
:100D60000000F03FF1D8FFFF426842B1016811F87E
:100D7000013B23B1521EC0E9001218467047012101
:100D8000C160881E704742685AB1C368016843B9A0
:100D900083688B4205D0491E521CC0E90012002016
:100DA00070474FF0FF3070472DE9F05F82460078C2
:100DB000002715468B460AF10104B946302801D0B8
:100DC0009DB113E014F8010B0127782803D05828AF
:100DD00001D045B10AE00DB1102D07D10027102533
:100DE00014F8010B02E0082500E00A250026B046B1
:100DF0000EE005FB080005FB06F1012701EB10469C
:100E00001FFA80F8B6F5803F00D3B94614F8010BFD
:100E1000294600F069F80028EBDABBF1000F05D095
:100E20000FB1641E00E05446CBF80040B9F1000F4A
:100E300006D002F0D5FE02210160C81EBDE8F09F79
:100E400048EA0640FAE72DE9F04D00231A461B1A3E
:100E50008A4103DB00200146BDE8F08DC1F30A5250
:100E6000C1F3130141F480154FF0000BD10702D1FB
:100E700000186D41521E0027044640F2FF1138460B
:100E800001EB620A3E468046024600204FF4801184
:100E9000FFF76AF9C2197141BB1846EB0100B4EBC8
:100EA000030C75EB000C04D3E41A65EB0005174640
:100EB0000E46241908F101006D4180463428E3DD17
:100EC000F91946EB0600091BA84103D24FF0FF3287
:100ED000134601E0002213461BEB070046EB0A51C4
:100EE000BDE8F04DFFF7E3BC3A2800D2303820F0DF
:100EF0002002412A01D3A2F13700884201D34FF0EA
:100F0000FF3070470EB540F2334202920022CDE925
:100F100000221346FFF7DAFC03B000BDFEE7000035
:100F2000E0B50DA00C21C0220C23CDE9001000205B
:100F3000002101F021FF01F0E3FC48B1642000F042
:100F400045F901F0DDFC18B101F0DAFC022800D00F
:100F50008CBD00F00BF800BF506C656173652073A9
:100F6000656C656374206D6F6465000084B000205B
:100F7000ADF80E0001F092FD104C0A20A04710A021
:100F80000C250021A8220C23CDE90050002001F0FF
:100F9000F3FE0FA01421A8221823CDE90050002051
:100FA00001F0EAFE40F6B83000F06CF83220A047BD
:100FB00000F020F84FF4FA60A047FEE7CD110008DA
:100FC0004261736520322044697374616E7400005D
:100FD000506C6561736520726561647920666F721B
:100FE0002064697374616E7420696E70757400009A
:100FF000704770477CB51B4D32202C6800F0E6F836
:101000002D6801F04BFD4FF4FA6000F0DFF816A0F8
:1010100018260021A8220C23CDE90060002001F051
:10102000ABFE28462146FFF720F90021FFF723F900
:10103000FFF705FB0246502000210523009601F032
:1010400049FE0CA01821A8220C23CDE90060002045
:1010500001F092FE8220182100220523009601F063
:1010600039FE7CBD1C000020436172205370656511
:1010700064200000436172204D6F6D656E74756D64
:101080002000000070B5124D0446284600F0B8FE5E
:10109000284600F00EFE284600F0A0FE4CF250302C
:1010A000844288BF70BD28680A4E00210022416238
:1010B0003046022100F06EF92868416AA142FCD353
:1010C000304602210122BDE8704000F063B900BF44
:1010D000A0070020000C014090F82110022919D12E
:1010E0000268116821F00E011160116821F0010100
:1010F00011602B4901F17C039A420FD9304B9A427F
:1011000024D0304B9A4223D02F4B9A4222D14FF415
:10111000807327E00421816301207047214B9A42AC
:1011200026D0214B9A4225D0204B9A4224D0204BE6
:101130009A4224D01F4B9A4217D01F4B9A4221D07B
:101140001E4B9A4211D14FF080721DE0012309E03D
:10115000102307E001F5886C4FF48033624508BF27
:101160004FF48053C1F800340FE04FF480320BE0AD
:10117000012209E0102207E04FF4807204E04FF4EE
:10118000805201E04FF480120A604FF480710184B4
:10119000416B19B180B58847002080BD00207047A1
:1011A00004000240080002401C00024030000240DF
:1011B00044000240580002406C000240800002409F
:1011C000080402401C04024030040240B0B504464A
:1011D00000F0E6F805468F48611C007818BF04440B
:1011E00000F0DEF8401BA042FAD3B0BD2DE9FC4F61
:1011F00081465D4806234FF001084FF00F0E4FF077
:10120000000A8145594808BF052348444FEAB022E7
:10121000052A38BF4FEAB0230093002200230C6850
:1012200034FA02F508BFBDE8FC8F08FA02F73C4229
:1012300000F096804D68032D16D9112D26D0122D61
:1012400028D04D48854213D04C48854210D04C4898
:1012500085420DD04B4885420AD04B48854207D085
:101260004A48854204D022E0DFE805F002181B1F3F
:101270008C6844B1012C14BFC9F81470C9F81070FF
:101280004FF0080A13E04FF0040A10E0CC6804F1B4
:10129000040A0CE0CC6804F10C0A08E0D1F80CA0B8
:1012A00005E0CC6804F1080A01E04FF0000A1C4692
:1012B0004846082A28BF203C28BF043006680EFA9A
:1012C00004F50AFA04F426EA05052C430460C879FB
:1012D000C00645D55E48264E22F003050446006848
:1012E000B346354440F001002060206800F0010062
:1012F000019003F00C00019E0EFA00F4244EB44657
:10130000AE5926EA0404009E06FA00F0204345F890
:101310000C004D68E803DBF8000054BF20EA070426
:1013200040EA0704CBF80040A803DBF8040054BFF0
:1013300020EA070440EA0704CBF80440E802DBF89F
:10134000080054BF20EA070440EA0704CBF808402D
:10135000A80208480446006854BFB84338432060D8
:10136000043301325BE700BF001C014000F8FEBF00
:10137000000401400C040140000011100000121094
:101380000000211000002210000031100000321077
:1013900008FCFFFF002A08BF090401617047000034
:1013A00005480068704700BF1A48034900780A687A
:1013B00010440860704700BFE008002080B59048E6
:1013C000016841F010010160032000F071F8002075
:1013D00000F004F800F020F8002080BD70B50D4E3C
:1013E00004464FF47A713078B1FBF0F09149096806
:1013F000B1FBF0F000F0FEFB01250F2C08D838B946
:101400004FF0FF3021460022002500F033F87460D1
:10141000284670BD0400002082B00D4802220168F9
:1014200041F001010160016801F0010101910199A0
:10143000416841F080514160406800F08050009068
:1014400000980448016862F31A61016002B07047B5
:101450001810024004000140002808DB00F01F01C2
:101460000122400902FA01F1014A42F820107047B6
:1014700000E100E080B5144B1B68C3F3022CBCF103
:10148000030E8CF007034FF0FF3C38BF4FF0000E07
:10149000042B28BF04230CFA03F399430CFA0EF330
:1014A00001FA0EF19A431143BDE8804002F054BBAB
:1014B00005494FF6FF030A681A4060F30A22034801
:1014C00010430860704700BF0CED00E00000FA0513
:1014D0002DE9F843002800F08E80884648490446EC
:1014E000086800F0070040450AD2086820F00700AD
:1014F00040EA08000860086800F0070040457AD11B
:1015000020685C4B8946810711D5410742BF1968A5
:1015100041F4E0611960010742BF196841F460516C
:1015200019601968A26821F0F00111431960C00721
:101530002AD06068012804D153F8041C890309D417
:1015400059E053F8041C022802D1890102D452E068
:10155000890750D519681D4621F00301084318601A
:10156000FFF71EFF064641F28837286861682B4660
:1015700000F00C00B0EB810F06D0FFF711FF801BCD
:10158000B842F2D9032037E0D9F8000000F0070094
:1015900040450DD9D9F8000020F0070040EA0800C6
:1015A000C9F80000D9F8000000F00700404522D13A
:1015B0002068410705D51968E26821F4E06111430C
:1015C0001960000706D51868216920F4605040EAC8
:1015D000C10018601C4600F031F82168094AC1F3C7
:1015E0000311515CC840F249086007480068FFF7E2
:1015F000F5FE002000E0012001B0BDE8F08300BF4F
:10160000002002408848000808000020E8481949E6
:10161000094A00680968C1F30221515CC84070475B
:10162000E3481449044A00680968C1F3C221515CC7
:10163000C84070470C0000209848000810B50D4CB9
:101640000D48226802F00C03082B18BF10BDC2F32E
:1016500083430AA1CB5CD10302D40D48584310BD8B
:1016600021680AA25843C1F34041515CB0FBF1F03C
:1016700010BD00BF0410024000127A0002030405EE
:10168000060708090A0B0C0D0E0F101001020000CE
:1016900000093D002DE9FC41002800F0408104468E
:1016A0000078C14EC0074AD0706800F00C000428D2
:1016B00017D0706800F00C00082802D17068C003D1
:1016C0000FD4606898B1B0F5803F06D03168B0F5AE
:1016D000A02F21D141F480203060306840F4803068
:1016E00020E0306880032AD5606840BB17E130688D
:1016F00020F480303060306820F480203060FFF7C4
:101700004FFE05463068800319D5FFF749FE411B9F
:1017100003206429F6D903E121F480303060306879
:1017200020F480203060FFF73BFE054630688003E0
:1017300005D4FFF735FE401B6428F7D9D1E02078A7
:1017400080072BD5706810F00C0F07D0706800F080
:101750000C00082809D17068C00306D430688007DF
:1017600015D52069012812D0D9E021698F480029B8
:101770007CD001210160FFF713FE05463068800729
:1017800005D4FFF70DFE401B0228F7D9A9E0306809
:10179000616920F0F80040EAC1003060207800075D
:1017A0002ED5A06978B181480121C0F88014FFF7D7
:1017B000F7FD0546706A800715D4FFF7F1FD401B61
:1017C0000228F7D98DE079480021C0F88014FFF78E
:1017D000E7FD0546706A800712D5FFF7E1FD401B63
:1017E0000228F7D97DE072484FF4FA510068B0FB47
:1017F000F1F0019000BF0198411E00280191F9D13C
:101800002078400776D5F069C0000BD4F0694FF01E
:10181000010840F08050F061F06900F080500090C5
:10182000009801E04FF00008624F3868C0050FD4FF
:10183000386840F480703860FFF7B2FD05463868BC
:10184000C00505D4FFF7ACFD401B6428F7D948E07C
:10185000E068D8B1012805D0316A05282DD141F0C2
:1018600004003062306A40F001002CE00021016089
:10187000FFF796FD0546306880077FF58FAFFFF7CD
:101880008FFD411B03200229F5D949E0306A20F081
:1018900001003062306A20F004003062FFF780FD02
:1018A000054641F28837306A80071CD5FFF778FD7E
:1018B000411B0320B942F6D932E021F00100306229
:1018C000306A20F004003062FFF76AFD054641F2FD
:1018D0008837306A800706D4FFF762FD401BB842A4
:1018E000F7D903201CE0B8F1000F1EBFF06920F00B
:1018F0008050F061E769002F53D0706800F00C0051
:10190000082810D1012F0AD07068216A00F48032B3
:101910008A4204D1616A00F47010884241D00120EB
:1019200002B0BDE8F0812149002088460866FFF733
:1019300037FD0546022F0AD147463068800110D591
:10194000FFF72EFD411B03200229F6D9E8E7306896
:10195000800126D5FFF724FD411B03200229F6D97B
:10196000DEE7206AB0F5803F05D17168A26821F4F6
:101970000031114371607168626A104321F474117F
:101980000843706001203866FFF70AFD044630689E
:10199000800106D4FFF704FD011B03200229F6D9BC
:1019A000BEE70020BCE700BF00100240000042423A
:1019B0000C0000200070004070B5B8B3002605464A
:1019C0004FF0000C866290F8510030B9284685F837
:1019D000506000F02FF8D5F828C0022185F851108A
:1019E00029680A6822F040020A60D5E90123D5E996
:1019F00003041A4310436A6920431043AA6902F49E
:101A000000731843EB6918432B6A184340EA0C0033
:101A10000860042000EA12404860C86920F40060B1
:101A2000C86101206E6585F8510000E0012630464E
:101A300070BD0000FEB501460020CDE90400CDE9EF
:101A400002001248096800F5205291421BD1DF497B
:101A50000A6842F480520A600A6802F480520192D5
:101A6000019A0A6842F004020A60096801F0040160
:101A7000019101990321059102210391A021029175
:101A800002A9FFF7B3FB06B080BD00BF000801400C
:101A90002DE9F843044690F85000012801D10220B6
:101AA000A4E04FF001091D4616460F4684F85090F9
:101AB000FFF776FC804694F85100012854D10120AC
:101AC000002F00F08E80002E00F08B800320731E0C
:101AD00084F851000020B3FA83F36065E686A68699
:101AE0002763A087A063C4E91000E0875B09A168B1
:101AF0002068B1F5004F02BF016841F480410160E8
:101B0000016849065EBF016841F0400101606168FB
:101B1000E268B1FA81F1B2F5006F4FEA511141EA82
:101B2000030123D131B137F8021BC1602763E08E76
:101B30000138E0866E1C13E020688168890707D4AD
:101B4000FFF72EFC66B1A0EB0800A84208D347E0DF
:101B5000216B31F8022BC2602163E08E0138E086F0
:101B6000E08E0028E8D124E002203AE039B139784B
:101B70000173206B01302063E08E0138E0866E1C1B
:101B800014E020688168890707D4FFF709FC6EB16B
:101B9000A0EB0800A84209D322E0216B0978017369
:101BA000206B01302063E08E0138E086E08E002853
:101BB000E7D120462946424601F0F9FB08B1202032
:101BC0006065A06838B9002000902068C168009165
:101BD000806800900098606D002818BF012000E028
:101BE0000320002184F8501084F8519001B0BDE822
:101BF000F0830000411E0020B0EB116F1CBF0120DC
:101C00007047044AF023516003490B70072190602C
:101C10001160704710E000E023ED00E0704770476E
:101C200090F83C20012A01D102211FE0B0B501F15A
:101C30000805D1E900CE3CCDC96923F47C5322F4D8
:101C400070521A432EF4F0431A432CF4E0431A4323
:101C500024F4C0431A432A4322F480421143026809
:101C60005164002180F83C10BDE8B0400846704740
:101C700090F83C300222012B19D080B580F83D202D
:101C800002685368D2F808C023F0700ED1E9003121
:101C900043EA0E0353602CF0800319439160002245
:101CA000012180F83C2080F83D10BDE880401046BE
:101CB0007047B0B110B5044690F83D0028B9002037
:101CC00084F83C00204600F00FF80220211D84F823
:101CD0003D00206801F010FC012084F83D00002048
:101CE00010BD012070470000FEB50021CDE90411B0
:101CF000CDE902110068B0F1804F14D02F4988421D
:101D000024D02F4988422AD02E4988424AD02E49D1
:101D1000884251D12D48016841F40061016000689A
:101D200000F4006046E029480022416841F00101CA
:101D300041600021406800F00100019001981C20E2
:101D4000FFF798FB1C20FFF787FB35E01F48416831
:101D500041F002014160406800F002002AE01B48A7
:101D6000416841F004014160416801F004010191C2
:101D70000199016841F02001016002A9006800F0AA
:101D80002000019001980020CDE903004FF440505D
:101D900002900F48FFF72AFA0E480F4A01681143D4
:101DA000016009E00948416841F00801416040686C
:101DB00000F008000190019806B080BD00040040CA
:101DC00000080040000C0040002C014018100240A8
:101DD000001401400400014000100007022180F8B7
:101DE0003D1001688A6802F00702062A1EBF0A68D1
:101DF00042F001020A60012180F83D100020704786
:101E0000022141F2111380F83D1001680A6A1A425A
:101E100008D10A6A40F244431A4203D10A6822F008
:101E200001020A60012180F83D100020704700681F
:101E300041F21112C16821F00101C160016A114231
:101E400008D1016A40F24442114203D1016821F0F5
:101E5000010101600020704710B590F83C20044655
:101E60000220012A08BF10BD84F83D0001204FF672
:101E7000777284F83C00206884465CF8083F23EAC7
:101E80000202CCF800200B682BB1102B03D0202BC2
:101E900018BF302B0FD1DCF8000020F07000184381
:101EA00040F00700CCF800000020012184F83C003D
:101EB00084F83D1010BD402B1AD0502B26D0602B3B
:101EC00032D0B3F5005F3DD0702BEDD1D1E90102E6
:101ED000C968104340EA0120DCF8001021F47F417A
:101EE0000843CCF80000DCF8000040F07700D9E7A8
:101EF0004B68CA68194601F0FDFBD4F800C05CF8D5
:101F0000080F40F0470020F03000CBE74B68CA686C
:101F1000194601F0EFFBD4F800C05CF8080F40F060
:101F2000570020F02000BDE74B68CA68194601F051
:101F30002BFCD4F800C05CF8080F40F0670020F0DC
:101F40001000AFE7D1E90102C968104340EA01205F
:101F5000DCF8001021F47F410843CCF80000DCF8E5
:101F6000000040F480409DE77047B0B50D4690F802
:101F70003C1004460220012908BFB0BD84F83D0092
:101F80000120042A84F83C000AD09AB9D5E900124D
:101F9000EB68206801F0C0FB206850F8181F24E0AF
:101FA000D5E90012EB68206801F0FFFB206850F8CB
:101FB000181F37E0D5E900C32168D5F80CE0082ADE
:101FC000086A17D120F480706EF307130862084680
:101FD00050F81C2F22F0F3021A430B6A0260CCF374
:101FE000560262F349230B62016821F00C01016083
:101FF000A9681CE020F480504FF2FF02086218022A
:1020000020EA0202084650F81C3F6EF30F3223F418
:1020100073431A430B6A0260CCF3520262F34D33EE
:102020000B62016821F440610160A968090202683D
:10203000114301600020012184F83C0084F83D1028
:10204000B0BDB0B110B5044690F83D0028B90020ED
:1020500084F83C00204600F00EF80220211D84F890
:102060003D00206801F048FA012084F83D0000207E
:1020700010BD01207047704710B504460068016923
:10208000890744BFC1685FEA817138D40169490793
:1020900044BFC1685FEA41713DD40169090744BF8B
:1020A000C1685FEA017143D40169C90644BFC168D0
:1020B0005FEAC16148D40169C9071CBFC1685FEA12
:1020C000C1714ED10169090644BFC1685FEA01616F
:1020D0004FD40169490644BFC1685FEA416150D4E9
:1020E0000169890646BFC1685FEA816110BD6FF072
:1020F000200101612046BDE81040FFF790BD6FF060
:1021000002010161012121778069800741D02046C9
:10211000FFF72AFF43E06FF00401016102212177FC
:10212000806910F4407F3ED02046FFF71DFF40E05D
:102130006FF00801016104212177C06980073CD05C
:102140002046FFF711FF3EE06FF01001016108210A
:102150002177C06910F4407F39D02046FFF704FF93
:102160003BE06FF001010161204600F03DF920687D
:10217000A8E76FF0800101612046FFF74FFD20685E
:10218000A7E76FF040010161204600F057F9206891
:10219000A6E7204600F06CF8204600F0D5F80020B5
:1021A0002077206872E7204600F062F8204600F0B1
:1021B000CBF80020207720686FE7204600F058F821
:1021C000204600F0C1F80020207720686CE7204608
:1021D00000F04EF8204600F0B7F800202077206885
:1021E00069E70000FEB50021CDE90411CDE9021137
:1021F0000068B0F1804F1ED07A4988422ED118482D
:10220000016841F04001016002A9006800F040004F
:10221000019001980220059003904FF40070029005
:10222000104800F58050FEF7E1FF0F480F4A0168A3
:102230001143016012E00A48016841F004010160A5
:1022400002A9006800F004000190019802200590A6
:102250000390012002900348FEF7C8FF06B080BD3E
:10226000181002400008014004000140C0000007AF
:102270007047000070B50D4690F83C1004460220EF
:10228000012908BF70BD84F83D004FEAB200012665
:10229000032884F83C6036D8DFE800F0020A1222F6
:1022A0002068294601F06EF9206850F8181F0EE0EA
:1022B0002068294601F094F9206850F8181F16E0AC
:1022C0002068294601F0BEF9206850F81C1F41F033
:1022D00008010160016821F00401016029690FE033
:1022E0002068294601F0E0F9206850F81C1F41F4ED
:1022F00000610160016821F48061016029690902BF
:10230000026811430160002084F83C0084F83D60BD
:1023100070BDB0B110B5044690F83D0028B900205A
:1023200084F83C00204600F00EF80220211D84F8BD
:102330003D00206801F0E0F8012084F83D00002015
:1023400010BD0120704770477047000010B504466B
:102350000068012201F006F920682149884202D074
:102360002049884203D1416C41F4004141648168B5
:1023700001F0070106291EBF016841F0010101605B
:10238000002010BD10B504460068002201F0EAF8F4
:1023900020681349884202D0124988420DD1016A4F
:1023A00041F21112114208D1016A40F24442114235
:1023B00003D1416C21F400414164016A41F21112E0
:1023C000114208D1016A40F24442114203D101682E
:1023D00021F001010160012084F83D00002010BDC2
:1023E00000340140002C014070B51049884200D0F3
:1023F00070BD10490E4D2868096801300029286019
:10240000F6D0002808BF70BD8842F1D1074C0021EA
:1024100000262046FFF7B6FF074806600120C5E901
:1024200000602046BDE87040FFF701BDE0060020D7
:1024300034000020440000203C000020704770471A
:1024400010B5D0F800E00446DEF80010DEF80C20ED
:10245000DEF814305FEA017C50D002F4907003F093
:102460000103C01852D0C8071FBF12F48070E06B80
:1024700040F00100E063480704D51BB1E06B40F079
:102480000200E063880704D51BB1E06B40F0040054
:10249000E063BCF1000F04D51BB1E06B40F0080015
:1024A000E063E06B00286ED002EA0100800604D5EC
:1024B000204601F0A9F9D4F800E0DEF81400E16B41
:1024C00000F0400001F0080140184CD0204601F017
:1024D0008EF920684169490640D5416921F04001E3
:1024E0004161606BD0B32F494163FEF7F5FD0028D1
:1024F00049D0606B416BBDE81040084711408A0627
:1025000005D52046BDE8104001F07EB9114008060F
:102510000FD4480637D5DEF80C0020F04000CEF886
:102520000C00202084F839002046BDE8104000F05F
:10253000E4B994F83900212825D1A068216AB0F5C2
:10254000805F16D108886FF35F20CEF80400206901
:10255000002814BF481C881C20620FE02046BDE8FC
:102560001040FFF76CBF2046FFF769FF0020E063D3
:1025700010BD481C20620878CEF80400E08C0138B9
:10258000E084000400D010BDDEF80C0020F08000D4
:10259000CEF80C00DEF80C0040F04000CEF80C0045
:1025A00010BD00BFE337000850B310B5044690F8E3
:1025B000390028B9002084F83800204600F022F8BD
:1025C000242084F839002068C16821F40051C160DA
:1025D000204601F055F92068016921F4904101611C
:1025E000416921F02A014161C16841F40051C16093
:1025F00000202021E06384F8391084F83A1010BDDF
:102600000120704770B586B000268F49CDE9046679
:10261000CDE902660068884237D06649884262D0B8
:102620006549884200F092806449884240F0C08049
:10263000634802AD416841F400214160416801F402
:10264000002101910199016841F0100101602946C2
:10265000006800F01000019001980320059002200E
:1026600003904FF480600290564800F500642046C5
:10267000FEF7BCFD00202946CDE903004FF40060C1
:1026800002902046FEF7B2FD92E04D484D4C02AD5F
:10269000416841F400314160416801F40031019129
:1026A0000199016841F0040101602946006800F0C9
:1026B000040001900198032005900220039004205B
:1026C00002902046FEF792FD0820CDE903662946D8
:1026D00002902046FEF78AFD262002210022FEF706
:1026E000C9FE262062E0364802AD416841F48021EF
:1026F0004160416801F4802101910199016841F034
:10270000080101602946006800F008000190019866
:1027100003200590022003904FF480600290294826
:1027200000F580642046FEF761FD00202946CDE9D2
:1027300003004FF4006002902046FEF757FD27206B
:1027400003210022FEF796FE27202FE01C481D4C97
:1027500002AD016841F480410160016801F48041EB
:1027600001910199016841F0040101602946006866
:1027700000F00400019001980320059002200390CE
:102780004FF4007002902046FEF730FD00202946ED
:10279000CDE903004FF4806002902046FEF726FD4D
:1027A000252001210022FEF765FE2520FEF754FEBC
:1027B00006B070BD0048004000380140004C0040A9
:1027C0001810024000080140034690F83A00202803
:1027D00006D10120E9B1E2B193F83800012801D116
:1027E000022070470020DA85D8639A8599622221F9
:1027F00083F8380083F83A101968CA6842F4807286
:10280000CA604A6942F001024A61CA6842F0200285
:10281000CA607047B0B50C4D0446006805F580618C
:10282000884202D101F0F2F8206805F5744188422F
:1028300002D101F031F92068A84218BFB0BDBDE84F
:10284000B04001F0EFB800BF004400402DE9F04176
:10285000044690F8390020280AD10E4601200029AC
:1028600049D01746002A46D094F83800012802D1F2
:102870000220BDE8F08100201D46E063012084F8BD
:102880003800212084F83900FEF78AFD8046E7846D
:10289000A7841DE0E08C802142462B460138E0846D
:1028A0002046A76801F02EF8B7F5805F0BD1C8B9B4
:1028B000318820686FF35F2141602069002814BFD0
:1028C0000136023604E068B9206816F8011B416041
:1028D000E08C0028DED12046402142462B4601F004
:1028E00011F810B10320BDE8F0810020202184F808
:1028F000380084F83910BDE8F0817047FEE7000029
:1029000070B5654CB24E0F21002200252046B0471D
:10291000204607210122B047204608210022B04767
:10292000A06800F0F000F02808D00A20FEF74EFC66
:10293000A06800F0F000F0284DD15CE020460F21A7
:102940000022B04720460B210122B0472046042137
:102950000022B047A06800F0F000F02807D00A205D
:10296000FEF734FCA06800F0F000F02847D12046C4
:102970000F210022B04720460D210122B0472046FA
:1029800002210022B047A06800F0F000F02807D034
:102990000A20FEF71BFCA06800F0F000F02840D1F0
:1029A00020460F210022B04720460E210122B047C9
:1029B000204601210022B047A06800F0F000F02876
:1029C00007D00A20FEF702FCA06800F0F000F02813
:1029D00039D1284670BDA06800F0F70077384FEA7B
:1029E0003010072807D80125DFE800F007050505A6
:1029F0003F054104A2E70025A0E704259EE7A06863
:102A000000F0FB007B384FEA301007283DD8052541
:102A1000DFE800F0053B3B3B2F3B3104A7E70825EF
:102A2000A5E7A06800F0FD007D384FEA30100728C8
:102A30002DD80925DFE800F0052B2B2B212B2304B3
:102A4000AEE70C25ACE7A06800F0FE007E384FEA48
:102A5000301007281DD80D25DFE800F0051B1B1BD3
:102A6000131B1504B5E71025B3E7032566E7022518
:102A700064E707257BE7062579E70B2590E70A251C
:102A80008EE70F25A5E70E25A3E700256FE70025B4
:102A900086E700259DE700BF0010014010B500202B
:102AA0000021002400F0ACF802E000F0B9F9013494
:102AB0000020B4F5C06FF8D32249002207E00023BC
:102AC00001E0C8540133082BFBD108310132C02A80
:102AD000F5D100200021BDE8104000F091B800BF02
:102AE000F8B50D46044600200021164600F088F88F
:102AF000204600F073F805F00707ED0866B1012ED7
:102B000016D1284600F076F80E490120B84001EBB6
:102B1000C4014A5D104309E0284600F06BF80949FA
:102B2000FE20B84001EBC4014A5D1040485503E067
:102B3000044800EBC400405DC0B2BDE8F84000F0BE
:102B40006FB900BF48000020F8B5C24CC24F022147
:102B5000002200252046B847204640210022B847E1
:102B60001C4E3220B047204640210122B847204663
:102B700002210122B8473220B047174CE220A0477B
:102B80003220B0472F20A0473220B047A320A047D3
:102B90008120A0478020A047EB20A047C420A04769
:102BA0000020002100F02CF802E000F039F9013596
:102BB0000020B5F5C06FF8D3002100F021F8AF2058
:102BC00000F014F93220BDE8F840FEF7FFBA00BF6C
:102BD00095130008CD110008ED2D000810B504462E
:102BE00000F00F0000F002F920091030BDE810409D
:102BF00000F0FCB840F0B00000F0BF0000F0F6B804
:102C000010B504460846FFF7E9FF2046BDE810402E
:102C1000FFF7F0BF2DE9FE4F8A46590706464FF0F1
:102C200001001C464FF000074FEAD301554618BF7C
:102C300000EBD3015808484323495FFA80F9A2F119
:102C40002000C2B202EBC200029201EB80000190B0
:102C50001E4800EB0210009031E0182C0CD0102C14
:102C60000CD00C2C18BFBDE8FE8F0298184900EB61
:102C7000400001EB800002E0019800E00098384439
:102C80004FF0000890F800B003E008F101084FEAA7
:102C90004B0BB8F1070F11D84FFA8BF0B0F1FF3F93
:102CA00004DCF0B2E9B20122FFF71AFF0135E8B205
:102CB000A0EB0A00A042E8D10136554601374F4546
:102CC000CBD3BDE8FE8F00BF0459000814530008A1
:102CD000A04E00082DE9F84F824610461C46894652
:102CE000FDF7A0FC06460A98013C0F464FF000088D
:102CF0004FF0000B00944508601C08BFBDE8F88F3A
:102D00002046FDF77EFC0B461A490246002001F0E2
:102D10001BF802460B4630463946FDF703FCFDF72B
:102D2000A7FC0A21BBF1000F90FBF1F101EB81013F
:102D3000A0EB410106D10098404503DD08060ED006
:102D40004FF0010B05FB08A030310A9BCAB2C0B29C
:102D50004946FFF75FFF013C08F10108CCE705FB9E
:102D600008A00A9B49462022C0B2FFF753FF4FF04C
:102D7000000BF0E7000024402DE9F84F0646DDF88F
:102D8000289058180C460B9F91191FFA80FB354666
:102D90004FEA59081FFA81FA10E0A8B2504524BF43
:102DA000F5B24C44A0B2584528BFBDE8F88FE8B250
:102DB000E1B24B46FFF72EFF454401373A78A2F1C6
:102DC0002000C0B25E28E8D9BDE8F88FB0B504464F
:102DD000002000210025FFF713FFB5F5C06F08BFE5
:102DE000B0BD605D00F01CF80135F6E7BCB56C4C79
:102DF0006C4D8DF80700022100222046A84720468E
:102E000010210022A8477A480DF1070101220A2368
:102E1000FEF73EFE204602210122A847BCBD00BFAE
:102E2000BCB55F4C5F4D8DF80700022100222046A3
:102E3000A847204610210122A8476D480DF107013F
:102E400001226423FEF724FE204602210122A84726
:102E5000BCBD00BF00080140951300082DE9F04FEC
:102E600085B04E484E4F4F4D0022016807F500686F
:102E700041F010010160016801F010010191019918
:102E8000016841F004010160016801F00401019151
:102E90000199016841F008010160016801F0080131
:102EA00001910199016841F040010160016801F060
:102EB000400101910199016841F0200101600F2159
:102EC000006800F02000019001984046A84738466D
:102ED00042210122A847384610210022A84707F5C1
:102EE000806640F2022101223046A84707F5805B48
:102EF000012101225846A8475846022100220224F7
:102F0000A84704944FF0000A01AC4FF001090F20CC
:102F1000254DCDF80CA0CDF80890019040462146F3
:102F2000A8470320214604904220CDE9029A01904F
:102F30003846A8470220214604901020CDE9029A85
:102F400001903846A847F020CDF80C90CDF808A0A5
:102F500021464FF0010901904046A8470320214631
:102F6000022704900220CDE9029A01903046A8473A
:102F70001120CDE903A72146002702904FF40070ED
:102F800001903046A84703202146CDE90370CDE9E2
:102F900001095846A84705B0BDE8F08F1810024057
:102FA0000008014095130008ED11000810B5104805
:102FB00000220A210F4C4FF0080C4FF4007E4FF412
:102FC0008273C0E90822C0E90A214FF40041C0E938
:102FD0000043C0E90212C0E90422C0E906ECFEF792
:102FE000EBFC002814BFBDE8104010BDFEF701B88F
:102FF0004806002000300140B0B596B009AC00256D
:103000001C212046CDE91455CDE91255CDE91055C6
:10301000FDF7C1F801A82021FDF7BDF829482A4B8A
:10302000472244F62061C0E90032C0E90251C0E9FC
:1030300004558561FEF73DFE08B1FDF7DAFF4FF458
:10304000805012A912901F48FEF706FF08B1FDF745
:10305000D0FF1C48FFF75DF908B1FDF7CAFF00205B
:1030600010A9CDE910001748FEF702FE08B1FDF7E0
:10307000C0FF40F2AA5014210A906020099004F188
:103080000800FDF788F80F48214600220025FFF7C9
:10309000F1F808B1FDF7ADFF01AC14212046FDF7B2
:1030A0007AF84FF400500895214606900548FEF73F
:1030B000B7FD08B1FDF79DFF0248FFF793F816B082
:1030C000B0BD00BFA0060020002C014010B58EB09E
:1030D000002401A81C21CDE90C44CDE90A44CDE926
:1030E0000844FDF758F81E4840F2E73147224FF0F8
:1030F00080438461C0E90032C0E902410461FEF707
:10310000D8FD08B1FDF775FF4FF480500AA90A9069
:10311000F848FEF7A1FE08B1FDF76BFFF548FFF791
:10312000F8F808B1FDF765FFF248002408A9CDE9D9
:103130000844FEF79DFD08B1FDF75BFF6020059494
:10314000CDE9024401A900220190EA48FFF792F874
:1031500008B1FDF74EFFE748FFF744F80EB010BD89
:10316000E006002010B586B01648FB4C00214FF455
:103170007A724723CDE90411CDE902118161C0E9DA
:103180000043C0E902120161CDE90011FEF791FD93
:1031900008B1FDF72EFF4FF4805002A902900948B4
:1031A000FEF75AFE08B1FDF724FF00206946CDE97D
:1031B00000000448FEF75CFD08B1FDF71AFF06B0F9
:1031C00010BD00BF2007002010B58AB02448E34A94
:1031D0000021CDE90811CDE90611CDE90411816185
:1031E000C0E90021C0E902110161CDE90211CDE978
:1031F0000011FEF75EFD08B1FDF7FBFE4FF48050B5
:1032000006A906901648FEF727FE08B1FDF7F1FE65
:103210001348FEF716FF08B1FDF7EBFE1048002437
:1032200004A9CDE90444FEF723FD08B1FDF7E1FE52
:103230000120CDE9024469460022CDE9004008485A
:10324000FEF793FE08B1FDF7D4FE05486946042257
:10325000FEF78BFE08B1FDF7CCFE0AB010BD00BF33
:103260006007002010B586B01648BD4C00214FF60F
:10327000FF724723CDE90411CDE902118161C0E954
:103280000043C0E902120161CDE90011FEF711FD12
:1032900008B1FDF7AEFE4FF4805002A90290094834
:1032A000FEF7DAFD08B1FDF7A4FE00206946CDE97E
:1032B00000000448FEF7DCFC08B1FDF79AFE06B0FA
:1032C00010BD00BFA007002010B50B480B4C4FF4F9
:1032D000E13300210C22C0E90043C0E90211C0E93A
:1032E0000412C0E90611FFF75FF9002814BFBDE81A
:1032F000104010BDFDF77DBEA0080020004C00402E
:1033000010B50B480B4C4FF4E13300210C22C0E9FF
:103310000043C0E90211C0E90412C0E90611FFF739
:1033200043F9002814BFBDE8104010BDFDF761BE91
:10333000E00700200038014010B50B480B4C4FF45B
:10334000E13300210C22C0E90043C0E90211C0E9C9
:103350000412C0E90611FFF727F9002814BFBDE8E1
:10336000104010BDFDF745BE20080020004400407D
:1033700010B50B480B4C4FF4E13300210C22C0E98F
:103380000043C0E90211C0E90412C0E90611FFF7C9
:103390000BF9002814BFBDE8104010BDFDF729BE91
:1033A0006008002000480040FEE77047704710B5F5
:1033B00013460A468021044600F00AF800280FBF91
:1033C0000020606D40F02000606518BF032010BD34
:1033D0002DE9F041984616460F460446551C2068D4
:1033E00080683840B8421CBF0020BDE8F081002D45
:1033F000F5D0FDF7D5FFA0EB0800B042EFD3206871
:10340000416821F0E00141606168B1F5827F0AD135
:10341000A168B1F5004F02D0B1F5806F03D101680A
:1034200021F040010160A16AB1F5005F07D1016898
:1034300021F400510160016841F400510160002055
:1034400084F85000012084F851000320BDE8F08189
:103450007047FDF7A9BFB0B590B000244FF4E0105D
:1034600002250121CDE90B44CDE909440F904FF429
:1034700080300E900D950A910894CDE9061006A8AB
:10348000FEF708F94FF480600594022104900F20A4
:10349000CDE90254019001A8FEF71AF810B0B0BDB2
:1034A0000E480F4A016841F0010101604168114076
:1034B0000C4A4160016811400160016821F48021DB
:1034C0000160416821F4FE0141604FF41F018160F9
:1034D00005484FF000610160704700BF00100240D6
:1034E0000000FFF8FFFFF6FE08ED00E00148FEF7E0
:1034F000C3BD00BFE00600200268B0F1804F0ED0CF
:103500009C4B98420BD09C4B984208D09B4B9842C6
:1035100005D09B4B984202D09A4B984208D14B68F9
:1035200022F45C7CCA6823F4407343EA0C031A4318
:103530004B6922F080021A4302608A68C2620A68FC
:1035400082628F4A904202D08E4A904201D109692C
:103550000163012141617047000400400008004000
:10356000000C004001F01F01012303FA01FC036A73
:1035700002FA01F123EA0C030362026A11430162B9
:103580007047000070B5026A22F001020262026A0E
:10359000D0F804E0D0F818C08C680B6822F0020262
:1035A00022432CF0730444EA030C754B984202D07A
:1035B000744B98420CD1CE68D1E905452EF4407386
:1035C00022F00C02234343EA050E26F004031A43BB
:1035D000C0F804E0C0F818C049684163026270BDD9
:1035E00070B5026A22F010020262026AD0F804E0AA
:1035F000D0F818C08C680B6822F0200242EA04124E
:103600002CF4E64444EA032C5D4B984202D05D4B17
:1036100098420FD1CE68D1E905452EF4406322F0DF
:10362000C00243EA840343EA850E6FF0400303EAD5
:1036300006131A43C0F804E0C0F818C04968816353
:10364000026270BD70B5026A22F480720262026A80
:10365000D0F804E0D0F81CC08C680B6822F400722B
:1036600042EA04222CF0730444EA030C444B9842CF
:1036700002D0444B98420FD1CE68D1E905452EF4D3
:10368000405322F4406243EA041340F2FF4443EA09
:10369000051E3302A3431A43C0F804E0C0F81CC05F
:1036A0004968C163026270BDB0B5026A22F48052FB
:1036B0000262026AD0F804E0C5698B680C6822F4E3
:1036C000005242EA033C2E4B25F4E64242EA042231
:1036D000984202D02B4B984204D14B692EF480457E
:1036E00045EA831EC0F804E0C26149680164C0F87D
:1036F00020C0B0BDD0F820C0036A23F001030362EC
:10370000836923F0F00343EA021282612CF00A027B
:10371000114301627047000010B5D0F820C0B0F12D
:10372000804F2CF0010CC0F820C0D0F818E0D0F881
:1037300020C00ED00F4CA0420BD00F4CA04208D09E
:103740000E4CA04205D00E4CA04202D00D4CA0421F
:103750000CD12EF00304224363F3071201F00A0197
:1037600082612CF00A021144016210BD4EF0010288
:10377000F2E700BF0004004000080040000C0040D9
:1037800000340140002C0140036A23F0100303625F
:10379000836923F4704343EA0232036A826123F0AF
:1037A000A00242EA011101627047D0F820C001F086
:1037B0000A012CF0100CC0F820C04FEA022C4FF286
:1037C000FF022CEA020263F30F32836923F473438E
:1037D0001A43036A826123F0A00242EA01110162E6
:1037E0007047406A0021C185C184FEF728BE016888
:1037F000CA6822F49072CA604A6922F001024A61E2
:10380000202180F83A10704790F83A10222918BF0A
:1038100070478168B1F5805F08D102680369816AE9
:10382000526883B1D2B221F8012B10E0026901681D
:103830004968002A826A02F10103836218BF01F01D
:103840007F01117004E06FF35F2221F8022B816287
:10385000C18D0139C185090400D070470168CA686B
:1038600022F02002CA60CA6822F48072CA604A69E3
:1038700022F001024A61202180F83A10FEF7CABF07
:1038800010B5044600680169E26821F44051114313
:1038900041F20C620161D4F808C0D4E904E3C168C4
:1038A00091434EEA0C021A431143C1604169A26977
:1038B00021F44071114341611149884202D0FDF762
:1038C000A5FE01E0FDF7ACFE19214843D4E9001242
:1038D0006FF063049200B0FBF2F06422B0FBF2F3ED
:1038E00003FB0400322404EB0010B0FBF2F000F004
:1038F000F00200F00F0002EB03121044886010BDCC
:10390000003801402DE9F0411D4690460F4604461F
:103910005E1C206801683940B94204BF0020BDE840
:10392000F081002EF5D035B1FDF73AFDA0EB08008F
:10393000A842EED92068C16821F4D071C160416904
:1039400021F0010141612020002184F8390084F830
:10395000381084F83A000320BDE8F0817D48FEF776
:103960006FBD00BF4A48FEF76BBD00BF2C48FEF795
:1039700067BD00BFFEE7000075480122811C284892
:10398000FEF722BF10B54FF47A70FDF71FFC074C0D
:1039900007A1082264232046FEF758FF6C48012245
:1039A000C11C2046BDE81040FEF70EBF20080020D5
:1039B000694641434D0D0A006548072200F1100198
:1039C0006448FEF701BF00BFFFF7F6FFFFF7D4FF23
:1039D000FFF7D8FF0B4C00212046FEF7B7FCFFF79E
:1039E000B3F80948FFF7F2F94FF47A70FDF7EEFBF0
:1039F000FFF754F8206840F6C4114163FDF790FAD0
:103A0000FCE700BFA0060020A0480008504801467F
:103A100011F8022F027002480122FEF7D5BE00BF46
:103A200060080020BCB54A4C2179E0786218013169
:103A30000A28107621714FF00001ADF804100091B2
:103A400020D1207E452807D112490020C4E9060074
:103A50002062E160207115E0002584F82150A4F86F
:103A60001F502583D4F81A000090A07F8DF8040021
:103A7000684600F052F9C4E9065525622571FCF745
:103A800016FEE0600248E11C0122FEF79DFEBCBD6F
:103A900020080020000020417CB52D4C00208DF82E
:103AA0000600ADF804008DF80200ADF80000A07D1E
:103AB0000A2820D134F8100FADF80400A0786179FD
:103AC0008DF80600B4F803008DF80210ADF8000080
:103AD00001A8FCF76BFB24F80A0C6846FCF766FBB0
:103AE00024F8080C1B4821460722FEF76DFE012032
:103AF00004F80F0C7CBD0025E9B2062921D8601816
:103B00002E460135007C0A28F6D104F1100001315F
:103B1000FCF741FB304603E021440130097C61742D
:103B2000C1B201310629F7D9B01CC0B2204400F15E
:103B30001001E8B2C0F1060082B20648FEF744FE6A
:103B40007CBD044804F110010722FEF73DFE7CBD58
:103B500010000020E007002010B5074C00F00F0314
:103B6000044AB0F1FF3F2344C8BF8318080118700E
:103B700010BD00BF00E400E014ED00E0FDF71EFC06
:103B8000FFF769FCFFF76AF9FFF710FAFFF7EAFAA7
:103B9000FFF7B6FBFFF7D0FBFFF7EAFBFFF762FB8F
:103BA000FFF72AFAFFF792FAFFF70EFBFFF78CFBFD
:103BB000FFF70AFFFCE7490050EAC12018BF0420C4
:103BC0004A0D18BF40F0010040F2FF72B2EB515FA6
:103BD00008BF40F00200012808BF05207047000020
:103BE00000487047000000202DE9F0414F1E00EB17
:103BF000C7010446D1E9000115461E4637F006020A
:103C00000DD02A463346FCF71BFC7F1E04EBC7038E
:103C1000D3E90023FCF76DFB37F00602F1D1022F48
:103C200025D0042F13D0062F18BFBDE8F0812A46F7
:103C30003346FCF705FCD4E90A23FCF75AFB2A4675
:103C40003346FCF7FDFBD4E90823FCF752FB2A4678
:103C50003346FCF7F5FBD4E90623FCF74AFB2A467A
:103C60003346FCF7EDFBD4E90423FCF742FB2A467C
:103C70003346FCF7E5FBD4E90223FCF73AFB2A467E
:103C80003346FCF7DDFBD4E90023BDE8F041FCF747
:103C900030BB00000022134610460149FCF742BC2D
:103CA0000000F03FFCF725BB0022134610461146EA
:103CB000FCF738BC40F2013200204FF0E041FCF745
:103CC00053BE0000024A00201107FCF74DBE000061
:103CD00001FDFFFF01480068704700000000002060
:103CE00002E008C8121F08C1002AFAD170477047C5
:103CF000002001E001C1121F002AFBD17047000023
:103D000001490860704700000000002030380A2890
:103D100001D2012070470020704730B583B00446BF
:103D2000FFF7D8FF05460020CDE900000246012339
:103D300021466846FCF717FD2846FFF7E1FFDDE95D
:103D4000000103B030BD00002DE9F04D1D460C46CA
:103D500098B0174621F0004123F00043002814BF1B
:103D60004FF0010C4FF0000C0CEB440CFE4A0CEB36
:103D700002064FEA620C66452BD33E0018BF0126AF
:103D800006EB45061644F94A964222D3F84A53EA0E
:103D9000070C02D0944205D148B918B00020114652
:103DA000BDE8F08D002808BF4FF0000C01D04FF0A7
:103DB000010C0CEB440212F5001F0AD8002F14BFAF
:103DC0004FF0010C4FF0000C0CEB450212F5001FF8
:103DD00007D918B03A462B462146BDE8F04DFFF70B
:103DE00061BF0022DFF88CA3002CB8BF534526DA50
:103DF000DFF884C36345A8BF022220DADFF870C36E
:103E00009C451CDCDFF874C30CEB235CBCF1140F85
:103E100008DDCCF1340627FA06FC0CFA06F6BE42A1
:103E20000DD108E05FB9CCF1140623FA06FC0CFAB8
:103E300006F69E4203D10CF00102C2F1020251EAE1
:103E4000000C19D1002D17DA002C18BF022A01D05E
:103E5000012A07D00220FFF753FF18B0BDE8F04D4C
:103E6000FFF718BF0220FFF74BFFFFF713FF18B053
:103E700081F00041BDE8F08DB7F1000C6CD15345E5
:103E800025D104F1804212F5801201BF00280020E4
:103E9000B74918B008BFBDE8F08DB548884207DCC7
:103EA000002DA1BF6046294618B0BDE8F08D07E09F
:103EB000281E05DA80F0004118B06046BDE8F08D9C
:103EC000AF497944D1E9000118B0BDE8F08DDFF8C1
:103ED000A0C2634525D1002D1FDA19B1514512D179
:103EE000D8B909E0002840F0EC82A24A214618B077
:103EF00062F31E01BDE8F08D0020214618B060F38A
:103F00001E01BDE8F08D08DA18B02346BDE8F04D7B
:103F1000024600206146FCF705BB18B02146BDE80B
:103F2000F08D514518DAB5F1804F0DD0A5F1005C48
:103F3000BCF1FF5C10D1B4F1000C0DDB18B0614690
:103F4000BDE8F04D00F0ECBB234618B00246BDE8DA
:103F5000F04D1946FCF774BA060024F0004C3BD132
:103F6000D9B1514533D1002C06DD002DA1BF002071
:103F7000514618B0BDE8F08D002C01DD002D1BDB93
:103F8000002C13DA002D11DB012A4FF0000014BFC2
:103F900078497C4918B0BDE8F08D022A18BF002C82
:103FA0000AD0012A08D1002C06DA0AE0002CB8BF9A
:103FB000002D11DA012A04D0002018B00146BDE816
:103FC000F08D18B000204FF00041BDE8F08DA1F158
:103FD0004050B0F17F601AD0012000EBE47050EA4D
:103FE000020421D0624C521E4FF0000B104304BF5C
:103FF0004FF0000B644C654883427CDD644A6548A1
:1040000093421FDD884217DB002D25DB37E0002CB3
:1040100000DA4AB1022A0CBF01204FF0FF3018B07D
:10402000BDE8F04DFCF7EDBA0120FFF769FE18B0CE
:10403000BDE8F04DFFF738BE4D4A8A4202DC002D44
:104040000ADC1CE0814202DA002D18DA04E0484B59
:10405000994220DD002D12DD0220FFF751FEFFF70F
:1040600029FE05460E460022534658462146FCF7D7
:10407000E7F918B066F31E012846BDE8F08D02206E
:10408000FFF73EFEFFF71EFE0A46214618B062F318
:104090001E01BDE8F08D002230466146FCF7CAF9EA
:1040A00080460E466FF00102FCF75EFC4FF0553281
:1040B000394BFCF7C2F942463346FCF7C1F90022FE
:1040C000364BFCF7BAF98246424633460491104615
:1040D0001946FCF7B5F95246049BFCF7B1F98A463C
:1040E00000904FF0C0422E4B40463146FCF7A8F9F5
:1040F0002C4A2B4B00E027E0CDE906015146009801
:10410000FCF79EF982460191274A284B40463146EA
:10411000FCF796F95246019BFCF78CF982460B4658
:1041200002460591DDE90601FCF7E3F8DDE9062327
:10413000002688463046FCF77DF95246059BFCF781
:104140007CF9024600F07EB90020B1F5801F07DA45
:10415000352230466146FCF707FC06466FF0340016
:1041600000EB215024E00000FFFF1F00FFFF0F00C5
:104170000000F03F0000F07F0000404301FCFFFF23
:10418000320900000000F0FF0000F0BF0000E04135
:104190000000F043FFFFEF3F5555D53F0000E03FE3
:1041A0004715F73FFE822B6544DF5DF80BAE543EAA
:1041B000A0F2FF300190C1F3130040F07F6141F0A5
:1041C00040510291FE498842D8BF002004DDFD49DC
:1041D0008142C8BF012001DD0D9008E000200D9054
:1041E0000198401C01900298A0F58010029002995D
:1041F000F54878440B910D9900EBC100D0E90023FC
:104200000F9330460A920B99FCF714F9CDE9060199
:10421000DDE90A2130460F9BFCF76BF802460B469E
:104220000020EA49FCF77EF9059102460B46009012
:10423000DDE90601FCF704F91490E5488A464FF0E1
:10424000000878440299006812904FF0005040EA4C
:1042500061010D980F9B01EB804000F50021099151
:104260000A9A1298FCF7E6F832460B9BFCF7E5F841
:1042700042465346FCF7E4F8064602914046514652
:10428000099B129AFCF7DCF8DDE90623FCF7D5F868
:104290003246029BFCF7CEF8059B009AFCF7D0F85B
:1042A0000091149A0490534610461946FCF7C8F83A
:1042B00006460246C7480B46029106217844FFF79E
:1042C00093FCCDE90510029B324610461946FCF7D7
:1042D000B7F8DDE90532FCF7B3F805910646534619
:1042E00040461946149AFCF704F8009B049AFCF720
:1042F000A7F83246059BFBF7FCFFCDE905104246C7
:10430000534610461946FCF79BF80022B24B029127
:104310000A90FBF7EEFFDDE90532FBF7EAFF0E46F8
:104320004246AD4B4046FCF785F8029B0A9AFCF7E3
:1043300081F8DDE90532FCF780F8424602910A90E7
:10434000334610465146FCF77BF8CDE9060153464B
:10435000149A02990A98FCF773F88A460290334639
:10436000424600990498FCF76BF85346029AFBF713
:10437000C0FF82460B4602460591DDE90601FBF7C8
:10438000B8FFDDE90623002088460646FCF752F810
:104390005246059BFCF751F8824609914FF0604266
:1043A0008E4B30464146FCF74BF8049006918C4A00
:1043B0008A4B50460999FCF743F882460291894A94
:1043C000894B30464146FCF73BF85246029BFBF7CF
:1043D00090FF864B7B440D9A03EBC203D3E9002385
:1043E000FBF787FF0E9007910198FCF70AF90591FA
:1043F000DDE9061382460E9A0498FBF77AFF7C4AA1
:104400007A440D9B02EBC303D3E90023009302928D
:10441000FBF76FFF5246059BFBF76BFF00268846B4
:1044200052463046059BFCF705F8009B029AFCF7C4
:1044300001F8069B049AFBF7FDFF079B0E9AFBF71A
:10444000FCFF024600200B46029038462946FBF747
:10445000F7FF824601912B4638461946029AFBF730
:10446000E9FF32464346FBF7EBFF5246019BFBF761
:1044700040FF07468A463246434629460298FBF7E4
:10448000DFFF05460E463A465346FBF732FF594AD0
:104490008846914221DBA8EB020353EA000210D1C7
:1044A0002A463346FBF7C6FFCDE90401524A534B77
:1044B00038465146FBF71DFFDDE90423FCF76CFA93
:1044C00021D20220FFF71CFCFFF7F4FB0A4621462D
:1044D00018B062F31E01BDE8F08D494B28F0004290
:1044E0009A4210D3474A08EB020353EA00027FF4D2
:1044F000C6AD2A463346FBF79DFF3A465346FCF7C6
:104500004BFA7FF6BCAD0022019228F000403E49F4
:104510003E4A01EB2051824223DA481C4FF48011BD
:1045200021FA00F040443A4AC0F30A517A44394B28
:10453000A1F2FF31CB4020EA0303C0F3130040F4A3
:104540008010C1F11401C84012680190B8F1000F49
:10455000BCBF4042019028463146FBF76BFF054641
:104560000E462A46334638465146FBF7C2FE4FF008
:1045700000084246284B40460591FBF761FFCDE914
:104580000601264A264B40460599FBF759FF009144
:1045900002902A46334640460599FBF74BFF3A46C0
:1045A0005346FBF74AFF1F4A1F4BFBF749FF009B8F
:1045B000029AFBF79EFE0746884602460B4635E008
:1045C0008E9803007AB60B007A0500000000F03FD9
:1045D000B2050000E00400000000084009C7EE3FFB
:1045E000FD033ADCF5015B14E02F3EBEB80300008A
:1045F0007C03000000009040FE822B654715973C2D
:1046000000CC904000346F3F01FCFFFF0000E03F12
:10461000C8020000FFFF0F00432EE63F396CA80CD4
:10462000615C20BEEF39FAFE422EE63FDDE906016D
:10463000FBF75FFEDDE9062305460E46FBF7FAFEB3
:104640003A464346FBF7F9FE0F462A4633460090AA
:1046500010461946FBF7F4FE824602462E4888466D
:104660000B4605217844FFF7BFFA52464346FBF755
:10467000E7FE2A463346FBF7E0FE80468A463B4685
:1046800028463146009AFBF7DBFE3B46009AFBF7D3
:1046900030FE0691009000224FF080434046514684
:1046A000FBF7C8FE0F460C9042465346284631465B
:1046B000FBF7C6FE3B460C9AFBF734FF069B009ABD
:1046C000FBF7B8FE2A463346FBF7B4FE0022134B35
:1046D000FBF7B3FE054601980E4601EB00510815A5
:1046E000002810DC28463146019AFCF73DF9FFF717
:1046F00062FA042808BFFFF7E5FA28463146019A16
:10470000FCF732F905460B4618B02A4658462146B2
:10471000BDE8F04DFBF794BE680100000000F03FDB
:104720002DE9F04106460F46FCF78DFB041E0D46B1
:1047300018BF0120284320F00040C0F17F6000F145
:10474000E040C00F0ED0301C18BF0120384320F0CD
:104750000040C0F17F6000F1E040C00F04BF0120C5
:10476000FFF7CEFA20462946BDE8F08100000000A0
:10477000000000000000F03F000000000000F83FD3
:1047800000000000000000000000004003B8E23F0D
:10479000000000000000000006D0CF43EBFD4C3EBF
:1047A000033333333333E33FFFAB6FDBB66DDB3FB4
:1047B0004D268F515555D53F01411DA96074D13FFC
:1047C00065DBC9934A86CD3FEF4E454A287ECA3FF6
:1047D0003E5555555555C53F93BDBE166CC166BF78
:1047E0002CDE25AF6A56113FF16BD2C541BDBBBE71
:1047F000D0A4BE726937663E0000000000000000D1
:1048000000404040404040404040414141414140E3
:104810004040404040404040404040404040404098
:104820004005020202020202020202020202020227
:10483000022020202020202020202002020202022C
:104840000202909090909090101010101010101084
:104850001010101010101010101010100202020290
:1048600002028888888888880808080808080808D4
:1048700008080808080808080808080802020202D0
:104880004000000001480008000000000000000097
:1048900001020304060708090000000001020304E6
:1048A0000000000000000000000000000000000008
:1048B00000000000000000000000000000000000F8
:1048C00000000000000000000000000000000000E8
:1048D00000000000000000000000000000000000D8
:1048E000000000E0E0E0E0E0E0E0E0E0E0E0E0E068
:1048F000E0E0E0E0E0E0E0E0E0E0E0E0E0E0E0E0B8
:10490000E0E0E0E0E0E0E0E0E0E0E0E0E0E0E0E0A7
:10491000E0E0E0E0E0E0E0E0E0E0E0E0E0E0E0E097
:10492000E0E0E0E0E0E0E0E0E0E0E0E0E0E0E0E087
:10493000E0E0E0E0000000000000000000000000F7
:104940000000000000000000000000000000000067
:104950000000000000000000000000000000000057
:104960000000000000000000000000000000000047
:104970000000000000000000000000000000808037
:1049800080808080C0E0E0F0F0F0F0F0F0E0F0F047
:10499000F0FCFCFCFCFCFCFCFCFCFCFCFCFCFCFC63
:1049A000FCFCFCFFFFFFFFFFFFFFFFFFFFFFFFFF20
:1049B000FFFFFFFFFFFFFFFFFFFFFFFFFFFFFFFF07
:1049C000FFFFFFFFFFFFFFFFFFFFFFFFFFFFFFFFF7
:1049D000FFFFFFFFFFFFFFFFFFFFFFFFFFFFFFFFE7
:1049E000FFFFFFFFFFFFFFFFFFFFFFFFFFFFFFFFD7
:1049F000FFFFFFFF000000000000000000000000BB
:104A000000000000000000000000000000000000A6
:104A10000000000000000000000000000000000096
:104A20000000000000000000000000000000000086
:104A300000000000000000005C7C7CFE7EFEFFFFAA
:104A4000FFFFFFFFFFFFFFFFFFFFFFFFFFFFFFFF76
:104A5000FFFFFFFFFFFFFFFFFFFFFFFFFFFF9F9F26
:104A60009F9F9FFFFFFFFFFFFFFFFFFFFFFFFFFF76
:104A7000FFFBFFF7FBFFFFFFFFFFFFFFFFFFFFFF56
:104A8000FFFFFFFFFFFFFFFFFFFFFFFFFDFFFFFF38
:104A9000FFFFFFFFFFFFFFFFFFFFFFFFFFFFFFFF26
:104AA000FFFFFFFFFFFFFFFFFFFFFFFFFFFFFFFF16
:104AB000FFFFFFFF000000000000000000000000FA
:104AC00000000000000000000000000000000000E6
:104AD00000000000000000000000000000000000D6
:104AE00000000000000000000000000000000000C6
:104AF0000000000000000000000000000000030FA4
:104B00001F1F1F1F7F7F7F7F7F7FFFFFFFFFFFFF35
:104B1000FFFFFFFFFFFFFFFFFFFFFFFFFFFFFFFFA5
:104B2000FFFFFFFFFFFFFFFFFFFFFFFFFFFFFFFF95
:104B3000FFFFFFFFFFFFFFFFFFFFFFFFFFFFFFFF85
:104B4000FFFFFFFFFFFFFFFFFFFFFFFFFFFFFFDF95
:104B50009FDFDFDFDFDFDFDFCFCFEFF3F3F3F3F351
:104B6000F7FFFFFFFFFFFFFFFFFFFFFFFFFFFFFF5D
:104B7000FFFFFFFF00000000000000000000000039
:104B80000000000000000000000000000000000025
:104B90000000000000000000000000000000000015
:104BA0000000000000000000000000000000000005
:104BB00000000000000000000000000000000000F5
:104BC00000000000000000000000000301030301DA
:104BD000030303030307070F0F0F0F0F0F0F0F0F31
:104BE0000F0F0FFFFFFFFFFFFFFFFFFFFFFFFFFFA5
:104BF000FFFFFFFFFFFFFFFFFFFFFFFFFFFFFFFFC5
:104C0000FFFFFFFFFFFFFFFFFFFFFFFFFFFFFFFFB4
:104C1000FFFFFFFFFFFFFFFFFFFFFFFFFFFFFFFFA4
:104C2000FFFFFFFFFFFFFFFFFFFFFFFFFFFFFFFF94
:104C3000FFFFFFFF00000000000000000000000078
:104C40000000000000000000000000000000000064
:104C50000000000000000000000000000000000054
:104C6000000000000000000000000000000000E064
:104C7000F0F0E0E0E0E0E0E0E0E0E0E0E0E0E0E014
:104C8000E0E0E0E0E0E0E0E0E0E0E0C0C0C0F0F064
:104C9000F0E0E0E0E0E0E0F0E0F0E0C0C0C0000004
:104CA000000000E1E1F1E1E1E1E1E1E1E1F1F1F157
:104CB0002141E1E1E1E1E1E1E1E1E1F1010101E1D4
:104CC000F1E1E1E1E1E1E1E1E1E1E1E1E1E1E1E1C4
:104CD000E1E1E1E1E1E1E1F1C1C1C18181810101F4
:104CE00001F1F1E1E1E1E1E1E1F121010101010184
:104CF000010101018080E0F0E0E0E0E0E0E0E0E0E0
:104D0000E0E0E0E0E0E080808000000000000000E3
:104D10000000000000000000000000000000000093
:104D2000000000000000000000000000000000FF84
:104D3000FFFFFFFFFFFFFFFFFFFFFF010101010179
:104D40000101030303FFFFFFFFFFFFFFFFFFFF075B
:104D5000FF0707077F7F7FFFFFFFFFFFFFFFF8F8D9
:104D6000FCFEFEFFFFFFFFFFFFFF1F1F1F010101F2
:104D700000EEFFFFFFFFFFFFFFFFFFFF000000FF50
:104D8000FFFFFFFFFFFFFFFFFFFFFFC1C1C0C1C16A
:104D9000C1F3F7F7FFFFFFFFFFFFFFFFFFFF00007B
:104DA00000FFFFFFFFFFFFFFFFFF000000E0E0E06C
:104DB000F8FCFCFFFFFFFFFFFFFFFFFFEFE3E3F364
:104DC000FFFFFFFFFFFFFFFFFFFCFCFCE0E0C080F8
:104DD0008080C0C0C0C0C0C0C08080800000000013
:104DE00000000000000000000000000000000003C0
:104DF0000303030303030303030303000000000092
:104E00000000000000030303030303030303030381
:104E10000300000000000003030303030303030374
:104E2000030303030303030101000000000000006B
:104E30000000030303030303030303030000000351
:104E40000303030303030303030303030303030332
:104E5000030303030303030303030301010100002E
:104E60000003030303030303030303030303030315
:104E7000030303030303030101000000000000001B
:104E800000000001010303030303030303030303FF
:104E900003030707070707070703030100000000D4
:104EA0000000000000000000000000000000000002
:104EB0003F400000000000000000300040003000D3
:104EC0004000000009000BC03D000BC03D00090080
:104ED00018C024407FE0224031800000180024C028
:104EE0001B000D803240018003801C4027401C8045
:104EF00007400040100060000000000000000000BB
:104F00000000000000001F802040402000004020E2
:104F100020401F8000000000090006001F800600DE
:104F200009000000040004003F80040004000000A9
:104F300000100060000000000000000004000400F9
:104F40000400040004000000000000400000000015
:104F500000000000002001C00600380040000000F2
:104F60001F802040204020401F8000000000104093
:104F70003FC000400000000018C0214022402440F3
:104F80001840000010802040244024401B80000076
:104F900002000D0011003FC0014000003C80244091
:104FA00024402440238000001F80244024403440BB
:104FB000038000003000200027C0380020000000DF
:104FC0001B802440244024401B8000001C0022C081
:104FD000224022401F800000000000000840000026
:104FE000000000000000000004600000000000005D
:104FF000000004000A001100208040400900090060
:105000000900090009000000000040402080110054
:105010000A000400180020002340240018000000AB
:105020001F802040274029401F400000004007C04B
:1050300039000F0001C0004020403FC02440244000
:105040001B8000001F802040204020403080000056
:1050500020403FC0204020401F80000020403FC033
:1050600024402E4030C0000020403FC024402E008D
:10507000300000000F0010802040224033800200EA
:1050800020403FC0040004003FC02040204020409A
:105090003FC02040204000000060202020203FC072
:1050A0002000200020403FC024400B0030C02040A2
:1050B00020403FC020400040004000C03FC03C00B6
:1050C00003C03C003FC0000020403FC00C40230014
:1050D0003FC020001F802040204020401F80000053
:1050E00020403FC024402400180000001F802140C1
:1050F000214020E01FA0000020403FC024402600A7
:1051000019C0004018C024402440224031800000D3
:10511000300020403FC020403000000020003F8091
:10512000004000403F80200020003E0001C00700FA
:1051300038002000380007C03C0007C038000000DD
:10514000204039C0060039C020400000200038400F
:1051500007C0384020000000304021C026403840C1
:1051600020C00000000000007FE040204020000040
:10517000000070000C000380004000000000402090
:1051800040207FE0000000000000200040002000E0
:1051900000000000001000100010001000100010AF
:1051A000000000004000000000000000000002803D
:1051B0000540054003C0004020003FC004400440BB
:1051C000038000000000038004400440064000000B
:1051D00000000380044024403FC0004000000380E2
:1051E0000540054003400000000004401FC024406B
:1051F00024402000000002E0055005500650042025
:1052000020403FC00440040003C0004000000440B0
:1052100027C000400000000000100010041027E02C
:105220000000000020403FC00140070004C00440CF
:10523000204020403FC000400040000007C0040064
:1052400007C0040003C00000044007C0044004007D
:1052500003C00040000003800440044003800000BD
:10526000041007F004500440038000000000038095
:105270000440045007F00010044007C0024004003E
:1052800004000000000006400540054004C0000086
:10529000000004001F80044000400000040007805C
:1052A0000040044007C000400400070004C0018023
:1052B00006000400060001C0070001C0060000004F
:1052C000044006C0010006C004400000041007109E
:1052D00004E00180060004000000044005C0064010
:1052E000044000000000000004007BE040200000BB
:1052F000000000000000FFF000000000000040205F
:105300007BE004000000000040008000400020001E
:10531000200040000000000000000000000000002D
:10532000000000000000000000001FCC000C000086
:10533000000000000000080030006000080030009D
:1053400060000000022003FC1E20022003FC1E203F
:105350000220000000000E1811043FFF10840C789A
:10536000000000000F0010840F3800C00778188478
:105370000078000000780F8410C411240E9800E417
:1053800000840008080068007000000000000000B1
:105390000000000000000000000007E018182004D2
:1053A00040020000000040022004181807E000003E
:1053B000000000000240024001800FF00180024026
:1053C000024000000080008000800FF80080008014
:1053D000008000000001000D000E00000000000031
:1053E000000000000000008000800080008000803D
:1053F000008000800000000C000C00000000000095
:105400000000000000000006001800600180060097
:1054100018002000000007F0080810041004080815
:1054200007F000000000080408041FFC000400044A
:105430000000000000000E0C101410241044118411
:105440000E0C000000000C18100411041104128846
:105450000C700000000000E00320042408241FFC5E
:105460000024000000001F9810841104110410880B
:1054700010700000000007F008881104110418885B
:105480000070000000001C00100010FC13001C0045
:105490001000000000000E381144108410841144E4
:1054A0000E38000000000700088C104410440888E3
:1054B00007F00000000000000000030C030C0000D7
:1054C00000000000000000000001010600000000D4
:1054D00000000000000000800140022004100808C5
:1054E00010040000022002200220022002200220DC
:1054F00002200000000010040808041002200140EF
:105500000080000000000E001200100C106C1080D3
:105510000F00000003E00C1813E4142417C408283B
:1055200007D000000004003C03C41C40074000E416
:10553000001C000410041FFC1104110411040E8847
:105540000070000003E00C18100410041004100890
:105550001C10000010041FFC1004100410040808A4
:1055600007F0000010041FFC1104110417C41004FC
:105570000818000010041FFC1104110017C01000CF
:105580000800000003E00C181004100410441C78FC
:105590000040000010041FFC108400800080108474
:1055A0001FFC10040000100410041FFC1004100461
:1055B0000000000000030001100110011FFE100098
:1055C0001000000010041FFC110403801464181C58
:1055D0001004000010041FFC100400040004000468
:1055E000000C000010041FFC1F0000FC1F001FFC2B
:1055F0001004000010041FFC0C04030000E010184D
:105600001FFC100007F0080810041004100408081C
:1056100007F0000010041FFC108410801080108020
:105620000F00000007F0081810241024101C080AAE
:1056300007F2000010041FFC1104110011C011300A
:105640000E0C000400000E1C110410841084104481
:105650001C3800001800100010041FFC100410007B
:105660001800000010001FF81004000400041004CB
:105670001FF8100010001E0011E0001C00701380C5
:105680001C0010001FC0103C00E01F0000E0103C98
:105690001FC000001004180C163401C001C01634DD
:1056A000180C100410001C00130400FC13041C0050
:1056B000100000000804101C1064108413041C0463
:1056C000101800000000000000007FFE40024002B1
:1056D00040020000000030000C0003800060001C4D
:1056E0000003000000004002400240027FFE000074
:1056F00000000000000000002000400040004000CA
:105700002000000000010001000100010001000173
:1057100000010001000040004000200000000000E7
:1057200000000000000000980124014401440144ED
:1057300000FC000410001FFC008801040104008824
:1057400000700000000000700088010401040104E2
:1057500000880000000000700088010401041108A6
:105760001FFC0004000000F801440144014401440E
:1057700000C800000000010401040FFC1104110422
:1057800011001800000000D601290129012901C9D2
:105790000106000010041FFC008401000100010448
:1057A00000FC000400000104190419FC00040004BA
:1057B000000000000000000300010101190119FEB2
:1057C0000000000010041FFC0024004001B4010C84
:1057D000010400000000100410041FFC0004000479
:1057E00000000000010401FC0104010001FC0104AF
:1057F000010000FC010401FC00840100010001041F
:1058000000FC0004000000F801040104010401048C
:1058100000F80000010101FF008501040104008877
:105820000070000000000070008801040104010500
:1058300001FF00010104010401FC008401040100D6
:1058400001800000000000CC012401240124012477
:105850000198000000000100010007F801040104A4
:1058600000000000010001F8000400040004010829
:1058700001FC0004010001800170000C00100160B7
:105880000180010001F0010C003001C00030010C6A
:1058900001F0010000000104018C00740170018C12
:1058A00001040000010101810171000E0018016076
:1058B0000180010000000184010C013401440184D5
:1058C000010C0000000000000000000001003EFC90
:1058D000400240020000000000000000FFFF000046
:1058E000000000000000400240023EFC01000000F9
:1058F00000000000000060008000800040004000C8
:105900002000200000000000000000000000000057
:105910000000000000000000000000000000000087
:105920000000000000000000000000000000000077
:10593000000000000000000F80380FFE380F803894
:105940000000000000000000000000000000000057
:1059500000000100000600000C00003800003100CB
:10596000000600000C0000380000300000000000BD
:105970000000000061800067F807F9800061800086
:1059800061800061800061800067F807F980006134
:105990008000000000000000000001C0E003E0F013
:1059A0000630080418081FFFFE040E080787F003DE
:1059B00081E000000000000001F000060C0004047B
:1059C00008060C7001F9C0000E00003BE000EC1866
:1059D000070808040C180003E00000000001E000C4
:1059E00007F003F818041C0804170807E1D003C0E7
:1059F000E00023B0003C0800200800001000000078
:105A00000000000100003100003200001C00000016
:105A10000000000000000000000000000000000086
:105A20000000000000000000000000000000000076
:105A3000000000007F0001FFC00780F00C0018107C
:105A400000042000020000000000002000021000FE
:105A5000040C00180780F001FFC0007F0000000068
:105A60000000000000000000000000000000000036
:105A70004200006600006600003C0000180003FFC2
:105A8000C0001800003C00006600006600004200F4
:105A900000000000080000080000080000080000E6
:105AA000080001FFC000080000080000080000080E
:105AB000000008000000000000010000310000327A
:105AC00000001C00000000000000000000000000BA
:105AD00000000000000000000000000008000008B6
